{
  "address": "0x398E4948e373Db819606A459456176D31C3B1F91",
  "abi": [
    {
      "anonymous": false,
      "inputs": [
        {
          "indexed": false,
          "internalType": "uint8",
          "name": "version",
          "type": "uint8"
        }
      ],
      "name": "Initialized",
      "type": "event"
    },
    {
      "anonymous": false,
      "inputs": [
        {
          "indexed": true,
          "internalType": "address",
          "name": "creator",
          "type": "address"
        },
        {
          "indexed": true,
          "internalType": "address",
          "name": "nftContractAddress",
          "type": "address"
        },
        {
          "indexed": true,
          "internalType": "uint256",
          "name": "nftId",
          "type": "uint256"
        },
        {
          "components": [
            {
              "internalType": "address",
              "name": "creator",
              "type": "address"
            },
            {
              "internalType": "uint32",
              "name": "duration",
              "type": "uint32"
            },
            {
              "internalType": "uint32",
              "name": "expiration",
              "type": "uint32"
            },
            {
              "internalType": "bool",
              "name": "fixedTerms",
              "type": "bool"
            },
            {
              "internalType": "bool",
              "name": "floorTerm",
              "type": "bool"
            },
            {
              "internalType": "bool",
              "name": "lenderOffer",
              "type": "bool"
            },
            {
              "internalType": "address",
              "name": "nftContractAddress",
              "type": "address"
            },
            {
              "internalType": "uint256",
              "name": "nftId",
              "type": "uint256"
            },
            {
              "internalType": "address",
              "name": "asset",
              "type": "address"
            },
            {
              "internalType": "uint128",
              "name": "amount",
              "type": "uint128"
            },
            {
              "internalType": "uint96",
              "name": "interestRatePerSecond",
              "type": "uint96"
            },
            {
              "internalType": "uint64",
              "name": "floorTermLimit",
              "type": "uint64"
            }
          ],
          "indexed": false,
          "internalType": "struct IOffersStructs.Offer",
          "name": "offer",
          "type": "tuple"
        },
        {
          "indexed": false,
          "internalType": "bytes32",
          "name": "offerHash",
          "type": "bytes32"
        }
      ],
      "name": "NewOffer",
      "type": "event"
    },
    {
      "anonymous": false,
      "inputs": [
        {
          "indexed": true,
          "internalType": "address",
          "name": "creator",
          "type": "address"
        },
        {
          "indexed": true,
          "internalType": "address",
          "name": "nftContractAddress",
          "type": "address"
        },
        {
          "indexed": true,
          "internalType": "uint256",
          "name": "nftId",
          "type": "uint256"
        },
        {
          "components": [
            {
              "internalType": "address",
              "name": "creator",
              "type": "address"
            },
            {
              "internalType": "uint32",
              "name": "duration",
              "type": "uint32"
            },
            {
              "internalType": "uint32",
              "name": "expiration",
              "type": "uint32"
            },
            {
              "internalType": "bool",
              "name": "fixedTerms",
              "type": "bool"
            },
            {
              "internalType": "bool",
              "name": "floorTerm",
              "type": "bool"
            },
            {
              "internalType": "bool",
              "name": "lenderOffer",
              "type": "bool"
            },
            {
              "internalType": "address",
              "name": "nftContractAddress",
              "type": "address"
            },
            {
              "internalType": "uint256",
              "name": "nftId",
              "type": "uint256"
            },
            {
              "internalType": "address",
              "name": "asset",
              "type": "address"
            },
            {
              "internalType": "uint128",
              "name": "amount",
              "type": "uint128"
            },
            {
              "internalType": "uint96",
              "name": "interestRatePerSecond",
              "type": "uint96"
            },
            {
              "internalType": "uint64",
              "name": "floorTermLimit",
              "type": "uint64"
            }
          ],
          "indexed": false,
          "internalType": "struct IOffersStructs.Offer",
          "name": "offer",
          "type": "tuple"
        },
        {
          "indexed": false,
          "internalType": "bytes32",
          "name": "offerHash",
          "type": "bytes32"
        }
      ],
      "name": "OfferRemoved",
      "type": "event"
    },
    {
      "anonymous": false,
      "inputs": [
        {
          "indexed": true,
          "internalType": "address",
          "name": "nftContractAddress",
          "type": "address"
        },
        {
          "indexed": true,
          "internalType": "uint256",
          "name": "nftId",
          "type": "uint256"
        },
        {
          "components": [
            {
              "internalType": "address",
              "name": "creator",
              "type": "address"
            },
            {
              "internalType": "uint32",
              "name": "duration",
              "type": "uint32"
            },
            {
              "internalType": "uint32",
              "name": "expiration",
              "type": "uint32"
            },
            {
              "internalType": "bool",
              "name": "fixedTerms",
              "type": "bool"
            },
            {
              "internalType": "bool",
              "name": "floorTerm",
              "type": "bool"
            },
            {
              "internalType": "bool",
              "name": "lenderOffer",
              "type": "bool"
            },
            {
              "internalType": "address",
              "name": "nftContractAddress",
              "type": "address"
            },
            {
              "internalType": "uint256",
              "name": "nftId",
              "type": "uint256"
            },
            {
              "internalType": "address",
              "name": "asset",
              "type": "address"
            },
            {
              "internalType": "uint128",
              "name": "amount",
              "type": "uint128"
            },
            {
              "internalType": "uint96",
              "name": "interestRatePerSecond",
              "type": "uint96"
            },
            {
              "internalType": "uint64",
              "name": "floorTermLimit",
              "type": "uint64"
            }
          ],
          "indexed": false,
          "internalType": "struct IOffersStructs.Offer",
          "name": "offer",
          "type": "tuple"
        },
        {
          "indexed": false,
          "internalType": "bytes",
          "name": "signature",
          "type": "bytes"
        }
      ],
      "name": "OfferSignatureUsed",
      "type": "event"
    },
    {
      "anonymous": false,
      "inputs": [
        {
          "indexed": false,
          "internalType": "address",
          "name": "oldLendingContractAddress",
          "type": "address"
        },
        {
          "indexed": false,
          "internalType": "address",
          "name": "newLendingContractAddress",
          "type": "address"
        }
      ],
      "name": "OffersXLendingContractAddressUpdated",
      "type": "event"
    },
    {
      "anonymous": false,
      "inputs": [
        {
          "indexed": false,
          "internalType": "address",
          "name": "oldSigLendingContractAddress",
          "type": "address"
        },
        {
          "indexed": false,
          "internalType": "address",
          "name": "newSigLendingContractAddress",
          "type": "address"
        }
      ],
      "name": "OffersXSigLendingContractAddressUpdated",
      "type": "event"
    },
    {
      "anonymous": false,
      "inputs": [
        {
          "indexed": true,
          "internalType": "address",
          "name": "previousOwner",
          "type": "address"
        },
        {
          "indexed": true,
          "internalType": "address",
          "name": "newOwner",
          "type": "address"
        }
      ],
      "name": "OwnershipTransferred",
      "type": "event"
    },
    {
      "anonymous": false,
      "inputs": [
        {
          "indexed": false,
          "internalType": "address",
          "name": "account",
          "type": "address"
        }
      ],
      "name": "Paused",
      "type": "event"
    },
    {
      "anonymous": false,
      "inputs": [
        {
          "indexed": false,
          "internalType": "address",
          "name": "account",
          "type": "address"
        }
      ],
      "name": "Unpaused",
      "type": "event"
    },
    {
      "inputs": [
        {
          "components": [
            {
              "internalType": "address",
              "name": "creator",
              "type": "address"
            },
            {
              "internalType": "uint32",
              "name": "duration",
              "type": "uint32"
            },
            {
              "internalType": "uint32",
              "name": "expiration",
              "type": "uint32"
            },
            {
              "internalType": "bool",
              "name": "fixedTerms",
              "type": "bool"
            },
            {
              "internalType": "bool",
              "name": "floorTerm",
              "type": "bool"
            },
            {
              "internalType": "bool",
              "name": "lenderOffer",
              "type": "bool"
            },
            {
              "internalType": "address",
              "name": "nftContractAddress",
              "type": "address"
            },
            {
              "internalType": "uint256",
              "name": "nftId",
              "type": "uint256"
            },
            {
              "internalType": "address",
              "name": "asset",
              "type": "address"
            },
            {
              "internalType": "uint128",
              "name": "amount",
              "type": "uint128"
            },
            {
              "internalType": "uint96",
              "name": "interestRatePerSecond",
              "type": "uint96"
            },
            {
              "internalType": "uint64",
              "name": "floorTermLimit",
              "type": "uint64"
            }
          ],
          "internalType": "struct IOffersStructs.Offer",
          "name": "offer",
          "type": "tuple"
        }
      ],
      "name": "createOffer",
      "outputs": [
        {
          "internalType": "bytes32",
          "name": "offerHash",
          "type": "bytes32"
        }
      ],
      "stateMutability": "nonpayable",
      "type": "function"
    },
    {
      "inputs": [
        {
          "internalType": "bytes32",
          "name": "offerHash",
          "type": "bytes32"
        }
      ],
      "name": "getFloorOfferCount",
      "outputs": [
        {
          "internalType": "uint64",
          "name": "count",
          "type": "uint64"
        }
      ],
      "stateMutability": "view",
      "type": "function"
    },
    {
      "inputs": [
        {
          "internalType": "address",
          "name": "nftContractAddress",
          "type": "address"
        },
        {
          "internalType": "uint256",
          "name": "nftId",
          "type": "uint256"
        },
        {
          "internalType": "bytes32",
          "name": "offerHash",
          "type": "bytes32"
        },
        {
          "internalType": "bool",
          "name": "floorTerm",
          "type": "bool"
        }
      ],
      "name": "getOffer",
      "outputs": [
        {
          "components": [
            {
              "internalType": "address",
              "name": "creator",
              "type": "address"
            },
            {
              "internalType": "uint32",
              "name": "duration",
              "type": "uint32"
            },
            {
              "internalType": "uint32",
              "name": "expiration",
              "type": "uint32"
            },
            {
              "internalType": "bool",
              "name": "fixedTerms",
              "type": "bool"
            },
            {
              "internalType": "bool",
              "name": "floorTerm",
              "type": "bool"
            },
            {
              "internalType": "bool",
              "name": "lenderOffer",
              "type": "bool"
            },
            {
              "internalType": "address",
              "name": "nftContractAddress",
              "type": "address"
            },
            {
              "internalType": "uint256",
              "name": "nftId",
              "type": "uint256"
            },
            {
              "internalType": "address",
              "name": "asset",
              "type": "address"
            },
            {
              "internalType": "uint128",
              "name": "amount",
              "type": "uint128"
            },
            {
              "internalType": "uint96",
              "name": "interestRatePerSecond",
              "type": "uint96"
            },
            {
              "internalType": "uint64",
              "name": "floorTermLimit",
              "type": "uint64"
            }
          ],
          "internalType": "struct IOffersStructs.Offer",
          "name": "",
          "type": "tuple"
        }
      ],
      "stateMutability": "view",
      "type": "function"
    },
    {
      "inputs": [
        {
          "components": [
            {
              "internalType": "address",
              "name": "creator",
              "type": "address"
            },
            {
              "internalType": "uint32",
              "name": "duration",
              "type": "uint32"
            },
            {
              "internalType": "uint32",
              "name": "expiration",
              "type": "uint32"
            },
            {
              "internalType": "bool",
              "name": "fixedTerms",
              "type": "bool"
            },
            {
              "internalType": "bool",
              "name": "floorTerm",
              "type": "bool"
            },
            {
              "internalType": "bool",
              "name": "lenderOffer",
              "type": "bool"
            },
            {
              "internalType": "address",
              "name": "nftContractAddress",
              "type": "address"
            },
            {
              "internalType": "uint256",
              "name": "nftId",
              "type": "uint256"
            },
            {
              "internalType": "address",
              "name": "asset",
              "type": "address"
            },
            {
              "internalType": "uint128",
              "name": "amount",
              "type": "uint128"
            },
            {
              "internalType": "uint96",
              "name": "interestRatePerSecond",
              "type": "uint96"
            },
            {
              "internalType": "uint64",
              "name": "floorTermLimit",
              "type": "uint64"
            }
          ],
          "internalType": "struct IOffersStructs.Offer",
          "name": "offer",
          "type": "tuple"
        }
      ],
      "name": "getOfferHash",
      "outputs": [
        {
          "internalType": "bytes32",
          "name": "",
          "type": "bytes32"
        }
      ],
      "stateMutability": "view",
      "type": "function"
    },
    {
      "inputs": [
        {
          "internalType": "bytes",
          "name": "signature",
          "type": "bytes"
        }
      ],
      "name": "getOfferSignatureStatus",
      "outputs": [
        {
          "internalType": "bool",
          "name": "",
          "type": "bool"
        }
      ],
      "stateMutability": "view",
      "type": "function"
    },
    {
      "inputs": [
        {
          "components": [
            {
              "internalType": "address",
              "name": "creator",
              "type": "address"
            },
            {
              "internalType": "uint32",
              "name": "duration",
              "type": "uint32"
            },
            {
              "internalType": "uint32",
              "name": "expiration",
              "type": "uint32"
            },
            {
              "internalType": "bool",
              "name": "fixedTerms",
              "type": "bool"
            },
            {
              "internalType": "bool",
              "name": "floorTerm",
              "type": "bool"
            },
            {
              "internalType": "bool",
              "name": "lenderOffer",
              "type": "bool"
            },
            {
              "internalType": "address",
              "name": "nftContractAddress",
              "type": "address"
            },
            {
              "internalType": "uint256",
              "name": "nftId",
              "type": "uint256"
            },
            {
              "internalType": "address",
              "name": "asset",
              "type": "address"
            },
            {
              "internalType": "uint128",
              "name": "amount",
              "type": "uint128"
            },
            {
              "internalType": "uint96",
              "name": "interestRatePerSecond",
              "type": "uint96"
            },
            {
              "internalType": "uint64",
              "name": "floorTermLimit",
              "type": "uint64"
            }
          ],
          "internalType": "struct IOffersStructs.Offer",
          "name": "offer",
          "type": "tuple"
        },
        {
          "internalType": "bytes",
          "name": "signature",
          "type": "bytes"
        }
      ],
      "name": "getOfferSigner",
      "outputs": [
        {
          "internalType": "address",
          "name": "",
          "type": "address"
        }
      ],
      "stateMutability": "view",
      "type": "function"
    },
    {
      "inputs": [
        {
          "internalType": "bytes",
          "name": "signature",
          "type": "bytes"
        }
      ],
      "name": "getSigFloorOfferCount",
      "outputs": [
        {
          "internalType": "uint64",
          "name": "count",
          "type": "uint64"
        }
      ],
      "stateMutability": "view",
      "type": "function"
    },
    {
      "inputs": [
        {
          "internalType": "bytes32",
          "name": "offerHash",
          "type": "bytes32"
        }
      ],
      "name": "incrementFloorOfferCount",
      "outputs": [],
      "stateMutability": "nonpayable",
      "type": "function"
    },
    {
      "inputs": [
        {
          "internalType": "bytes",
          "name": "signature",
          "type": "bytes"
        }
      ],
      "name": "incrementSigFloorOfferCount",
      "outputs": [],
      "stateMutability": "nonpayable",
      "type": "function"
    },
    {
      "inputs": [
        {
          "internalType": "address",
          "name": "newliquidityContractAddress",
          "type": "address"
        }
      ],
      "name": "initialize",
      "outputs": [],
      "stateMutability": "nonpayable",
      "type": "function"
    },
    {
      "inputs": [],
      "name": "lendingContractAddress",
      "outputs": [
        {
          "internalType": "address",
          "name": "",
          "type": "address"
        }
      ],
      "stateMutability": "view",
      "type": "function"
    },
    {
      "inputs": [],
      "name": "liquidityContractAddress",
      "outputs": [
        {
          "internalType": "address",
          "name": "",
          "type": "address"
        }
      ],
      "stateMutability": "view",
      "type": "function"
    },
    {
      "inputs": [
        {
          "components": [
            {
              "internalType": "address",
              "name": "creator",
              "type": "address"
            },
            {
              "internalType": "uint32",
              "name": "duration",
              "type": "uint32"
            },
            {
              "internalType": "uint32",
              "name": "expiration",
              "type": "uint32"
            },
            {
              "internalType": "bool",
              "name": "fixedTerms",
              "type": "bool"
            },
            {
              "internalType": "bool",
              "name": "floorTerm",
              "type": "bool"
            },
            {
              "internalType": "bool",
              "name": "lenderOffer",
              "type": "bool"
            },
            {
              "internalType": "address",
              "name": "nftContractAddress",
              "type": "address"
            },
            {
              "internalType": "uint256",
              "name": "nftId",
              "type": "uint256"
            },
            {
              "internalType": "address",
              "name": "asset",
              "type": "address"
            },
            {
              "internalType": "uint128",
              "name": "amount",
              "type": "uint128"
            },
            {
              "internalType": "uint96",
              "name": "interestRatePerSecond",
              "type": "uint96"
            },
            {
              "internalType": "uint64",
              "name": "floorTermLimit",
              "type": "uint64"
            }
          ],
          "internalType": "struct IOffersStructs.Offer",
          "name": "offer",
          "type": "tuple"
        },
        {
          "internalType": "bytes",
          "name": "signature",
          "type": "bytes"
        }
      ],
      "name": "markSignatureUsed",
      "outputs": [],
      "stateMutability": "nonpayable",
      "type": "function"
    },
    {
      "inputs": [],
      "name": "owner",
      "outputs": [
        {
          "internalType": "address",
          "name": "",
          "type": "address"
        }
      ],
      "stateMutability": "view",
      "type": "function"
    },
    {
      "inputs": [],
      "name": "pause",
      "outputs": [],
      "stateMutability": "nonpayable",
      "type": "function"
    },
    {
      "inputs": [],
      "name": "paused",
      "outputs": [
        {
          "internalType": "bool",
          "name": "",
          "type": "bool"
        }
      ],
      "stateMutability": "view",
      "type": "function"
    },
    {
      "inputs": [
        {
          "internalType": "address",
          "name": "nftContractAddress",
          "type": "address"
        },
        {
          "internalType": "uint256",
          "name": "nftId",
          "type": "uint256"
        },
        {
          "internalType": "bytes32",
          "name": "offerHash",
          "type": "bytes32"
        },
        {
          "internalType": "bool",
          "name": "floorTerm",
          "type": "bool"
        }
      ],
      "name": "removeOffer",
      "outputs": [],
      "stateMutability": "nonpayable",
      "type": "function"
    },
    {
      "inputs": [],
      "name": "renounceOwnership",
      "outputs": [],
      "stateMutability": "nonpayable",
      "type": "function"
    },
    {
      "inputs": [
        {
          "internalType": "bytes",
          "name": "signature",
          "type": "bytes"
        }
      ],
      "name": "requireAvailableSignature",
      "outputs": [],
      "stateMutability": "view",
      "type": "function"
    },
    {
      "inputs": [
        {
          "components": [
            {
              "internalType": "address",
              "name": "creator",
              "type": "address"
            },
            {
              "internalType": "uint32",
              "name": "duration",
              "type": "uint32"
            },
            {
              "internalType": "uint32",
              "name": "expiration",
              "type": "uint32"
            },
            {
              "internalType": "bool",
              "name": "fixedTerms",
              "type": "bool"
            },
            {
              "internalType": "bool",
              "name": "floorTerm",
              "type": "bool"
            },
            {
              "internalType": "bool",
              "name": "lenderOffer",
              "type": "bool"
            },
            {
              "internalType": "address",
              "name": "nftContractAddress",
              "type": "address"
            },
            {
              "internalType": "uint256",
              "name": "nftId",
              "type": "uint256"
            },
            {
              "internalType": "address",
              "name": "asset",
              "type": "address"
            },
            {
              "internalType": "uint128",
              "name": "amount",
              "type": "uint128"
            },
            {
              "internalType": "uint96",
              "name": "interestRatePerSecond",
              "type": "uint96"
            },
            {
              "internalType": "uint64",
              "name": "floorTermLimit",
              "type": "uint64"
            }
          ],
          "internalType": "struct IOffersStructs.Offer",
          "name": "offer",
          "type": "tuple"
        }
      ],
      "name": "requireMinimumDuration",
      "outputs": [],
      "stateMutability": "pure",
      "type": "function"
    },
    {
      "inputs": [
        {
          "components": [
            {
              "internalType": "address",
              "name": "creator",
              "type": "address"
            },
            {
              "internalType": "uint32",
              "name": "duration",
              "type": "uint32"
            },
            {
              "internalType": "uint32",
              "name": "expiration",
              "type": "uint32"
            },
            {
              "internalType": "bool",
              "name": "fixedTerms",
              "type": "bool"
            },
            {
              "internalType": "bool",
              "name": "floorTerm",
              "type": "bool"
            },
            {
              "internalType": "bool",
              "name": "lenderOffer",
              "type": "bool"
            },
            {
              "internalType": "address",
              "name": "nftContractAddress",
              "type": "address"
            },
            {
              "internalType": "uint256",
              "name": "nftId",
              "type": "uint256"
            },
            {
              "internalType": "address",
              "name": "asset",
              "type": "address"
            },
            {
              "internalType": "uint128",
              "name": "amount",
              "type": "uint128"
            },
            {
              "internalType": "uint96",
              "name": "interestRatePerSecond",
              "type": "uint96"
            },
            {
              "internalType": "uint64",
              "name": "floorTermLimit",
              "type": "uint64"
            }
          ],
          "internalType": "struct IOffersStructs.Offer",
          "name": "offer",
          "type": "tuple"
        }
      ],
      "name": "requireNoFloorTerms",
      "outputs": [],
      "stateMutability": "pure",
      "type": "function"
    },
    {
      "inputs": [
        {
          "internalType": "bytes",
          "name": "signature",
          "type": "bytes"
        }
      ],
      "name": "requireSignature65",
      "outputs": [],
      "stateMutability": "pure",
      "type": "function"
    },
    {
      "inputs": [],
      "name": "sigLendingContractAddress",
      "outputs": [
        {
          "internalType": "address",
          "name": "",
          "type": "address"
        }
      ],
      "stateMutability": "view",
      "type": "function"
    },
    {
      "inputs": [
        {
          "internalType": "address",
          "name": "newOwner",
          "type": "address"
        }
      ],
      "name": "transferOwnership",
      "outputs": [],
      "stateMutability": "nonpayable",
      "type": "function"
    },
    {
      "inputs": [],
      "name": "unpause",
      "outputs": [],
      "stateMutability": "nonpayable",
      "type": "function"
    },
    {
      "inputs": [
        {
          "internalType": "address",
          "name": "newLendingContractAddress",
          "type": "address"
        }
      ],
      "name": "updateLendingContractAddress",
      "outputs": [],
      "stateMutability": "nonpayable",
      "type": "function"
    },
    {
      "inputs": [
        {
          "internalType": "address",
          "name": "newSigLendingContractAddress",
          "type": "address"
        }
      ],
      "name": "updateSigLendingContractAddress",
      "outputs": [],
      "stateMutability": "nonpayable",
      "type": "function"
    },
    {
      "inputs": [
        {
          "components": [
            {
              "internalType": "address",
              "name": "creator",
              "type": "address"
            },
            {
              "internalType": "uint32",
              "name": "duration",
              "type": "uint32"
            },
            {
              "internalType": "uint32",
              "name": "expiration",
              "type": "uint32"
            },
            {
              "internalType": "bool",
              "name": "fixedTerms",
              "type": "bool"
            },
            {
              "internalType": "bool",
              "name": "floorTerm",
              "type": "bool"
            },
            {
              "internalType": "bool",
              "name": "lenderOffer",
              "type": "bool"
            },
            {
              "internalType": "address",
              "name": "nftContractAddress",
              "type": "address"
            },
            {
              "internalType": "uint256",
              "name": "nftId",
              "type": "uint256"
            },
            {
              "internalType": "address",
              "name": "asset",
              "type": "address"
            },
            {
              "internalType": "uint128",
              "name": "amount",
              "type": "uint128"
            },
            {
              "internalType": "uint96",
              "name": "interestRatePerSecond",
              "type": "uint96"
            },
            {
              "internalType": "uint64",
              "name": "floorTermLimit",
              "type": "uint64"
            }
          ],
          "internalType": "struct IOffersStructs.Offer",
          "name": "offer",
          "type": "tuple"
        },
        {
          "internalType": "bytes",
          "name": "signature",
          "type": "bytes"
        }
      ],
      "name": "withdrawOfferSignature",
      "outputs": [],
      "stateMutability": "nonpayable",
      "type": "function"
    }
  ],
  "transactionHash": "0x532ec561d3743177746c88928531b0131445f52ad32345e178d4580d7317322a",
  "args": [],
  "numDeployments": 1,
  "solcInputHash": "aeb5d2d2b58fd6538f2f06644a83b2e5",
  "bytecode": "0x608060405234801561001057600080fd5b5061257a806100206000396000f3fe608060405234801561001057600080fd5b50600436106101c45760003560e01c8063addbfc83116100f9578063d61860d511610097578063f06bf5c011610071578063f06bf5c0146103c8578063f2fde38b146103f1578063f745dbfa14610404578063f8a63e3f1461041757600080fd5b8063d61860d51461038f578063d82bae98146103a2578063e6c8d754146103b557600080fd5b8063c4d66de8116100d3578063c4d66de81461032b578063cb9438531461033e578063cba1fcea14610369578063ce37145e1461037c57600080fd5b8063addbfc83146102d7578063b0b91edb146102f7578063b74a612b1461030a57600080fd5b80635cc9be431161016657806380df77201161014057806380df7720146102985780638456cb59146102ab5780638da5cb5b146102b35780638dbf0d8a146102c457600080fd5b80635cc9be4314610252578063715018a6146102655780637379dbe61461026d57600080fd5b80632dfb866c116101a25780632dfb866c1461021957806337ccb9111461022c5780633f4ba83a1461023f5780635c975abb1461024757600080fd5b80631a70dbda146101c957806320c2aced146101f157806326d791bd14610206575b600080fd5b6101dc6101d7366004611d9f565b61042a565b60405190151581526020015b60405180910390f35b6102046101ff366004611f42565b610455565b005b610204610214366004611f5f565b6104a2565b610204610227366004611f42565b610573565b61020461023a366004611f83565b6105ad565b610204610615565b60655460ff166101dc565b610204610260366004611fd3565b610649565b6102046106a0565b60d054610280906001600160a01b031681565b6040516001600160a01b0390911681526020016101e8565b6102806102a6366004611f83565b6106ca565b6102046106e7565b6033546001600160a01b0316610280565b6102046102d2366004611d9f565b610719565b6102ea6102e5366004611fec565b610752565b6040516101e89190612133565b610204610305366004611f5f565b61089c565b61031d610318366004611f42565b61096d565b6040519081526020016101e8565b610204610339366004611f5f565b610a0a565b61035161034c366004611d9f565b610af2565b6040516001600160401b0390911681526020016101e8565b60d254610280906001600160a01b031681565b60d154610280906001600160a01b031681565b61031d61039d366004611f42565b610b23565b6102046103b0366004611d9f565b610ea4565b6102046103c3366004611fec565b610ee6565b6103516103d6366004611fd3565b600090815260cd60205260409020546001600160401b031690565b6102046103ff366004611f5f565b610ffb565b610204610412366004611d9f565b611093565b610204610425366004611f83565b6110eb565b600060cf8260405161043c919061216e565b9081526040519081900360200190205460ff1692915050565b62015180816020015163ffffffff16101561049f5760405162461bcd60e51b8152602060048201526005602482015264303030313160d81b60448201526064015b60405180910390fd5b50565b6033546001600160a01b031633146104cc5760405162461bcd60e51b81526004016104969061218a565b6001600160a01b03811661050a5760405162461bcd60e51b8152602060048201526005602482015264303030333560d81b6044820152606401610496565b60d054604080516001600160a01b03928316815291831660208301527f37a94c3b93d4581245e44c30004dd628362c429495a7b8b95fb1085abc05d0e2910160405180910390a160d080546001600160a01b0319166001600160a01b0392909216919091179055565b80608001511561049f5760405162461bcd60e51b81526020600482015260056024820152640c0c0c0c4d60da1b6044820152606401610496565b60655460ff16156105d05760405162461bcd60e51b8152600401610496906121bf565b6105d981611093565b6105e281610719565b60006105ee83836106ca565b90506105fa8133611137565b82516106069033611180565b61061083836111b1565b505050565b6033546001600160a01b0316331461063f5760405162461bcd60e51b81526004016104969061218a565b610647611238565b565b6106516112cb565b600081815260cd602052604081208054600192906106799084906001600160401b03166121ff565b92506101000a8154816001600160401b0302191690836001600160401b0316021790555050565b6033546001600160a01b031633146106475760405162461bcd60e51b81526004016104969061218a565b60006106de6106d88461096d565b836112f5565b90505b92915050565b6033546001600160a01b031633146107115760405162461bcd60e51b81526004016104969061218a565b610647611301565b805160411461049f5760405162461bcd60e51b8152602060048201526005602482015264303030303360d81b6044820152606401610496565b6040805161018081018252600080825260208201819052918101829052606081018290526080810182905260a0810182905260c0810182905260e081018290526101008101829052610120810182905261014081018290526101608101919091526107bf85858585611359565b604080516101808101825282546001600160a01b03808216835263ffffffff600160a01b830481166020850152600160c01b8304169383019390935260ff600160e01b8204811615156060840152600160e81b8204811615156080840152600160f01b90910416151560a08201526001830154821660c0820152600283015460e0820152600383015490911661010082015260048201546001600160801b0381166101208301526001600160601b03600160801b909104166101408201526005909101546001600160401b03166101608201529050949350505050565b6033546001600160a01b031633146108c65760405162461bcd60e51b81526004016104969061218a565b6001600160a01b0381166109045760405162461bcd60e51b8152602060048201526005602482015264303030333560d81b6044820152606401610496565b60d154604080516001600160a01b03928316815291831660208301527ff68a1b67a65b6f163051a6e112e9cf9d0459f4a510ec5db5fe4b12aa52926770910160405180910390a160d180546001600160a01b0319166001600160a01b0392909216919091179055565b60006106e17f1aa447c4698867fd4d8771498b0eca50958fef11dfb5fa327aa0ac1366f492ce836000015184602001518560400151866060015187608001518860a001518960c001518a60e001518b61010001518c61012001518d61014001518e61016001516040516020016109ef9d9c9b9a9998979695949392919061222a565b6040516020818303038152906040528051906020012061137a565b6000610a1660016113c8565b90508015610a2e576000805461ff0019166101001790555b610a7d6040518060400160405280601081526020016f4e69667479417065735f4f666665727360801b81525060405180604001604052806005815260200164302e302e3160d81b815250611455565b60d280546001600160a01b0319166001600160a01b038416179055610aa0611486565b610aa86114b5565b8015610aee576000805461ff0019169055604051600181527f7f26b83ff96e1f2b6a682f133852f6798a09c465da95921460cefb38474024989060200160405180910390a15b5050565b600060ce82604051610b04919061216e565b908152604051908190036020019020546001600160401b031692915050565b6000610b3160655460ff1690565b15610b4e5760405162461bcd60e51b8152600401610496906121bf565b60d254610100830151604051630b42978d60e31b81526001600160a01b0391821660048201526000929190911690635a14bc6890602401602060405180830381865afa158015610ba2573d6000803e3d6000fd5b505050506040513d601f19601f82011682018060405250810190610bc691906122db565b9050610bd1836114e4565b610bda83610455565b8251610be69033611180565b8260a0015115610c9e5760d2546101008401516101208501516040516305ab14fb60e11b81526000936001600160a01b031692630b5629f692610c48926004016001600160a01b039290921682526001600160801b0316602082015260400190565b6020604051808303816000875af1158015610c67573d6000803e3d6000fd5b505050506040513d601f19601f82011682018060405250810190610c8b91906122f8565b9050610c98338383611533565b50610cba565b610cb18360c001518460e00151336115df565b610cba83610573565b6000610cd38460c001518560e00151866080015161168b565b9050610cde8461096d565b600081815260208390526040902054909350610d02906001600160a01b03166116db565b6000838152602082815260409182902086518154928801518885015160608a015160808b015160a08c01516001600160a01b039586166001600160c01b03199098168817600160a01b63ffffffff968716021764ffffffffff60c01b1916600160c01b959094169490940260ff60e01b191692909217600160e01b911515919091021761ffff60e81b1916600160e81b9115159190910260ff60f01b191617600160f01b9115159190910217825560c08801516001830180546001600160a01b031990811692841692831790915560e08a0151600285018190556101008b015160038601805490931694169390931790556101208901516004840180546101408c01516001600160801b039093166001600160e01b031990911617600160801b6001600160601b03909316929092029190911790556101608901516005909301805467ffffffffffffffff19166001600160401b039094169390931790925592519091907fd588864ac37882fd41355269c8dd40ba950c22f41639532fbb2318dfb6f484d090610e959089908990612311565b60405180910390a45050919050565b610eac61171a565b600160ce82604051610ebe919061216e565b90815260405190819003602001902080546000906106799084906001600160401b03166121ff565b60655460ff1615610f095760405162461bcd60e51b8152600401610496906121bf565b6000610f1685858461168b565b6000848152602082905260409020805491925090610f3d906001600160a01b031633611744565b6001810154815460405187926001600160a01b039081169216907f2aa27686d8452478a7f8ca946f883815f979fe03eb7913fb27197843ae5043f690610f869086908a9061232e565b60405180910390a4506000928352602052506040812080546001600160f81b03191681556001810180546001600160a01b031990811690915560028201929092556003810180549092169091556004810180546001600160e01b0319169055600501805467ffffffffffffffff191690555050565b6033546001600160a01b031633146110255760405162461bcd60e51b81526004016104969061218a565b6001600160a01b03811661108a5760405162461bcd60e51b815260206004820152602660248201527f4f776e61626c653a206e6577206f776e657220697320746865207a65726f206160448201526564647265737360d01b6064820152608401610496565b61049f81611787565b60cf816040516110a3919061216e565b9081526040519081900360200190205460ff161561049f5760405162461bcd60e51b8152602060048201526005602482015264181818199960d91b6044820152606401610496565b60d1546001600160a01b0316331461112d5760405162461bcd60e51b8152602060048201526005602482015264303030333160d81b6044820152606401610496565b610aee82826111b1565b806001600160a01b0316826001600160a01b031614610aee5760405162461bcd60e51b8152602060048201526005602482015264303030333360d81b6044820152606401610496565b806001600160a01b0316826001600160a01b031614610aee5760405162461bcd60e51b815260040161049690612417565b600160cf826040516111c3919061216e565b908152602001604051809103902060006101000a81548160ff0219169083151502179055508160e001518260c001516001600160a01b03167fe5bfeefeb2c1ed6ed5d881380ead98a193ef79323322f3a478067cb206ef24c8848460405161122c929190612436565b60405180910390a35050565b60655460ff166112815760405162461bcd60e51b815260206004820152601460248201527314185d5cd8589b194e881b9bdd081c185d5cd95960621b6044820152606401610496565b6065805460ff191690557f5db9ee0a495bf2e6ff9c91a7834c1ba4fdd244a5e8aa4e537bd38aeae4b073aa335b6040516001600160a01b03909116815260200160405180910390a1565b60d0546001600160a01b031633146106475760405162461bcd60e51b815260040161049690612417565b60006106de83836117d9565b60655460ff16156113245760405162461bcd60e51b8152600401610496906121bf565b6065805460ff191660011790557f62e78cea01bee320cd4e420270b5ea74000d11b0c9f74754ebdbfc544b05a2586112ae3390565b600061136685858461168b565b600093845260205250506040902092915050565b60006106e16113876117fd565b8360405161190160f01b6020820152602281018390526042810182905260009060620160405160208183030381529060405280519060200120905092915050565b60008054610100900460ff161561140f578160ff1660011480156113eb5750303b155b6114075760405162461bcd60e51b81526004016104969061247d565b506000919050565b60005460ff8084169116106114365760405162461bcd60e51b81526004016104969061247d565b506000805460ff191660ff92909216919091179055600190565b919050565b600054610100900460ff1661147c5760405162461bcd60e51b8152600401610496906124cb565b610aee828261187d565b600054610100900460ff166114ad5760405162461bcd60e51b8152600401610496906124cb565b6106476118be565b600054610100900460ff166114dc5760405162461bcd60e51b8152600401610496906124cb565b6106476118ee565b6114ed42611921565b63ffffffff16816040015163ffffffff161161049f5760405162461bcd60e51b8152602060048201526005602482015264030303031360dc1b6044820152606401610496565b60d2546040516360275cbf60e11b81526001600160a01b03858116600483015284811660248301528392169063c04eb97e90604401602060405180830381865afa158015611585573d6000803e3d6000fd5b505050506040513d601f19601f820116820180604052508101906115a991906122f8565b10156106105760405162461bcd60e51b81526020600482015260056024820152640c0c0c0ccd60da1b6044820152606401610496565b6040516331a9108f60e11b8152600481018390526001600160a01b038083169190851690636352211e90602401602060405180830381865afa158015611629573d6000803e3d6000fd5b505050506040513d601f19601f8201168201806040525081019061164d91906122db565b6001600160a01b0316146106105760405162461bcd60e51b8152602060048201526005602482015264303030323160d81b6044820152606401610496565b6000816116ba576001600160a01b038416600090815260cb6020908152604080832086845290915290206116d3565b6001600160a01b038416600090815260cc602052604090205b949350505050565b6001600160a01b0381161561049f5760405162461bcd60e51b81526020600482015260056024820152641818181a1b60d91b6044820152606401610496565b60d1546001600160a01b031633146106475760405162461bcd60e51b815260040161049690612417565b60d0546001600160a01b03163314610aee57806001600160a01b0316826001600160a01b031614610aee5760405162461bcd60e51b815260040161049690612417565b603380546001600160a01b038381166001600160a01b0319831681179093556040519116919082907f8be0079c531659141344cd1fd0a4f28419497f9722a3daafe3b4186f6b6457e090600090a35050565b60008060006117e8858561198a565b915091506117f5816119f8565b509392505050565b60006118787f8b73c3c69bb8fe3d512ecc4cf759cc79239f7b179b0ffacaa9a75d522b39400f61182c60975490565b6098546040805160208101859052908101839052606081018290524660808201523060a082015260009060c0016040516020818303038152906040528051906020012090509392505050565b905090565b600054610100900460ff166118a45760405162461bcd60e51b8152600401610496906124cb565b815160209283012081519190920120609791909155609855565b600054610100900460ff166118e55760405162461bcd60e51b8152600401610496906124cb565b61064733611787565b600054610100900460ff166119155760405162461bcd60e51b8152600401610496906124cb565b6065805460ff19169055565b600063ffffffff8211156119865760405162461bcd60e51b815260206004820152602660248201527f53616665436173743a2076616c756520646f65736e27742066697420696e203360448201526532206269747360d01b6064820152608401610496565b5090565b60008082516041036119c05760208301516040840151606085015160001a6119b487828585611bae565b945094505050506119f1565b82516040036119e957602083015160408401516119de868383611c9b565b9350935050506119f1565b506000905060025b9250929050565b6000816004811115611a0c57611a0c612516565b03611a145750565b6001816004811115611a2857611a28612516565b03611a755760405162461bcd60e51b815260206004820152601860248201527f45434453413a20696e76616c6964207369676e617475726500000000000000006044820152606401610496565b6002816004811115611a8957611a89612516565b03611ad65760405162461bcd60e51b815260206004820152601f60248201527f45434453413a20696e76616c6964207369676e6174757265206c656e677468006044820152606401610496565b6003816004811115611aea57611aea612516565b03611b425760405162461bcd60e51b815260206004820152602260248201527f45434453413a20696e76616c6964207369676e6174757265202773272076616c604482015261756560f01b6064820152608401610496565b6004816004811115611b5657611b56612516565b0361049f5760405162461bcd60e51b815260206004820152602260248201527f45434453413a20696e76616c6964207369676e6174757265202776272076616c604482015261756560f01b6064820152608401610496565b6000807f7fffffffffffffffffffffffffffffff5d576e7357a4501ddfe92f46681b20a0831115611be55750600090506003611c92565b8460ff16601b14158015611bfd57508460ff16601c14155b15611c0e5750600090506004611c92565b6040805160008082526020820180845289905260ff881692820192909252606081018690526080810185905260019060a0016020604051602081039080840390855afa158015611c62573d6000803e3d6000fd5b5050604051601f1901519150506001600160a01b038116611c8b57600060019250925050611c92565b9150600090505b94509492505050565b6000806001600160ff1b03831681611cb860ff86901c601b61252c565b9050611cc687828885611bae565b935093505050935093915050565b634e487b7160e01b600052604160045260246000fd5b60405161018081016001600160401b0381118282101715611d0d57611d0d611cd4565b60405290565b600082601f830112611d2457600080fd5b81356001600160401b0380821115611d3e57611d3e611cd4565b604051601f8301601f19908116603f01168101908282118183101715611d6657611d66611cd4565b81604052838152866020858801011115611d7f57600080fd5b836020870160208301376000602085830101528094505050505092915050565b600060208284031215611db157600080fd5b81356001600160401b03811115611dc757600080fd5b6116d384828501611d13565b6001600160a01b038116811461049f57600080fd5b803561145081611dd3565b803563ffffffff8116811461145057600080fd5b8035801515811461145057600080fd5b80356001600160801b038116811461145057600080fd5b80356001600160601b038116811461145057600080fd5b80356001600160401b038116811461145057600080fd5b60006101808284031215611e6f57600080fd5b611e77611cea565b9050611e8282611de8565b8152611e9060208301611df3565b6020820152611ea160408301611df3565b6040820152611eb260608301611e07565b6060820152611ec360808301611e07565b6080820152611ed460a08301611e07565b60a0820152611ee560c08301611de8565b60c082015260e082013560e0820152610100611f02818401611de8565b90820152610120611f14838201611e17565b90820152610140611f26838201611e2e565b90820152610160611f38838201611e45565b9082015292915050565b60006101808284031215611f5557600080fd5b6106de8383611e5c565b600060208284031215611f7157600080fd5b8135611f7c81611dd3565b9392505050565b6000806101a08385031215611f9757600080fd5b611fa18484611e5c565b91506101808301356001600160401b03811115611fbd57600080fd5b611fc985828601611d13565b9150509250929050565b600060208284031215611fe557600080fd5b5035919050565b6000806000806080858703121561200257600080fd5b843561200d81611dd3565b9350602085013592506040850135915061202960608601611e07565b905092959194509250565b80516001600160a01b031682526020810151612058602084018263ffffffff169052565b506040810151612070604084018263ffffffff169052565b506060810151612084606084018215159052565b506080810151612098608084018215159052565b5060a08101516120ac60a084018215159052565b5060c08101516120c760c08401826001600160a01b03169052565b5060e081015160e0830152610100808201516120ed828501826001600160a01b03169052565b5050610120818101516001600160801b031690830152610140808201516001600160601b031690830152610160808201516001600160401b038116828501525b50505050565b61018081016106e18284612034565b60005b8381101561215d578181015183820152602001612145565b8381111561212d5750506000910152565b60008251612180818460208701612142565b9190910192915050565b6020808252818101527f4f776e61626c653a2063616c6c6572206973206e6f7420746865206f776e6572604082015260600190565b60208082526010908201526f14185d5cd8589b194e881c185d5cd95960821b604082015260600190565b634e487b7160e01b600052601160045260246000fd5b60006001600160401b03808316818516808303821115612221576122216121e9565b01949350505050565b8d81526001600160a01b038d16602082015263ffffffff8c811660408301528b166060820152891515608082015288151560a08201526101a0810188151560c08301526001600160a01b03881660e0830152866101008301526122996101208301876001600160a01b03169052565b6001600160801b0385166101408301526001600160601b0384166101608301526001600160401b0383166101808301529e9d5050505050505050505050505050565b6000602082840312156122ed57600080fd5b8151611f7c81611dd3565b60006020828403121561230a57600080fd5b5051919050565b6101a081016123208285612034565b826101808301529392505050565b82546001600160a01b03811682526101a082019063ffffffff60a082901c8116602085015261236a60408501828460c01c1663ffffffff169052565b5061237f6060840160ff8360e01c1615159052565b6123936080840160ff8360e81c1615159052565b6123a760a0840160ff8360f01c1615159052565b5060018401546001600160a01b0390811660c0840152600285015460e084015260038501541661010083015260048401546001600160801b03811661012084015260801c6001600160601b03166101408301526005909301546001600160401b0316610160820152610180015290565b6020808252600590820152640c0c0c0c8d60da1b604082015260600190565b60006101a06124458386612034565b80610180840152835180828501526101c091506124688183860160208801612142565b601f01601f1916929092019091019392505050565b6020808252602e908201527f496e697469616c697a61626c653a20636f6e747261637420697320616c72656160408201526d191e481a5b9a5d1a585b1a5e995960921b606082015260800190565b6020808252602b908201527f496e697469616c697a61626c653a20636f6e7472616374206973206e6f74206960408201526a6e697469616c697a696e6760a81b606082015260800190565b634e487b7160e01b600052602160045260246000fd5b6000821982111561253f5761253f6121e9565b50019056fea26469706673582212200d0cf7cb8c56356ff1d3747860a0344a49d35bd8a7a11135331c6d7f1f1436d464736f6c634300080d0033",
  "devdoc": {
    "author": "captnseagraves (captnseagraves.eth)",
    "custom:contributor": "dankurka0xAlcibiades (alcibiades.eth)zjmiller (zjmiller.eth)",
    "custom:version": "1.0",
    "kind": "dev",
    "methods": {
      "createOffer((address,uint32,uint32,bool,bool,bool,address,uint256,address,uint128,uint96,uint64))": {
        "params": {
          "offer": "The details of offer"
        }
      },
      "getFloorOfferCount(bytes32)": {
        "params": {
          "offerHash": "The hash of all parameters in an offer"
        }
      },
      "getOffer(address,uint256,bytes32,bool)": {
        "params": {
          "floorTerm": "Indicates whether this is a floor or individual NFT offer.",
          "nftContractAddress": "The address of the NFT collection",
          "nftId": "The id of the specified NFT",
          "offerHash": "The hash of all parameters in an offer"
        }
      },
      "getOfferHash((address,uint32,uint32,bool,bool,bool,address,uint256,address,uint128,uint96,uint64))": {
        "params": {
          "offer": "The offer to compute the hash for"
        }
      },
      "getOfferSignatureStatus(bytes)": {
        "params": {
          "signature": "The signature to check"
        }
      },
      "getOfferSigner((address,uint32,uint32,bool,bool,bool,address,uint256,address,uint128,uint96,uint64),bytes)": {
        "params": {
          "offer": "The offer to use for retrieving the signer",
          "signature": "The signature to use for retrieving the signer"
        }
      },
      "getSigFloorOfferCount(bytes)": {
        "params": {
          "signature": "The signature of the floor offer"
        }
      },
      "incrementFloorOfferCount(bytes32)": {
        "params": {
          "offerHash": "The hash of all parameters in an offer"
        }
      },
      "incrementSigFloorOfferCount(bytes)": {
        "params": {
          "signature": "The signature of the floor offer"
        }
      },
      "markSignatureUsed((address,uint32,uint32,bool,bool,bool,address,uint256,address,uint128,uint96,uint64),bytes)": {
        "params": {
          "offer": "The details of the offer",
          "signature": "The signature of the offer"
        }
      },
      "owner()": {
        "details": "Returns the address of the current owner."
      },
      "paused()": {
        "details": "Returns true if the contract is paused, and false otherwise."
      },
      "removeOffer(address,uint256,bytes32,bool)": {
        "params": {
          "floorTerm": "Indicates whether this is a floor or individual NFT offer.",
          "nftContractAddress": "The address of the NFT collection",
          "nftId": "The id of the specified NFT",
          "offerHash": "The hash of all parameters in an offer"
        }
      },
      "renounceOwnership()": {
        "details": "Leaves the contract without owner. It will not be possible to call `onlyOwner` functions anymore. Can only be called by the current owner. NOTE: Renouncing ownership will leave the contract without an owner, thereby removing any functionality that is only available to the owner."
      },
      "requireAvailableSignature(bytes)": {
        "params": {
          "signature": "The signature of the offer"
        }
      },
      "requireMinimumDuration((address,uint32,uint32,bool,bool,bool,address,uint256,address,uint128,uint96,uint64))": {
        "params": {
          "offer": "The details of the offer"
        }
      },
      "requireNoFloorTerms((address,uint32,uint32,bool,bool,bool,address,uint256,address,uint128,uint96,uint64))": {
        "params": {
          "offer": "The details of the offer"
        }
      },
      "requireSignature65(bytes)": {
        "params": {
          "signature": "The signature of the offer"
        }
      },
      "transferOwnership(address)": {
        "details": "Transfers ownership of the contract to a new account (`newOwner`). Can only be called by the current owner."
      },
      "withdrawOfferSignature((address,uint32,uint32,bool,bool,bool,address,uint256,address,uint128,uint96,uint64),bytes)": {
        "params": {
          "offer": "The offer to withdraw",
          "signature": "The signature of the offer"
        }
      }
    },
    "stateVariables": {
      "__gap": {
        "details": "This empty reserved space is put in place to allow future versions to add new variables without shifting storage."
      },
      "_cancelledOrFinalized": {
        "details": "A mapping to mark a signature as used.      The mapping allows users to withdraw offers that they made by signature."
      },
      "_floorOfferBooks": {
        "details": "A mapping for a NFT to a floor offer      Floor offers are different from offers on a specific NFT since they are valid on any NFT fro the same address.      Thus this mapping skips the nftId, see _nftOfferBooks above."
      },
      "_floorOfferCounters": {
        "details": "A mapping for an on chain offerHash to a floor offer counter"
      },
      "_nftOfferBooks": {
        "details": "A mapping for a NFT to an Offer      The mapping has to be broken into three parts since an NFT is denominated by its address (first part)      and its nftId (second part), offers are referred to by their hash (see #getEIP712EncodedOffer for details) (third part)."
      },
      "_sigFloorOfferCounters": {
        "details": "A mapping for a signautre offer to a floor offer counter"
      }
    },
    "title": "NiftyApes Offers",
    "version": 1
  },
  "userdoc": {
    "events": {
      "NewOffer(address,address,uint256,(address,uint32,uint32,bool,bool,bool,address,uint256,address,uint128,uint96,uint64),bytes32)": {
        "notice": "Emitted when a new offer is stored on chain"
      },
      "OfferRemoved(address,address,uint256,(address,uint32,uint32,bool,bool,bool,address,uint256,address,uint128,uint96,uint64),bytes32)": {
        "notice": "Emitted when a offer is removed from chain"
      },
      "OfferSignatureUsed(address,uint256,(address,uint32,uint32,bool,bool,bool,address,uint256,address,uint128,uint96,uint64),bytes)": {
        "notice": "Emitted when a offer signature gets has been used"
      },
      "OffersXLendingContractAddressUpdated(address,address)": {
        "notice": "Emitted when the associated lending contract address is changed"
      },
      "OffersXSigLendingContractAddressUpdated(address,address)": {
        "notice": "Emitted when the associated signature lending contract address is changed"
      }
    },
    "kind": "user",
    "methods": {
      "createOffer((address,uint32,uint32,bool,bool,bool,address,uint256,address,uint128,uint96,uint64))": {
        "notice": "Creates an offer in the on chain offer book"
      },
      "getFloorOfferCount(bytes32)": {
        "notice": "Returns a floor offers usage count"
      },
      "getOffer(address,uint256,bytes32,bool)": {
        "notice": "Returns an offer from the on-chain offer books"
      },
      "getOfferHash((address,uint32,uint32,bool,bool,bool,address,uint256,address,uint128,uint96,uint64))": {
        "notice": "Returns an EIP712 standard compatible hash for a given offer         This hash can be signed to create a valid offer."
      },
      "getOfferSignatureStatus(bytes)": {
        "notice": "Returns true if a given signature has been revoked otherwise false"
      },
      "getOfferSigner((address,uint32,uint32,bool,bool,bool,address,uint256,address,uint128,uint96,uint64),bytes)": {
        "notice": "Returns the signer of an offer or throws an error."
      },
      "getSigFloorOfferCount(bytes)": {
        "notice": "Returns a signature floor offers usage count"
      },
      "incrementFloorOfferCount(bytes32)": {
        "notice": "Allows the lending contract to increment a floor offers usage count         Only callable by the sigLending contract"
      },
      "incrementSigFloorOfferCount(bytes)": {
        "notice": "Allows the siglending contract to increment a floor offers usage count         Only callable by the sigLending contract"
      },
      "initialize(address)": {
        "notice": "The initializer for the NiftyApes protocol.         NiftyApes is intended to be deployed behind a proxy and thus needs to initialize         its state outside of a constructor."
      },
      "lendingContractAddress()": {
        "notice": "Returns the address for the associated lending contract"
      },
      "liquidityContractAddress()": {
        "notice": "Returns the address for the associated liquidity contract"
      },
      "markSignatureUsed((address,uint32,uint32,bool,bool,bool,address,uint256,address,uint128,uint96,uint64),bytes)": {
        "notice": "Can only be called by the lendingContractAddress"
      },
      "pause()": {
        "notice": "Pauses all interactions with the contract.         This is intended to be used as an emergency measure to avoid loosing funds."
      },
      "removeOffer(address,uint256,bytes32,bool)": {
        "notice": "Removes an offer from the on-chain offer book"
      },
      "requireAvailableSignature(bytes)": {
        "notice": "Checks that a signature has not been cancelled/withdrawn on chain"
      },
      "requireMinimumDuration((address,uint32,uint32,bool,bool,bool,address,uint256,address,uint128,uint96,uint64))": {
        "notice": "Checks that an offer has a minimum duration"
      },
      "requireNoFloorTerms((address,uint32,uint32,bool,bool,bool,address,uint256,address,uint128,uint96,uint64))": {
        "notice": "Checks that an offer is not a floor term offer"
      },
      "requireSignature65(bytes)": {
        "notice": "Checks that a signature has a length of 65 bytes"
      },
      "sigLendingContractAddress()": {
        "notice": "Returns the address for the associated sigLending contract"
      },
      "unpause()": {
        "notice": "Unpauses all interactions with the contract."
      },
      "updateLendingContractAddress(address)": {
        "notice": "Updates the associated lending contract address"
      },
      "updateSigLendingContractAddress(address)": {
        "notice": "Updates the associated signature lending contract address"
      },
      "withdrawOfferSignature((address,uint32,uint32,bool,bool,bool,address,uint256,address,uint128,uint96,uint64),bytes)": {
        "notice": "Withdraw a given offer         Calling this method allows users to withdraw a given offer by cancelling their signature on chain"
      }
    },
    "version": 1
  },
  "storageLayout": {
    "storage": [
      {
        "astId": 130,
        "contract": "contracts/Offers.sol:NiftyApesOffers",
        "label": "_initialized",
        "offset": 0,
        "slot": "0",
        "type": "t_uint8"
      },
      {
        "astId": 133,
        "contract": "contracts/Offers.sol:NiftyApesOffers",
        "label": "_initializing",
        "offset": 1,
        "slot": "0",
        "type": "t_bool"
      },
      {
        "astId": 1202,
        "contract": "contracts/Offers.sol:NiftyApesOffers",
        "label": "__gap",
        "offset": 0,
        "slot": "1",
        "type": "t_array(t_uint256)50_storage"
      },
      {
        "astId": 10,
        "contract": "contracts/Offers.sol:NiftyApesOffers",
        "label": "_owner",
        "offset": 0,
        "slot": "51",
        "type": "t_address"
      },
      {
        "astId": 122,
        "contract": "contracts/Offers.sol:NiftyApesOffers",
        "label": "__gap",
        "offset": 0,
        "slot": "52",
        "type": "t_array(t_uint256)49_storage"
      },
      {
        "astId": 286,
        "contract": "contracts/Offers.sol:NiftyApesOffers",
        "label": "_paused",
        "offset": 0,
        "slot": "101",
        "type": "t_bool"
      },
      {
        "astId": 375,
        "contract": "contracts/Offers.sol:NiftyApesOffers",
        "label": "__gap",
        "offset": 0,
        "slot": "102",
        "type": "t_array(t_uint256)49_storage"
      },
      {
        "astId": 1822,
        "contract": "contracts/Offers.sol:NiftyApesOffers",
        "label": "_HASHED_NAME",
        "offset": 0,
        "slot": "151",
        "type": "t_bytes32"
      },
      {
        "astId": 1824,
        "contract": "contracts/Offers.sol:NiftyApesOffers",
        "label": "_HASHED_VERSION",
        "offset": 0,
        "slot": "152",
        "type": "t_bytes32"
      },
      {
        "astId": 1962,
        "contract": "contracts/Offers.sol:NiftyApesOffers",
        "label": "__gap",
        "offset": 0,
        "slot": "153",
        "type": "t_array(t_uint256)50_storage"
      },
      {
        "astId": 9573,
        "contract": "contracts/Offers.sol:NiftyApesOffers",
        "label": "_nftOfferBooks",
        "offset": 0,
        "slot": "203",
        "type": "t_mapping(t_address,t_mapping(t_uint256,t_mapping(t_bytes32,t_struct(Offer)12172_storage)))"
      },
      {
        "astId": 9581,
        "contract": "contracts/Offers.sol:NiftyApesOffers",
        "label": "_floorOfferBooks",
        "offset": 0,
        "slot": "204",
        "type": "t_mapping(t_address,t_mapping(t_bytes32,t_struct(Offer)12172_storage))"
      },
      {
        "astId": 9586,
        "contract": "contracts/Offers.sol:NiftyApesOffers",
        "label": "_floorOfferCounters",
        "offset": 0,
        "slot": "205",
        "type": "t_mapping(t_bytes32,t_uint64)"
      },
      {
        "astId": 9591,
        "contract": "contracts/Offers.sol:NiftyApesOffers",
        "label": "_sigFloorOfferCounters",
        "offset": 0,
        "slot": "206",
        "type": "t_mapping(t_bytes_memory_ptr,t_uint64)"
      },
      {
        "astId": 9596,
        "contract": "contracts/Offers.sol:NiftyApesOffers",
        "label": "_cancelledOrFinalized",
        "offset": 0,
        "slot": "207",
        "type": "t_mapping(t_bytes_memory_ptr,t_bool)"
      },
      {
        "astId": 9599,
        "contract": "contracts/Offers.sol:NiftyApesOffers",
        "label": "lendingContractAddress",
        "offset": 0,
        "slot": "208",
        "type": "t_address"
      },
      {
        "astId": 9602,
        "contract": "contracts/Offers.sol:NiftyApesOffers",
        "label": "sigLendingContractAddress",
        "offset": 0,
        "slot": "209",
        "type": "t_address"
      },
      {
        "astId": 9605,
        "contract": "contracts/Offers.sol:NiftyApesOffers",
        "label": "liquidityContractAddress",
        "offset": 0,
        "slot": "210",
        "type": "t_address"
      },
      {
        "astId": 9610,
        "contract": "contracts/Offers.sol:NiftyApesOffers",
        "label": "__gap",
        "offset": 0,
        "slot": "211",
        "type": "t_array(t_uint256)500_storage"
      }
    ],
    "types": {
      "t_address": {
        "encoding": "inplace",
        "label": "address",
        "numberOfBytes": "20"
      },
      "t_array(t_uint256)49_storage": {
        "base": "t_uint256",
        "encoding": "inplace",
        "label": "uint256[49]",
        "numberOfBytes": "1568"
      },
      "t_array(t_uint256)500_storage": {
        "base": "t_uint256",
        "encoding": "inplace",
        "label": "uint256[500]",
        "numberOfBytes": "16000"
      },
      "t_array(t_uint256)50_storage": {
        "base": "t_uint256",
        "encoding": "inplace",
        "label": "uint256[50]",
        "numberOfBytes": "1600"
      },
      "t_bool": {
        "encoding": "inplace",
        "label": "bool",
        "numberOfBytes": "1"
      },
      "t_bytes32": {
        "encoding": "inplace",
        "label": "bytes32",
        "numberOfBytes": "32"
      },
      "t_bytes_memory_ptr": {
        "encoding": "bytes",
        "label": "bytes",
        "numberOfBytes": "32"
      },
      "t_mapping(t_address,t_mapping(t_bytes32,t_struct(Offer)12172_storage))": {
        "encoding": "mapping",
        "key": "t_address",
        "label": "mapping(address => mapping(bytes32 => struct IOffersStructs.Offer))",
        "numberOfBytes": "32",
        "value": "t_mapping(t_bytes32,t_struct(Offer)12172_storage)"
      },
      "t_mapping(t_address,t_mapping(t_uint256,t_mapping(t_bytes32,t_struct(Offer)12172_storage)))": {
        "encoding": "mapping",
        "key": "t_address",
        "label": "mapping(address => mapping(uint256 => mapping(bytes32 => struct IOffersStructs.Offer)))",
        "numberOfBytes": "32",
        "value": "t_mapping(t_uint256,t_mapping(t_bytes32,t_struct(Offer)12172_storage))"
      },
      "t_mapping(t_bytes32,t_struct(Offer)12172_storage)": {
        "encoding": "mapping",
        "key": "t_bytes32",
        "label": "mapping(bytes32 => struct IOffersStructs.Offer)",
        "numberOfBytes": "32",
        "value": "t_struct(Offer)12172_storage"
      },
      "t_mapping(t_bytes32,t_uint64)": {
        "encoding": "mapping",
        "key": "t_bytes32",
        "label": "mapping(bytes32 => uint64)",
        "numberOfBytes": "32",
        "value": "t_uint64"
      },
      "t_mapping(t_bytes_memory_ptr,t_bool)": {
        "encoding": "mapping",
        "key": "t_bytes_memory_ptr",
        "label": "mapping(bytes => bool)",
        "numberOfBytes": "32",
        "value": "t_bool"
      },
      "t_mapping(t_bytes_memory_ptr,t_uint64)": {
        "encoding": "mapping",
        "key": "t_bytes_memory_ptr",
        "label": "mapping(bytes => uint64)",
        "numberOfBytes": "32",
        "value": "t_uint64"
      },
      "t_mapping(t_uint256,t_mapping(t_bytes32,t_struct(Offer)12172_storage))": {
        "encoding": "mapping",
        "key": "t_uint256",
        "label": "mapping(uint256 => mapping(bytes32 => struct IOffersStructs.Offer))",
        "numberOfBytes": "32",
        "value": "t_mapping(t_bytes32,t_struct(Offer)12172_storage)"
      },
      "t_struct(Offer)12172_storage": {
        "encoding": "inplace",
        "label": "struct IOffersStructs.Offer",
        "members": [
          {
            "astId": 12149,
            "contract": "contracts/Offers.sol:NiftyApesOffers",
            "label": "creator",
            "offset": 0,
            "slot": "0",
            "type": "t_address"
          },
          {
            "astId": 12151,
            "contract": "contracts/Offers.sol:NiftyApesOffers",
            "label": "duration",
            "offset": 20,
            "slot": "0",
            "type": "t_uint32"
          },
          {
            "astId": 12153,
            "contract": "contracts/Offers.sol:NiftyApesOffers",
            "label": "expiration",
            "offset": 24,
            "slot": "0",
            "type": "t_uint32"
          },
          {
            "astId": 12155,
            "contract": "contracts/Offers.sol:NiftyApesOffers",
            "label": "fixedTerms",
            "offset": 28,
            "slot": "0",
            "type": "t_bool"
          },
          {
            "astId": 12157,
            "contract": "contracts/Offers.sol:NiftyApesOffers",
            "label": "floorTerm",
            "offset": 29,
            "slot": "0",
            "type": "t_bool"
          },
          {
            "astId": 12159,
            "contract": "contracts/Offers.sol:NiftyApesOffers",
            "label": "lenderOffer",
            "offset": 30,
            "slot": "0",
            "type": "t_bool"
          },
          {
            "astId": 12161,
            "contract": "contracts/Offers.sol:NiftyApesOffers",
            "label": "nftContractAddress",
            "offset": 0,
            "slot": "1",
            "type": "t_address"
          },
          {
            "astId": 12163,
            "contract": "contracts/Offers.sol:NiftyApesOffers",
            "label": "nftId",
            "offset": 0,
            "slot": "2",
            "type": "t_uint256"
          },
          {
            "astId": 12165,
            "contract": "contracts/Offers.sol:NiftyApesOffers",
            "label": "asset",
            "offset": 0,
            "slot": "3",
            "type": "t_address"
          },
          {
            "astId": 12167,
            "contract": "contracts/Offers.sol:NiftyApesOffers",
            "label": "amount",
            "offset": 0,
            "slot": "4",
            "type": "t_uint128"
          },
          {
            "astId": 12169,
            "contract": "contracts/Offers.sol:NiftyApesOffers",
            "label": "interestRatePerSecond",
            "offset": 16,
            "slot": "4",
            "type": "t_uint96"
          },
          {
            "astId": 12171,
            "contract": "contracts/Offers.sol:NiftyApesOffers",
            "label": "floorTermLimit",
            "offset": 0,
            "slot": "5",
            "type": "t_uint64"
          }
        ],
        "numberOfBytes": "192"
      },
      "t_uint128": {
        "encoding": "inplace",
        "label": "uint128",
        "numberOfBytes": "16"
      },
      "t_uint256": {
        "encoding": "inplace",
        "label": "uint256",
        "numberOfBytes": "32"
      },
      "t_uint32": {
        "encoding": "inplace",
        "label": "uint32",
        "numberOfBytes": "4"
      },
      "t_uint64": {
        "encoding": "inplace",
        "label": "uint64",
        "numberOfBytes": "8"
      },
      "t_uint8": {
        "encoding": "inplace",
        "label": "uint8",
        "numberOfBytes": "1"
      },
      "t_uint96": {
        "encoding": "inplace",
        "label": "uint96",
        "numberOfBytes": "12"
      }
    }
  }
}