{
  "address": "0x8E45C0936fa1a65bDaD3222bEFeC6a03C83372cE",
  "abi": [
    {
      "anonymous": false,
      "inputs": [
        {
          "indexed": false,
          "internalType": "address",
          "name": "asset",
          "type": "address"
        },
        {
          "indexed": false,
          "internalType": "address",
          "name": "cAsset",
          "type": "address"
        }
      ],
      "name": "AssetToCAssetSet",
      "type": "event"
    },
    {
      "anonymous": false,
      "inputs": [
        {
          "indexed": true,
          "internalType": "address",
          "name": "liquidityProvider",
          "type": "address"
        },
        {
          "indexed": true,
          "internalType": "address",
          "name": "cAsset",
          "type": "address"
        },
        {
          "indexed": false,
          "internalType": "uint256",
          "name": "cTokenAmount",
          "type": "uint256"
        }
      ],
      "name": "CErc20Supplied",
      "type": "event"
    },
    {
      "anonymous": false,
      "inputs": [
        {
          "indexed": true,
          "internalType": "address",
          "name": "liquidityProvider",
          "type": "address"
        },
        {
          "indexed": true,
          "internalType": "address",
          "name": "cAsset",
          "type": "address"
        },
        {
          "indexed": false,
          "internalType": "uint256",
          "name": "cTokenAmount",
          "type": "uint256"
        }
      ],
      "name": "CErc20Withdrawn",
      "type": "event"
    },
    {
      "anonymous": false,
      "inputs": [
        {
          "indexed": true,
          "internalType": "address",
          "name": "liquidityProvider",
          "type": "address"
        },
        {
          "indexed": true,
          "internalType": "address",
          "name": "asset",
          "type": "address"
        },
        {
          "indexed": false,
          "internalType": "uint256",
          "name": "tokenAmount",
          "type": "uint256"
        },
        {
          "indexed": false,
          "internalType": "uint256",
          "name": "cTokenAmount",
          "type": "uint256"
        }
      ],
      "name": "Erc20Supplied",
      "type": "event"
    },
    {
      "anonymous": false,
      "inputs": [
        {
          "indexed": true,
          "internalType": "address",
          "name": "liquidityProvider",
          "type": "address"
        },
        {
          "indexed": true,
          "internalType": "address",
          "name": "asset",
          "type": "address"
        },
        {
          "indexed": false,
          "internalType": "uint256",
          "name": "tokenAmount",
          "type": "uint256"
        },
        {
          "indexed": false,
          "internalType": "uint256",
          "name": "cTokenAmount",
          "type": "uint256"
        }
      ],
      "name": "Erc20Withdrawn",
      "type": "event"
    },
    {
      "anonymous": false,
      "inputs": [
        {
          "indexed": true,
          "internalType": "address",
          "name": "liquidityProvider",
          "type": "address"
        },
        {
          "indexed": false,
          "internalType": "uint256",
          "name": "amount",
          "type": "uint256"
        },
        {
          "indexed": false,
          "internalType": "uint256",
          "name": "cTokenAmount",
          "type": "uint256"
        }
      ],
      "name": "EthSupplied",
      "type": "event"
    },
    {
      "anonymous": false,
      "inputs": [
        {
          "indexed": true,
          "internalType": "address",
          "name": "liquidityProvider",
          "type": "address"
        },
        {
          "indexed": false,
          "internalType": "uint256",
          "name": "amount",
          "type": "uint256"
        },
        {
          "indexed": false,
          "internalType": "uint256",
          "name": "cTokenAmount",
          "type": "uint256"
        }
      ],
      "name": "EthWithdrawn",
      "type": "event"
    },
    {
      "anonymous": false,
      "inputs": [
        {
          "indexed": false,
          "internalType": "uint8",
          "name": "version",
          "type": "uint8"
        }
      ],
      "name": "Initialized",
      "type": "event"
    },
    {
      "anonymous": false,
      "inputs": [],
      "name": "LiquiditySanctionsPaused",
      "type": "event"
    },
    {
      "anonymous": false,
      "inputs": [],
      "name": "LiquiditySanctionsUnpaused",
      "type": "event"
    },
    {
      "anonymous": false,
      "inputs": [
        {
          "indexed": false,
          "internalType": "address",
          "name": "oldLendingContractAddress",
          "type": "address"
        },
        {
          "indexed": false,
          "internalType": "address",
          "name": "newLendingContractAddress",
          "type": "address"
        }
      ],
      "name": "LiquidityXLendingContractAddressUpdated",
      "type": "event"
    },
    {
      "anonymous": false,
      "inputs": [
        {
          "indexed": true,
          "internalType": "address",
          "name": "previousOwner",
          "type": "address"
        },
        {
          "indexed": true,
          "internalType": "address",
          "name": "newOwner",
          "type": "address"
        }
      ],
      "name": "OwnershipTransferred",
      "type": "event"
    },
    {
      "anonymous": false,
      "inputs": [
        {
          "indexed": false,
          "internalType": "address",
          "name": "account",
          "type": "address"
        }
      ],
      "name": "Paused",
      "type": "event"
    },
    {
      "anonymous": false,
      "inputs": [
        {
          "indexed": true,
          "internalType": "address",
          "name": "liquidityProvider",
          "type": "address"
        },
        {
          "indexed": true,
          "internalType": "address",
          "name": "asset",
          "type": "address"
        },
        {
          "indexed": false,
          "internalType": "uint256",
          "name": "tokenAmount",
          "type": "uint256"
        },
        {
          "indexed": false,
          "internalType": "uint256",
          "name": "cTokenAmount",
          "type": "uint256"
        }
      ],
      "name": "PercentForRegen",
      "type": "event"
    },
    {
      "anonymous": false,
      "inputs": [
        {
          "indexed": false,
          "internalType": "address",
          "name": "newRegenCollectiveAddress",
          "type": "address"
        }
      ],
      "name": "RegenCollectiveAddressUpdated",
      "type": "event"
    },
    {
      "anonymous": false,
      "inputs": [
        {
          "indexed": false,
          "internalType": "uint16",
          "name": "oldRegenCollectiveBpsOfRevenue",
          "type": "uint16"
        },
        {
          "indexed": false,
          "internalType": "uint16",
          "name": "newRegenCollectiveBpsOfRevenue",
          "type": "uint16"
        }
      ],
      "name": "RegenCollectiveBpsOfRevenueUpdated",
      "type": "event"
    },
    {
      "anonymous": false,
      "inputs": [
        {
          "indexed": false,
          "internalType": "address",
          "name": "account",
          "type": "address"
        }
      ],
      "name": "Unpaused",
      "type": "event"
    },
    {
      "inputs": [
        {
          "internalType": "address",
          "name": "account",
          "type": "address"
        },
        {
          "internalType": "address",
          "name": "cAsset",
          "type": "address"
        },
        {
          "internalType": "uint256",
          "name": "amount",
          "type": "uint256"
        }
      ],
      "name": "addToCAssetBalance",
      "outputs": [],
      "stateMutability": "nonpayable",
      "type": "function"
    },
    {
      "inputs": [
        {
          "internalType": "address",
          "name": "asset",
          "type": "address"
        },
        {
          "internalType": "uint256",
          "name": "amount",
          "type": "uint256"
        }
      ],
      "name": "assetAmountToCAssetAmount",
      "outputs": [
        {
          "internalType": "uint256",
          "name": "",
          "type": "uint256"
        }
      ],
      "stateMutability": "nonpayable",
      "type": "function"
    },
    {
      "inputs": [
        {
          "internalType": "address",
          "name": "",
          "type": "address"
        }
      ],
      "name": "assetToCAsset",
      "outputs": [
        {
          "internalType": "address",
          "name": "",
          "type": "address"
        }
      ],
      "stateMutability": "view",
      "type": "function"
    },
    {
      "inputs": [
        {
          "internalType": "address",
          "name": "asset",
          "type": "address"
        },
        {
          "internalType": "uint256",
          "name": "amount",
          "type": "uint256"
        }
      ],
      "name": "burnCErc20",
      "outputs": [
        {
          "internalType": "uint256",
          "name": "",
          "type": "uint256"
        }
      ],
      "stateMutability": "nonpayable",
      "type": "function"
    },
    {
      "inputs": [
        {
          "internalType": "address",
          "name": "cAsset",
          "type": "address"
        },
        {
          "internalType": "uint256",
          "name": "amount",
          "type": "uint256"
        }
      ],
      "name": "cAssetAmountToAssetAmount",
      "outputs": [
        {
          "internalType": "uint256",
          "name": "",
          "type": "uint256"
        }
      ],
      "stateMutability": "nonpayable",
      "type": "function"
    },
    {
      "inputs": [],
      "name": "compContractAddress",
      "outputs": [
        {
          "internalType": "address",
          "name": "",
          "type": "address"
        }
      ],
      "stateMutability": "view",
      "type": "function"
    },
    {
      "inputs": [
        {
          "internalType": "address",
          "name": "asset",
          "type": "address"
        }
      ],
      "name": "getCAsset",
      "outputs": [
        {
          "internalType": "address",
          "name": "",
          "type": "address"
        }
      ],
      "stateMutability": "view",
      "type": "function"
    },
    {
      "inputs": [
        {
          "internalType": "address",
          "name": "account",
          "type": "address"
        },
        {
          "internalType": "address",
          "name": "cAsset",
          "type": "address"
        }
      ],
      "name": "getCAssetBalance",
      "outputs": [
        {
          "internalType": "uint256",
          "name": "",
          "type": "uint256"
        }
      ],
      "stateMutability": "view",
      "type": "function"
    },
    {
      "inputs": [
        {
          "internalType": "address",
          "name": "newCompContractAddress",
          "type": "address"
        }
      ],
      "name": "initialize",
      "outputs": [],
      "stateMutability": "nonpayable",
      "type": "function"
    },
    {
      "inputs": [],
      "name": "lendingContractAddress",
      "outputs": [
        {
          "internalType": "address",
          "name": "",
          "type": "address"
        }
      ],
      "stateMutability": "view",
      "type": "function"
    },
    {
      "inputs": [
        {
          "internalType": "address",
          "name": "",
          "type": "address"
        }
      ],
      "name": "maxBalanceByCAsset",
      "outputs": [
        {
          "internalType": "uint256",
          "name": "",
          "type": "uint256"
        }
      ],
      "stateMutability": "view",
      "type": "function"
    },
    {
      "inputs": [
        {
          "internalType": "address",
          "name": "from",
          "type": "address"
        },
        {
          "internalType": "address",
          "name": "asset",
          "type": "address"
        },
        {
          "internalType": "uint256",
          "name": "amount",
          "type": "uint256"
        }
      ],
      "name": "mintCErc20",
      "outputs": [
        {
          "internalType": "uint256",
          "name": "",
          "type": "uint256"
        }
      ],
      "stateMutability": "nonpayable",
      "type": "function"
    },
    {
      "inputs": [],
      "name": "mintCEth",
      "outputs": [
        {
          "internalType": "uint256",
          "name": "",
          "type": "uint256"
        }
      ],
      "stateMutability": "payable",
      "type": "function"
    },
    {
      "inputs": [],
      "name": "owner",
      "outputs": [
        {
          "internalType": "address",
          "name": "",
          "type": "address"
        }
      ],
      "stateMutability": "view",
      "type": "function"
    },
    {
      "inputs": [],
      "name": "pause",
      "outputs": [],
      "stateMutability": "nonpayable",
      "type": "function"
    },
    {
      "inputs": [],
      "name": "pauseSanctions",
      "outputs": [],
      "stateMutability": "nonpayable",
      "type": "function"
    },
    {
      "inputs": [],
      "name": "paused",
      "outputs": [
        {
          "internalType": "bool",
          "name": "",
          "type": "bool"
        }
      ],
      "stateMutability": "view",
      "type": "function"
    },
    {
      "inputs": [],
      "name": "regenCollectiveAddress",
      "outputs": [
        {
          "internalType": "address",
          "name": "",
          "type": "address"
        }
      ],
      "stateMutability": "view",
      "type": "function"
    },
    {
      "inputs": [],
      "name": "regenCollectiveBpsOfRevenue",
      "outputs": [
        {
          "internalType": "uint16",
          "name": "",
          "type": "uint16"
        }
      ],
      "stateMutability": "view",
      "type": "function"
    },
    {
      "inputs": [],
      "name": "renounceOwnership",
      "outputs": [],
      "stateMutability": "nonpayable",
      "type": "function"
    },
    {
      "inputs": [
        {
          "internalType": "address",
          "name": "asset",
          "type": "address"
        },
        {
          "internalType": "uint256",
          "name": "amount",
          "type": "uint256"
        },
        {
          "internalType": "address",
          "name": "to",
          "type": "address"
        }
      ],
      "name": "sendValue",
      "outputs": [],
      "stateMutability": "nonpayable",
      "type": "function"
    },
    {
      "inputs": [
        {
          "internalType": "address",
          "name": "asset",
          "type": "address"
        },
        {
          "internalType": "address",
          "name": "cAsset",
          "type": "address"
        }
      ],
      "name": "setCAssetAddress",
      "outputs": [],
      "stateMutability": "nonpayable",
      "type": "function"
    },
    {
      "inputs": [
        {
          "internalType": "address",
          "name": "cAsset",
          "type": "address"
        },
        {
          "internalType": "uint256",
          "name": "maxBalance",
          "type": "uint256"
        }
      ],
      "name": "setMaxCAssetBalance",
      "outputs": [],
      "stateMutability": "nonpayable",
      "type": "function"
    },
    {
      "inputs": [
        {
          "internalType": "address",
          "name": "cAsset",
          "type": "address"
        },
        {
          "internalType": "uint256",
          "name": "cTokenAmount",
          "type": "uint256"
        }
      ],
      "name": "supplyCErc20",
      "outputs": [
        {
          "internalType": "uint256",
          "name": "",
          "type": "uint256"
        }
      ],
      "stateMutability": "nonpayable",
      "type": "function"
    },
    {
      "inputs": [
        {
          "internalType": "address",
          "name": "asset",
          "type": "address"
        },
        {
          "internalType": "uint256",
          "name": "tokenAmount",
          "type": "uint256"
        }
      ],
      "name": "supplyErc20",
      "outputs": [
        {
          "internalType": "uint256",
          "name": "",
          "type": "uint256"
        }
      ],
      "stateMutability": "nonpayable",
      "type": "function"
    },
    {
      "inputs": [],
      "name": "supplyEth",
      "outputs": [
        {
          "internalType": "uint256",
          "name": "",
          "type": "uint256"
        }
      ],
      "stateMutability": "payable",
      "type": "function"
    },
    {
      "inputs": [
        {
          "internalType": "address",
          "name": "newOwner",
          "type": "address"
        }
      ],
      "name": "transferOwnership",
      "outputs": [],
      "stateMutability": "nonpayable",
      "type": "function"
    },
    {
      "inputs": [],
      "name": "unpause",
      "outputs": [],
      "stateMutability": "nonpayable",
      "type": "function"
    },
    {
      "inputs": [],
      "name": "unpauseSanctions",
      "outputs": [],
      "stateMutability": "nonpayable",
      "type": "function"
    },
    {
      "inputs": [
        {
          "internalType": "address",
          "name": "newLendingContractAddress",
          "type": "address"
        }
      ],
      "name": "updateLendingContractAddress",
      "outputs": [],
      "stateMutability": "nonpayable",
      "type": "function"
    },
    {
      "inputs": [
        {
          "internalType": "address",
          "name": "newRegenCollectiveAddress",
          "type": "address"
        }
      ],
      "name": "updateRegenCollectiveAddress",
      "outputs": [],
      "stateMutability": "nonpayable",
      "type": "function"
    },
    {
      "inputs": [
        {
          "internalType": "uint16",
          "name": "newRegenCollectiveBpsOfRevenue",
          "type": "uint16"
        }
      ],
      "name": "updateRegenCollectiveBpsOfRevenue",
      "outputs": [],
      "stateMutability": "nonpayable",
      "type": "function"
    },
    {
      "inputs": [
        {
          "internalType": "address",
          "name": "account",
          "type": "address"
        },
        {
          "internalType": "address",
          "name": "cAsset",
          "type": "address"
        },
        {
          "internalType": "uint256",
          "name": "cTokenAmount",
          "type": "uint256"
        }
      ],
      "name": "withdrawCBalance",
      "outputs": [],
      "stateMutability": "nonpayable",
      "type": "function"
    },
    {
      "inputs": [
        {
          "internalType": "address",
          "name": "cAsset",
          "type": "address"
        },
        {
          "internalType": "uint256",
          "name": "cTokenAmount",
          "type": "uint256"
        }
      ],
      "name": "withdrawCErc20",
      "outputs": [
        {
          "internalType": "uint256",
          "name": "",
          "type": "uint256"
        }
      ],
      "stateMutability": "nonpayable",
      "type": "function"
    },
    {
      "inputs": [],
      "name": "withdrawComp",
      "outputs": [
        {
          "internalType": "uint256",
          "name": "",
          "type": "uint256"
        }
      ],
      "stateMutability": "nonpayable",
      "type": "function"
    },
    {
      "inputs": [
        {
          "internalType": "address",
          "name": "asset",
          "type": "address"
        },
        {
          "internalType": "uint256",
          "name": "tokenAmount",
          "type": "uint256"
        }
      ],
      "name": "withdrawErc20",
      "outputs": [
        {
          "internalType": "uint256",
          "name": "",
          "type": "uint256"
        }
      ],
      "stateMutability": "nonpayable",
      "type": "function"
    },
    {
      "inputs": [
        {
          "internalType": "uint256",
          "name": "amount",
          "type": "uint256"
        }
      ],
      "name": "withdrawEth",
      "outputs": [
        {
          "internalType": "uint256",
          "name": "",
          "type": "uint256"
        }
      ],
      "stateMutability": "nonpayable",
      "type": "function"
    },
    {
      "stateMutability": "payable",
      "type": "receive"
    }
  ],
  "transactionHash": "0xef8a1bda232890f29ef271a6cf0fcf51a954b2678a8e6e5e14c7017e0e67c223",
  "args": [],
  "numDeployments": 1,
  "solcInputHash": "de206e0999dc82f6f9a3de767af60867",
  "bytecode": "0x608060405234801561001057600080fd5b5061324b806100206000396000f3fe60806040526004361061021e5760003560e01c80637379dbe6116101235780639f59cbab116100ab578063d4719b4e1161006f578063d4719b4e1461063c578063db1fb77f14610644578063ef1a35fe14610664578063f124b1bb14610684578063f2fde38b146106a457600080fd5b80639f59cbab1461058f578063bd1f4b52146105bc578063c04eb97e146105dc578063c311d049146105fc578063c4d66de81461061c57600080fd5b80638456cb59116100f25780638456cb59146104fc5780638805efe6146105115780638da5cb5b146105315780639b4dd63e1461054f5780639ee02a291461056f57600080fd5b80637379dbe61461045157806380c8926d14610471578063814551f9146104a657806382195a72146104c657600080fd5b80633b91d8bb116101a65780635a14bc68116101755780635a14bc68146103c45780635c975abb146103e45780636b8e69f8146104075780636db7ad4314610427578063715018a61461043c57600080fd5b80633b91d8bb1461035a5780633f4ba83a1461037a5780634ef4c4b31461038f57806358112cd3146103af57600080fd5b8063281752be116101ed578063281752be146102c55780632fc1a6c5146102e5578063301515ba1461030557806331b812bb1461032557806338e41a221461034557600080fd5b80630b5629f61461023257806318008124146102655780631c4394301461029d57806326d791bd146102a557600080fd5b3661022d5761022b6106c4565b005b600080fd5b34801561023e57600080fd5b5061025261024d366004612e7d565b61070c565b6040519081526020015b60405180910390f35b34801561027157600080fd5b5060cf54610285906001600160a01b031681565b6040516001600160a01b03909116815260200161025c565b6102526107a4565b3480156102b157600080fd5b5061022b6102c0366004612ea7565b6108b8565b3480156102d157600080fd5b506102526102e0366004612e7d565b61094b565b3480156102f157600080fd5b50610252610300366004612e7d565b6109cc565b34801561031157600080fd5b5061022b610320366004612ec2565b610add565b34801561033157600080fd5b5061022b610340366004612efe565b610b26565b34801561035157600080fd5b50610252610c63565b34801561036657600080fd5b5061022b610375366004612ea7565b610e9d565b34801561038657600080fd5b5061022b610f25565b34801561039b57600080fd5b506102526103aa366004612e7d565b610f57565b3480156103bb57600080fd5b5061022b610f72565b3480156103d057600080fd5b506102856103df366004612ea7565b610fda565b3480156103f057600080fd5b5060655460ff16604051901515815260200161025c565b34801561041357600080fd5b5061022b610422366004612ec2565b611086565b34801561043357600080fd5b5061022b61109e565b34801561044857600080fd5b5061022b611100565b34801561045d57600080fd5b5060cd54610285906001600160a01b031681565b34801561047d57600080fd5b5060cd5461049390600160a01b900461ffff1681565b60405161ffff909116815260200161025c565b3480156104b257600080fd5b5061022b6104c1366004612e7d565b61112a565b3480156104d257600080fd5b506102856104e1366004612ea7565b60c9602052600090815260409020546001600160a01b031681565b34801561050857600080fd5b5061022b611170565b34801561051d57600080fd5b5061022b61052c366004612f31565b6111a2565b34801561053d57600080fd5b506033546001600160a01b0316610285565b34801561055b57600080fd5b5061022b61056a366004612f55565b6112be565b34801561057b57600080fd5b5061025261058a366004612e7d565b6112d1565b34801561059b57600080fd5b506102526105aa366004612ea7565b60cc6020526000908152604090205481565b3480156105c857600080fd5b506102526105d7366004612e7d565b6113cb565b3480156105e857600080fd5b506102526105f7366004612efe565b6114e9565b34801561060857600080fd5b50610252610617366004612f91565b611514565b34801561062857600080fd5b5061022b610637366004612ea7565b61165c565b610252611733565b34801561065057600080fd5b5061025261065f366004612ec2565b61174b565b34801561067057600080fd5b5061025261067f366004612e7d565b611768565b34801561069057600080fd5b5060ce54610285906001600160a01b031681565b3480156106b057600080fd5b5061022b6106bf366004612ea7565b61187a565b60cf54600160a01b900460ff1661070a5760405162461bcd60e51b8152602060048201526005602482015264303030343360d81b60448201526064015b60405180910390fd5b565b6001600160a01b03808316600090815260c96020908152604080832054815163bd6d894d60e01b815291519394169283928592849263bd6d894d92600480840193919291829003018187875af115801561076a573d6000803e3d6000fd5b505050506040513d601f19601f8201168201806040525081019061078e9190612faa565b905061079a8582611915565b9695505050505050565b60006107b260655460ff1690565b156107cf5760405162461bcd60e51b815260040161070190612fc3565b6002609754036107f15760405162461bcd60e51b815260040161070190612fed565b60026097556107ff33611962565b600061081e73eeeeeeeeeeeeeeeeeeeeeeeeeeeeeeeeeeeeeeee610fda565b9050600061082b34611a2c565b33600090815260cb602090815260408083206001600160a01b038716845290915281208054929350839290919061086390849061303a565b90915550610872905082611bb2565b604080513481526020810183905233917f65470c6eafbd1c37b4bde819e759ccd2594fa7c9e9b0ed62f9389fb0a060532d910160405180910390a2915050600160975590565b6033546001600160a01b031633146108e25760405162461bcd60e51b815260040161070190613052565b60cd54604080516001600160a01b03928316815291831660208301527ff25261e1d274f1348ce1a5b573bb1f14c8509d2fc7e290d8b8fd3f44fec5cb87910160405180910390a160cd80546001600160a01b0319166001600160a01b0392909216919091179055565b6000808390506000816001600160a01b031663bd6d894d6040518163ffffffff1660e01b81526004016020604051808303816000875af1158015610993573d6000803e3d6000fd5b505050506040513d601f19601f820116820180604052508101906109b79190612faa565b90506109c38482611c63565b95945050505050565b60006109da60655460ff1690565b156109f75760405162461bcd60e51b815260040161070190612fc3565b600260975403610a195760405162461bcd60e51b815260040161070190612fed565b6002609755610a2733611962565b6000610a3284610fda565b90506000610a41338686611c84565b33600090815260cb602090815260408083206001600160a01b0387168452909152812080549293508392909190610a7990849061303a565b90915550610a88905082611bb2565b60408051858152602081018390526001600160a01b0387169133917f9b53c73583d3af006d4025e0d260cfb6e3e14dfe97b3a4b2ce8ceed317a75611910160405180910390a39150505b600160975592915050565b610ae5611ef4565b6001600160a01b03808416600090815260cb6020908152604080832093861683529290529081208054839290610b1c90849061303a565b9091555050505050565b6033546001600160a01b03163314610b505760405162461bcd60e51b815260040161070190613052565b6001600160a01b03808316600090815260c96020908152604080832054858516845260ca9092529091205490821691168115610bad576001600160a01b038216600090815260ca6020526040902080546001600160a01b03191690555b6001600160a01b03811615610be3576001600160a01b038116600090815260c96020526040902080546001600160a01b03191690555b6001600160a01b03848116600081815260c96020908152604080832080549589166001600160a01b0319968716811790915580845260ca8352928190208054909516841790945583519283528201527f3f75908b58894bfe615414eb3390f716b045cbf88fdac72613e76ab1b567ba92910160405180910390a150505050565b6000610c7160655460ff1690565b15610c8e5760405162461bcd60e51b815260040161070190612fc3565b600260975403610cb05760405162461bcd60e51b815260040161070190612fed565b60026097556033546001600160a01b03163314610cdf5760405162461bcd60e51b815260040161070190613052565b610ce833611962565b60cf546040516370a0823160e01b81523060048201526000916001600160a01b0316906370a0823190602401602060405180830381865afa158015610d31573d6000803e3d6000fd5b505050506040513d601f19601f82011682018060405250810190610d559190612faa565b60cd5490915060009061271090610d7790600160a01b900461ffff1684613087565b610d8191906130a6565b90506000610d8f82846130c8565b60cf54909150610dba906001600160a01b031682610db56033546001600160a01b031690565b611f36565b60cf5460ce54610dd8916001600160a01b0390811691859116611f36565b60cf5460ce5460408051858152600060208201526001600160a01b0393841693909216917fd4f970ab7b145489a29b7fb1e61781e5de801533d677e0a18d47fc965ce0fe5b910160405180910390a360cf546001600160a01b0316610e456033546001600160a01b031690565b6001600160a01b03167f7fe27ee598c053249ff5902d8cb37653c2e252366ee4de137e6c9c08fa675674836000604051610e89929190918252602082015260400190565b60405180910390a350506001609755919050565b6033546001600160a01b03163314610ec75760405162461bcd60e51b815260040161070190613052565b6040516001600160a01b03821681527ffe94f2d59f80b22abf95c43de02c06687248b90d0f2a0c131765fa7c31f433709060200160405180910390a160ce80546001600160a01b0319166001600160a01b0392909216919091179055565b6033546001600160a01b03163314610f4f5760405162461bcd60e51b815260040161070190613052565b61070a611f8b565b6000610f61611ef4565b610f6b838361201e565b9392505050565b6033546001600160a01b03163314610f9c5760405162461bcd60e51b815260040161070190613052565b60cf805460ff60a81b1916600160a81b1790556040517f7f44e1960de0e05e8d8e634521187ad7bc9847b225ca989a9d164aa49052998d90600090a1565b6001600160a01b03808216600090815260c960205260408120549091168061102c5760405162461bcd60e51b8152602060048201526005602482015264030303034360dc1b6044820152606401610701565b6001600160a01b03808216600090815260ca60205260409020548482169116146110805760405162461bcd60e51b81526020600482015260056024820152641818181a1960d91b6044820152606401610701565b92915050565b61108e611ef4565b6110998383836121ed565b505050565b6033546001600160a01b031633146110c85760405162461bcd60e51b815260040161070190613052565b60cf805460ff60a81b191690556040517f36dbfd91d5d1894643bd0e4073ff4af5944e697f1ded412b7d5f32c2c82166ad90600090a1565b6033546001600160a01b0316331461070a5760405162461bcd60e51b815260040161070190613052565b6033546001600160a01b031633146111545760405162461bcd60e51b815260040161070190613052565b6001600160a01b03909116600090815260cc6020526040902055565b6033546001600160a01b0316331461119a5760405162461bcd60e51b815260040161070190613052565b61070a61222f565b6033546001600160a01b031633146111cc5760405162461bcd60e51b815260040161070190613052565b6103e88161ffff16111561120a5760405162461bcd60e51b8152602060048201526005602482015264181818181960d91b6044820152606401610701565b60cd5461ffff600160a01b909104811690821610156112535760405162461bcd60e51b8152602060048201526005602482015264303030333960d81b6044820152606401610701565b60cd546040805161ffff600160a01b9093048316815291831660208301527f1f402157688e86eb0b3f607908f4b93e1c6e426c890a047484ce077cfe20f791910160405180910390a160cd805461ffff909216600160a01b0261ffff60a01b19909216919091179055565b6112c6611ef4565b611099838383611f36565b60006112df60655460ff1690565b156112fc5760405162461bcd60e51b815260040161070190612fc3565b60026097540361131e5760405162461bcd60e51b815260040161070190612fed565b600260975561132c33611962565b8261133f6033546001600160a01b031690565b6001600160a01b0316330361136357600061135985612287565b9250610ad2915050565b61136e3385856121ed565b6113826001600160a01b03821633856123ef565b6040518381526001600160a01b0385169033907fad6caeed9d51cf324e5c5e848fdc007f953ba85f457163a12a267c164e86a3fb9060200160405180910390a382915050610ad2565b60006113d960655460ff1690565b156113f65760405162461bcd60e51b815260040161070190612fc3565b6002609754036114185760405162461bcd60e51b815260040161070190612fed565b600260975561142633611962565b600061143184610fda565b9050836114466033546001600160a01b031690565b6001600160a01b0316330361146c5760006114618684612452565b9350610ad292505050565b6000611478868661201e565b90506114853384836121ed565b6114996001600160a01b03831633876123ef565b60408051868152602081018390526001600160a01b0388169133917f7fe27ee598c053249ff5902d8cb37653c2e252366ee4de137e6c9c08fa675674910160405180910390a39250610ad2915050565b6001600160a01b03918216600090815260cb6020908152604080832093909416825291909152205490565b600061152260655460ff1690565b1561153f5760405162461bcd60e51b815260040161070190612fc3565b6002609754036115615760405162461bcd60e51b815260040161070190612fed565b600260975561156f33611962565b600061158e73eeeeeeeeeeeeeeeeeeeeeeeeeeeeeeeeeeeeeeee610fda565b90506115a26033546001600160a01b031690565b6001600160a01b031633036115d7576115cf73eeeeeeeeeeeeeeeeeeeeeeeeeeeeeeeeeeeeeeee82612452565b915050611652565b60006115f773eeeeeeeeeeeeeeeeeeeeeeeeeeeeeeeeeeeeeeee8561201e565b90506116043383836121ed565b61160e3385612658565b604080518581526020810183905233917f7b4c04a6b3225fb798a519b1a97ce524a26a8b1e23aa2285e7a70768cab85f24910160405180910390a291506116529050565b6001609755919050565b60006116686001612771565b90508015611680576000805461ff0019166101001790555b60cd805461ffff60a01b1916601960a21b17905560ce805473252de94ae0f07fb19112297f299f8c9cc10e28a66001600160a01b03199182161790915560cf80549091166001600160a01b0384161790556116d96127fe565b6116e161282d565b6116e961285c565b801561172f576000805461ff0019169055604051600181527f7f26b83ff96e1f2b6a682f133852f6798a09c465da95921460cefb38474024989060200160405180910390a15b5050565b600061173d611ef4565b61174634611a2c565b905090565b6000611755611ef4565b611760848484611c84565b949350505050565b600061177660655460ff1690565b156117935760405162461bcd60e51b815260040161070190612fc3565b6002609754036117b55760405162461bcd60e51b815260040161070190612fed565b60026097556117c333611962565b6117cc8261288b565b6117d5836128c3565b50826117ec6001600160a01b038216333086612969565b33600090815260cb602090815260408083206001600160a01b03881684529091528120805485929061181f90849061303a565b9091555061182e905084611bb2565b6040518381526001600160a01b0385169033907fa416069d34a3f8ad17500a530d9d7044e50a4b1545c5082e37c2189cfb09daa39060200160405180910390a350506001609755919050565b6033546001600160a01b031633146118a45760405162461bcd60e51b815260040161070190613052565b6001600160a01b0381166119095760405162461bcd60e51b815260206004820152602660248201527f4f776e61626c653a206e6577206f776e657220697320746865207a65726f206160448201526564647265737360d01b6064820152608401610701565b611912816129a7565b50565b60008061192a670de0b6b3a764000085613087565b90506000611940670de0b6b3a764000083613087565b9050600061194e85836130a6565b905061079a670de0b6b3a7640000826130a6565b60cf54600160a81b900460ff166119125760405163df592f7d60e01b81526001600160a01b03821660048201527340c57923924b5c5c5455c48d93317139addac8fb90600090829063df592f7d90602401602060405180830381865afa1580156119d0573d6000803e3d6000fd5b505050506040513d601f19601f820116820180604052508101906119f491906130df565b905080156110995760405162461bcd60e51b8152602060048201526005602482015264303030313760d81b6044820152606401610701565b6000611a378261288b565b73eeeeeeeeeeeeeeeeeeeeeeeeeeeeeeeeeeeeeeee600090815260c96020527f5f7c67a3cacb8dfd12a7618432e2b4f09a0ac302b719fe9ad229ca3b57bea112546040516370a0823160e01b81523060048201526001600160a01b0390911691829182906370a0823190602401602060405180830381865afa158015611ac1573d6000803e3d6000fd5b505050506040513d601f19601f82011682018060405250810190611ae59190612faa565b9050816001600160a01b0316631249c58b866040518263ffffffff1660e01b81526004016000604051808303818588803b158015611b2257600080fd5b505af1158015611b36573d6000803e3d6000fd5b50506040516370a0823160e01b8152306004820152600093506001600160a01b03861692506370a082319150602401602060405180830381865afa158015611b82573d6000803e3d6000fd5b505050506040513d601f19601f82011682018060405250810190611ba69190612faa565b905061079a82826130c8565b6001600160a01b038116600081815260cc6020526040908190205490516370a0823160e01b81523060048201529091906370a0823190602401602060405180830381865afa158015611c08573d6000803e3d6000fd5b505050506040513d601f19601f82011682018060405250810190611c2c9190612faa565b81101561172f5760405162461bcd60e51b81526020600482015260056024820152640c0c0c0d0d60da1b6044820152606401610701565b600080611c708484613087565b9050611760670de0b6b3a7640000826130a6565b6000611c8f8261288b565b6001600160a01b03808416600081815260c960205260409020549091169084908290611cbd90883088612969565b604051636eb1769f60e11b81523060048201526001600160a01b0382811660248301526000919084169063dd62ed3e90604401602060405180830381865afa158015611d0d573d6000803e3d6000fd5b505050506040513d601f19601f82011682018060405250810190611d319190612faa565b90508015611d4d57611d4d6001600160a01b03841685836129f9565b611d616001600160a01b0384168588612b0c565b6040516370a0823160e01b81523060048201526000906001600160a01b038416906370a0823190602401602060405180830381865afa158015611da8573d6000803e3d6000fd5b505050506040513d601f19601f82011682018060405250810190611dcc9190612faa565b60405163140e25ad60e31b8152600481018990529091506001600160a01b0384169063a0712d68906024016020604051808303816000875af1158015611e16573d6000803e3d6000fd5b505050506040513d601f19601f82011682018060405250810190611e3a9190612faa565b15611e6f5760405162461bcd60e51b8152602060048201526005602482015264303030333760d81b6044820152606401610701565b6040516370a0823160e01b81523060048201526000906001600160a01b038516906370a0823190602401602060405180830381865afa158015611eb6573d6000803e3d6000fd5b505050506040513d601f19601f82011682018060405250810190611eda9190612faa565b9050611ee682826130c8565b9a9950505050505050505050565b60cd546001600160a01b0316331461070a5760405162461bcd60e51b8152602060048201526005602482015264303030333160d81b6044820152606401610701565b611f3f8261288b565b73eeeeeeeeeeeeeeeeeeeeeeeeeeeeeeeeeeeeeeed196001600160a01b03841601611f77576110996001600160a01b03821683612658565b6110996001600160a01b03841682846123ef565b60655460ff16611fd45760405162461bcd60e51b815260206004820152601460248201527314185d5cd8589b194e881b9bdd081c185d5cd95960621b6044820152606401610701565b6065805460ff191690557f5db9ee0a495bf2e6ff9c91a7834c1ba4fdd244a5e8aa4e537bd38aeae4b073aa335b6040516001600160a01b03909116815260200160405180910390a1565b60006120298261288b565b6001600160a01b03838116600090815260c960205260408082205490516370a0823160e01b815230600482015292169182919082906370a0823190602401602060405180830381865afa158015612084573d6000803e3d6000fd5b505050506040513d601f19601f820116820180604052508101906120a89190612faa565b60cf805460ff60a01b1916600160a01b17905560405163852a12e360e01b8152600481018790529091506001600160a01b0383169063852a12e3906024016020604051808303816000875af1158015612105573d6000803e3d6000fd5b505050506040513d601f19601f820116820180604052508101906121299190612faa565b1561215e5760405162461bcd60e51b8152602060048201526005602482015264060606066760db1b6044820152606401610701565b60cf805460ff60a01b191690556040516370a0823160e01b81523060048201526000906001600160a01b038416906370a0823190602401602060405180830381865afa1580156121b2573d6000803e3d6000fd5b505050506040513d601f19601f820116820180604052508101906121d69190612faa565b90506121e281836130c8565b979650505050505050565b6121f8838383612bbe565b6001600160a01b03808416600090815260cb6020908152604080832093861683529290529081208054839290610b1c9084906130c8565b60655460ff16156122525760405162461bcd60e51b815260040161070190612fc3565b6065805460ff191660011790557f62e78cea01bee320cd4e420270b5ea74000d11b0c9f74754ebdbfc544b05a2586120013390565b6000806122a561229f6033546001600160a01b031690565b846114e9565b60cd54909150600090612710906122c790600160a01b900461ffff1684613087565b6122d191906130a6565b905060006122df82846130c8565b90506122fd6122f66033546001600160a01b031690565b86856121ed565b6123148582610db56033546001600160a01b031690565b60ce5461232d90869084906001600160a01b0316611f36565b6000612339868461094b565b60ce5460408051838152602081018790529293506001600160a01b03898116939216917fd4f970ab7b145489a29b7fb1e61781e5de801533d677e0a18d47fc965ce0fe5b910160405180910390a3856001600160a01b03166123a36033546001600160a01b031690565b6001600160a01b03167fad6caeed9d51cf324e5c5e848fdc007f953ba85f457163a12a267c164e86a3fb846040516123dd91815260200190565b60405180910390a35091949350505050565b6040516001600160a01b03831660248201526044810182905261109990849063a9059cbb60e01b906064015b60408051601f198184030181529190526020810180516001600160e01b03166001600160e01b031990931692909217909152612bff565b60008061246a61229f6033546001600160a01b031690565b90506000612478848361094b565b9050612484858261201e565b60cd54909350600090612710906124a690600160a01b900461ffff1686613087565b6124b091906130a6565b905060006124be82866130c8565b905060006124cc878361094b565b905060006124da888561094b565b90506124f86124f16033546001600160a01b031690565b89896121ed565b61250f8983610db56033546001600160a01b031690565b60ce54612528908a9083906001600160a01b0316611f36565b60ce5460408051838152602081018790526001600160a01b038c81169316917fd4f970ab7b145489a29b7fb1e61781e5de801533d677e0a18d47fc965ce0fe5b910160405180910390a373eeeeeeeeeeeeeeeeeeeeeeeeeeeeeeeeeeeeeeed196001600160a01b038a16016125e45760335460408051848152602081018690526001600160a01b03909216917f7b4c04a6b3225fb798a519b1a97ce524a26a8b1e23aa2285e7a70768cab85f24910160405180910390a261264c565b886001600160a01b03166126006033546001600160a01b031690565b6001600160a01b03167f7fe27ee598c053249ff5902d8cb37653c2e252366ee4de137e6c9c08fa6756748486604051612643929190918252602082015260400190565b60405180910390a35b50505050505092915050565b804710156126a85760405162461bcd60e51b815260206004820152601d60248201527f416464726573733a20696e73756666696369656e742062616c616e63650000006044820152606401610701565b6000826001600160a01b03168260405160006040518083038185875af1925050503d80600081146126f5576040519150601f19603f3d011682016040523d82523d6000602084013e6126fa565b606091505b50509050806110995760405162461bcd60e51b815260206004820152603a60248201527f416464726573733a20756e61626c6520746f2073656e642076616c75652c207260448201527f6563697069656e74206d617920686176652072657665727465640000000000006064820152608401610701565b60008054610100900460ff16156127b8578160ff1660011480156127945750303b155b6127b05760405162461bcd60e51b815260040161070190613101565b506000919050565b60005460ff8084169116106127df5760405162461bcd60e51b815260040161070190613101565b506000805460ff191660ff92909216919091179055600190565b919050565b600054610100900460ff166128255760405162461bcd60e51b81526004016107019061314f565b61070a612cd1565b600054610100900460ff166128545760405162461bcd60e51b81526004016107019061314f565b61070a612d01565b600054610100900460ff166128835760405162461bcd60e51b81526004016107019061314f565b61070a612d34565b600081116119125760405162461bcd60e51b8152602060048201526005602482015264303030343560d81b6044820152606401610701565b6001600160a01b03808216600090815260ca6020526040812054909116806129155760405162461bcd60e51b8152602060048201526005602482015264303030343160d81b6044820152606401610701565b6001600160a01b03808216600090815260c960205260409020548482169116146110805760405162461bcd60e51b81526020600482015260056024820152641818181a1960d91b6044820152606401610701565b6040516001600160a01b03808516602483015283166044820152606481018290526129a19085906323b872dd60e01b9060840161241b565b50505050565b603380546001600160a01b038381166001600160a01b0319831681179093556040519116919082907f8be0079c531659141344cd1fd0a4f28419497f9722a3daafe3b4186f6b6457e090600090a35050565b604051636eb1769f60e11b81523060048201526001600160a01b0383811660248301526000919085169063dd62ed3e90604401602060405180830381865afa158015612a49573d6000803e3d6000fd5b505050506040513d601f19601f82011682018060405250810190612a6d9190612faa565b905081811015612ad15760405162461bcd60e51b815260206004820152602960248201527f5361666545524332303a2064656372656173656420616c6c6f77616e63652062604482015268656c6f77207a65726f60b81b6064820152608401610701565b6040516001600160a01b03841660248201528282036044820181905290612b0590869063095ea7b360e01b9060640161241b565b5050505050565b604051636eb1769f60e11b81523060048201526001600160a01b038381166024830152600091839186169063dd62ed3e90604401602060405180830381865afa158015612b5d573d6000803e3d6000fd5b505050506040513d601f19601f82011682018060405250810190612b819190612faa565b612b8b919061303a565b6040516001600160a01b0385166024820152604481018290529091506129a190859063095ea7b360e01b9060640161241b565b80612bc984846114e9565b10156110995760405162461bcd60e51b81526020600482015260056024820152640c0c0c0ccd60da1b6044820152606401610701565b6000612c54826040518060400160405280602081526020017f5361666545524332303a206c6f772d6c6576656c2063616c6c206661696c6564815250856001600160a01b0316612d629092919063ffffffff16565b8051909150156110995780806020019051810190612c7291906130df565b6110995760405162461bcd60e51b815260206004820152602a60248201527f5361666545524332303a204552433230206f7065726174696f6e20646964206e6044820152691bdd081cdd58d8d9595960b21b6064820152608401610701565b600054610100900460ff16612cf85760405162461bcd60e51b81526004016107019061314f565b61070a336129a7565b600054610100900460ff16612d285760405162461bcd60e51b81526004016107019061314f565b6065805460ff19169055565b600054610100900460ff16612d5b5760405162461bcd60e51b81526004016107019061314f565b6001609755565b60606117608484600085856001600160a01b0385163b612dc45760405162461bcd60e51b815260206004820152601d60248201527f416464726573733a2063616c6c20746f206e6f6e2d636f6e74726163740000006044820152606401610701565b600080866001600160a01b03168587604051612de091906131c6565b60006040518083038185875af1925050503d8060008114612e1d576040519150601f19603f3d011682016040523d82523d6000602084013e612e22565b606091505b50915091506121e282828660608315612e3c575081610f6b565b825115612e4c5782518084602001fd5b8160405162461bcd60e51b815260040161070191906131e2565b80356001600160a01b03811681146127f957600080fd5b60008060408385031215612e9057600080fd5b612e9983612e66565b946020939093013593505050565b600060208284031215612eb957600080fd5b610f6b82612e66565b600080600060608486031215612ed757600080fd5b612ee084612e66565b9250612eee60208501612e66565b9150604084013590509250925092565b60008060408385031215612f1157600080fd5b612f1a83612e66565b9150612f2860208401612e66565b90509250929050565b600060208284031215612f4357600080fd5b813561ffff81168114610f6b57600080fd5b600080600060608486031215612f6a57600080fd5b612f7384612e66565b925060208401359150612f8860408501612e66565b90509250925092565b600060208284031215612fa357600080fd5b5035919050565b600060208284031215612fbc57600080fd5b5051919050565b60208082526010908201526f14185d5cd8589b194e881c185d5cd95960821b604082015260600190565b6020808252601f908201527f5265656e7472616e637947756172643a207265656e7472616e742063616c6c00604082015260600190565b634e487b7160e01b600052601160045260246000fd5b6000821982111561304d5761304d613024565b500190565b6020808252818101527f4f776e61626c653a2063616c6c6572206973206e6f7420746865206f776e6572604082015260600190565b60008160001904831182151516156130a1576130a1613024565b500290565b6000826130c357634e487b7160e01b600052601260045260246000fd5b500490565b6000828210156130da576130da613024565b500390565b6000602082840312156130f157600080fd5b81518015158114610f6b57600080fd5b6020808252602e908201527f496e697469616c697a61626c653a20636f6e747261637420697320616c72656160408201526d191e481a5b9a5d1a585b1a5e995960921b606082015260800190565b6020808252602b908201527f496e697469616c697a61626c653a20636f6e7472616374206973206e6f74206960408201526a6e697469616c697a696e6760a81b606082015260800190565b60005b838110156131b557818101518382015260200161319d565b838111156129a15750506000910152565b600082516131d881846020870161319a565b9190910192915050565b602081526000825180602084015261320181604085016020870161319a565b601f01601f1916919091016040019291505056fea264697066735822122050c0caa3b87fd83de60177aecabc09e713ed3c1f4e1253e62e4de3bbde3224ab64736f6c634300080d0033",
  "devdoc": {
    "kind": "dev",
    "methods": {
      "addToCAssetBalance(address,address,uint256)": {
        "params": {
          "account": "The users account address",
          "amount": "The amount of cAsset to add",
          "cAsset": "The address of the compound ERC20 token"
        }
      },
      "assetAmountToCAssetAmount(address,uint256)": {
        "params": {
          "amount": "The amount of asset to convert to cAsset",
          "asset": "The assets address (e.g. DAI address)"
        }
      },
      "burnCErc20(address,uint256)": {
        "params": {
          "amount": "The amount of eth to withdraw",
          "asset": "The assets address (e.g. DAI address)"
        }
      },
      "cAssetAmountToAssetAmount(address,uint256)": {
        "params": {
          "amount": "The amount of asset to convert to cAsset",
          "cAsset": "The compound token address"
        }
      },
      "getCAsset(address)": {
        "params": {
          "asset": "The assets address (e.g. DAI address)"
        }
      },
      "getCAssetBalance(address,address)": {
        "params": {
          "account": "The users account address",
          "cAsset": "The compound token address"
        }
      },
      "mintCErc20(address,address,uint256)": {
        "params": {
          "amount": "The amount of eth to withdraw",
          "asset": "The assets address (e.g. DAI address)",
          "from": "The address the transaction is from"
        }
      },
      "owner()": {
        "details": "Returns the address of the current owner."
      },
      "paused()": {
        "details": "Returns true if the contract is paused, and false otherwise."
      },
      "renounceOwnership()": {
        "details": "Leaves the contract without owner. It will not be possible to call `onlyOwner` functions anymore. Can only be called by the current owner. NOTE: Renouncing ownership will leave the contract without an owner, thereby removing any functionality that is only available to the owner."
      },
      "sendValue(address,uint256,address)": {
        "params": {
          "amount": "The amount of eth to withdraw",
          "asset": "The assets address (e.g. DAI address)",
          "to": "Recipient address"
        }
      },
      "supplyCErc20(address,uint256)": {
        "params": {
          "amount": "The number of tokens to supply",
          "cAsset": "The address of the compound ERC20 token"
        }
      },
      "supplyErc20(address,uint256)": {
        "params": {
          "amount": "The number of tokens to supply",
          "asset": "The address of the ERC20 token"
        }
      },
      "transferOwnership(address)": {
        "details": "Transfers ownership of the contract to a new account (`newOwner`). Can only be called by the current owner."
      },
      "withdrawCBalance(address,address,uint256)": {
        "params": {
          "account": "The users account address",
          "cAsset": "The address of the compound ERC20 token",
          "cTokenAmount": "The amount of cToken to withdraw"
        }
      },
      "withdrawCErc20(address,uint256)": {
        "params": {
          "amount": "The number of tokens to withdraw",
          "cAsset": "The address of the compound ERC20 token"
        }
      },
      "withdrawErc20(address,uint256)": {
        "params": {
          "amount": "The number of tokens to withdraw",
          "asset": "The address of the ERC20 token"
        }
      },
      "withdrawEth(uint256)": {
        "params": {
          "amount": "The amount of eth to withdraw"
        }
      }
    },
    "stateVariables": {
      "ETH_ADDRESS": {
        "details": "Internal address used for for ETH in our mappings"
      },
      "SANCTIONS_CONTRACT": {
        "details": "Internal constant address for the Chainalysis OFAC sanctions oracle"
      },
      "__gap": {
        "details": "This empty reserved space is put in place to allow future versions to add new variables without shifting storage."
      },
      "_sanctionsPause": {
        "details": "The status of sanctions checks. Can be set to false if oracle becomes malicious."
      },
      "assetToCAsset": {
        "params": {
          "asset": "The assets address (e.g. DAI address)"
        }
      },
      "maxBalanceByCAsset": {
        "params": {
          "cAsset": "The compound token address"
        }
      }
    },
    "title": "Implementation of the ILiquidity interface",
    "version": 1
  },
  "userdoc": {
    "events": {
      "AssetToCAssetSet(address,address)": {
        "notice": "Emitted when a new asset and its corresponding cAsset are added to nifty apes allow list"
      },
      "CErc20Supplied(address,address,uint256)": {
        "notice": "Emitted when a liquidity provider adds a compound token to the protocol.         If users have already deposited funds into compound they can directly supply compound tokens         to nifty apes"
      },
      "CErc20Withdrawn(address,address,uint256)": {
        "notice": "Emitted when a liquidity provider removes a compound token from the protocol."
      },
      "Erc20Supplied(address,address,uint256,uint256)": {
        "notice": "Emitted when a liquidity provider adds a token to the protocol."
      },
      "Erc20Withdrawn(address,address,uint256,uint256)": {
        "notice": "Emitted when a liquidity provider removes a token from the protocol."
      },
      "EthSupplied(address,uint256,uint256)": {
        "notice": "Emitted when a liquidity provider adds ethereum to the protocol"
      },
      "EthWithdrawn(address,uint256,uint256)": {
        "notice": "Emitted when a liquidity provider removes ethereum from the protocol"
      },
      "LiquiditySanctionsPaused()": {
        "notice": "Emitted when sanctions checks are paused"
      },
      "LiquiditySanctionsUnpaused()": {
        "notice": "Emitted when sanctions checks are unpaused"
      },
      "LiquidityXLendingContractAddressUpdated(address,address)": {
        "notice": "Emitted when the associated lending contract address is changed"
      },
      "PercentForRegen(address,address,uint256,uint256)": {
        "notice": "Emitted when the owner withdraws from the protocol."
      },
      "RegenCollectiveAddressUpdated(address)": {
        "notice": "Emitted when the address for the Regen Collective is changed"
      },
      "RegenCollectiveBpsOfRevenueUpdated(uint16,uint16)": {
        "notice": "Emitted when the bps of revenue sent to the Regen Collective is changed"
      }
    },
    "kind": "user",
    "methods": {
      "addToCAssetBalance(address,address,uint256)": {
        "notice": "Function only callable by the NiftyApesLending contract         Allows lending contract to affect liquidity directly"
      },
      "assetAmountToCAssetAmount(address,uint256)": {
        "notice": "Returns the current amount of ctokens to be minted for a given amount of an underlying asset"
      },
      "assetToCAsset(address)": {
        "notice": "Returns the address of a compound token if the compound token is in the allow list on NiftyApes, otherwise zero address."
      },
      "burnCErc20(address,uint256)": {
        "notice": "Function only callable by the NiftyApesLending contract         Allows lending contract to affect liquidity directly"
      },
      "cAssetAmountToAssetAmount(address,uint256)": {
        "notice": "Returns the current amount of tokens to be redeemed for a given amount of cTokensThis function results in a slightly lower amount of the underlying asset than might be expected         Compound math truncates at the 8th decimal when going from underlying to cToken         When converting cToken to underlying this previous truncation results in a rounding down at the 8th decimal place         This only affects the NiftyApes protocol when the Owner withdraws and sends fund to the Regen Collective         And when a lender is slashed for insufficient funds they are left with a very small amount of cTokens         in their NiftyApes balance instead of a strict 0"
      },
      "compContractAddress()": {
        "notice": "Returns the address for COMP token"
      },
      "getCAsset(address)": {
        "notice": "Returns the whitelisted cAsset pair to the asset"
      },
      "getCAssetBalance(address,address)": {
        "notice": "Returns an accounts balance in compound tokens."
      },
      "initialize(address)": {
        "notice": "The initializer for the NiftyApes protocol.         NiftyApes is intended to be deployed behind a proxy and thus needs to initialize         its state outside of a constructor."
      },
      "lendingContractAddress()": {
        "notice": "Returns the address for the associated lending contract"
      },
      "maxBalanceByCAsset(address)": {
        "notice": "Returns a maximum balance of compound tokens, if there is no limit returns zero."
      },
      "mintCErc20(address,address,uint256)": {
        "notice": "Function only callable by the NiftyApesLending contract         Allows lending contract to affect liquidity directly"
      },
      "mintCEth()": {
        "notice": "Function only callable by the NiftyApesLending contract         Allows lending contract to affect liquidity directly"
      },
      "pause()": {
        "notice": "Pauses all interactions with the contract.         This is intended to be used as an emergency measure to avoid loosing funds."
      },
      "pauseSanctions()": {
        "notice": "Pauses sanctions checks"
      },
      "regenCollectiveAddress()": {
        "notice": "Returns the address for the Regen Collective"
      },
      "regenCollectiveBpsOfRevenue()": {
        "notice": "Returns the basis points of revenue sent to the Regen Collective         denominated in basis points, parts of 10_000"
      },
      "sendValue(address,uint256,address)": {
        "notice": "Function only callable by the NiftyApesLending contract         Allows lending contract to affect liquidity directly"
      },
      "setCAssetAddress(address,address)": {
        "notice": "Allows the owner of the contract to add an asset to the allow list         All assets on NiftyApes have to have a mapping present from asset to cAsset,         The asset is a token like DAI while the cAsset is the corresponding token in compound cDAI."
      },
      "setMaxCAssetBalance(address,uint256)": {
        "notice": "Updates the maximum cAsset balance that the contracts will allow         This allows a guarded launch with NiftyApes limiting the amount of liquidity         in the protocol."
      },
      "supplyCErc20(address,uint256)": {
        "notice": "Supply a given compound token.         This method allows users who have already supplied tokens to compound to directly         supply their compound tokens to NiftyApes."
      },
      "supplyErc20(address,uint256)": {
        "notice": "Supply a given ERC20 token.         The ERC20 token is supplied to compound and users will be earning interest         on the token.         Callers need to first approve spending of the ERC20 before calling this method"
      },
      "supplyEth()": {
        "notice": "Supply Eth to NiftyApes.         Eth token is supplied to compound and users will be earning interest         on it."
      },
      "unpause()": {
        "notice": "Unpauses all interactions with the contract."
      },
      "unpauseSanctions()": {
        "notice": "Unpauses sanctions checks"
      },
      "updateLendingContractAddress(address)": {
        "notice": "Updates the associated lending contract address"
      },
      "updateRegenCollectiveAddress(address)": {
        "notice": "Updates the address for the Regen Collective"
      },
      "updateRegenCollectiveBpsOfRevenue(uint16)": {
        "notice": "Updates the bps of revenue sent to the Regen Collective         Fees are denominated in basis points, parts of 10_000"
      },
      "withdrawCBalance(address,address,uint256)": {
        "notice": "Function only callable by the NiftyApesLending contract         Allows lending contract to affect liquidity directly"
      },
      "withdrawCErc20(address,uint256)": {
        "notice": "Withdraw a given compound ERC20 token.         This method returns compound tokens directly to the user without returning the underlying"
      },
      "withdrawComp()": {
        "notice": "OnlyOwner can call Withdraw COMP rewards from NiftyApes."
      },
      "withdrawErc20(address,uint256)": {
        "notice": "Withdraw a given ERC20 token.         This method withdraws tokens from compound and unwraps the ctoken returning         the underlying asset to the user."
      },
      "withdrawEth(uint256)": {
        "notice": "Withdraw Eth from NiftyApes.         This method withdraws tokens from compound and unwraps the ctoken returning         the underlying asset to the user."
      }
    },
    "version": 1
  },
  "storageLayout": {
    "storage": [
      {
        "astId": 130,
        "contract": "contracts/Liquidity.sol:NiftyApesLiquidity",
        "label": "_initialized",
        "offset": 0,
        "slot": "0",
        "type": "t_uint8"
      },
      {
        "astId": 133,
        "contract": "contracts/Liquidity.sol:NiftyApesLiquidity",
        "label": "_initializing",
        "offset": 1,
        "slot": "0",
        "type": "t_bool"
      },
      {
        "astId": 1202,
        "contract": "contracts/Liquidity.sol:NiftyApesLiquidity",
        "label": "__gap",
        "offset": 0,
        "slot": "1",
        "type": "t_array(t_uint256)50_storage"
      },
      {
        "astId": 10,
        "contract": "contracts/Liquidity.sol:NiftyApesLiquidity",
        "label": "_owner",
        "offset": 0,
        "slot": "51",
        "type": "t_address"
      },
      {
        "astId": 122,
        "contract": "contracts/Liquidity.sol:NiftyApesLiquidity",
        "label": "__gap",
        "offset": 0,
        "slot": "52",
        "type": "t_array(t_uint256)49_storage"
      },
      {
        "astId": 286,
        "contract": "contracts/Liquidity.sol:NiftyApesLiquidity",
        "label": "_paused",
        "offset": 0,
        "slot": "101",
        "type": "t_bool"
      },
      {
        "astId": 375,
        "contract": "contracts/Liquidity.sol:NiftyApesLiquidity",
        "label": "__gap",
        "offset": 0,
        "slot": "102",
        "type": "t_array(t_uint256)49_storage"
      },
      {
        "astId": 390,
        "contract": "contracts/Liquidity.sol:NiftyApesLiquidity",
        "label": "_status",
        "offset": 0,
        "slot": "151",
        "type": "t_uint256"
      },
      {
        "astId": 434,
        "contract": "contracts/Liquidity.sol:NiftyApesLiquidity",
        "label": "__gap",
        "offset": 0,
        "slot": "152",
        "type": "t_array(t_uint256)49_storage"
      },
      {
        "astId": 5652,
        "contract": "contracts/Liquidity.sol:NiftyApesLiquidity",
        "label": "assetToCAsset",
        "offset": 0,
        "slot": "201",
        "type": "t_mapping(t_address,t_address)"
      },
      {
        "astId": 5657,
        "contract": "contracts/Liquidity.sol:NiftyApesLiquidity",
        "label": "_cAssetToAsset",
        "offset": 0,
        "slot": "202",
        "type": "t_mapping(t_address,t_address)"
      },
      {
        "astId": 5664,
        "contract": "contracts/Liquidity.sol:NiftyApesLiquidity",
        "label": "_balanceByAccountByCAsset",
        "offset": 0,
        "slot": "203",
        "type": "t_mapping(t_address,t_mapping(t_address,t_uint256))"
      },
      {
        "astId": 5670,
        "contract": "contracts/Liquidity.sol:NiftyApesLiquidity",
        "label": "maxBalanceByCAsset",
        "offset": 0,
        "slot": "204",
        "type": "t_mapping(t_address,t_uint256)"
      },
      {
        "astId": 5673,
        "contract": "contracts/Liquidity.sol:NiftyApesLiquidity",
        "label": "lendingContractAddress",
        "offset": 0,
        "slot": "205",
        "type": "t_address"
      },
      {
        "astId": 5676,
        "contract": "contracts/Liquidity.sol:NiftyApesLiquidity",
        "label": "regenCollectiveBpsOfRevenue",
        "offset": 20,
        "slot": "205",
        "type": "t_uint16"
      },
      {
        "astId": 5679,
        "contract": "contracts/Liquidity.sol:NiftyApesLiquidity",
        "label": "regenCollectiveAddress",
        "offset": 0,
        "slot": "206",
        "type": "t_address"
      },
      {
        "astId": 5682,
        "contract": "contracts/Liquidity.sol:NiftyApesLiquidity",
        "label": "compContractAddress",
        "offset": 0,
        "slot": "207",
        "type": "t_address"
      },
      {
        "astId": 5685,
        "contract": "contracts/Liquidity.sol:NiftyApesLiquidity",
        "label": "_ethTransferable",
        "offset": 20,
        "slot": "207",
        "type": "t_bool"
      },
      {
        "astId": 5688,
        "contract": "contracts/Liquidity.sol:NiftyApesLiquidity",
        "label": "_sanctionsPause",
        "offset": 21,
        "slot": "207",
        "type": "t_bool"
      },
      {
        "astId": 5693,
        "contract": "contracts/Liquidity.sol:NiftyApesLiquidity",
        "label": "__gap",
        "offset": 0,
        "slot": "208",
        "type": "t_array(t_uint256)500_storage"
      }
    ],
    "types": {
      "t_address": {
        "encoding": "inplace",
        "label": "address",
        "numberOfBytes": "20"
      },
      "t_array(t_uint256)49_storage": {
        "base": "t_uint256",
        "encoding": "inplace",
        "label": "uint256[49]",
        "numberOfBytes": "1568"
      },
      "t_array(t_uint256)500_storage": {
        "base": "t_uint256",
        "encoding": "inplace",
        "label": "uint256[500]",
        "numberOfBytes": "16000"
      },
      "t_array(t_uint256)50_storage": {
        "base": "t_uint256",
        "encoding": "inplace",
        "label": "uint256[50]",
        "numberOfBytes": "1600"
      },
      "t_bool": {
        "encoding": "inplace",
        "label": "bool",
        "numberOfBytes": "1"
      },
      "t_mapping(t_address,t_address)": {
        "encoding": "mapping",
        "key": "t_address",
        "label": "mapping(address => address)",
        "numberOfBytes": "32",
        "value": "t_address"
      },
      "t_mapping(t_address,t_mapping(t_address,t_uint256))": {
        "encoding": "mapping",
        "key": "t_address",
        "label": "mapping(address => mapping(address => uint256))",
        "numberOfBytes": "32",
        "value": "t_mapping(t_address,t_uint256)"
      },
      "t_mapping(t_address,t_uint256)": {
        "encoding": "mapping",
        "key": "t_address",
        "label": "mapping(address => uint256)",
        "numberOfBytes": "32",
        "value": "t_uint256"
      },
      "t_uint16": {
        "encoding": "inplace",
        "label": "uint16",
        "numberOfBytes": "2"
      },
      "t_uint256": {
        "encoding": "inplace",
        "label": "uint256",
        "numberOfBytes": "32"
      },
      "t_uint8": {
        "encoding": "inplace",
        "label": "uint8",
        "numberOfBytes": "1"
      }
    }
  }
}