{
  "address": "0x103A3b128991781EE2c8db0454cA99d67b257923",
  "abi": [
    {
      "anonymous": false,
      "inputs": [
        {
          "indexed": false,
          "internalType": "uint8",
          "name": "version",
          "type": "uint8"
        }
      ],
      "name": "Initialized",
      "type": "event"
    },
    {
      "anonymous": false,
      "inputs": [
        {
          "indexed": true,
          "internalType": "address",
          "name": "previousOwner",
          "type": "address"
        },
        {
          "indexed": true,
          "internalType": "address",
          "name": "newOwner",
          "type": "address"
        }
      ],
      "name": "OwnershipTransferred",
      "type": "event"
    },
    {
      "anonymous": false,
      "inputs": [
        {
          "indexed": false,
          "internalType": "address",
          "name": "account",
          "type": "address"
        }
      ],
      "name": "Paused",
      "type": "event"
    },
    {
      "anonymous": false,
      "inputs": [
        {
          "indexed": false,
          "internalType": "address",
          "name": "oldLendingContractAddress",
          "type": "address"
        },
        {
          "indexed": false,
          "internalType": "address",
          "name": "newLendingContractAddress",
          "type": "address"
        }
      ],
      "name": "SigLendingXLendingContractAddressUpdated",
      "type": "event"
    },
    {
      "anonymous": false,
      "inputs": [
        {
          "indexed": false,
          "internalType": "address",
          "name": "account",
          "type": "address"
        }
      ],
      "name": "Unpaused",
      "type": "event"
    },
    {
      "inputs": [
        {
          "components": [
            {
              "internalType": "address",
              "name": "creator",
              "type": "address"
            },
            {
              "internalType": "uint32",
              "name": "duration",
              "type": "uint32"
            },
            {
              "internalType": "uint32",
              "name": "expiration",
              "type": "uint32"
            },
            {
              "internalType": "bool",
              "name": "fixedTerms",
              "type": "bool"
            },
            {
              "internalType": "bool",
              "name": "floorTerm",
              "type": "bool"
            },
            {
              "internalType": "bool",
              "name": "lenderOffer",
              "type": "bool"
            },
            {
              "internalType": "address",
              "name": "nftContractAddress",
              "type": "address"
            },
            {
              "internalType": "uint256",
              "name": "nftId",
              "type": "uint256"
            },
            {
              "internalType": "address",
              "name": "asset",
              "type": "address"
            },
            {
              "internalType": "uint128",
              "name": "amount",
              "type": "uint128"
            },
            {
              "internalType": "uint96",
              "name": "interestRatePerSecond",
              "type": "uint96"
            },
            {
              "internalType": "uint64",
              "name": "floorTermLimit",
              "type": "uint64"
            }
          ],
          "internalType": "struct IOffersStructs.Offer",
          "name": "offer",
          "type": "tuple"
        },
        {
          "internalType": "bytes",
          "name": "signature",
          "type": "bytes"
        },
        {
          "internalType": "uint256",
          "name": "nftId",
          "type": "uint256"
        }
      ],
      "name": "executeLoanByBorrowerSignature",
      "outputs": [],
      "stateMutability": "payable",
      "type": "function"
    },
    {
      "inputs": [
        {
          "components": [
            {
              "internalType": "address",
              "name": "creator",
              "type": "address"
            },
            {
              "internalType": "uint32",
              "name": "duration",
              "type": "uint32"
            },
            {
              "internalType": "uint32",
              "name": "expiration",
              "type": "uint32"
            },
            {
              "internalType": "bool",
              "name": "fixedTerms",
              "type": "bool"
            },
            {
              "internalType": "bool",
              "name": "floorTerm",
              "type": "bool"
            },
            {
              "internalType": "bool",
              "name": "lenderOffer",
              "type": "bool"
            },
            {
              "internalType": "address",
              "name": "nftContractAddress",
              "type": "address"
            },
            {
              "internalType": "uint256",
              "name": "nftId",
              "type": "uint256"
            },
            {
              "internalType": "address",
              "name": "asset",
              "type": "address"
            },
            {
              "internalType": "uint128",
              "name": "amount",
              "type": "uint128"
            },
            {
              "internalType": "uint96",
              "name": "interestRatePerSecond",
              "type": "uint96"
            },
            {
              "internalType": "uint64",
              "name": "floorTermLimit",
              "type": "uint64"
            }
          ],
          "internalType": "struct IOffersStructs.Offer",
          "name": "offer",
          "type": "tuple"
        },
        {
          "internalType": "bytes",
          "name": "signature",
          "type": "bytes"
        }
      ],
      "name": "executeLoanByLenderSignature",
      "outputs": [],
      "stateMutability": "payable",
      "type": "function"
    },
    {
      "inputs": [
        {
          "internalType": "address",
          "name": "newOffersContractAddress",
          "type": "address"
        }
      ],
      "name": "initialize",
      "outputs": [],
      "stateMutability": "nonpayable",
      "type": "function"
    },
    {
      "inputs": [],
      "name": "lendingContractAddress",
      "outputs": [
        {
          "internalType": "address",
          "name": "",
          "type": "address"
        }
      ],
      "stateMutability": "view",
      "type": "function"
    },
    {
      "inputs": [],
      "name": "offersContractAddress",
      "outputs": [
        {
          "internalType": "address",
          "name": "",
          "type": "address"
        }
      ],
      "stateMutability": "view",
      "type": "function"
    },
    {
      "inputs": [],
      "name": "owner",
      "outputs": [
        {
          "internalType": "address",
          "name": "",
          "type": "address"
        }
      ],
      "stateMutability": "view",
      "type": "function"
    },
    {
      "inputs": [],
      "name": "pause",
      "outputs": [],
      "stateMutability": "nonpayable",
      "type": "function"
    },
    {
      "inputs": [],
      "name": "paused",
      "outputs": [
        {
          "internalType": "bool",
          "name": "",
          "type": "bool"
        }
      ],
      "stateMutability": "view",
      "type": "function"
    },
    {
      "inputs": [
        {
          "components": [
            {
              "internalType": "address",
              "name": "creator",
              "type": "address"
            },
            {
              "internalType": "uint32",
              "name": "duration",
              "type": "uint32"
            },
            {
              "internalType": "uint32",
              "name": "expiration",
              "type": "uint32"
            },
            {
              "internalType": "bool",
              "name": "fixedTerms",
              "type": "bool"
            },
            {
              "internalType": "bool",
              "name": "floorTerm",
              "type": "bool"
            },
            {
              "internalType": "bool",
              "name": "lenderOffer",
              "type": "bool"
            },
            {
              "internalType": "address",
              "name": "nftContractAddress",
              "type": "address"
            },
            {
              "internalType": "uint256",
              "name": "nftId",
              "type": "uint256"
            },
            {
              "internalType": "address",
              "name": "asset",
              "type": "address"
            },
            {
              "internalType": "uint128",
              "name": "amount",
              "type": "uint128"
            },
            {
              "internalType": "uint96",
              "name": "interestRatePerSecond",
              "type": "uint96"
            },
            {
              "internalType": "uint64",
              "name": "floorTermLimit",
              "type": "uint64"
            }
          ],
          "internalType": "struct IOffersStructs.Offer",
          "name": "offer",
          "type": "tuple"
        },
        {
          "internalType": "bytes",
          "name": "signature",
          "type": "bytes"
        },
        {
          "internalType": "uint256",
          "name": "nftId",
          "type": "uint256"
        },
        {
          "internalType": "uint32",
          "name": "expectedLastUpdatedTimestamp",
          "type": "uint32"
        }
      ],
      "name": "refinanceByBorrowerSignature",
      "outputs": [],
      "stateMutability": "nonpayable",
      "type": "function"
    },
    {
      "inputs": [],
      "name": "renounceOwnership",
      "outputs": [],
      "stateMutability": "nonpayable",
      "type": "function"
    },
    {
      "inputs": [
        {
          "internalType": "address",
          "name": "newOwner",
          "type": "address"
        }
      ],
      "name": "transferOwnership",
      "outputs": [],
      "stateMutability": "nonpayable",
      "type": "function"
    },
    {
      "inputs": [],
      "name": "unpause",
      "outputs": [],
      "stateMutability": "nonpayable",
      "type": "function"
    },
    {
      "inputs": [
        {
          "internalType": "address",
          "name": "newLendingContractAddress",
          "type": "address"
        }
      ],
      "name": "updateLendingContractAddress",
      "outputs": [],
      "stateMutability": "nonpayable",
      "type": "function"
    }
  ],
  "transactionHash": "0x2a41715dabe2f15e7e0b866ad3d7bd5dc140c703a11f3f9699319d72b56f813b",
  "args": [],
  "numDeployments": 1,
  "solcInputHash": "39dc6a2acab2f06fc6af616360c806ab",
  "bytecode": "0x608060405234801561001057600080fd5b5061179c806100206000396000f3fe6080604052600436106100c25760003560e01c80637379dbe61161007f5780639d39431c116100595780639d39431c146101d9578063c4d66de8146101ec578063ca1b64211461020c578063f2fde38b1461022c57600080fd5b80637379dbe6146101865780638456cb59146101a65780638da5cb5b146101bb57600080fd5b80631efdf7bd146100c757806326d791bd146101045780633f4ba83a1461012657806355a113e61461013b5780635c975abb1461014e578063715018a614610171575b600080fd5b3480156100d357600080fd5b5060c9546100e7906001600160a01b031681565b6040516001600160a01b0390911681526020015b60405180910390f35b34801561011057600080fd5b5061012461011f366004611089565b61024c565b005b34801561013257600080fd5b506101246102e8565b6101246101493660046112d1565b61031c565b34801561015a57600080fd5b5060655460ff1660405190151581526020016100fb565b34801561017d57600080fd5b506101246103f1565b34801561019257600080fd5b5060ca546100e7906001600160a01b031681565b3480156101b257600080fd5b5061012461041b565b3480156101c757600080fd5b506033546001600160a01b03166100e7565b6101246101e736600461132c565b61044d565b3480156101f857600080fd5b50610124610207366004611089565b61077c565b34801561021857600080fd5b5061012461022736600461137d565b61081d565b34801561023857600080fd5b50610124610247366004611089565b6108a9565b6033546001600160a01b0316331461027f5760405162461bcd60e51b8152600401610276906113ea565b60405180910390fd5b60ca54604080516001600160a01b03928316815291831660208301527f779f60183472eb9241e747f23a7f255939bda9b812a442d39b17cfd00125b5bd910160405180910390a160ca80546001600160a01b0319166001600160a01b0392909216919091179055565b6033546001600160a01b031633146103125760405162461bcd60e51b8152600401610276906113ea565b61031a610944565b565b60655460ff161561033f5760405162461bcd60e51b81526004016102769061141f565b6002609754036103615760405162461bcd60e51b815260040161027690611449565b600260975560006103738484846109d7565b905061037e84610d22565b60ca54604051635b1f4c2360e11b81526001600160a01b039091169063b63e9846906103b490879085903390889060040161157e565b600060405180830381600087803b1580156103ce57600080fd5b505af11580156103e2573d6000803e3d6000fd5b50506001609755505050505050565b6033546001600160a01b0316331461031a5760405162461bcd60e51b8152600401610276906113ea565b6033546001600160a01b031633146104455760405162461bcd60e51b8152600401610276906113ea565b61031a610d5b565b60655460ff16156104705760405162461bcd60e51b81526004016102769061141f565b6002609754036104925760405162461bcd60e51b815260040161027690611449565b600260975560c954604051630406fbb960e51b81526000916001600160a01b0316906380df7720906104ca9086908690600401611604565b6020604051808303816000875af11580156104e9573d6000803e3d6000fd5b505050506040513d601f19601f8201168201806040525081019061050d919061162f565b90506105198382610db3565b60c954604051637ba2edfd60e11b81526001600160a01b039091169063f745dbfa9061054990859060040161164c565b60006040518083038186803b15801561056157600080fd5b505afa158015610575573d6000803e3d6000fd5b505060c9546040516346df86c560e11b81526001600160a01b039091169250638dbf0d8a91506105a990859060040161164c565b60006040518083038186803b1580156105c157600080fd5b505afa1580156105d5573d6000803e3d6000fd5b505060c9546040516320c2aced60e01b81526001600160a01b0390911692506320c2aced915061060990869060040161165f565b60006040518083038186803b15801561062157600080fd5b505afa158015610635573d6000803e3d6000fd5b5050505061064283610df7565b60c954604051630b7ee19b60e21b81526001600160a01b0390911690632dfb866c9061067290869060040161165f565b60006040518083038186803b15801561068a57600080fd5b505afa15801561069e573d6000803e3d6000fd5b505060c95460405163f8a63e3f60e01b81526001600160a01b03909116925063f8a63e3f91506106d49086908690600401611604565b600060405180830381600087803b1580156106ee57600080fd5b505af1158015610702573d6000803e3d6000fd5b505060ca5460e0860151604051635b1f4c2360e11b81526001600160a01b03909216935063b63e98469250610740918791339187919060040161157e565b600060405180830381600087803b15801561075a57600080fd5b505af115801561076e573d6000803e3d6000fd5b505060016097555050505050565b60006107886001610e31565b905080156107a0576000805461ff0019166101001790555b60c980546001600160a01b0319166001600160a01b0384161790556107c3610ebe565b6107cb610eed565b6107d3610f1c565b8015610819576000805461ff0019169055604051600181527f7f26b83ff96e1f2b6a682f133852f6798a09c465da95921460cefb38474024989060200160405180910390a15b5050565b60655460ff16156108405760405162461bcd60e51b81526004016102769061141f565b6002609754036108625760405162461bcd60e51b815260040161027690611449565b60026097556108728484846109d7565b5060ca54604051631e5a328360e11b81526001600160a01b0390911690633cb46506906103b4908790869033908790600401611674565b6033546001600160a01b031633146108d35760405162461bcd60e51b8152600401610276906113ea565b6001600160a01b0381166109385760405162461bcd60e51b815260206004820152602660248201527f4f776e61626c653a206e6577206f776e657220697320746865207a65726f206160448201526564647265737360d01b6064820152608401610276565b61094181610f4b565b50565b60655460ff1661098d5760405162461bcd60e51b815260206004820152601460248201527314185d5cd8589b194e881b9bdd081c185d5cd95960621b6044820152606401610276565b6065805460ff191690557f5db9ee0a495bf2e6ff9c91a7834c1ba4fdd244a5e8aa4e537bd38aeae4b073aa335b6040516001600160a01b03909116815260200160405180910390a1565b60c954604051630406fbb960e51b81526000916001600160a01b0316906380df772090610a0a9087908790600401611604565b6020604051808303816000875af1158015610a29573d6000803e3d6000fd5b505050506040513d601f19601f82011682018060405250810190610a4d919061162f565b9050610a598482610db3565b60c954604051637ba2edfd60e11b81526001600160a01b039091169063f745dbfa90610a8990869060040161164c565b60006040518083038186803b158015610aa157600080fd5b505afa158015610ab5573d6000803e3d6000fd5b505060c9546040516346df86c560e11b81526001600160a01b039091169250638dbf0d8a9150610ae990869060040161164c565b60006040518083038186803b158015610b0157600080fd5b505afa158015610b15573d6000803e3d6000fd5b505060c9546040516320c2aced60e01b81526001600160a01b0390911692506320c2aced9150610b4990879060040161165f565b60006040518083038186803b158015610b6157600080fd5b505afa158015610b75573d6000803e3d6000fd5b505050508360800151610bf557610b8c8483610f9d565b60c95460405163f8a63e3f60e01b81526001600160a01b039091169063f8a63e3f90610bbe9087908790600401611604565b600060405180830381600087803b158015610bd857600080fd5b505af1158015610bec573d6000803e3d6000fd5b50505050610d1b565b61016084015160c95460405163cb94385360e01b815267ffffffffffffffff909216916001600160a01b039091169063cb94385390610c3890879060040161164c565b602060405180830381865afa158015610c55573d6000803e3d6000fd5b505050506040513d601f19601f82011682018060405250810190610c7991906116b0565b67ffffffffffffffff1610610cb85760405162461bcd60e51b8152602060048201526005602482015264303030353160d81b6044820152606401610276565b60c954604051631b0575d360e31b81526001600160a01b039091169063d82bae9890610ce890869060040161164c565b600060405180830381600087803b158015610d0257600080fd5b505af1158015610d16573d6000803e3d6000fd5b505050505b9392505050565b8060a001516109415760405162461bcd60e51b8152602060048201526005602482015264181818189960d91b6044820152606401610276565b60655460ff1615610d7e5760405162461bcd60e51b81526004016102769061141f565b6065805460ff191660011790557f62e78cea01bee320cd4e420270b5ea74000d11b0c9f74754ebdbfc544b05a2586109ba3390565b81516001600160a01b038281169116146108195760405162461bcd60e51b81526020600482015260056024820152640c0c0c0c8d60da1b6044820152606401610276565b8060a00151156109415760405162461bcd60e51b8152602060048201526005602482015264303030313360d81b6044820152606401610276565b60008054610100900460ff1615610e78578160ff166001148015610e545750303b155b610e705760405162461bcd60e51b8152600401610276906116cd565b506000919050565b60005460ff808416911610610e9f5760405162461bcd60e51b8152600401610276906116cd565b506000805460ff191660ff92909216919091179055600190565b919050565b600054610100900460ff16610ee55760405162461bcd60e51b81526004016102769061171b565b61031a610fd8565b600054610100900460ff16610f145760405162461bcd60e51b81526004016102769061171b565b61031a611008565b600054610100900460ff16610f435760405162461bcd60e51b81526004016102769061171b565b61031a61103b565b603380546001600160a01b038381166001600160a01b0319831681179093556040519116919082907f8be0079c531659141344cd1fd0a4f28419497f9722a3daafe3b4186f6b6457e090600090a35050565b8160e0015181146108195760405162461bcd60e51b8152602060048201526005602482015264181818191960d91b6044820152606401610276565b600054610100900460ff16610fff5760405162461bcd60e51b81526004016102769061171b565b61031a33610f4b565b600054610100900460ff1661102f5760405162461bcd60e51b81526004016102769061171b565b6065805460ff19169055565b600054610100900460ff166110625760405162461bcd60e51b81526004016102769061171b565b6001609755565b6001600160a01b038116811461094157600080fd5b8035610eb981611069565b60006020828403121561109b57600080fd5b8135610d1b81611069565b634e487b7160e01b600052604160045260246000fd5b604051610180810167ffffffffffffffff811182821017156110e0576110e06110a6565b60405290565b803563ffffffff81168114610eb957600080fd5b80358015158114610eb957600080fd5b80356001600160801b0381168114610eb957600080fd5b80356bffffffffffffffffffffffff81168114610eb957600080fd5b67ffffffffffffffff8116811461094157600080fd5b8035610eb98161113d565b6000610180828403121561117157600080fd5b6111796110bc565b90506111848261107e565b8152611192602083016110e6565b60208201526111a3604083016110e6565b60408201526111b4606083016110fa565b60608201526111c5608083016110fa565b60808201526111d660a083016110fa565b60a08201526111e760c0830161107e565b60c082015260e082013560e082015261010061120481840161107e565b9082015261012061121683820161110a565b90820152610140611228838201611121565b9082015261016061123a838201611153565b9082015292915050565b600082601f83011261125557600080fd5b813567ffffffffffffffff80821115611270576112706110a6565b604051601f8301601f19908116603f01168101908282118183101715611298576112986110a6565b816040528381528660208588010111156112b157600080fd5b836020870160208301376000602085830101528094505050505092915050565b60008060006101c084860312156112e757600080fd5b6112f1858561115e565b925061018084013567ffffffffffffffff81111561130e57600080fd5b61131a86828701611244565b9250506101a084013590509250925092565b6000806101a0838503121561134057600080fd5b61134a848461115e565b915061018083013567ffffffffffffffff81111561136757600080fd5b61137385828601611244565b9150509250929050565b6000806000806101e0858703121561139457600080fd5b61139e868661115e565b935061018085013567ffffffffffffffff8111156113bb57600080fd5b6113c787828801611244565b9350506101a085013591506113df6101c086016110e6565b905092959194509250565b6020808252818101527f4f776e61626c653a2063616c6c6572206973206e6f7420746865206f776e6572604082015260600190565b60208082526010908201526f14185d5cd8589b194e881c185d5cd95960821b604082015260600190565b6020808252601f908201527f5265656e7472616e637947756172643a207265656e7472616e742063616c6c00604082015260600190565b80516001600160a01b0316825260208101516114a4602084018263ffffffff169052565b5060408101516114bc604084018263ffffffff169052565b5060608101516114d0606084018215159052565b5060808101516114e4608084018215159052565b5060a08101516114f860a084018215159052565b5060c081015161151360c08401826001600160a01b03169052565b5060e081015160e083015261010080820151611539828501826001600160a01b03169052565b5050610120818101516001600160801b031690830152610140808201516bffffffffffffffffffffffff16908301526101609081015167ffffffffffffffff16910152565b6101e0810161158d8287611480565b6001600160a01b03948516610180830152929093166101a08401526101c090920191909152919050565b6000815180845260005b818110156115dd576020818501810151868301820152016115c1565b818111156115ef576000602083870101525b50601f01601f19169290920160200192915050565b60006101a06116138386611480565b80610180840152611626818401856115b7565b95945050505050565b60006020828403121561164157600080fd5b8151610d1b81611069565b602081526000610d1b60208301846115b7565b610180810161166e8284611480565b92915050565b6101e081016116838287611480565b6101808201949094526001600160a01b03929092166101a083015263ffffffff166101c090910152919050565b6000602082840312156116c257600080fd5b8151610d1b8161113d565b6020808252602e908201527f496e697469616c697a61626c653a20636f6e747261637420697320616c72656160408201526d191e481a5b9a5d1a585b1a5e995960921b606082015260800190565b6020808252602b908201527f496e697469616c697a61626c653a20636f6e7472616374206973206e6f74206960408201526a6e697469616c697a696e6760a81b60608201526080019056fea2646970667358221220fc5abc5e6325a1a0a88ff75d21dcbe9d84067aa89a30f81d95b2f45e8deda8c564736f6c634300080d0033",
  "devdoc": {
    "author": "captnseagraves (captnseagraves.eth)",
    "custom:contributor": "dankurka0xAlcibiades (alcibiades.eth)zjmiller (zjmiller.eth)",
    "custom:version": "1.0",
    "kind": "dev",
    "methods": {
      "executeLoanByBorrowerSignature((address,uint32,uint32,bool,bool,bool,address,uint256,address,uint128,uint96,uint64),bytes,uint256)": {
        "params": {
          "nftId": "The id of a specified NFT",
          "offer": "The details of the loan auction offer",
          "signature": "A signed offerHash"
        }
      },
      "executeLoanByLenderSignature((address,uint32,uint32,bool,bool,bool,address,uint256,address,uint128,uint96,uint64),bytes)": {
        "params": {
          "offer": "The details of the loan auction offer",
          "signature": "A signed offerHash"
        }
      },
      "owner()": {
        "details": "Returns the address of the current owner."
      },
      "paused()": {
        "details": "Returns true if the contract is paused, and false otherwise."
      },
      "refinanceByBorrowerSignature((address,uint32,uint32,bool,bool,bool,address,uint256,address,uint128,uint96,uint64),bytes,uint256,uint32)": {
        "params": {
          "nftId": "The id of a specified NFT",
          "offer": "The details of the loan auction offer",
          "signature": "The signature for the offer"
        }
      },
      "renounceOwnership()": {
        "details": "Leaves the contract without owner. It will not be possible to call `onlyOwner` functions anymore. Can only be called by the current owner. NOTE: Renouncing ownership will leave the contract without an owner, thereby removing any functionality that is only available to the owner."
      },
      "transferOwnership(address)": {
        "details": "Transfers ownership of the contract to a new account (`newOwner`). Can only be called by the current owner."
      }
    },
    "stateVariables": {
      "__gap": {
        "details": "This empty reserved space is put in place to allow future versions to add new variables without shifting storage."
      }
    },
    "title": "NiftyApes Signature Lending",
    "version": 1
  },
  "userdoc": {
    "events": {
      "SigLendingXLendingContractAddressUpdated(address,address)": {
        "notice": "Emitted when the associated liquidity contract address is changed"
      }
    },
    "kind": "user",
    "methods": {
      "executeLoanByBorrowerSignature((address,uint32,uint32,bool,bool,bool,address,uint256,address,uint128,uint96,uint64),bytes,uint256)": {
        "notice": "Start a loan as the borrower using a signed offer.         The caller of this method has to be the current owner of the NFT         Since offers can be floorTerm offers they might not include a specific nft id,         thus the caller has to pass an extra nft id to the method to identify the nft."
      },
      "executeLoanByLenderSignature((address,uint32,uint32,bool,bool,bool,address,uint256,address,uint128,uint96,uint64),bytes)": {
        "notice": "Start a loan as the lender using a borrowers offer and signature.         Borrowers can make offers for loan terms on their NFTs and thus lenders can         execute these offers"
      },
      "initialize(address)": {
        "notice": "The initializer for the NiftyApes protocol.         Nifty Apes is intended to be deployed behind a proxy amd thus needs to initialize         its state outsize of a constructor."
      },
      "lendingContractAddress()": {
        "notice": "Returns the address for the associated liquidity contract"
      },
      "offersContractAddress()": {
        "notice": "Returns the address for the associated offers contract"
      },
      "pause()": {
        "notice": "Pauses all interactions with the contract.         This is intended to be used as an emergency measure to avoid loosing funds."
      },
      "refinanceByBorrowerSignature((address,uint32,uint32,bool,bool,bool,address,uint256,address,uint128,uint96,uint64),bytes,uint256,uint32)": {
        "notice": "Refinance a loan against an off chain signed offer as the borrower.         The new offer has to cover the principle remaining and all lender interest owed on the loan         Borrowers can refinance at any time even after loan default as long as their NFT collateral has not been seized"
      },
      "unpause()": {
        "notice": "Unpauses all interactions with the contract."
      },
      "updateLendingContractAddress(address)": {
        "notice": "Updates the associated liquidity contract address"
      }
    },
    "version": 1
  },
  "storageLayout": {
    "storage": [
      {
        "astId": 130,
        "contract": "contracts/SigLending.sol:NiftyApesSigLending",
        "label": "_initialized",
        "offset": 0,
        "slot": "0",
        "type": "t_uint8"
      },
      {
        "astId": 133,
        "contract": "contracts/SigLending.sol:NiftyApesSigLending",
        "label": "_initializing",
        "offset": 1,
        "slot": "0",
        "type": "t_bool"
      },
      {
        "astId": 1202,
        "contract": "contracts/SigLending.sol:NiftyApesSigLending",
        "label": "__gap",
        "offset": 0,
        "slot": "1",
        "type": "t_array(t_uint256)50_storage"
      },
      {
        "astId": 10,
        "contract": "contracts/SigLending.sol:NiftyApesSigLending",
        "label": "_owner",
        "offset": 0,
        "slot": "51",
        "type": "t_address"
      },
      {
        "astId": 122,
        "contract": "contracts/SigLending.sol:NiftyApesSigLending",
        "label": "__gap",
        "offset": 0,
        "slot": "52",
        "type": "t_array(t_uint256)49_storage"
      },
      {
        "astId": 286,
        "contract": "contracts/SigLending.sol:NiftyApesSigLending",
        "label": "_paused",
        "offset": 0,
        "slot": "101",
        "type": "t_bool"
      },
      {
        "astId": 375,
        "contract": "contracts/SigLending.sol:NiftyApesSigLending",
        "label": "__gap",
        "offset": 0,
        "slot": "102",
        "type": "t_array(t_uint256)49_storage"
      },
      {
        "astId": 390,
        "contract": "contracts/SigLending.sol:NiftyApesSigLending",
        "label": "_status",
        "offset": 0,
        "slot": "151",
        "type": "t_uint256"
      },
      {
        "astId": 434,
        "contract": "contracts/SigLending.sol:NiftyApesSigLending",
        "label": "__gap",
        "offset": 0,
        "slot": "152",
        "type": "t_array(t_uint256)49_storage"
      },
      {
        "astId": 8184,
        "contract": "contracts/SigLending.sol:NiftyApesSigLending",
        "label": "offersContractAddress",
        "offset": 0,
        "slot": "201",
        "type": "t_address"
      },
      {
        "astId": 8187,
        "contract": "contracts/SigLending.sol:NiftyApesSigLending",
        "label": "lendingContractAddress",
        "offset": 0,
        "slot": "202",
        "type": "t_address"
      },
      {
        "astId": 8192,
        "contract": "contracts/SigLending.sol:NiftyApesSigLending",
        "label": "__gap",
        "offset": 0,
        "slot": "203",
        "type": "t_array(t_uint256)500_storage"
      }
    ],
    "types": {
      "t_address": {
        "encoding": "inplace",
        "label": "address",
        "numberOfBytes": "20"
      },
      "t_array(t_uint256)49_storage": {
        "base": "t_uint256",
        "encoding": "inplace",
        "label": "uint256[49]",
        "numberOfBytes": "1568"
      },
      "t_array(t_uint256)500_storage": {
        "base": "t_uint256",
        "encoding": "inplace",
        "label": "uint256[500]",
        "numberOfBytes": "16000"
      },
      "t_array(t_uint256)50_storage": {
        "base": "t_uint256",
        "encoding": "inplace",
        "label": "uint256[50]",
        "numberOfBytes": "1600"
      },
      "t_bool": {
        "encoding": "inplace",
        "label": "bool",
        "numberOfBytes": "1"
      },
      "t_uint256": {
        "encoding": "inplace",
        "label": "uint256",
        "numberOfBytes": "32"
      },
      "t_uint8": {
        "encoding": "inplace",
        "label": "uint8",
        "numberOfBytes": "1"
      }
    }
  }
}