{
  "address": "0xB9d9e972100a1dD01cd441774b45b5821e136043",
  "abi": [
    {
      "anonymous": false,
      "inputs": [
        {
          "indexed": true,
          "internalType": "address",
          "name": "nftContractAddress",
          "type": "address"
        },
        {
          "indexed": true,
          "internalType": "uint256",
          "name": "nftId",
          "type": "uint256"
        },
        {
          "indexed": false,
          "internalType": "uint256",
          "name": "drawAmount",
          "type": "uint256"
        },
        {
          "components": [
            {
              "internalType": "address",
              "name": "nftOwner",
              "type": "address"
            },
            {
              "internalType": "uint32",
              "name": "loanEndTimestamp",
              "type": "uint32"
            },
            {
              "internalType": "uint32",
              "name": "lastUpdatedTimestamp",
              "type": "uint32"
            },
            {
              "internalType": "bool",
              "name": "fixedTerms",
              "type": "bool"
            },
            {
              "internalType": "address",
              "name": "lender",
              "type": "address"
            },
            {
              "internalType": "uint96",
              "name": "interestRatePerSecond",
              "type": "uint96"
            },
            {
              "internalType": "address",
              "name": "asset",
              "type": "address"
            },
            {
              "internalType": "uint32",
              "name": "loanBeginTimestamp",
              "type": "uint32"
            },
            {
              "internalType": "bool",
              "name": "lenderRefi",
              "type": "bool"
            },
            {
              "internalType": "uint128",
              "name": "accumulatedLenderInterest",
              "type": "uint128"
            },
            {
              "internalType": "uint128",
              "name": "accumulatedPaidProtocolInterest",
              "type": "uint128"
            },
            {
              "internalType": "uint128",
              "name": "amount",
              "type": "uint128"
            },
            {
              "internalType": "uint128",
              "name": "amountDrawn",
              "type": "uint128"
            },
            {
              "internalType": "uint96",
              "name": "protocolInterestRatePerSecond",
              "type": "uint96"
            },
            {
              "internalType": "uint128",
              "name": "slashableLenderInterest",
              "type": "uint128"
            },
            {
              "internalType": "uint128",
              "name": "unpaidProtocolInterest",
              "type": "uint128"
            }
          ],
          "indexed": false,
          "internalType": "struct ILendingStructs.LoanAuction",
          "name": "loanAuction",
          "type": "tuple"
        }
      ],
      "name": "AmountDrawn",
      "type": "event"
    },
    {
      "anonymous": false,
      "inputs": [
        {
          "indexed": true,
          "internalType": "address",
          "name": "nftContractAddress",
          "type": "address"
        },
        {
          "indexed": true,
          "internalType": "uint256",
          "name": "nftId",
          "type": "uint256"
        },
        {
          "components": [
            {
              "internalType": "address",
              "name": "nftOwner",
              "type": "address"
            },
            {
              "internalType": "uint32",
              "name": "loanEndTimestamp",
              "type": "uint32"
            },
            {
              "internalType": "uint32",
              "name": "lastUpdatedTimestamp",
              "type": "uint32"
            },
            {
              "internalType": "bool",
              "name": "fixedTerms",
              "type": "bool"
            },
            {
              "internalType": "address",
              "name": "lender",
              "type": "address"
            },
            {
              "internalType": "uint96",
              "name": "interestRatePerSecond",
              "type": "uint96"
            },
            {
              "internalType": "address",
              "name": "asset",
              "type": "address"
            },
            {
              "internalType": "uint32",
              "name": "loanBeginTimestamp",
              "type": "uint32"
            },
            {
              "internalType": "bool",
              "name": "lenderRefi",
              "type": "bool"
            },
            {
              "internalType": "uint128",
              "name": "accumulatedLenderInterest",
              "type": "uint128"
            },
            {
              "internalType": "uint128",
              "name": "accumulatedPaidProtocolInterest",
              "type": "uint128"
            },
            {
              "internalType": "uint128",
              "name": "amount",
              "type": "uint128"
            },
            {
              "internalType": "uint128",
              "name": "amountDrawn",
              "type": "uint128"
            },
            {
              "internalType": "uint96",
              "name": "protocolInterestRatePerSecond",
              "type": "uint96"
            },
            {
              "internalType": "uint128",
              "name": "slashableLenderInterest",
              "type": "uint128"
            },
            {
              "internalType": "uint128",
              "name": "unpaidProtocolInterest",
              "type": "uint128"
            }
          ],
          "indexed": false,
          "internalType": "struct ILendingStructs.LoanAuction",
          "name": "loanAuction",
          "type": "tuple"
        }
      ],
      "name": "AssetSeized",
      "type": "event"
    },
    {
      "anonymous": false,
      "inputs": [
        {
          "indexed": false,
          "internalType": "uint16",
          "name": "oldDefaultRefinancePremiumBps",
          "type": "uint16"
        },
        {
          "indexed": false,
          "internalType": "uint16",
          "name": "newDefaultRefinancePremiumBps",
          "type": "uint16"
        }
      ],
      "name": "DefaultRefinancePremiumBpsUpdated",
      "type": "event"
    },
    {
      "anonymous": false,
      "inputs": [
        {
          "indexed": false,
          "internalType": "uint16",
          "name": "oldGasGriefingPremiumBps",
          "type": "uint16"
        },
        {
          "indexed": false,
          "internalType": "uint16",
          "name": "newGasGriefingPremiumBps",
          "type": "uint16"
        }
      ],
      "name": "GasGriefingPremiumBpsUpdated",
      "type": "event"
    },
    {
      "anonymous": false,
      "inputs": [
        {
          "indexed": false,
          "internalType": "uint16",
          "name": "oldGasGriefingProtocolPremiumBps",
          "type": "uint16"
        },
        {
          "indexed": false,
          "internalType": "uint16",
          "name": "newGasGriefingProtocolPremiumBps",
          "type": "uint16"
        }
      ],
      "name": "GasGriefingProtocolPremiumBpsUpdated",
      "type": "event"
    },
    {
      "anonymous": false,
      "inputs": [
        {
          "indexed": false,
          "internalType": "uint8",
          "name": "version",
          "type": "uint8"
        }
      ],
      "name": "Initialized",
      "type": "event"
    },
    {
      "anonymous": false,
      "inputs": [],
      "name": "LendingSanctionsPaused",
      "type": "event"
    },
    {
      "anonymous": false,
      "inputs": [],
      "name": "LendingSanctionsUnpaused",
      "type": "event"
    },
    {
      "anonymous": false,
      "inputs": [
        {
          "indexed": true,
          "internalType": "address",
          "name": "nftContractAddress",
          "type": "address"
        },
        {
          "indexed": true,
          "internalType": "uint256",
          "name": "nftId",
          "type": "uint256"
        },
        {
          "components": [
            {
              "internalType": "address",
              "name": "nftOwner",
              "type": "address"
            },
            {
              "internalType": "uint32",
              "name": "loanEndTimestamp",
              "type": "uint32"
            },
            {
              "internalType": "uint32",
              "name": "lastUpdatedTimestamp",
              "type": "uint32"
            },
            {
              "internalType": "bool",
              "name": "fixedTerms",
              "type": "bool"
            },
            {
              "internalType": "address",
              "name": "lender",
              "type": "address"
            },
            {
              "internalType": "uint96",
              "name": "interestRatePerSecond",
              "type": "uint96"
            },
            {
              "internalType": "address",
              "name": "asset",
              "type": "address"
            },
            {
              "internalType": "uint32",
              "name": "loanBeginTimestamp",
              "type": "uint32"
            },
            {
              "internalType": "bool",
              "name": "lenderRefi",
              "type": "bool"
            },
            {
              "internalType": "uint128",
              "name": "accumulatedLenderInterest",
              "type": "uint128"
            },
            {
              "internalType": "uint128",
              "name": "accumulatedPaidProtocolInterest",
              "type": "uint128"
            },
            {
              "internalType": "uint128",
              "name": "amount",
              "type": "uint128"
            },
            {
              "internalType": "uint128",
              "name": "amountDrawn",
              "type": "uint128"
            },
            {
              "internalType": "uint96",
              "name": "protocolInterestRatePerSecond",
              "type": "uint96"
            },
            {
              "internalType": "uint128",
              "name": "slashableLenderInterest",
              "type": "uint128"
            },
            {
              "internalType": "uint128",
              "name": "unpaidProtocolInterest",
              "type": "uint128"
            }
          ],
          "indexed": false,
          "internalType": "struct ILendingStructs.LoanAuction",
          "name": "loanAuction",
          "type": "tuple"
        }
      ],
      "name": "LoanExecuted",
      "type": "event"
    },
    {
      "anonymous": false,
      "inputs": [
        {
          "indexed": true,
          "internalType": "address",
          "name": "nftContractAddress",
          "type": "address"
        },
        {
          "indexed": true,
          "internalType": "uint256",
          "name": "nftId",
          "type": "uint256"
        },
        {
          "indexed": false,
          "internalType": "uint256",
          "name": "totalPayment",
          "type": "uint256"
        },
        {
          "components": [
            {
              "internalType": "address",
              "name": "nftOwner",
              "type": "address"
            },
            {
              "internalType": "uint32",
              "name": "loanEndTimestamp",
              "type": "uint32"
            },
            {
              "internalType": "uint32",
              "name": "lastUpdatedTimestamp",
              "type": "uint32"
            },
            {
              "internalType": "bool",
              "name": "fixedTerms",
              "type": "bool"
            },
            {
              "internalType": "address",
              "name": "lender",
              "type": "address"
            },
            {
              "internalType": "uint96",
              "name": "interestRatePerSecond",
              "type": "uint96"
            },
            {
              "internalType": "address",
              "name": "asset",
              "type": "address"
            },
            {
              "internalType": "uint32",
              "name": "loanBeginTimestamp",
              "type": "uint32"
            },
            {
              "internalType": "bool",
              "name": "lenderRefi",
              "type": "bool"
            },
            {
              "internalType": "uint128",
              "name": "accumulatedLenderInterest",
              "type": "uint128"
            },
            {
              "internalType": "uint128",
              "name": "accumulatedPaidProtocolInterest",
              "type": "uint128"
            },
            {
              "internalType": "uint128",
              "name": "amount",
              "type": "uint128"
            },
            {
              "internalType": "uint128",
              "name": "amountDrawn",
              "type": "uint128"
            },
            {
              "internalType": "uint96",
              "name": "protocolInterestRatePerSecond",
              "type": "uint96"
            },
            {
              "internalType": "uint128",
              "name": "slashableLenderInterest",
              "type": "uint128"
            },
            {
              "internalType": "uint128",
              "name": "unpaidProtocolInterest",
              "type": "uint128"
            }
          ],
          "indexed": false,
          "internalType": "struct ILendingStructs.LoanAuction",
          "name": "loanAuction",
          "type": "tuple"
        }
      ],
      "name": "LoanRepaid",
      "type": "event"
    },
    {
      "anonymous": false,
      "inputs": [
        {
          "indexed": false,
          "internalType": "uint16",
          "name": "oldOriginationPremiumBps",
          "type": "uint16"
        },
        {
          "indexed": false,
          "internalType": "uint16",
          "name": "newOriginationPremiumBps",
          "type": "uint16"
        }
      ],
      "name": "OriginationPremiumBpsUpdated",
      "type": "event"
    },
    {
      "anonymous": false,
      "inputs": [
        {
          "indexed": true,
          "internalType": "address",
          "name": "previousOwner",
          "type": "address"
        },
        {
          "indexed": true,
          "internalType": "address",
          "name": "newOwner",
          "type": "address"
        }
      ],
      "name": "OwnershipTransferred",
      "type": "event"
    },
    {
      "anonymous": false,
      "inputs": [
        {
          "indexed": true,
          "internalType": "address",
          "name": "nftContractAddress",
          "type": "address"
        },
        {
          "indexed": true,
          "internalType": "uint256",
          "name": "nftId",
          "type": "uint256"
        },
        {
          "indexed": false,
          "internalType": "uint256",
          "name": "amount",
          "type": "uint256"
        },
        {
          "components": [
            {
              "internalType": "address",
              "name": "nftOwner",
              "type": "address"
            },
            {
              "internalType": "uint32",
              "name": "loanEndTimestamp",
              "type": "uint32"
            },
            {
              "internalType": "uint32",
              "name": "lastUpdatedTimestamp",
              "type": "uint32"
            },
            {
              "internalType": "bool",
              "name": "fixedTerms",
              "type": "bool"
            },
            {
              "internalType": "address",
              "name": "lender",
              "type": "address"
            },
            {
              "internalType": "uint96",
              "name": "interestRatePerSecond",
              "type": "uint96"
            },
            {
              "internalType": "address",
              "name": "asset",
              "type": "address"
            },
            {
              "internalType": "uint32",
              "name": "loanBeginTimestamp",
              "type": "uint32"
            },
            {
              "internalType": "bool",
              "name": "lenderRefi",
              "type": "bool"
            },
            {
              "internalType": "uint128",
              "name": "accumulatedLenderInterest",
              "type": "uint128"
            },
            {
              "internalType": "uint128",
              "name": "accumulatedPaidProtocolInterest",
              "type": "uint128"
            },
            {
              "internalType": "uint128",
              "name": "amount",
              "type": "uint128"
            },
            {
              "internalType": "uint128",
              "name": "amountDrawn",
              "type": "uint128"
            },
            {
              "internalType": "uint96",
              "name": "protocolInterestRatePerSecond",
              "type": "uint96"
            },
            {
              "internalType": "uint128",
              "name": "slashableLenderInterest",
              "type": "uint128"
            },
            {
              "internalType": "uint128",
              "name": "unpaidProtocolInterest",
              "type": "uint128"
            }
          ],
          "indexed": false,
          "internalType": "struct ILendingStructs.LoanAuction",
          "name": "loanAuction",
          "type": "tuple"
        }
      ],
      "name": "PartialRepayment",
      "type": "event"
    },
    {
      "anonymous": false,
      "inputs": [
        {
          "indexed": false,
          "internalType": "address",
          "name": "account",
          "type": "address"
        }
      ],
      "name": "Paused",
      "type": "event"
    },
    {
      "anonymous": false,
      "inputs": [
        {
          "indexed": false,
          "internalType": "uint96",
          "name": "oldProtocolInterestBps",
          "type": "uint96"
        },
        {
          "indexed": false,
          "internalType": "uint96",
          "name": "newProtocolInterestBps",
          "type": "uint96"
        }
      ],
      "name": "ProtocolInterestBpsUpdated",
      "type": "event"
    },
    {
      "anonymous": false,
      "inputs": [
        {
          "indexed": true,
          "internalType": "address",
          "name": "nftContractAddress",
          "type": "address"
        },
        {
          "indexed": true,
          "internalType": "uint256",
          "name": "nftId",
          "type": "uint256"
        },
        {
          "components": [
            {
              "internalType": "address",
              "name": "nftOwner",
              "type": "address"
            },
            {
              "internalType": "uint32",
              "name": "loanEndTimestamp",
              "type": "uint32"
            },
            {
              "internalType": "uint32",
              "name": "lastUpdatedTimestamp",
              "type": "uint32"
            },
            {
              "internalType": "bool",
              "name": "fixedTerms",
              "type": "bool"
            },
            {
              "internalType": "address",
              "name": "lender",
              "type": "address"
            },
            {
              "internalType": "uint96",
              "name": "interestRatePerSecond",
              "type": "uint96"
            },
            {
              "internalType": "address",
              "name": "asset",
              "type": "address"
            },
            {
              "internalType": "uint32",
              "name": "loanBeginTimestamp",
              "type": "uint32"
            },
            {
              "internalType": "bool",
              "name": "lenderRefi",
              "type": "bool"
            },
            {
              "internalType": "uint128",
              "name": "accumulatedLenderInterest",
              "type": "uint128"
            },
            {
              "internalType": "uint128",
              "name": "accumulatedPaidProtocolInterest",
              "type": "uint128"
            },
            {
              "internalType": "uint128",
              "name": "amount",
              "type": "uint128"
            },
            {
              "internalType": "uint128",
              "name": "amountDrawn",
              "type": "uint128"
            },
            {
              "internalType": "uint96",
              "name": "protocolInterestRatePerSecond",
              "type": "uint96"
            },
            {
              "internalType": "uint128",
              "name": "slashableLenderInterest",
              "type": "uint128"
            },
            {
              "internalType": "uint128",
              "name": "unpaidProtocolInterest",
              "type": "uint128"
            }
          ],
          "indexed": false,
          "internalType": "struct ILendingStructs.LoanAuction",
          "name": "loanAuction",
          "type": "tuple"
        }
      ],
      "name": "Refinance",
      "type": "event"
    },
    {
      "anonymous": false,
      "inputs": [
        {
          "indexed": false,
          "internalType": "uint16",
          "name": "oldTermGriefingPremiumBps",
          "type": "uint16"
        },
        {
          "indexed": false,
          "internalType": "uint16",
          "name": "newTermGriefingPremiumBps",
          "type": "uint16"
        }
      ],
      "name": "TermGriefingPremiumBpsUpdated",
      "type": "event"
    },
    {
      "anonymous": false,
      "inputs": [
        {
          "indexed": false,
          "internalType": "address",
          "name": "account",
          "type": "address"
        }
      ],
      "name": "Unpaused",
      "type": "event"
    },
    {
      "inputs": [
        {
          "internalType": "address",
          "name": "nftContractAddress",
          "type": "address"
        },
        {
          "internalType": "uint256",
          "name": "nftId",
          "type": "uint256"
        }
      ],
      "name": "calculateInterestAccrued",
      "outputs": [
        {
          "internalType": "uint256",
          "name": "",
          "type": "uint256"
        },
        {
          "internalType": "uint256",
          "name": "",
          "type": "uint256"
        }
      ],
      "stateMutability": "view",
      "type": "function"
    },
    {
      "inputs": [
        {
          "internalType": "uint256",
          "name": "amount",
          "type": "uint256"
        },
        {
          "internalType": "uint256",
          "name": "interestBps",
          "type": "uint256"
        },
        {
          "internalType": "uint256",
          "name": "duration",
          "type": "uint256"
        }
      ],
      "name": "calculateInterestPerSecond",
      "outputs": [
        {
          "internalType": "uint96",
          "name": "",
          "type": "uint96"
        }
      ],
      "stateMutability": "pure",
      "type": "function"
    },
    {
      "inputs": [
        {
          "internalType": "address",
          "name": "nftContractAddress",
          "type": "address"
        },
        {
          "internalType": "uint256",
          "name": "nftId",
          "type": "uint256"
        }
      ],
      "name": "checkSufficientInterestAccumulated",
      "outputs": [
        {
          "internalType": "uint256",
          "name": "",
          "type": "uint256"
        }
      ],
      "stateMutability": "view",
      "type": "function"
    },
    {
      "inputs": [
        {
          "internalType": "address",
          "name": "nftContractAddress",
          "type": "address"
        },
        {
          "internalType": "uint256",
          "name": "nftId",
          "type": "uint256"
        },
        {
          "internalType": "uint128",
          "name": "amount",
          "type": "uint128"
        },
        {
          "internalType": "uint96",
          "name": "interestRatePerSecond",
          "type": "uint96"
        },
        {
          "internalType": "uint32",
          "name": "duration",
          "type": "uint32"
        }
      ],
      "name": "checkSufficientTerms",
      "outputs": [
        {
          "internalType": "bool",
          "name": "",
          "type": "bool"
        }
      ],
      "stateMutability": "view",
      "type": "function"
    },
    {
      "inputs": [],
      "name": "defaultRefinancePremiumBps",
      "outputs": [
        {
          "internalType": "uint16",
          "name": "",
          "type": "uint16"
        }
      ],
      "stateMutability": "view",
      "type": "function"
    },
    {
      "inputs": [
        {
          "components": [
            {
              "internalType": "address",
              "name": "creator",
              "type": "address"
            },
            {
              "internalType": "uint32",
              "name": "duration",
              "type": "uint32"
            },
            {
              "internalType": "uint32",
              "name": "expiration",
              "type": "uint32"
            },
            {
              "internalType": "bool",
              "name": "fixedTerms",
              "type": "bool"
            },
            {
              "internalType": "bool",
              "name": "floorTerm",
              "type": "bool"
            },
            {
              "internalType": "bool",
              "name": "lenderOffer",
              "type": "bool"
            },
            {
              "internalType": "address",
              "name": "nftContractAddress",
              "type": "address"
            },
            {
              "internalType": "uint256",
              "name": "nftId",
              "type": "uint256"
            },
            {
              "internalType": "address",
              "name": "asset",
              "type": "address"
            },
            {
              "internalType": "uint128",
              "name": "amount",
              "type": "uint128"
            },
            {
              "internalType": "uint96",
              "name": "interestRatePerSecond",
              "type": "uint96"
            },
            {
              "internalType": "uint64",
              "name": "floorTermLimit",
              "type": "uint64"
            }
          ],
          "internalType": "struct IOffersStructs.Offer",
          "name": "offer",
          "type": "tuple"
        },
        {
          "internalType": "address",
          "name": "lender",
          "type": "address"
        },
        {
          "internalType": "address",
          "name": "borrower",
          "type": "address"
        },
        {
          "internalType": "uint256",
          "name": "nftId",
          "type": "uint256"
        }
      ],
      "name": "doExecuteLoan",
      "outputs": [],
      "stateMutability": "nonpayable",
      "type": "function"
    },
    {
      "inputs": [
        {
          "components": [
            {
              "internalType": "address",
              "name": "creator",
              "type": "address"
            },
            {
              "internalType": "uint32",
              "name": "duration",
              "type": "uint32"
            },
            {
              "internalType": "uint32",
              "name": "expiration",
              "type": "uint32"
            },
            {
              "internalType": "bool",
              "name": "fixedTerms",
              "type": "bool"
            },
            {
              "internalType": "bool",
              "name": "floorTerm",
              "type": "bool"
            },
            {
              "internalType": "bool",
              "name": "lenderOffer",
              "type": "bool"
            },
            {
              "internalType": "address",
              "name": "nftContractAddress",
              "type": "address"
            },
            {
              "internalType": "uint256",
              "name": "nftId",
              "type": "uint256"
            },
            {
              "internalType": "address",
              "name": "asset",
              "type": "address"
            },
            {
              "internalType": "uint128",
              "name": "amount",
              "type": "uint128"
            },
            {
              "internalType": "uint96",
              "name": "interestRatePerSecond",
              "type": "uint96"
            },
            {
              "internalType": "uint64",
              "name": "floorTermLimit",
              "type": "uint64"
            }
          ],
          "internalType": "struct IOffersStructs.Offer",
          "name": "offer",
          "type": "tuple"
        },
        {
          "internalType": "uint256",
          "name": "nftId",
          "type": "uint256"
        },
        {
          "internalType": "address",
          "name": "nftOwner",
          "type": "address"
        },
        {
          "internalType": "uint32",
          "name": "expectedLastUpdatedTimestamp",
          "type": "uint32"
        }
      ],
      "name": "doRefinanceByBorrower",
      "outputs": [],
      "stateMutability": "nonpayable",
      "type": "function"
    },
    {
      "inputs": [
        {
          "internalType": "address",
          "name": "nftContractAddress",
          "type": "address"
        },
        {
          "internalType": "uint256",
          "name": "nftId",
          "type": "uint256"
        },
        {
          "internalType": "uint256",
          "name": "drawAmount",
          "type": "uint256"
        }
      ],
      "name": "drawLoanAmount",
      "outputs": [],
      "stateMutability": "nonpayable",
      "type": "function"
    },
    {
      "inputs": [
        {
          "internalType": "address",
          "name": "nftContractAddress",
          "type": "address"
        },
        {
          "internalType": "uint256",
          "name": "nftId",
          "type": "uint256"
        },
        {
          "internalType": "bytes32",
          "name": "offerHash",
          "type": "bytes32"
        },
        {
          "internalType": "bool",
          "name": "floorTerm",
          "type": "bool"
        }
      ],
      "name": "executeLoanByBorrower",
      "outputs": [],
      "stateMutability": "payable",
      "type": "function"
    },
    {
      "inputs": [
        {
          "internalType": "address",
          "name": "nftContractAddress",
          "type": "address"
        },
        {
          "internalType": "uint256",
          "name": "nftId",
          "type": "uint256"
        },
        {
          "internalType": "bytes32",
          "name": "offerHash",
          "type": "bytes32"
        },
        {
          "internalType": "bool",
          "name": "floorTerm",
          "type": "bool"
        }
      ],
      "name": "executeLoanByLender",
      "outputs": [],
      "stateMutability": "payable",
      "type": "function"
    },
    {
      "inputs": [],
      "name": "gasGriefingPremiumBps",
      "outputs": [
        {
          "internalType": "uint16",
          "name": "",
          "type": "uint16"
        }
      ],
      "stateMutability": "view",
      "type": "function"
    },
    {
      "inputs": [
        {
          "internalType": "address",
          "name": "nftContractAddress",
          "type": "address"
        },
        {
          "internalType": "uint256",
          "name": "nftId",
          "type": "uint256"
        }
      ],
      "name": "getLoanAuction",
      "outputs": [
        {
          "components": [
            {
              "internalType": "address",
              "name": "nftOwner",
              "type": "address"
            },
            {
              "internalType": "uint32",
              "name": "loanEndTimestamp",
              "type": "uint32"
            },
            {
              "internalType": "uint32",
              "name": "lastUpdatedTimestamp",
              "type": "uint32"
            },
            {
              "internalType": "bool",
              "name": "fixedTerms",
              "type": "bool"
            },
            {
              "internalType": "address",
              "name": "lender",
              "type": "address"
            },
            {
              "internalType": "uint96",
              "name": "interestRatePerSecond",
              "type": "uint96"
            },
            {
              "internalType": "address",
              "name": "asset",
              "type": "address"
            },
            {
              "internalType": "uint32",
              "name": "loanBeginTimestamp",
              "type": "uint32"
            },
            {
              "internalType": "bool",
              "name": "lenderRefi",
              "type": "bool"
            },
            {
              "internalType": "uint128",
              "name": "accumulatedLenderInterest",
              "type": "uint128"
            },
            {
              "internalType": "uint128",
              "name": "accumulatedPaidProtocolInterest",
              "type": "uint128"
            },
            {
              "internalType": "uint128",
              "name": "amount",
              "type": "uint128"
            },
            {
              "internalType": "uint128",
              "name": "amountDrawn",
              "type": "uint128"
            },
            {
              "internalType": "uint96",
              "name": "protocolInterestRatePerSecond",
              "type": "uint96"
            },
            {
              "internalType": "uint128",
              "name": "slashableLenderInterest",
              "type": "uint128"
            },
            {
              "internalType": "uint128",
              "name": "unpaidProtocolInterest",
              "type": "uint128"
            }
          ],
          "internalType": "struct ILendingStructs.LoanAuction",
          "name": "",
          "type": "tuple"
        }
      ],
      "stateMutability": "view",
      "type": "function"
    },
    {
      "inputs": [
        {
          "internalType": "address",
          "name": "newLiquidityContractAddress",
          "type": "address"
        },
        {
          "internalType": "address",
          "name": "newOffersContractAddress",
          "type": "address"
        },
        {
          "internalType": "address",
          "name": "newSigLendingContractAddress",
          "type": "address"
        }
      ],
      "name": "initialize",
      "outputs": [],
      "stateMutability": "nonpayable",
      "type": "function"
    },
    {
      "inputs": [],
      "name": "liquidityContractAddress",
      "outputs": [
        {
          "internalType": "address",
          "name": "",
          "type": "address"
        }
      ],
      "stateMutability": "view",
      "type": "function"
    },
    {
      "inputs": [],
      "name": "offersContractAddress",
      "outputs": [
        {
          "internalType": "address",
          "name": "",
          "type": "address"
        }
      ],
      "stateMutability": "view",
      "type": "function"
    },
    {
      "inputs": [
        {
          "internalType": "address",
          "name": "",
          "type": "address"
        },
        {
          "internalType": "address",
          "name": "",
          "type": "address"
        },
        {
          "internalType": "uint256",
          "name": "",
          "type": "uint256"
        },
        {
          "internalType": "bytes",
          "name": "",
          "type": "bytes"
        }
      ],
      "name": "onERC721Received",
      "outputs": [
        {
          "internalType": "bytes4",
          "name": "",
          "type": "bytes4"
        }
      ],
      "stateMutability": "nonpayable",
      "type": "function"
    },
    {
      "inputs": [],
      "name": "originationPremiumBps",
      "outputs": [
        {
          "internalType": "uint16",
          "name": "",
          "type": "uint16"
        }
      ],
      "stateMutability": "view",
      "type": "function"
    },
    {
      "inputs": [],
      "name": "owner",
      "outputs": [
        {
          "internalType": "address",
          "name": "",
          "type": "address"
        }
      ],
      "stateMutability": "view",
      "type": "function"
    },
    {
      "inputs": [
        {
          "internalType": "address",
          "name": "nftContractAddress",
          "type": "address"
        },
        {
          "internalType": "uint256",
          "name": "nftId",
          "type": "uint256"
        }
      ],
      "name": "ownerOf",
      "outputs": [
        {
          "internalType": "address",
          "name": "",
          "type": "address"
        }
      ],
      "stateMutability": "view",
      "type": "function"
    },
    {
      "inputs": [
        {
          "internalType": "address",
          "name": "nftContractAddress",
          "type": "address"
        },
        {
          "internalType": "uint256",
          "name": "nftId",
          "type": "uint256"
        },
        {
          "internalType": "uint256",
          "name": "amount",
          "type": "uint256"
        }
      ],
      "name": "partialRepayLoan",
      "outputs": [],
      "stateMutability": "payable",
      "type": "function"
    },
    {
      "inputs": [],
      "name": "pause",
      "outputs": [],
      "stateMutability": "nonpayable",
      "type": "function"
    },
    {
      "inputs": [],
      "name": "pauseSanctions",
      "outputs": [],
      "stateMutability": "nonpayable",
      "type": "function"
    },
    {
      "inputs": [],
      "name": "paused",
      "outputs": [
        {
          "internalType": "bool",
          "name": "",
          "type": "bool"
        }
      ],
      "stateMutability": "view",
      "type": "function"
    },
    {
      "inputs": [],
      "name": "protocolInterestBps",
      "outputs": [
        {
          "internalType": "uint16",
          "name": "",
          "type": "uint16"
        }
      ],
      "stateMutability": "view",
      "type": "function"
    },
    {
      "inputs": [
        {
          "internalType": "address",
          "name": "nftContractAddress",
          "type": "address"
        },
        {
          "internalType": "uint256",
          "name": "nftId",
          "type": "uint256"
        },
        {
          "internalType": "bool",
          "name": "floorTerm",
          "type": "bool"
        },
        {
          "internalType": "bytes32",
          "name": "offerHash",
          "type": "bytes32"
        },
        {
          "internalType": "uint32",
          "name": "expectedLastUpdatedTimestamp",
          "type": "uint32"
        }
      ],
      "name": "refinanceByBorrower",
      "outputs": [],
      "stateMutability": "nonpayable",
      "type": "function"
    },
    {
      "inputs": [
        {
          "components": [
            {
              "internalType": "address",
              "name": "creator",
              "type": "address"
            },
            {
              "internalType": "uint32",
              "name": "duration",
              "type": "uint32"
            },
            {
              "internalType": "uint32",
              "name": "expiration",
              "type": "uint32"
            },
            {
              "internalType": "bool",
              "name": "fixedTerms",
              "type": "bool"
            },
            {
              "internalType": "bool",
              "name": "floorTerm",
              "type": "bool"
            },
            {
              "internalType": "bool",
              "name": "lenderOffer",
              "type": "bool"
            },
            {
              "internalType": "address",
              "name": "nftContractAddress",
              "type": "address"
            },
            {
              "internalType": "uint256",
              "name": "nftId",
              "type": "uint256"
            },
            {
              "internalType": "address",
              "name": "asset",
              "type": "address"
            },
            {
              "internalType": "uint128",
              "name": "amount",
              "type": "uint128"
            },
            {
              "internalType": "uint96",
              "name": "interestRatePerSecond",
              "type": "uint96"
            },
            {
              "internalType": "uint64",
              "name": "floorTermLimit",
              "type": "uint64"
            }
          ],
          "internalType": "struct IOffersStructs.Offer",
          "name": "offer",
          "type": "tuple"
        },
        {
          "internalType": "uint32",
          "name": "expectedLastUpdatedTimestamp",
          "type": "uint32"
        }
      ],
      "name": "refinanceByLender",
      "outputs": [],
      "stateMutability": "nonpayable",
      "type": "function"
    },
    {
      "inputs": [],
      "name": "renounceOwnership",
      "outputs": [],
      "stateMutability": "nonpayable",
      "type": "function"
    },
    {
      "inputs": [
        {
          "internalType": "address",
          "name": "nftContractAddress",
          "type": "address"
        },
        {
          "internalType": "uint256",
          "name": "nftId",
          "type": "uint256"
        }
      ],
      "name": "repayLoan",
      "outputs": [],
      "stateMutability": "payable",
      "type": "function"
    },
    {
      "inputs": [
        {
          "internalType": "address",
          "name": "nftContractAddress",
          "type": "address"
        },
        {
          "internalType": "uint256",
          "name": "nftId",
          "type": "uint256"
        },
        {
          "internalType": "uint32",
          "name": "expectedLoanBeginTimestamp",
          "type": "uint32"
        }
      ],
      "name": "repayLoanForAccount",
      "outputs": [],
      "stateMutability": "payable",
      "type": "function"
    },
    {
      "inputs": [
        {
          "internalType": "address",
          "name": "nftContractAddress",
          "type": "address"
        },
        {
          "internalType": "uint256",
          "name": "nftId",
          "type": "uint256"
        }
      ],
      "name": "seizeAsset",
      "outputs": [],
      "stateMutability": "nonpayable",
      "type": "function"
    },
    {
      "inputs": [],
      "name": "sigLendingContractAddress",
      "outputs": [
        {
          "internalType": "address",
          "name": "",
          "type": "address"
        }
      ],
      "stateMutability": "view",
      "type": "function"
    },
    {
      "inputs": [],
      "name": "termGriefingPremiumBps",
      "outputs": [
        {
          "internalType": "uint16",
          "name": "",
          "type": "uint16"
        }
      ],
      "stateMutability": "view",
      "type": "function"
    },
    {
      "inputs": [
        {
          "internalType": "address",
          "name": "newOwner",
          "type": "address"
        }
      ],
      "name": "transferOwnership",
      "outputs": [],
      "stateMutability": "nonpayable",
      "type": "function"
    },
    {
      "inputs": [],
      "name": "unpause",
      "outputs": [],
      "stateMutability": "nonpayable",
      "type": "function"
    },
    {
      "inputs": [],
      "name": "unpauseSanctions",
      "outputs": [],
      "stateMutability": "nonpayable",
      "type": "function"
    },
    {
      "inputs": [
        {
          "internalType": "uint16",
          "name": "newDefaultRefinancePremiumBps",
          "type": "uint16"
        }
      ],
      "name": "updateDefaultRefinancePremiumBps",
      "outputs": [],
      "stateMutability": "nonpayable",
      "type": "function"
    },
    {
      "inputs": [
        {
          "internalType": "uint16",
          "name": "newGasGriefingPremiumBps",
          "type": "uint16"
        }
      ],
      "name": "updateGasGriefingPremiumBps",
      "outputs": [],
      "stateMutability": "nonpayable",
      "type": "function"
    },
    {
      "inputs": [
        {
          "internalType": "uint16",
          "name": "newOriginationPremiumBps",
          "type": "uint16"
        }
      ],
      "name": "updateOriginationPremiumLenderBps",
      "outputs": [],
      "stateMutability": "nonpayable",
      "type": "function"
    },
    {
      "inputs": [
        {
          "internalType": "uint16",
          "name": "newProtocolInterestBps",
          "type": "uint16"
        }
      ],
      "name": "updateProtocolInterestBps",
      "outputs": [],
      "stateMutability": "nonpayable",
      "type": "function"
    },
    {
      "inputs": [
        {
          "internalType": "uint16",
          "name": "newTermGriefingPremiumBps",
          "type": "uint16"
        }
      ],
      "name": "updateTermGriefingPremiumBps",
      "outputs": [],
      "stateMutability": "nonpayable",
      "type": "function"
    }
  ],
  "transactionHash": "0x9deaa21f833a05ae5b15d2b18625ba375867e270d15984b00f76acd8fdf253ce",
  "args": [],
  "numDeployments": 1,
  "solcInputHash": "5741e1d844718764b3f7cc9e3c0a432a",
  "bytecode": "0x608060405234801561001057600080fd5b50615f0c80620000216000396000f3fe60806040526004361061023b5760003560e01c80636db7ad431161012e578063b10a8930116100ab578063cadfbdda1161006f578063cadfbdda14610706578063cba1fcea14610719578063ce37145e14610739578063e256727314610759578063f2fde38b1461077957600080fd5b8063b10a893014610664578063b1ee0b4814610684578063b63e9846146106a6578063ba8ae105146106c6578063c0c53b8b146106e657600080fd5b80638456cb59116100f25780638456cb59146105dc57806386b519c7146105f15780638da5cb5b1461061357806393a595f514610631578063a6348d801461064457600080fd5b80636db7ad4314610542578063715018a61461055757806372a74aaf1461056c57806373aab8011461058c57806379969002146105ae57600080fd5b80631efdf7bd116101bc5780634c25eeec116101805780634c25eeec146104a957806358112cd3146104c95780635c975abb146104de57806367b7026c146105025780636a5090621461052257600080fd5b80631efdf7bd146103e65780631f29d2dc1461041e5780633a85662f146104615780633cb46506146104745780633f4ba83a1461049457600080fd5b80630e96804b116102035780630e96804b1461033a578063104cf39c1461035a578063150b7a021461037c578063193dc169146103c05780631b3fbce3146103d357600080fd5b806301cdcfc71461024057806306b761c11461027657806307709f12146102ab5780630bbd406d146102e35780630d64cf1a14610318575b600080fd5b34801561024c57600080fd5b5061026061025b36600461523f565b610799565b60405161026d919061526b565b60405180910390f35b34801561028257600080fd5b5060fe5461029890600160e01b900461ffff1681565b60405161ffff909116815260200161026d565b3480156102b757600080fd5b506102cb6102c63660046153ab565b61092f565b6040516001600160601b03909116815260200161026d565b3480156102ef57600080fd5b506103036102fe36600461523f565b610992565b6040805192835260208301919091520161026d565b34801561032457600080fd5b506103386103333660046153d7565b6109b2565b005b34801561034657600080fd5b50610338610355366004615431565b610a59565b34801561036657600080fd5b5060fe5461029890600160d01b900461ffff1681565b34801561038857600080fd5b506103a7610397366004615501565b630a85bd0160e11b949350505050565b6040516001600160e01b0319909116815260200161026d565b6103386103ce3660046155c5565b610acc565b6103386103e136600461560f565b610c27565b3480156103f257600080fd5b5060fc54610406906001600160a01b031681565b6040516001600160a01b03909116815260200161026d565b34801561042a57600080fd5b5061040661043936600461523f565b6001600160a01b03918216600090815260fb6020908152604080832093835292905220541690565b61033861046f366004615651565b610de2565b34801561048057600080fd5b5061033861048f3660046157cd565b610e45565b3480156104a057600080fd5b50610338610ea3565b3480156104b557600080fd5b506103386104c43660046153d7565b610ed7565b3480156104d557600080fd5b50610338610f75565b3480156104ea57600080fd5b5060655460ff165b604051901515815260200161026d565b34801561050e57600080fd5b5061033861051d366004615651565b610fdd565b34801561052e57600080fd5b5061033861053d3660046153d7565b6114b2565b34801561054e57600080fd5b50610338611550565b34801561056357600080fd5b506103386115b2565b34801561057857600080fd5b506103386105873660046153d7565b6115dc565b34801561059857600080fd5b5060fe5461029890600160c01b900461ffff1681565b3480156105ba57600080fd5b506105ce6105c936600461523f565b61167a565b60405190815260200161026d565b3480156105e857600080fd5b5061033861168e565b3480156105fd57600080fd5b5060fe5461029890600160a01b900461ffff1681565b34801561061f57600080fd5b506033546001600160a01b0316610406565b61033861063f36600461523f565b6116c0565b34801561065057600080fd5b5061033861065f366004615818565b611722565b34801561067057600080fd5b5061033861067f36600461523f565b61222c565b34801561069057600080fd5b5060fe5461029890600160b01b900461ffff1681565b3480156106b257600080fd5b506103386106c1366004615852565b612445565b3480156106d257600080fd5b506103386106e13660046153d7565b6124a3565b3480156106f257600080fd5b506103386107013660046158a6565b612541565b6103386107143660046155c5565b612620565b34801561072557600080fd5b5060fd54610406906001600160a01b031681565b34801561074557600080fd5b5060fe54610406906001600160a01b031681565b34801561076557600080fd5b506104f26107743660046158e6565b612693565b34801561078557600080fd5b50610338610794366004615940565b6126b4565b6040805161020081018252600080825260208201819052918101829052606081018290526080810182905260a0810182905260c0810182905260e08101829052610100810182905261012081018290526101408101829052610160810182905261018081018290526101a081018290526101c081018290526101e0810191909152610824838361274f565b604080516102008101825282546001600160a01b03808216835263ffffffff600160a01b80840482166020860152600160c01b80850483169686019690965260ff600160e01b909404841615156060860152600187015480841660808701526001600160601b0390829004811660a0870152600288015493841660c087015290830490911660e085015293900416151561010082015260038301546001600160801b03808216610120840152600160801b918290048116610140840152600485015480821661016085015291909104811661018083015260058401549283166101a0830152600160601b90920482166101c0820152600690920154166101e082015290505b92915050565b6000826000036109415750600061098b565b600061096d836127106109548789615973565b61095e9190615992565b6109689190615992565b612776565b90506001600160601b038116156109845780610987565b60015b9150505b9392505050565b6000806109a76109a2858561274f565b6127e2565b915091509250929050565b6033546001600160a01b031633146109e55760405162461bcd60e51b81526004016109dc906159b4565b60405180910390fd5b6109ee81612857565b60fe546040805161ffff600160a01b9093048316815291831660208301527fecfa0a45664a45671d9817206986111771b8c0616137e91c4ae1c0b33d0feece910160405180910390a160fe805461ffff909216600160a01b0261ffff60a01b19909216919091179055565b60655460ff1615610a7c5760405162461bcd60e51b81526004016109dc906159e9565b600260975403610a9e5760405162461bcd60e51b81526004016109dc90615a13565b60026097556000610ab186868686612895565b9050610abf81863385612b18565b5050600160975550505050565b60655460ff1615610aef5760405162461bcd60e51b81526004016109dc906159e9565b600260975403610b115760405162461bcd60e51b81526004016109dc90615a13565b600260975560fc5460405163addbfc8360e01b81526000916001600160a01b03169063addbfc8390610b4d908890889088908890600401615a4a565b61018060405180830381865afa158015610b6b573d6000803e3d6000fd5b505050506040513d601f19601f82011682018060405250810190610b8f9190615ab4565b9050610b9a81613245565b610ba38161327f565b60fc546040516339b235d560e21b81526001600160a01b039091169063e6c8d75490610bd9908890889088908890600401615a4a565b600060405180830381600087803b158015610bf357600080fd5b505af1158015610c07573d6000803e3d6000fd5b50505050610c1b81338360000151876132b9565b50506001609755505050565b60655460ff1615610c4a5760405162461bcd60e51b81526004016109dc906159e9565b600260975403610c6c5760405162461bcd60e51b81526004016109dc90615a13565b60026097556000610c7d848461274f565b604080516102008101825282546001600160a01b03808216835263ffffffff600160a01b80840482166020860152600160c01b80850483169686019690965260ff600160e01b909404841615156060860152600187015480841660808701526001600160601b0390829004811660a0870152600288015493841660c0870152908304821660e0860181905295909204909216151561010084015260038501546001600160801b03808216610120860152600160801b918290048116610140860152600487015480821661016087015291909104811661018085015260058601549182166101a0850152600160601b90910481166101c08401526006909401549093166101e0820152925090831614610dbf5760405162461bcd60e51b8152602060048201526005602482015264303030323760d81b60448201526064016109dc565b610dc83361368f565b610dd78484600160008061375e565b505060016097555050565b60655460ff1615610e055760405162461bcd60e51b81526004016109dc906159e9565b600260975403610e275760405162461bcd60e51b81526004016109dc90615a13565b6002609755610e3b8383600084600161375e565b5050600160975550565b60655460ff1615610e685760405162461bcd60e51b81526004016109dc906159e9565b600260975403610e8a5760405162461bcd60e51b81526004016109dc90615a13565b6002609755610e97613d88565b610dd784848484612b18565b6033546001600160a01b03163314610ecd5760405162461bcd60e51b81526004016109dc906159b4565b610ed5613dca565b565b6033546001600160a01b03163314610f015760405162461bcd60e51b81526004016109dc906159b4565b610f0a81612857565b60fe546040805161ffff600160b01b9093048316815291831660208301527f21276df6e176cbf0bbc1b0eb55641239f046345cd264eae1c795434bf4a7cd07910160405180910390a160fe805461ffff909216600160b01b0261ffff60b01b19909216919091179055565b6033546001600160a01b03163314610f9f5760405162461bcd60e51b81526004016109dc906159b4565b60fe805460ff60f01b1916600160f01b1790556040517f1e7822c193bc2976c768176385d258cfc05f96b5e489140f05e69e40bf9e2e6190600090a1565b60655460ff16156110005760405162461bcd60e51b81526004016109dc906159e9565b6002609754036110225760405162461bcd60e51b81526004016109dc90615a13565b60026097556000611033848461274f565b600181015490915061104d906001600160a01b031661368f565b6110563361368f565b61105f81613e5d565b6110698133613ea3565b60048101546001600160801b038082169161108d91600160801b9091041684615b99565b11156110c35760405162461bcd60e51b8152602060048201526005602482015264030303032360dc1b60448201526064016109dc565b6110cc81613eeb565b60fd546002820154604051630b42978d60e31b81526001600160a01b0391821660048201526000929190911690635a14bc6890602401602060405180830381865afa15801561111f573d6000803e3d6000fd5b505050506040513d601f19601f820116820180604052508101906111439190615bb1565b905061114e82613f3d565b5050600061115d83858461407d565b90508015611461576004830154600160801b90046001600160801b031661118382614312565b6004850180546010906111a7908490600160801b90046001600160801b0316615bce565b82546001600160801b039182166101009390930a928302919092021990911617905550600284015484546000916111f29163ffffffff600160a01b9283900481169290910416615bf9565b6001860154909150600160a01b90046001600160601b03161561128c576000611239838760010160149054906101000a90046001600160601b03168463ffffffff1661437b565b600487015490915061126290600160801b90046001600160801b03168263ffffffff851661092f565b8660010160146101000a8154816001600160601b0302191690836001600160601b03160217905550505b60058501546001600160601b0316156112fb57600485015460fe546112d391600160801b90046001600160801b031690600160a01b900461ffff1663ffffffff841661092f565b6005860180546bffffffffffffffffffffffff19166001600160601b03929092169190911790555b60fd546002860154604051634ef4c4b360e01b81526001600160a01b039182166004820152602481018690526000929190911690634ef4c4b3906044016020604051808303816000875af1158015611357573d6000803e3d6000fd5b505050506040513d601f19601f8201168201806040525081019061137b9190615c1e565b60fd546001880154604051630d71cd3f60e31b81529293506001600160a01b0391821692636b8e69f8926113b792169089908690600401615c37565b600060405180830381600087803b1580156113d157600080fd5b505af11580156113e5573d6000803e3d6000fd5b505060fd5460028901548954604051634da6eb1f60e11b81526001600160a01b039283166004820152602481018a9052908216604482015291169250639b4dd63e9150606401600060405180830381600087803b15801561144557600080fd5b505af1158015611459573d6000803e3d6000fd5b505050505050505b84866001600160a01b03167f93e6e4e9b9cacc7a0b83b8d1625e51f155b5283886cdd9c255d2f92cc1726c9c838660405161149d929190615d6b565b60405180910390a35050600160975550505050565b6033546001600160a01b031633146114dc5760405162461bcd60e51b81526004016109dc906159b4565b6114e581612857565b60fe546040805161ffff600160c01b9093048316815291831660208301527f5b4b1620332f731ee19fab1edf9cf79a5efb529afc384bd23c41118c7546301f910160405180910390a160fe805461ffff909216600160c01b0261ffff60c01b19909216919091179055565b6033546001600160a01b0316331461157a5760405162461bcd60e51b81526004016109dc906159b4565b60fe805460ff60f01b191690556040517f9dfe04333cbbe1cddbf64b8f95ae9d2c9107f5e2680a6c597f53502171c0717690600090a1565b6033546001600160a01b03163314610ed55760405162461bcd60e51b81526004016109dc906159b4565b6033546001600160a01b031633146116065760405162461bcd60e51b81526004016109dc906159b4565b61160f81612857565b60fe546040805161ffff600160d01b9093048316815291831660208301527fd7a71cacc20b11c6b4f16b7c9a2c7cc986008fc42937e96939f9507808a0667f910160405180910390a160fe805461ffff909216600160d01b0261ffff60d01b19909216919091179055565b600061098b611689848461274f565b6143bb565b6033546001600160a01b031633146116b85760405162461bcd60e51b81526004016109dc906159b4565b610ed5614428565b60655460ff16156116e35760405162461bcd60e51b81526004016109dc906159e9565b6002609754036117055760405162461bcd60e51b81526004016109dc90615a13565b60026097556117198282600160008161375e565b50506001609755565b60655460ff16156117455760405162461bcd60e51b81526004016109dc906159e9565b6002609754036117675760405162461bcd60e51b81526004016109dc90615a13565b600260975560c082015160e08301516000916117829161274f565b905061178d3361368f565b61179681613e5d565b63ffffffff8216156117ea57805463ffffffff838116600160c01b90920416146117ea5760405162461bcd60e51b8152602060048201526005602482015264181818191b60d91b60448201526064016109dc565b6117f48333614480565b6117fd836144c4565b61180681613eeb565b61180f836144fd565b611819818461454c565b611822816146f6565b61182b8361327f565b610100830151600282015461184991906001600160a01b0316614737565b8260600151156118835760405162461bcd60e51b8152602060048201526005602482015264181818189b60d91b60448201526064016109dc565b60fd54610100840151604051630b42978d60e31b81526001600160a01b0391821660048201526000929190911690635a14bc6890602401602060405180830381865afa1580156118d7573d6000803e3d6000fd5b505050506040513d601f19601f820116820180604052508101906118fb9190615bb1565b90506000611908836143bb565b90506000611926848761012001518861014001518960200151614780565b905061193184613f3d565b505060028401805460ff60c01b1916600160c01b179055600080826119995760fe5460048701546127109161198291600160d01b90910461ffff1690600160801b90046001600160801b0316615973565b61198c9190615992565b6119969083615b99565b91505b6101208801516004870180546001600160801b0319166001600160801b039092169190911790556101408801516001870180546001600160a01b0316600160a01b6001600160601b03909316830217905560208901516002880154611a0592900463ffffffff16615d80565b865463ffffffff91909116600160a01b0263ffffffff60a01b19909116178655875160018701546001600160a01b03918216911603611c735760fd5461010089015160048801546101208b01516000936001600160a01b031692630b5629f6929091611a8191600160801b90046001600160801b031690615d9f565b6040516001600160e01b031960e085901b1681526001600160a01b0390921660048301526001600160801b031660248201526044016020604051808303816000875af1158015611ad5573d6000803e3d6000fd5b505050506040513d601f19601f82011682018060405250810190611af99190615c1e565b60fd546101008b01516040516305ab14fb60e11b81526001600160a01b039182166004820152602481018790529293501690630b5629f6906044016020604051808303816000875af1158015611b53573d6000803e3d6000fd5b505050506040513d601f19601f82011682018060405250810190611b779190615c1e565b8951909250611b909087611b8b8585615b99565b614893565b60fd548951604051630d71cd3f60e31b81526001600160a01b0390921691636b8e69f891611bc4918a908790600401615c37565b600060405180830381600087803b158015611bde57600080fd5b505af1158015611bf2573d6000803e3d6000fd5b505060fd546001600160a01b0316915063301515ba9050611c1b6033546001600160a01b031690565b88856040518463ffffffff1660e01b8152600401611c3b93929190615c37565b600060405180830381600087803b158015611c5557600080fd5b505af1158015611c69573d6000803e3d6000fd5b50505050506121d3565b6005860154600160601b90046001600160801b031615611cf35760058601546003870180546001600160801b03600160601b909304831692600091611cba91859116615bce565b82546001600160801b039182166101009390930a928302919092021990911617905550600586018054600160601b600160e01b03191690555b60fe54600487015460009161271091611d2791600160b01b900461ffff1690600160801b90046001600160801b0316615973565b611d319190615992565b6003880154611d52906001600160801b03600160801b820481169116615b99565b611d5c9190615b99565b6006880154909150611d77906001600160801b031684615b99565b92508415611d8c57611d898582615b99565b90505b8654611da890610e1090600160a01b900463ffffffff16615bf9565b63ffffffff16611db661493f565b63ffffffff161115611e0b5760fe54600488015461271091611df491600160e01b90910461ffff1690600160801b90046001600160801b0316615973565b611dfe9190615992565b611e089084615b99565b92505b60fd546101008a015160048901546000926001600160a01b031691630b5629f6916001600160801b0316611e3f8887615b99565b611e499190615b99565b6040516001600160e01b031960e085901b1681526001600160a01b03909216600483015260248201526044016020604051808303816000875af1158015611e94573d6000803e3d6000fd5b505050506040513d601f19601f82011682018060405250810190611eb89190615c1e565b60fd546101008c015160048b01549293506000926001600160a01b0390921691630b5629f69190600160801b90046001600160801b0316611ef98988615b99565b611f039190615b99565b6040516001600160e01b031960e085901b1681526001600160a01b03909216600483015260248201526044016020604051808303816000875af1158015611f4e573d6000803e3d6000fd5b505050506040513d601f19601f82011682018060405250810190611f729190615c1e565b9050611f838b600001518984614893565b60fd546101008c01516040516305ab14fb60e11b81526001600160a01b03918216600482015260248101889052911690630b5629f6906044016020604051808303816000875af1158015611fdb573d6000803e3d6000fd5b505050506040513d601f19601f82011682018060405250810190611fff9190615c1e565b60018a0180548d516001600160a01b038181166001600160a01b031984161790935560fd54604051630d71cd3f60e31b8152949850918316939190921691636b8e69f89161205491908d908790600401615c37565b600060405180830381600087803b15801561206e57600080fd5b505af1158015612082573d6000803e3d6000fd5b505060fd546001600160a01b0316915063301515ba9050828b6120a58987615dbf565b6040518463ffffffff1660e01b81526004016120c393929190615c37565b600060405180830381600087803b1580156120dd57600080fd5b505af11580156120f1573d6000803e3d6000fd5b505060fd546001600160a01b0316915063301515ba905061211a6033546001600160a01b031690565b8b886040518463ffffffff1660e01b815260040161213a93929190615c37565b600060405180830381600087803b15801561215457600080fd5b505af1158015612168573d6000803e3d6000fd5b5050505060068a015460038b0180546001600160801b0392831692601091612199918591600160801b900416615bce565b82546001600160801b039182166101009390930a92830291909202199091161790555050506006880180546001600160801b031916905550505b8760e001518860c001516001600160a01b03167ff8da6be1da64938ce749a71d27772ee1c9cececa9157afeae6c5be79582314d8886040516122159190615dd6565b60405180910390a350506001609755505050505050565b60655460ff161561224f5760405162461bcd60e51b81526004016109dc906159e9565b6002609754036122715760405162461bcd60e51b81526004016109dc90615a13565b60026097556000612282838361274f565b60fd546002820154604051630b42978d60e31b81526001600160a01b0391821660048201529293501690635a14bc6890602401602060405180830381865afa1580156122d2573d6000803e3d6000fd5b505050506040513d601f19601f820116820180604052508101906122f69190615bb1565b50600181015461230e906001600160a01b031661368f565b61231781613e5d565b8054600160a01b900463ffffffff1661232e61493f565b63ffffffff16101561236a5760405162461bcd60e51b8152602060048201526005602482015264060606060760db1b60448201526064016109dc565b6001808201546001600160a01b03858116600090815260fb60209081526040808320888452909152812080546001600160e81b03191681559384018190556002840180546001600160c81b03191690556003840181905560048401556005830180546001600160e01b0319169055600690920180546001600160801b0319169055166123f88484308461494f565b82846001600160a01b03167f9478638aee7e55317b2d5a6742d4dfc985c80ee148a1c32ad6dd8e8600b69f7d846040516124329190615dd6565b60405180910390a3505060016097555050565b60655460ff16156124685760405162461bcd60e51b81526004016109dc906159e9565b60026097540361248a5760405162461bcd60e51b81526004016109dc90615a13565b6002609755612497613d88565b610dd7848484846132b9565b6033546001600160a01b031633146124cd5760405162461bcd60e51b81526004016109dc906159b4565b6124d681612857565b60fe546040805161ffff600160e01b9093048316815291831660208301527f3ba673bac162f1f0a5b3b1efb228c0a6af404a411d4fef180e7d7858320adfd6910160405180910390a160fe805461ffff909216600160e01b0261ffff60e01b19909216919091179055565b600061254d60016149b7565b90508015612565576000805461ff0019166101001790555b60fe805460fd80546001600160a01b038089166001600160a01b03199283161790925560fc8054888416921691909117905584166001600160f01b031990911617661900190019001960b01b1790556125bc614a44565b6125c4614a73565b6125cc614aa2565b6125d4614ad1565b801561261a576000805461ff0019169055604051600181527f7f26b83ff96e1f2b6a682f133852f6798a09c465da95921460cefb38474024989060200160405180910390a15b50505050565b60655460ff16156126435760405162461bcd60e51b81526004016109dc906159e9565b6002609754036126655760405162461bcd60e51b81526004016109dc90615a13565b6002609755600061267885858486612895565b9050612683816144c4565b610c1b81826000015133876132b9565b60006126aa6126a2878761274f565b858585614780565b9695505050505050565b6033546001600160a01b031633146126de5760405162461bcd60e51b81526004016109dc906159b4565b6001600160a01b0381166127435760405162461bcd60e51b815260206004820152602660248201527f4f776e61626c653a206e6577206f776e657220697320746865207a65726f206160448201526564647265737360d01b60648201526084016109dc565b61274c81614af8565b50565b6001600160a01b0391909116600090815260fb602090815260408083209383529290522090565b60006001600160601b038211156127de5760405162461bcd60e51b815260206004820152602660248201527f53616665436173743a2076616c756520646f65736e27742066697420696e203960448201526536206269747360d01b60648201526084016109dc565b5090565b805460009081908190600160c01b900463ffffffff1661280061493f565b61280a9190615bf9565b600185015463ffffffff91909116915061283490600160a01b90046001600160601b031682615973565b600585015490935061284f906001600160601b031682615973565b915050915091565b6103e88161ffff16111561274c5760405162461bcd60e51b8152602060048201526005602482015264181818181960d91b60448201526064016109dc565b6040805161018081018252600080825260208201819052918101829052606081018290526080810182905260a0810182905260c0810182905260e0810182905261010081018290526101208101829052610140810182905261016081019190915260fc5460405163addbfc8360e01b81526000916001600160a01b03169063addbfc839061292d908990899088908a90600401615a4a565b61018060405180830381865afa15801561294b573d6000803e3d6000fd5b505050506040513d601f19601f8201168201806040525081019061296f9190615ab4565b905080608001516129f1576129848186614b4a565b60fc546040516339b235d560e21b81526001600160a01b039091169063e6c8d754906129ba908990899088908a90600401615a4a565b600060405180830381600087803b1580156129d457600080fd5b505af11580156129e8573d6000803e3d6000fd5b50505050612b0f565b61016081015160fc546040516303c1afd760e61b81526004810186905267ffffffffffffffff909216916001600160a01b039091169063f06bf5c090602401602060405180830381865afa158015612a4d573d6000803e3d6000fd5b505050506040513d601f19601f82011682018060405250810190612a719190615de5565b67ffffffffffffffff1610612ab05760405162461bcd60e51b8152602060048201526005602482015264303030353160d81b60448201526064016109dc565b60fc54604051635cc9be4360e01b8152600481018590526001600160a01b0390911690635cc9be4390602401600060405180830381600087803b158015612af657600080fd5b505af1158015612b0a573d6000803e3d6000fd5b505050505b95945050505050565b6000612b288560c001518561274f565b9050612b338361368f565b8451612b3e9061368f565b6101008501516002820154612b5c91906001600160a01b0316614737565b612b668184613ea3565b612b6f816146f6565b63ffffffff821615612bc357805463ffffffff838116600160c01b9092041614612bc35760405162461bcd60e51b8152602060048201526005602482015264181818191b60d91b60448201526064016109dc565b612bcc81613e5d565b612bd581613eeb565b612bde856144fd565b612be7856144c4565b612bf085614b85565b60fd54610100860151604051630b42978d60e31b81526001600160a01b0391821660048201526000929190911690635a14bc6890602401602060405180830381865afa158015612c44573d6000803e3d6000fd5b505050506040513d601f19601f82011682018060405250810190612c689190615bb1565b90506000612c75836143bb565b90508015612cc857612c8681614312565b600384018054600090612ca39084906001600160801b0316615bce565b92506101000a8154816001600160801b0302191690836001600160801b031602179055505b612cd183613f3d565b505060fe54600484015460009161271091612d0791600160b01b900461ffff1690600160801b90046001600160801b0316615973565b612d119190615992565b6005850154600386015460048701546001600160801b03600160601b909304831692612d4792811691600160801b900416615bce565b612d519190615bce565b6001600160801b0316612d649190615b99565b60068501549091506001600160801b0316612d7f8183615b99565b8961012001516001600160801b03161015612dc45760405162461bcd60e51b8152602060048201526005602482015264303030303560d81b60448201526064016109dc565b60fd546101008a01516040516305ab14fb60e11b81526001600160a01b039182166004820152602481018590526000929190911690630b5629f6906044016020604051808303816000875af1158015612e21573d6000803e3d6000fd5b505050506040513d601f19601f82011682018060405250810190612e459190615c1e565b60fd546101008c01516040516305ab14fb60e11b81526001600160a01b03918216600482015260248101869052929350600092911690630b5629f6906044016020604051808303816000875af1158015612ea3573d6000803e3d6000fd5b505050506040513d601f19601f82011682018060405250810190612ec79190615c1e565b60fd548c519192506001600160a01b031690636b8e69f89088612eea8587615b99565b6040518463ffffffff1660e01b8152600401612f0893929190615c37565b600060405180830381600087803b158015612f2257600080fd5b505af1158015612f36573d6000803e3d6000fd5b505060fd5460018a015460405163180a8add60e11b81526001600160a01b03928316945063301515ba9350612f7592909116908a908790600401615c37565b600060405180830381600087803b158015612f8f57600080fd5b505af1158015612fa3573d6000803e3d6000fd5b505060fd546001600160a01b0316915063301515ba9050612fcc6033546001600160a01b031690565b88846040518463ffffffff1660e01b8152600401612fec93929190615c37565b600060405180830381600087803b15801561300657600080fd5b505af115801561301a573d6000803e3d6000fd5b5050505060048701546002880154600160801b9091046001600160801b031690600160c01b900460ff16156130595760028801805460ff60c01b191690555b8b516101208d015160048a0180546001600160801b0319166001600160801b039092169190911790556101408d01516001600160a01b03909116600160a01b6001600160601b0390921682021760018a015560208d015160028a01546130c692900463ffffffff16615d80565b885463ffffffff91909116600160a01b0263ffffffff60a01b199091161788556130f86130f38587615b99565b614312565b6004890180546001600160801b03928316600160801b029216919091179055600060038901556006880180546001600160801b031916905560608c0151156131575760608c01518854901515600160e01b0260ff60e01b199091161788555b6005880154600160601b90046001600160801b03161561318757600588018054600160601b600160e01b03191690555b8a8c60c001516001600160a01b03167ff8da6be1da64938ce749a71d27772ee1c9cececa9157afeae6c5be79582314d88a6040516131c59190615dd6565b60405180910390a38a8c60c001516001600160a01b03167f93e6e4e9b9cacc7a0b83b8d1625e51f155b5283886cdd9c255d2f92cc1726c9c838b60040160109054906101000a90046001600160801b03166132209190615d9f565b8b60405161322f929190615e02565b60405180910390a3505050505050505050505050565b8060a001511561274c5760405162461bcd60e51b8152602060048201526005602482015264303030313360d81b60448201526064016109dc565b80608001511561274c5760405162461bcd60e51b81526020600482015260056024820152640c0c0c0c4d60da1b60448201526064016109dc565b6132c28361368f565b6132cb8261368f565b6101008401516001600160a01b031661330e5760405162461bcd60e51b81526020600482015260056024820152640c0c0c0c0d60da1b60448201526064016109dc565b60fd54610100850151604051630b42978d60e31b81526001600160a01b0391821660048201526000929190911690635a14bc6890602401602060405180830381865afa158015613362573d6000803e3d6000fd5b505050506040513d601f19601f820116820180604052508101906133869190615bb1565b905060006133988660c001518461274f565b8054909150600160c01b900463ffffffff16156133df5760405162461bcd60e51b8152602060048201526005602482015264181818181b60d91b60448201526064016109dc565b6133e8866144fd565b6133f186614b85565b60c08601516040516331a9108f60e11b8152600481018590526001600160a01b03868116921690636352211e90602401602060405180830381865afa15801561343e573d6000803e3d6000fd5b505050506040513d601f19601f820116820180604052508101906134629190615bb1565b6001600160a01b0316146134a05760405162461bcd60e51b8152602060048201526005602482015264060606062760db1b60448201526064016109dc565b6134ac81878787614bca565b6134bc8660c0015184863061494f565b60fd54610100870151610120880151604051634ef4c4b360e01b81526000936001600160a01b031692634ef4c4b392613514926004016001600160a01b039290921682526001600160801b0316602082015260400190565b6020604051808303816000875af1158015613533573d6000803e3d6000fd5b505050506040513d601f19601f820116820180604052508101906135579190615c1e565b60fd54604051630d71cd3f60e31b81529192506001600160a01b031690636b8e69f89061358c90899087908690600401615c37565b600060405180830381600087803b1580156135a657600080fd5b505af11580156135ba573d6000803e3d6000fd5b505060fd546101008a01516101208b0151604051634da6eb1f60e11b81526001600160a01b0392831660048201526001600160801b039091166024820152898216604482015291169250639b4dd63e9150606401600060405180830381600087803b15801561362857600080fd5b505af115801561363c573d6000803e3d6000fd5b50505050838760c001516001600160a01b03167f7c424144cf6dfb6f9dfe6c392a6fde47c81abff6cf9db2d6333524fbb0bc2d348460405161367e9190615dd6565b60405180910390a350505050505050565b60fe54600160f01b900460ff1661274c5760405163df592f7d60e01b81526001600160a01b03821660048201527340c57923924b5c5c5455c48d93317139addac8fb90600090829063df592f7d90602401602060405180830381865afa1580156136fd573d6000803e3d6000fd5b505050506040513d601f19601f820116820180604052508101906137219190615e20565b905080156137595760405162461bcd60e51b8152602060048201526005602482015264303030313760d81b60448201526064016109dc565b505050565b600061376a868661274f565b8054909150613781906001600160a01b031661368f565b61378a81613e5d565b81156137d15780546001600160a01b031633146137d15760405162461bcd60e51b8152602060048201526005602482015264060606064760db1b60448201526064016109dc565b60006137dc826143bb565b9050801561382f576137ed81614312565b60038301805460009061380a9084906001600160801b0316615bce565b92506101000a8154816001600160801b0302191690836001600160801b031602179055505b61383882613f3d565b505084156138ac5760048201546005830154600684015460038501546001600160801b03600160801b94859004811694600160601b909404811693928116926138879290810482169116615b99565b6138919190615b99565b61389b9190615b99565b6138a59190615b99565b9350613900565b6004820154600160801b90046001600160801b031684106138f75760405162461bcd60e51b8152602060048201526005602482015264303030323960d81b60448201526064016109dc565b61390082613eeb565b60028201546001600160a01b031673eeeeeeeeeeeeeeeeeeeeeeeeeeeeeeeeeeeeeeed190161397657833410156139615760405162461bcd60e51b8152602060048201526005602482015264030303033360dc1b60448201526064016109dc565b83341115613976576139763334869003614d93565b6002820154600090613991906001600160a01b031686614eac565b60fd546002850154604051630b42978d60e31b81526001600160a01b039182166004820152929350600092911690635a14bc6890602401602060405180830381865afa1580156139e5573d6000803e3d6000fd5b505050506040513d601f19601f82011682018060405250810190613a099190615bb1565b9050613a18848284898b615001565b8615613afd578354613a38908a908a9030906001600160a01b031661494f565b87896001600160a01b03167fce09fc9707e476d6aacf5656f2ca167400fe751c126167018e872ec60921ced08887604051613a74929190615d6b565b60405180910390a36001600160a01b038916600090815260fb602090815260408083208b8452909152812080546001600160e81b0319168155600181018290556002810180546001600160c81b03191690556003810182905560048101919091556005810180546001600160e01b031916905560060180546001600160801b0319169055613d7d565b6002840154600160c01b900460ff1615613ba05760028401805460ff60c01b191690556005840154600160601b90046001600160801b031615613ba05760058401546003850180546001600160801b03600160601b909304831692600091613b6791859116615bce565b82546001600160801b039182166101009390930a928302919092021990911617905550600584018054600160601b600160e01b03191690555b6004840154600160801b90046001600160801b0316613bbe87614312565b600486018054601090613be2908490600160801b90046001600160801b0316615d9f565b82546001600160801b039182166101009390930a92830291909202199091161790555060028501548554600091613c2d9163ffffffff600160a01b9283900481169290910416615bf9565b6001870154909150600160a01b90046001600160601b031615613cc7576000613c74838860010160149054906101000a90046001600160601b03168463ffffffff1661437b565b6004880154909150613c9d90600160801b90046001600160801b03168263ffffffff851661092f565b8760010160146101000a8154816001600160601b0302191690836001600160601b03160217905550505b60058601546001600160601b031615613d3657600486015460fe54613d0e91600160801b90046001600160801b031690600160a01b900461ffff1663ffffffff841661092f565b6005870180546bffffffffffffffffffffffff19166001600160601b03929092169190911790555b898b6001600160a01b03167ffbcad3d0404fe31ceb509eb87dfc2005933685b97cc45bf44f1a9960518c930c8a89604051613d72929190615d6b565b60405180910390a350505b505050505050505050565b60fe546001600160a01b03163314610ed55760405162461bcd60e51b8152602060048201526005602482015264303030333160d81b60448201526064016109dc565b60655460ff16613e135760405162461bcd60e51b815260206004820152601460248201527314185d5cd8589b194e881b9bdd081c185d5cd95960621b60448201526064016109dc565b6065805460ff191690557f5db9ee0a495bf2e6ff9c91a7834c1ba4fdd244a5e8aa4e537bd38aeae4b073aa335b6040516001600160a01b03909116815260200160405180910390a1565b8054600160c01b900463ffffffff1660000361274c5760405162461bcd60e51b8152602060048201526005602482015264303030303760d81b60448201526064016109dc565b81546001600160a01b03828116911614613ee75760405162461bcd60e51b8152602060048201526005602482015264303030323160d81b60448201526064016109dc565b5050565b8054600160a01b900463ffffffff16613f0261493f565b63ffffffff161061274c5760405162461bcd60e51b8152602060048201526005602482015264303030303960d81b60448201526064016109dc565b600080613f49836127e2565b60028501549193509150600160c01b900460ff161515600103613fbc57613f6f82614312565b600584018054600c90613f93908490600160601b90046001600160801b0316615bce565b92506101000a8154816001600160801b0302191690836001600160801b03160217905550614007565b613fc582614312565b600384018054600090613fe29084906001600160801b0316615bce565b92506101000a8154816001600160801b0302191690836001600160801b031602179055505b61401081614312565b60068401805460009061402d9084906001600160801b0316615bce565b92506101000a8154816001600160801b0302191690836001600160801b0316021790555061405961493f565b835463ffffffff91909116600160c01b0263ffffffff60c01b199091161790925591565b60fd5460018401546040516360275cbf60e11b81526001600160a01b03918216600482015283821660248201526000928392169063c04eb97e90604401602060405180830381865afa1580156140d7573d6000803e3d6000fd5b505050506040513d601f19601f820116820180604052508101906140fb9190615c1e565b60fd5460028701546040516305ab14fb60e11b81526001600160a01b03918216600482015260248101889052929350600092911690630b5629f6906044016020604051808303816000875af1158015614158573d6000803e3d6000fd5b505050506040513d601f19601f8201168201806040525081019061417c9190615c1e565b9050808210156142475760fd5460405163140ba95f60e11b81526001600160a01b038681166004830152602482018590529091169063281752be906044016020604051808303816000875af11580156141d9573d6000803e3d6000fd5b505050506040513d601f19601f820116820180604052508101906141fd9190615c1e565b6004870154909550614224906130f3908790600160801b90046001600160801b0316615b99565b6004870180546001600160801b0319166001600160801b03929092169190911790555b6002860154600160c01b900460ff16156142885760028601805460ff60c01b191690558082101561428857600586018054600160601b600160e01b03191690555b6005860154600160601b90046001600160801b0316156143085760058601546003870180546001600160801b03600160601b9093048316926000916142cf91859116615bce565b82546001600160801b039182166101009390930a928302919092021990911617905550600586018054600160601b600160e01b03191690555b5092949350505050565b60006001600160801b038211156127de5760405162461bcd60e51b815260206004820152602760248201527f53616665436173743a2076616c756520646f65736e27742066697420696e20316044820152663238206269747360c81b60648201526084016109dc565b600083612710614394846001600160601b038716615973565b61439e9190615973565b6143a89190615992565b6143b3906001615b99565b949350505050565b6000806143c7836127e2565b5060fe5460048501549192506000916127109161440091600160c01b90910461ffff1690600160801b90046001600160801b0316615973565b61440a9190615992565b90508181111561441e576143b38282615dbf565b5060009392505050565b60655460ff161561444b5760405162461bcd60e51b81526004016109dc906159e9565b6065805460ff191660011790557f62e78cea01bee320cd4e420270b5ea74000d11b0c9f74754ebdbfc544b05a258613e403390565b81516001600160a01b03828116911614613ee75760405162461bcd60e51b81526020600482015260056024820152640c0c0c0c8d60da1b60448201526064016109dc565b8060a0015161274c5760405162461bcd60e51b8152602060048201526005602482015264181818189960d91b60448201526064016109dc565b61450642615129565b63ffffffff16816040015163ffffffff161161274c5760405162461bcd60e51b8152602060048201526005602482015264030303031360dc1b60448201526064016109dc565b600482015460018301548354602084015160028601546001600160801b03909416936001600160601b03600160a01b94859004169363ffffffff9381900484169360009361459e939092900416615d80565b9050836001600160801b03168561012001516001600160801b03161180156145dd5750826001600160601b03168561014001516001600160601b031611155b80156145f557508163ffffffff168163ffffffff1610155b1561460257505050505050565b836001600160801b03168561012001516001600160801b03161015801561463f5750826001600160601b03168561014001516001600160601b0316105b801561465757508163ffffffff168163ffffffff1610155b1561466457505050505050565b836001600160801b03168561012001516001600160801b0316101580156146a25750826001600160601b03168561014001516001600160601b031611155b80156146b957508163ffffffff168163ffffffff16115b156146c657505050505050565b60405162461bcd60e51b8152602060048201526005602482015264303030323560d81b60448201526064016109dc565b8054600160e01b900460ff161561274c5760405162461bcd60e51b8152602060048201526005602482015264303030313560d81b60448201526064016109dc565b806001600160a01b0316826001600160a01b031614613ee75760405162461bcd60e51b8152602060048201526005602482015264303030313960d81b60448201526064016109dc565b6002840154845460009182916147ab9163ffffffff600160a01b918290048116929190910416615bf9565b600487015463ffffffff9190911691506000906001600160801b0390811690612710906147db9083908a16615dbf565b6147e59190615973565b6147ef9190615992565b60018801549091506000906001600160601b03600160a01b9091048116906127109061481d90891683615dbf565b6148279190615973565b6148319190615992565b90506000836127106148498263ffffffff8a16615dbf565b6148539190615973565b61485d9190615992565b905060008161486c8486615b99565b6148769190615b99565b60fe54600160d01b900461ffff16109a9950505050505050505050565b60fd546040516360275cbf60e11b81526001600160a01b03858116600483015284811660248301528392169063c04eb97e90604401602060405180830381865afa1580156148e5573d6000803e3d6000fd5b505050506040513d601f19601f820116820180604052508101906149099190615c1e565b10156137595760405162461bcd60e51b8152602060048201526005602482015264303030303160d81b60448201526064016109dc565b600061494a42615129565b905090565b604051632142170760e11b81526001600160a01b038516906342842e0e9061497f90859085908890600401615c37565b600060405180830381600087803b15801561499957600080fd5b505af11580156149ad573d6000803e3d6000fd5b5050505050505050565b60008054610100900460ff16156149fe578160ff1660011480156149da5750303b155b6149f65760405162461bcd60e51b81526004016109dc90615e3d565b506000919050565b60005460ff808416911610614a255760405162461bcd60e51b81526004016109dc90615e3d565b506000805460ff191660ff92909216919091179055600190565b919050565b600054610100900460ff16614a6b5760405162461bcd60e51b81526004016109dc90615e8b565b610ed561518e565b600054610100900460ff16614a9a5760405162461bcd60e51b81526004016109dc90615e8b565b610ed56151be565b600054610100900460ff16614ac95760405162461bcd60e51b81526004016109dc90615e8b565b610ed56151f1565b600054610100900460ff16610ed55760405162461bcd60e51b81526004016109dc90615e8b565b603380546001600160a01b038381166001600160a01b0319831681179093556040519116919082907f8be0079c531659141344cd1fd0a4f28419497f9722a3daafe3b4186f6b6457e090600090a35050565b8160e001518114613ee75760405162461bcd60e51b8152602060048201526005602482015264181818191960d91b60448201526064016109dc565b62015180816020015163ffffffff16101561274c5760405162461bcd60e51b8152602060048201526005602482015264303030313160d81b60448201526064016109dc565b83546001600160a01b03199081166001600160a01b03838116919091178655600186018054831685831617905561010085015160028701805490931691161790556101208301516004850180546001600160801b0319166001600160801b039092169190911790556020830151614c3f61493f565b614c499190615d80565b845463ffffffff91909116600160a01b0263ffffffff60a01b19909116178455614c7161493f565b8460020160146101000a81548163ffffffff021916908363ffffffff160217905550614c9b61493f565b84546101208501516004870180546001600160801b03908116600160801b91909316908102929092179055606086015164ffffffffff60c01b19909216600160c01b63ffffffff9485160260ff60e01b191617600160e01b9215159290920291909117865560028601805460ff60c01b19169055600060038701556101408501516001870180546001600160a01b0316600160a01b6001600160601b03909316830217905560fe546020870151614d5b949290910461ffff16911661092f565b6005850180546001600160e01b0319166001600160601b039290921691909117905550505060060180546001600160801b0319169055565b80471015614de35760405162461bcd60e51b815260206004820152601d60248201527f416464726573733a20696e73756666696369656e742062616c616e636500000060448201526064016109dc565b6000826001600160a01b03168260405160006040518083038185875af1925050503d8060008114614e30576040519150601f19603f3d011682016040523d82523d6000602084013e614e35565b606091505b50509050806137595760405162461bcd60e51b815260206004820152603a60248201527f416464726573733a20756e61626c6520746f2073656e642076616c75652c207260448201527f6563697069656e74206d6179206861766520726576657274656400000000000060648201526084016109dc565b600073eeeeeeeeeeeeeeeeeeeeeeeeeeeeeeeeeeeeeeed196001600160a01b03841601614f545760fd60009054906101000a90046001600160a01b03166001600160a01b031663d4719b4e836040518263ffffffff1660e01b815260040160206040518083038185885af1158015614f28573d6000803e3d6000fd5b50505050506040513d601f19601f82011682018060405250810190614f4d9190615c1e565b9050610929565b3415614f8a5760405162461bcd60e51b8152602060048201526005602482015264303030323360d81b60448201526064016109dc565b60fd5460405163db1fb77f60e01b81526001600160a01b039091169063db1fb77f90614fbe90339087908790600401615c37565b6020604051808303816000875af1158015614fdd573d6000803e3d6000fd5b505050506040513d601f19601f82011682018060405250810190614f4d9190615c1e565b8281156150b55760068601546000908490615025906001600160801b031687615973565b61502f9190615992565b905061503b8183615dbf565b60fd549092506001600160a01b031663301515ba6150616033546001600160a01b031690565b88846040518463ffffffff1660e01b815260040161508193929190615c37565b600060405180830381600087803b15801561509b57600080fd5b505af11580156150af573d6000803e3d6000fd5b50505050505b60fd54600187015460405163180a8add60e11b81526001600160a01b039283169263301515ba926150ef9291169089908690600401615c37565b600060405180830381600087803b15801561510957600080fd5b505af115801561511d573d6000803e3d6000fd5b50505050505050505050565b600063ffffffff8211156127de5760405162461bcd60e51b815260206004820152602660248201527f53616665436173743a2076616c756520646f65736e27742066697420696e203360448201526532206269747360d01b60648201526084016109dc565b600054610100900460ff166151b55760405162461bcd60e51b81526004016109dc90615e8b565b610ed533614af8565b600054610100900460ff166151e55760405162461bcd60e51b81526004016109dc90615e8b565b6065805460ff19169055565b600054610100900460ff166152185760405162461bcd60e51b81526004016109dc90615e8b565b6001609755565b6001600160a01b038116811461274c57600080fd5b8035614a3f8161521f565b6000806040838503121561525257600080fd5b823561525d8161521f565b946020939093013593505050565b81516001600160a01b0316815261020081016020830151615294602084018263ffffffff169052565b5060408301516152ac604084018263ffffffff169052565b5060608301516152c0606084018215159052565b5060808301516152db60808401826001600160a01b03169052565b5060a08301516152f660a08401826001600160601b03169052565b5060c083015161531160c08401826001600160a01b03169052565b5060e083015161532960e084018263ffffffff169052565b5061010083810151151590830152610120808401516001600160801b03908116918401919091526101408085015182169084015261016080850151821690840152610180808501518216908401526101a0808501516001600160601b0316908401526101c0808501518216908401526101e09384015116929091019190915290565b6000806000606084860312156153c057600080fd5b505081359360208301359350604090920135919050565b6000602082840312156153e957600080fd5b813561ffff8116811461098b57600080fd5b801515811461274c57600080fd5b8035614a3f816153fb565b63ffffffff8116811461274c57600080fd5b8035614a3f81615414565b600080600080600060a0868803121561544957600080fd5b85356154548161521f565b945060208601359350604086013561546b816153fb565b925060608601359150608086013561548281615414565b809150509295509295909350565b634e487b7160e01b600052604160045260246000fd5b604051610180810167ffffffffffffffff811182821017156154ca576154ca615490565b60405290565b604051601f8201601f1916810167ffffffffffffffff811182821017156154f9576154f9615490565b604052919050565b6000806000806080858703121561551757600080fd5b84356155228161521f565b93506020858101356155338161521f565b935060408601359250606086013567ffffffffffffffff8082111561555757600080fd5b818801915088601f83011261556b57600080fd5b81358181111561557d5761557d615490565b61558f601f8201601f191685016154d0565b915080825289848285010111156155a557600080fd5b808484018584013760008482840101525080935050505092959194509250565b600080600080608085870312156155db57600080fd5b84356155e68161521f565b935060208501359250604085013591506060850135615604816153fb565b939692955090935050565b60008060006060848603121561562457600080fd5b833561562f8161521f565b925060208401359150604084013561564681615414565b809150509250925092565b60008060006060848603121561566657600080fd5b83356156718161521f565b95602085013595506040909401359392505050565b6001600160801b038116811461274c57600080fd5b8035614a3f81615686565b6001600160601b038116811461274c57600080fd5b8035614a3f816156a6565b67ffffffffffffffff8116811461274c57600080fd5b8035614a3f816156c6565b600061018082840312156156fa57600080fd5b6157026154a6565b905061570d82615234565b815261571b60208301615426565b602082015261572c60408301615426565b604082015261573d60608301615409565b606082015261574e60808301615409565b608082015261575f60a08301615409565b60a082015261577060c08301615234565b60c082015260e082013560e082015261010061578d818401615234565b9082015261012061579f83820161569b565b908201526101406157b18382016156bb565b908201526101606157c38382016156dc565b9082015292915050565b6000806000806101e085870312156157e457600080fd5b6157ee86866156e7565b935061018085013592506101a08501356158078161521f565b91506101c085013561560481615414565b6000806101a0838503121561582c57600080fd5b61583684846156e7565b915061018083013561584781615414565b809150509250929050565b6000806000806101e0858703121561586957600080fd5b61587386866156e7565b93506101808501356158848161521f565b92506101a08501356158958161521f565b939692955092936101c00135925050565b6000806000606084860312156158bb57600080fd5b83356158c68161521f565b925060208401356158d68161521f565b915060408401356156468161521f565b600080600080600060a086880312156158fe57600080fd5b85356159098161521f565b945060208601359350604086013561592081615686565b92506060860135615930816156a6565b9150608086013561548281615414565b60006020828403121561595257600080fd5b813561098b8161521f565b634e487b7160e01b600052601160045260246000fd5b600081600019048311821515161561598d5761598d61595d565b500290565b6000826159af57634e487b7160e01b600052601260045260246000fd5b500490565b6020808252818101527f4f776e61626c653a2063616c6c6572206973206e6f7420746865206f776e6572604082015260600190565b60208082526010908201526f14185d5cd8589b194e881c185d5cd95960821b604082015260600190565b6020808252601f908201527f5265656e7472616e637947756172643a207265656e7472616e742063616c6c00604082015260600190565b6001600160a01b03949094168452602084019290925260408301521515606082015260800190565b8051614a3f8161521f565b8051614a3f81615414565b8051614a3f816153fb565b8051614a3f81615686565b8051614a3f816156a6565b8051614a3f816156c6565b60006101808284031215615ac757600080fd5b615acf6154a6565b615ad883615a72565b8152615ae660208401615a7d565b6020820152615af760408401615a7d565b6040820152615b0860608401615a88565b6060820152615b1960808401615a88565b6080820152615b2a60a08401615a88565b60a0820152615b3b60c08401615a72565b60c082015260e083015160e0820152610100615b58818501615a72565b90820152610120615b6a848201615a93565b90820152610140615b7c848201615a9e565b90820152610160615b8e848201615aa9565b908201529392505050565b60008219821115615bac57615bac61595d565b500190565b600060208284031215615bc357600080fd5b815161098b8161521f565b60006001600160801b03808316818516808303821115615bf057615bf061595d565b01949350505050565b600063ffffffff83811690831681811015615c1657615c1661595d565b039392505050565b600060208284031215615c3057600080fd5b5051919050565b6001600160a01b039384168152919092166020820152604081019190915260600190565b80546001600160a01b03808216845263ffffffff60a083901c8116602086015260c083901c81166040860152615c9b6060860160ff8560e01c1615159052565b60018401546001600160a01b03838216166080870152925060a083811c9086015260028401546001600160a01b038382161660c08701529250615ceb60e08601828560a01c1663ffffffff169052565b5050615d02610100840160ff8360c01c1615159052565b5060038101546001600160801b03808216610120850152608091821c610140850152600483015480821661016086015290911c61018084015260058201546001600160601b0381166101a085015260601c81166101c0840152600690910154166101e090910152565b828152610220810161098b6020830184615c5b565b600063ffffffff808316818516808303821115615bf057615bf061595d565b60006001600160801b0383811690831681811015615c1657615c1661595d565b600082821015615dd157615dd161595d565b500390565b61020081016109298284615c5b565b600060208284031215615df757600080fd5b815161098b816156c6565b6001600160801b0383168152610220810161098b6020830184615c5b565b600060208284031215615e3257600080fd5b815161098b816153fb565b6020808252602e908201527f496e697469616c697a61626c653a20636f6e747261637420697320616c72656160408201526d191e481a5b9a5d1a585b1a5e995960921b606082015260800190565b6020808252602b908201527f496e697469616c697a61626c653a20636f6e7472616374206973206e6f74206960408201526a6e697469616c697a696e6760a81b60608201526080019056fea264697066735822122075e7fc55e365b1b80d062922af13f2f39078e1aa8248453f8e314993b56ff94664736f6c634300080d0033",
  "devdoc": {
    "author": "captnseagraves (captnseagraves.eth)",
    "custom:contributor": "dankurka0xAlcibiades (alcibiades.eth)zjmiller (zjmiller.eth)",
    "custom:version": "1.0",
    "kind": "dev",
    "methods": {
      "calculateInterestAccrued(address,uint256)": {
        "params": {
          "nftContractAddress": "The address of the NFT collection",
          "nftId": "The id of the specified NFT"
        }
      },
      "calculateInterestPerSecond(uint256,uint256,uint256)": {
        "params": {
          "amount": "The amount of the loan",
          "duration": "The duration of the loan",
          "interestBps": "in basis points"
        }
      },
      "checkSufficientInterestAccumulated(address,uint256)": {
        "params": {
          "nftContractAddress": "The address of the NFT collection",
          "nftId": "The id of the specified NFT"
        }
      },
      "checkSufficientTerms(address,uint256,uint128,uint96,uint32)": {
        "params": {
          "amount": "The amount of asset offered",
          "duration": "The duration of the loan offered",
          "interestRatePerSecond": "The interest rate per second offered",
          "nftContractAddress": "The address of the NFT collection",
          "nftId": "The id of the specified NFT"
        }
      },
      "doExecuteLoan((address,uint32,uint32,bool,bool,bool,address,uint256,address,uint128,uint96,uint64),address,address,uint256)": {
        "params": {
          "borrower": "The borrower of the loan",
          "lender": "The lender of the loan",
          "nftId": "The id of the specified NFT",
          "offer": "The details of the loan auction offer"
        }
      },
      "doRefinanceByBorrower((address,uint32,uint32,bool,bool,bool,address,uint256,address,uint128,uint96,uint64),uint256,address,uint32)": {
        "params": {
          "nftId": "The id of the specified NFT",
          "nftOwner": "owner of the nft in the lending.sol lendingAuction",
          "offer": "The details of the loan auction offer"
        }
      },
      "drawLoanAmount(address,uint256,uint256)": {
        "params": {
          "drawAmount": "The amount of value to draw and add to the loan amountDrawn",
          "nftContractAddress": "The address of the NFT collection",
          "nftId": "The id of the specified NFT"
        }
      },
      "executeLoanByBorrower(address,uint256,bytes32,bool)": {
        "params": {
          "floorTerm": "Indicates whether this is a floor or individual NFT offer.",
          "nftContractAddress": "The address of the NFT collection",
          "nftId": "The id of the specified NFT",
          "offerHash": "The hash of all parameters in an offer"
        }
      },
      "executeLoanByLender(address,uint256,bytes32,bool)": {
        "params": {
          "floorTerm": "Indicates whether this is a floor or individual NFT offer.",
          "nftContractAddress": "The address of the NFT collection",
          "nftId": "The id of the specified NFT",
          "offerHash": "The hash of all parameters in an offer"
        }
      },
      "getLoanAuction(address,uint256)": {
        "params": {
          "nftContractAddress": "The address of the NFT collection",
          "nftId": "The id of a specified NFT"
        }
      },
      "onERC721Received(address,address,uint256,bytes)": {
        "details": "See {IERC721Receiver-onERC721Received}. Always returns `IERC721Receiver.onERC721Received.selector`."
      },
      "owner()": {
        "details": "Returns the address of the current owner."
      },
      "ownerOf(address,uint256)": {
        "params": {
          "nftContractAddress": "The address of the given nft contract",
          "nftId": "The id of the given nft"
        }
      },
      "partialRepayLoan(address,uint256,uint256)": {
        "params": {
          "amount": "The amount of value to pay down on the principle of the loan",
          "nftContractAddress": "The address of the NFT collection",
          "nftId": "The id of the specified NFT"
        }
      },
      "paused()": {
        "details": "Returns true if the contract is paused, and false otherwise."
      },
      "refinanceByBorrower(address,uint256,bool,bytes32,uint32)": {
        "params": {
          "floorTerm": "Indicates whether this is a floor or individual NFT offer.",
          "nftContractAddress": "The address of the NFT collection",
          "nftId": "The id of the specified NFT",
          "offerHash": "The hash of all parameters in an offer. This is used as the unique identifier of an offer."
        }
      },
      "refinanceByLender((address,uint32,uint32,bool,bool,bool,address,uint256,address,uint128,uint96,uint64),uint32)": {
        "params": {
          "expectedLastUpdatedTimestamp": "The timestamp of the expected terms. This allows lenders to avoid being frontrun and forced to pay a gasGriefingPremium.        Lenders can provide a 0 value if they are willing to pay the gasGriefingPremium in a high volume loanAuction",
          "offer": "The details of the loan auction offer"
        }
      },
      "renounceOwnership()": {
        "details": "Leaves the contract without owner. It will not be possible to call `onlyOwner` functions anymore. Can only be called by the current owner. NOTE: Renouncing ownership will leave the contract without an owner, thereby removing any functionality that is only available to the owner."
      },
      "repayLoan(address,uint256)": {
        "params": {
          "nftContractAddress": "The address of the NFT collection",
          "nftId": "The id of the specified NFT"
        }
      },
      "repayLoanForAccount(address,uint256,uint32)": {
        "params": {
          "nftContractAddress": "The address of the NFT collection",
          "nftId": "The id of the specified NFT"
        }
      },
      "seizeAsset(address,uint256)": {
        "params": {
          "nftContractAddress": "The address of the NFT collection",
          "nftId": "The id of the specified NFT"
        }
      },
      "transferOwnership(address)": {
        "details": "Transfers ownership of the contract to a new account (`newOwner`). Can only be called by the current owner."
      }
    },
    "stateVariables": {
      "ETH_ADDRESS": {
        "details": "Internal address used for for ETH in our mappings"
      },
      "SANCTIONS_CONTRACT": {
        "details": "Internal constant address for the Chainalysis OFAC sanctions oracle"
      },
      "__gap": {
        "details": "This empty reserved space is put in place to allow future versions to add new variables without shifting storage."
      },
      "_loanAuctions": {
        "details": "A mapping for a NFT to a loan auction.      The mapping has to be broken into two parts since an NFT is denominated by its address (first part)      and its nftId (second part) in our code base."
      },
      "_sanctionsPause": {
        "details": "The status of sanctions checks. Can be set to false if oracle becomes malicious."
      }
    },
    "title": "NiftyApes Lending",
    "version": 1
  },
  "userdoc": {
    "events": {
      "AmountDrawn(address,uint256,uint256,(address,uint32,uint32,bool,address,uint96,address,uint32,bool,uint128,uint128,uint128,uint128,uint96,uint128,uint128))": {
        "notice": "Emitted when a loan amount is drawn"
      },
      "AssetSeized(address,uint256,(address,uint32,uint32,bool,address,uint96,address,uint32,bool,uint128,uint128,uint128,uint128,uint96,uint128,uint128))": {
        "notice": "Emitted when an asset is seized"
      },
      "DefaultRefinancePremiumBpsUpdated(uint16,uint16)": {
        "notice": "Emitted when the bps premium paid to the protocol for refinancing a loan within 1 hour of default is changed"
      },
      "GasGriefingPremiumBpsUpdated(uint16,uint16)": {
        "notice": "Emitted when the bps premium for refinancing a loan before the current lender has earned the equivalent amount of interest has changed"
      },
      "GasGriefingProtocolPremiumBpsUpdated(uint16,uint16)": {
        "notice": "Emitted when the bps premium paid to the protocol for refinancing a loan before the current lender has earned the equivalent amount of interest is changed"
      },
      "LendingSanctionsPaused()": {
        "notice": "Emitted when sanctions checks are paused"
      },
      "LendingSanctionsUnpaused()": {
        "notice": "Emitted when sanctions checks are unpaused"
      },
      "LoanExecuted(address,uint256,(address,uint32,uint32,bool,address,uint96,address,uint32,bool,uint128,uint128,uint128,uint128,uint96,uint128,uint128))": {
        "notice": "Emitted when a new loan is executed"
      },
      "LoanRepaid(address,uint256,uint256,(address,uint32,uint32,bool,address,uint96,address,uint32,bool,uint128,uint128,uint128,uint128,uint96,uint128,uint128))": {
        "notice": "Emitted when a loan is repaid"
      },
      "OriginationPremiumBpsUpdated(uint16,uint16)": {
        "notice": "Emitted when the the bps premium for refinancing a loan that the new lender has to pay is changed"
      },
      "PartialRepayment(address,uint256,uint256,(address,uint32,uint32,bool,address,uint96,address,uint32,bool,uint128,uint128,uint128,uint128,uint96,uint128,uint128))": {
        "notice": "Emitted when a loan is partially repaid"
      },
      "ProtocolInterestBpsUpdated(uint96,uint96)": {
        "notice": "Emitted when the protocol interest fee is updated.         Interest is charged per second on a loan.         This is the fee that the protocol charges for facilitating the loan"
      },
      "Refinance(address,uint256,(address,uint32,uint32,bool,address,uint96,address,uint32,bool,uint128,uint128,uint128,uint128,uint96,uint128,uint128))": {
        "notice": "Emitted when a loan is refinanced"
      },
      "TermGriefingPremiumBpsUpdated(uint16,uint16)": {
        "notice": "Emitted when the bps premium paid to the protocol for refinancing a loan with terms that do not improve the cumulative terms of the loan by the equivalent basis points is changed"
      }
    },
    "kind": "user",
    "methods": {
      "calculateInterestAccrued(address,uint256)": {
        "notice": "Returns interest since the last update to the loan         This only includes the interest from the current active interest period."
      },
      "calculateInterestPerSecond(uint256,uint256,uint256)": {
        "notice": "Returns the pinterestRatePerSecond for a given set of terms"
      },
      "checkSufficientInterestAccumulated(address,uint256)": {
        "notice": "Returns the delta between the required accumulated interest and the current accumulated interest"
      },
      "checkSufficientTerms(address,uint256,uint128,uint96,uint32)": {
        "notice": "Returns whether the lender has provided sufficient terms to not be charged a term griefing premium         Amount and duration must be equal to or greater than, and interestRatePerSecond must be less than         or equal to the current terms or function will fail"
      },
      "defaultRefinancePremiumBps()": {
        "notice": "Returns the bps premium paid to the protocol for refinancing a loan within 1 hour of default         Fees are denominated in basis points, parts of 10_000"
      },
      "doExecuteLoan((address,uint32,uint32,bool,bool,bool,address,uint256,address,uint128,uint96,uint64),address,address,uint256)": {
        "notice": "Function only callable by the NiftyApesSigLending contract         Allows SigLending contract to execute loan directly"
      },
      "doRefinanceByBorrower((address,uint32,uint32,bool,bool,bool,address,uint256,address,uint128,uint96,uint64),uint256,address,uint32)": {
        "notice": "Function only callable by the NiftyApesSigLending contract         Allows SigLending contract to refinance a loan directly"
      },
      "drawLoanAmount(address,uint256,uint256)": {
        "notice": "Allows borrowers to draw a higher balance on their loan if it has been refinanced with a higher maximum amount         Drawing down value increases the maximum loan pay back amount and so is not automatically imposed on a refinance by lender, hence this function.         If a lender does not have liquidity to support a refinanced amount the borrower will draw whatever amount is available,         the lender's interest earned so far is slashed, and the loan amount is set to the amount currently drawn"
      },
      "executeLoanByBorrower(address,uint256,bytes32,bool)": {
        "notice": "Start a loan as the borrower using an offer from the on chain offer book.         The caller of this method has to be the current owner of the NFT"
      },
      "executeLoanByLender(address,uint256,bytes32,bool)": {
        "notice": "Start a loan as the lender using an offer from the on chain offer book.         Borrowers can make offers for loan terms on their NFTs and thus lenders can         execute these offers"
      },
      "gasGriefingPremiumBps()": {
        "notice": "Returns the bps premium for refinancing a loan before the current lender has earned the equivalent amount of interest         The amount paid decreases as the current lender earns interest         The maximum amount paid is the value of gasGriefingPremiumBps         For example, if the value of gasGriefingPremiumBps is 25 and 10 bps of interest has been earned, the premium will be 15 bps paid to the current lender         Fees are denominated in basis points, parts of 10_000"
      },
      "getLoanAuction(address,uint256)": {
        "notice": "Returns a loan auction identified by a given nft."
      },
      "initialize(address,address,address)": {
        "notice": "The initializer for the NiftyApes protocol.         Nifty Apes is intended to be deployed behind a proxy amd thus needs to initialize         its state outsize of a constructor."
      },
      "liquidityContractAddress()": {
        "notice": "Returns the address for the associated liquidity contract"
      },
      "offersContractAddress()": {
        "notice": "Returns the address for the associated offers contract"
      },
      "originationPremiumBps()": {
        "notice": "Returns the bps premium for refinancing a loan that the new lender has to pay         This premium is to compensate lenders for the work of originating a loan         Fees are denominated in basis points, parts of 10_000"
      },
      "ownerOf(address,uint256)": {
        "notice": "Returns the owner of a given nft if there is a current loan on the NFT, otherwise zero."
      },
      "partialRepayLoan(address,uint256,uint256)": {
        "notice": "Repay part of an open loan.         Repaying part of a loan will lower the remaining interest accumulated"
      },
      "pause()": {
        "notice": "Pauses all interactions with the contract.         This is intended to be used as an emergency measure to avoid loosing funds."
      },
      "pauseSanctions()": {
        "notice": "Pauses sanctions checks"
      },
      "protocolInterestBps()": {
        "notice": "Returns the fee that computes protocol interest         This fee is the basis points in order to calculate interest per second"
      },
      "refinanceByBorrower(address,uint256,bool,bytes32,uint32)": {
        "notice": "Refinance a loan against the on chain offer book as the borrower.         The new offer has to cover the principle remaining and all lender interest owed on the loan         Borrowers can refinance at any time even after loan default as long as their NFT collateral has not been seized"
      },
      "refinanceByLender((address,uint32,uint32,bool,bool,bool,address,uint256,address,uint128,uint96,uint64),uint32)": {
        "notice": "Refinance a loan against a new offer.         The new offer must improve terms for the borrower         Lender must improve terms by a cumulative 25 bps or pay a 25 bps premium         For example, if termGriefingPremiumBps is 25 then the cumulative improvement of amount, interestRatePerSecond, and duration must be more than 25 bps         If the amount is 8 bps better, interestRatePerSecond is 7 bps better, and duration is 10 bps better, then no premium is paid         If any one of those terms is worse then a full premium is paid         The Lender must allow 25 bps on interest to accrue or pay a gas griefing premium to the current lender         This premium is equal to gasGriefingPremiumBps - interestEarned"
      },
      "repayLoan(address,uint256)": {
        "notice": "Repay a loan and release the underlying collateral.         The method automatically computes owed interest."
      },
      "repayLoanForAccount(address,uint256,uint32)": {
        "notice": "Repay someone elses loan         This function is similar to repayLoan except that it allows for msg.sender to not be         the borrower of the loan.         The reason this is broken into another function is to make it harder to accidentally         be repaying someone elses loan.         Unless you are intending to repay someone elses loan you should be using #repayLoan instead         The main use case for this function is to have a bot repay a loan on behalf of a borrower"
      },
      "seizeAsset(address,uint256)": {
        "notice": "Seizes an asset if the loan has expired and sends it to the lender         This function can be called by anyone as soon as the loan is expired without having been repaid in full.         This function allows anyone to call it so that an automated bot may seize the asset on behalf of a lender."
      },
      "sigLendingContractAddress()": {
        "notice": "Returns the address for the associated signature lending contract"
      },
      "termGriefingPremiumBps()": {
        "notice": "Returns the bps premium paid to the protocol for refinancing a loan with terms that do not improve the cumulative terms of the loan by the equivalent basis points         For example, if termGriefingPremiumBps is 25 then the cumulative improvement of amount, interestRatePerSecond, and duration must be more than 25 bps         If the amount is 8 bps better, interestRatePerSecond is 7 bps better, and duration is 10 bps better, then no premium is paid         If any one of those terms is worse then a full premium is paid         Fees are denominated in basis points, parts of 10_000"
      },
      "unpause()": {
        "notice": "Unpauses all interactions with the contract."
      },
      "unpauseSanctions()": {
        "notice": "Unpauses sanctions checks"
      },
      "updateDefaultRefinancePremiumBps(uint16)": {
        "notice": "Updates the bps premium paid to the protocol for refinancing a loan within 1 hour of default         Fees are denominated in basis points, parts of 10_000"
      },
      "updateGasGriefingPremiumBps(uint16)": {
        "notice": "Updates the bps premium for refinancing a loan before the current lender has earned the equivalent amount of interest         Fees are denominated in basis points, parts of 10_000"
      },
      "updateOriginationPremiumLenderBps(uint16)": {
        "notice": "Updates the bps premium for refinancing a loan that the new lender has to pay         Fees are denominated in basis points, parts of 10_000"
      },
      "updateProtocolInterestBps(uint16)": {
        "notice": "Updates the fee that computes protocol interest due on loan payback         Interest is charged per second on a loan."
      },
      "updateTermGriefingPremiumBps(uint16)": {
        "notice": "Updates the bps premium paid to the protocol for refinancing a loan with terms that do not improve the cumulative terms of the loan by the equivalent basis points         Fees are denominated in basis points, parts of 10_000"
      }
    },
    "version": 1
  },
  "storageLayout": {
    "storage": [
      {
        "astId": 130,
        "contract": "contracts/Lending.sol:NiftyApesLending",
        "label": "_initialized",
        "offset": 0,
        "slot": "0",
        "type": "t_uint8"
      },
      {
        "astId": 133,
        "contract": "contracts/Lending.sol:NiftyApesLending",
        "label": "_initializing",
        "offset": 1,
        "slot": "0",
        "type": "t_bool"
      },
      {
        "astId": 1202,
        "contract": "contracts/Lending.sol:NiftyApesLending",
        "label": "__gap",
        "offset": 0,
        "slot": "1",
        "type": "t_array(t_uint256)50_storage"
      },
      {
        "astId": 10,
        "contract": "contracts/Lending.sol:NiftyApesLending",
        "label": "_owner",
        "offset": 0,
        "slot": "51",
        "type": "t_address"
      },
      {
        "astId": 122,
        "contract": "contracts/Lending.sol:NiftyApesLending",
        "label": "__gap",
        "offset": 0,
        "slot": "52",
        "type": "t_array(t_uint256)49_storage"
      },
      {
        "astId": 286,
        "contract": "contracts/Lending.sol:NiftyApesLending",
        "label": "_paused",
        "offset": 0,
        "slot": "101",
        "type": "t_bool"
      },
      {
        "astId": 375,
        "contract": "contracts/Lending.sol:NiftyApesLending",
        "label": "__gap",
        "offset": 0,
        "slot": "102",
        "type": "t_array(t_uint256)49_storage"
      },
      {
        "astId": 390,
        "contract": "contracts/Lending.sol:NiftyApesLending",
        "label": "_status",
        "offset": 0,
        "slot": "151",
        "type": "t_uint256"
      },
      {
        "astId": 434,
        "contract": "contracts/Lending.sol:NiftyApesLending",
        "label": "__gap",
        "offset": 0,
        "slot": "152",
        "type": "t_array(t_uint256)49_storage"
      },
      {
        "astId": 917,
        "contract": "contracts/Lending.sol:NiftyApesLending",
        "label": "__gap",
        "offset": 0,
        "slot": "201",
        "type": "t_array(t_uint256)50_storage"
      },
      {
        "astId": 4681,
        "contract": "contracts/Lending.sol:NiftyApesLending",
        "label": "_loanAuctions",
        "offset": 0,
        "slot": "251",
        "type": "t_mapping(t_address,t_mapping(t_uint256,t_struct(LoanAuction)11858_storage))"
      },
      {
        "astId": 4684,
        "contract": "contracts/Lending.sol:NiftyApesLending",
        "label": "offersContractAddress",
        "offset": 0,
        "slot": "252",
        "type": "t_address"
      },
      {
        "astId": 4687,
        "contract": "contracts/Lending.sol:NiftyApesLending",
        "label": "liquidityContractAddress",
        "offset": 0,
        "slot": "253",
        "type": "t_address"
      },
      {
        "astId": 4690,
        "contract": "contracts/Lending.sol:NiftyApesLending",
        "label": "sigLendingContractAddress",
        "offset": 0,
        "slot": "254",
        "type": "t_address"
      },
      {
        "astId": 4693,
        "contract": "contracts/Lending.sol:NiftyApesLending",
        "label": "protocolInterestBps",
        "offset": 20,
        "slot": "254",
        "type": "t_uint16"
      },
      {
        "astId": 4696,
        "contract": "contracts/Lending.sol:NiftyApesLending",
        "label": "originationPremiumBps",
        "offset": 22,
        "slot": "254",
        "type": "t_uint16"
      },
      {
        "astId": 4699,
        "contract": "contracts/Lending.sol:NiftyApesLending",
        "label": "gasGriefingPremiumBps",
        "offset": 24,
        "slot": "254",
        "type": "t_uint16"
      },
      {
        "astId": 4702,
        "contract": "contracts/Lending.sol:NiftyApesLending",
        "label": "termGriefingPremiumBps",
        "offset": 26,
        "slot": "254",
        "type": "t_uint16"
      },
      {
        "astId": 4705,
        "contract": "contracts/Lending.sol:NiftyApesLending",
        "label": "defaultRefinancePremiumBps",
        "offset": 28,
        "slot": "254",
        "type": "t_uint16"
      },
      {
        "astId": 4708,
        "contract": "contracts/Lending.sol:NiftyApesLending",
        "label": "_sanctionsPause",
        "offset": 30,
        "slot": "254",
        "type": "t_bool"
      },
      {
        "astId": 4713,
        "contract": "contracts/Lending.sol:NiftyApesLending",
        "label": "__gap",
        "offset": 0,
        "slot": "255",
        "type": "t_array(t_uint256)500_storage"
      }
    ],
    "types": {
      "t_address": {
        "encoding": "inplace",
        "label": "address",
        "numberOfBytes": "20"
      },
      "t_array(t_uint256)49_storage": {
        "base": "t_uint256",
        "encoding": "inplace",
        "label": "uint256[49]",
        "numberOfBytes": "1568"
      },
      "t_array(t_uint256)500_storage": {
        "base": "t_uint256",
        "encoding": "inplace",
        "label": "uint256[500]",
        "numberOfBytes": "16000"
      },
      "t_array(t_uint256)50_storage": {
        "base": "t_uint256",
        "encoding": "inplace",
        "label": "uint256[50]",
        "numberOfBytes": "1600"
      },
      "t_bool": {
        "encoding": "inplace",
        "label": "bool",
        "numberOfBytes": "1"
      },
      "t_mapping(t_address,t_mapping(t_uint256,t_struct(LoanAuction)11858_storage))": {
        "encoding": "mapping",
        "key": "t_address",
        "label": "mapping(address => mapping(uint256 => struct ILendingStructs.LoanAuction))",
        "numberOfBytes": "32",
        "value": "t_mapping(t_uint256,t_struct(LoanAuction)11858_storage)"
      },
      "t_mapping(t_uint256,t_struct(LoanAuction)11858_storage)": {
        "encoding": "mapping",
        "key": "t_uint256",
        "label": "mapping(uint256 => struct ILendingStructs.LoanAuction)",
        "numberOfBytes": "32",
        "value": "t_struct(LoanAuction)11858_storage"
      },
      "t_struct(LoanAuction)11858_storage": {
        "encoding": "inplace",
        "label": "struct ILendingStructs.LoanAuction",
        "members": [
          {
            "astId": 11826,
            "contract": "contracts/Lending.sol:NiftyApesLending",
            "label": "nftOwner",
            "offset": 0,
            "slot": "0",
            "type": "t_address"
          },
          {
            "astId": 11828,
            "contract": "contracts/Lending.sol:NiftyApesLending",
            "label": "loanEndTimestamp",
            "offset": 20,
            "slot": "0",
            "type": "t_uint32"
          },
          {
            "astId": 11831,
            "contract": "contracts/Lending.sol:NiftyApesLending",
            "label": "lastUpdatedTimestamp",
            "offset": 24,
            "slot": "0",
            "type": "t_uint32"
          },
          {
            "astId": 11833,
            "contract": "contracts/Lending.sol:NiftyApesLending",
            "label": "fixedTerms",
            "offset": 28,
            "slot": "0",
            "type": "t_bool"
          },
          {
            "astId": 11835,
            "contract": "contracts/Lending.sol:NiftyApesLending",
            "label": "lender",
            "offset": 0,
            "slot": "1",
            "type": "t_address"
          },
          {
            "astId": 11837,
            "contract": "contracts/Lending.sol:NiftyApesLending",
            "label": "interestRatePerSecond",
            "offset": 20,
            "slot": "1",
            "type": "t_uint96"
          },
          {
            "astId": 11839,
            "contract": "contracts/Lending.sol:NiftyApesLending",
            "label": "asset",
            "offset": 0,
            "slot": "2",
            "type": "t_address"
          },
          {
            "astId": 11841,
            "contract": "contracts/Lending.sol:NiftyApesLending",
            "label": "loanBeginTimestamp",
            "offset": 20,
            "slot": "2",
            "type": "t_uint32"
          },
          {
            "astId": 11843,
            "contract": "contracts/Lending.sol:NiftyApesLending",
            "label": "lenderRefi",
            "offset": 24,
            "slot": "2",
            "type": "t_bool"
          },
          {
            "astId": 11845,
            "contract": "contracts/Lending.sol:NiftyApesLending",
            "label": "accumulatedLenderInterest",
            "offset": 0,
            "slot": "3",
            "type": "t_uint128"
          },
          {
            "astId": 11847,
            "contract": "contracts/Lending.sol:NiftyApesLending",
            "label": "accumulatedPaidProtocolInterest",
            "offset": 16,
            "slot": "3",
            "type": "t_uint128"
          },
          {
            "astId": 11849,
            "contract": "contracts/Lending.sol:NiftyApesLending",
            "label": "amount",
            "offset": 0,
            "slot": "4",
            "type": "t_uint128"
          },
          {
            "astId": 11851,
            "contract": "contracts/Lending.sol:NiftyApesLending",
            "label": "amountDrawn",
            "offset": 16,
            "slot": "4",
            "type": "t_uint128"
          },
          {
            "astId": 11853,
            "contract": "contracts/Lending.sol:NiftyApesLending",
            "label": "protocolInterestRatePerSecond",
            "offset": 0,
            "slot": "5",
            "type": "t_uint96"
          },
          {
            "astId": 11855,
            "contract": "contracts/Lending.sol:NiftyApesLending",
            "label": "slashableLenderInterest",
            "offset": 12,
            "slot": "5",
            "type": "t_uint128"
          },
          {
            "astId": 11857,
            "contract": "contracts/Lending.sol:NiftyApesLending",
            "label": "unpaidProtocolInterest",
            "offset": 0,
            "slot": "6",
            "type": "t_uint128"
          }
        ],
        "numberOfBytes": "224"
      },
      "t_uint128": {
        "encoding": "inplace",
        "label": "uint128",
        "numberOfBytes": "16"
      },
      "t_uint16": {
        "encoding": "inplace",
        "label": "uint16",
        "numberOfBytes": "2"
      },
      "t_uint256": {
        "encoding": "inplace",
        "label": "uint256",
        "numberOfBytes": "32"
      },
      "t_uint32": {
        "encoding": "inplace",
        "label": "uint32",
        "numberOfBytes": "4"
      },
      "t_uint8": {
        "encoding": "inplace",
        "label": "uint8",
        "numberOfBytes": "1"
      },
      "t_uint96": {
        "encoding": "inplace",
        "label": "uint96",
        "numberOfBytes": "12"
      }
    }
  }
}