{
  "address": "0x262e2b50219620226C5fB5956432A88fffd94Ba7",
  "abi": [
    {
      "anonymous": false,
      "inputs": [
        {
          "indexed": false,
          "internalType": "uint8",
          "name": "version",
          "type": "uint8"
        }
      ],
      "name": "Initialized",
      "type": "event"
    },
    {
      "anonymous": false,
      "inputs": [
        {
          "indexed": true,
          "internalType": "address",
          "name": "previousOwner",
          "type": "address"
        },
        {
          "indexed": true,
          "internalType": "address",
          "name": "newOwner",
          "type": "address"
        }
      ],
      "name": "OwnershipTransferred",
      "type": "event"
    },
    {
      "anonymous": false,
      "inputs": [
        {
          "indexed": false,
          "internalType": "address",
          "name": "account",
          "type": "address"
        }
      ],
      "name": "Paused",
      "type": "event"
    },
    {
      "anonymous": false,
      "inputs": [
        {
          "indexed": false,
          "internalType": "address",
          "name": "oldLendingContractAddress",
          "type": "address"
        },
        {
          "indexed": false,
          "internalType": "address",
          "name": "newLendingContractAddress",
          "type": "address"
        }
      ],
      "name": "SigLendingXLendingContractAddressUpdated",
      "type": "event"
    },
    {
      "anonymous": false,
      "inputs": [
        {
          "indexed": false,
          "internalType": "address",
          "name": "account",
          "type": "address"
        }
      ],
      "name": "Unpaused",
      "type": "event"
    },
    {
      "inputs": [
        {
          "components": [
            {
              "internalType": "address",
              "name": "creator",
              "type": "address"
            },
            {
              "internalType": "uint32",
              "name": "duration",
              "type": "uint32"
            },
            {
              "internalType": "uint32",
              "name": "expiration",
              "type": "uint32"
            },
            {
              "internalType": "bool",
              "name": "fixedTerms",
              "type": "bool"
            },
            {
              "internalType": "bool",
              "name": "floorTerm",
              "type": "bool"
            },
            {
              "internalType": "bool",
              "name": "lenderOffer",
              "type": "bool"
            },
            {
              "internalType": "address",
              "name": "nftContractAddress",
              "type": "address"
            },
            {
              "internalType": "uint256",
              "name": "nftId",
              "type": "uint256"
            },
            {
              "internalType": "address",
              "name": "asset",
              "type": "address"
            },
            {
              "internalType": "uint128",
              "name": "amount",
              "type": "uint128"
            },
            {
              "internalType": "uint96",
              "name": "interestRatePerSecond",
              "type": "uint96"
            }
          ],
          "internalType": "struct IOffersStructs.Offer",
          "name": "offer",
          "type": "tuple"
        },
        {
          "internalType": "bytes",
          "name": "signature",
          "type": "bytes"
        },
        {
          "internalType": "uint256",
          "name": "nftId",
          "type": "uint256"
        }
      ],
      "name": "executeLoanByBorrowerSignature",
      "outputs": [],
      "stateMutability": "payable",
      "type": "function"
    },
    {
      "inputs": [
        {
          "components": [
            {
              "internalType": "address",
              "name": "creator",
              "type": "address"
            },
            {
              "internalType": "uint32",
              "name": "duration",
              "type": "uint32"
            },
            {
              "internalType": "uint32",
              "name": "expiration",
              "type": "uint32"
            },
            {
              "internalType": "bool",
              "name": "fixedTerms",
              "type": "bool"
            },
            {
              "internalType": "bool",
              "name": "floorTerm",
              "type": "bool"
            },
            {
              "internalType": "bool",
              "name": "lenderOffer",
              "type": "bool"
            },
            {
              "internalType": "address",
              "name": "nftContractAddress",
              "type": "address"
            },
            {
              "internalType": "uint256",
              "name": "nftId",
              "type": "uint256"
            },
            {
              "internalType": "address",
              "name": "asset",
              "type": "address"
            },
            {
              "internalType": "uint128",
              "name": "amount",
              "type": "uint128"
            },
            {
              "internalType": "uint96",
              "name": "interestRatePerSecond",
              "type": "uint96"
            }
          ],
          "internalType": "struct IOffersStructs.Offer",
          "name": "offer",
          "type": "tuple"
        },
        {
          "internalType": "bytes",
          "name": "signature",
          "type": "bytes"
        }
      ],
      "name": "executeLoanByLenderSignature",
      "outputs": [],
      "stateMutability": "payable",
      "type": "function"
    },
    {
      "inputs": [
        {
          "internalType": "address",
          "name": "newOffersContractAddress",
          "type": "address"
        }
      ],
      "name": "initialize",
      "outputs": [],
      "stateMutability": "nonpayable",
      "type": "function"
    },
    {
      "inputs": [],
      "name": "lendingContractAddress",
      "outputs": [
        {
          "internalType": "address",
          "name": "",
          "type": "address"
        }
      ],
      "stateMutability": "view",
      "type": "function"
    },
    {
      "inputs": [],
      "name": "offersContractAddress",
      "outputs": [
        {
          "internalType": "address",
          "name": "",
          "type": "address"
        }
      ],
      "stateMutability": "view",
      "type": "function"
    },
    {
      "inputs": [],
      "name": "owner",
      "outputs": [
        {
          "internalType": "address",
          "name": "",
          "type": "address"
        }
      ],
      "stateMutability": "view",
      "type": "function"
    },
    {
      "inputs": [],
      "name": "pause",
      "outputs": [],
      "stateMutability": "nonpayable",
      "type": "function"
    },
    {
      "inputs": [],
      "name": "paused",
      "outputs": [
        {
          "internalType": "bool",
          "name": "",
          "type": "bool"
        }
      ],
      "stateMutability": "view",
      "type": "function"
    },
    {
      "inputs": [
        {
          "components": [
            {
              "internalType": "address",
              "name": "creator",
              "type": "address"
            },
            {
              "internalType": "uint32",
              "name": "duration",
              "type": "uint32"
            },
            {
              "internalType": "uint32",
              "name": "expiration",
              "type": "uint32"
            },
            {
              "internalType": "bool",
              "name": "fixedTerms",
              "type": "bool"
            },
            {
              "internalType": "bool",
              "name": "floorTerm",
              "type": "bool"
            },
            {
              "internalType": "bool",
              "name": "lenderOffer",
              "type": "bool"
            },
            {
              "internalType": "address",
              "name": "nftContractAddress",
              "type": "address"
            },
            {
              "internalType": "uint256",
              "name": "nftId",
              "type": "uint256"
            },
            {
              "internalType": "address",
              "name": "asset",
              "type": "address"
            },
            {
              "internalType": "uint128",
              "name": "amount",
              "type": "uint128"
            },
            {
              "internalType": "uint96",
              "name": "interestRatePerSecond",
              "type": "uint96"
            }
          ],
          "internalType": "struct IOffersStructs.Offer",
          "name": "offer",
          "type": "tuple"
        },
        {
          "internalType": "bytes",
          "name": "signature",
          "type": "bytes"
        },
        {
          "internalType": "uint256",
          "name": "nftId",
          "type": "uint256"
        },
        {
          "internalType": "uint32",
          "name": "expectedLastUpdatedTimestamp",
          "type": "uint32"
        }
      ],
      "name": "refinanceByBorrowerSignature",
      "outputs": [],
      "stateMutability": "nonpayable",
      "type": "function"
    },
    {
      "inputs": [],
      "name": "renounceOwnership",
      "outputs": [],
      "stateMutability": "nonpayable",
      "type": "function"
    },
    {
      "inputs": [
        {
          "internalType": "address",
          "name": "newOwner",
          "type": "address"
        }
      ],
      "name": "transferOwnership",
      "outputs": [],
      "stateMutability": "nonpayable",
      "type": "function"
    },
    {
      "inputs": [],
      "name": "unpause",
      "outputs": [],
      "stateMutability": "nonpayable",
      "type": "function"
    },
    {
      "inputs": [
        {
          "internalType": "address",
          "name": "newLendingContractAddress",
          "type": "address"
        }
      ],
      "name": "updateLendingContractAddress",
      "outputs": [],
      "stateMutability": "nonpayable",
      "type": "function"
    }
  ],
  "transactionHash": "0x6a04ef224ac4bb884004ba54c079c995b79531f1030e097d36a6300fd8ab488e",
  "args": [],
  "numDeployments": 1,
  "solcInputHash": "377a2baa7ec416e452a5f7490aa13150",
  "bytecode": "0x608060405234801561001057600080fd5b5061184a806100206000396000f3fe6080604052600436106100c25760003560e01c80638456cb591161007f578063c4d66de811610059578063c4d66de8146101d9578063ebfa2b7b146101f9578063f2fde38b1461020c578063f79c818a1461022c57600080fd5b80638456cb59146101935780638da5cb5b146101a8578063b1ba4cbb146101c657600080fd5b80631efdf7bd146100c757806326d791bd146101045780633f4ba83a146101265780635c975abb1461013b578063715018a61461015e5780637379dbe614610173575b600080fd5b3480156100d357600080fd5b5060c9546100e7906001600160a01b031681565b6040516001600160a01b0390911681526020015b60405180910390f35b34801561011057600080fd5b5061012461011f366004611195565b61024c565b005b34801561013257600080fd5b506101246102e8565b34801561014757600080fd5b5060655460ff1660405190151581526020016100fb565b34801561016a57600080fd5b5061012461031c565b34801561017f57600080fd5b5060ca546100e7906001600160a01b031681565b34801561019f57600080fd5b50610124610346565b3480156101b457600080fd5b506033546001600160a01b03166100e7565b6101246101d43660046113b1565b610378565b3480156101e557600080fd5b506101246101f4366004611195565b610658565b61012461020736600461140c565b6106f9565b34801561021857600080fd5b50610124610227366004611195565b610a28565b34801561023857600080fd5b5061012461024736600461145d565b610ac3565b6033546001600160a01b0316331461027f5760405162461bcd60e51b8152600401610276906114ca565b60405180910390fd5b60ca54604080516001600160a01b03928316815291831660208301527f779f60183472eb9241e747f23a7f255939bda9b812a442d39b17cfd00125b5bd910160405180910390a160ca80546001600160a01b0319166001600160a01b0392909216919091179055565b6033546001600160a01b031633146103125760405162461bcd60e51b8152600401610276906114ca565b61031a610d9b565b565b6033546001600160a01b0316331461031a5760405162461bcd60e51b8152600401610276906114ca565b6033546001600160a01b031633146103705760405162461bcd60e51b8152600401610276906114ca565b61031a610e2e565b60655460ff161561039b5760405162461bcd60e51b8152600401610276906114ff565b6002609754036103bd5760405162461bcd60e51b815260040161027690611529565b600260975560c9546040516314d927c560e11b81526000916001600160a01b0316906329b24f8a906103f59087908790600401611696565b6020604051808303816000875af1158015610414573d6000803e3d6000fd5b505050506040513d601f19601f8201168201806040525081019061043891906116c1565b90506104448482610e86565b60c954604051637ba2edfd60e11b81526001600160a01b039091169063f745dbfa906104749086906004016116de565b60006040518083038186803b15801561048c57600080fd5b505afa1580156104a0573d6000803e3d6000fd5b505060c9546040516346df86c560e11b81526001600160a01b039091169250638dbf0d8a91506104d49086906004016116de565b60006040518083038186803b1580156104ec57600080fd5b505afa158015610500573d6000803e3d6000fd5b505060c9546040516375ec11ff60e11b81526001600160a01b03909116925063ebd823fe91506105349087906004016116f1565b60006040518083038186803b15801561054c57600080fd5b505afa158015610560573d6000803e3d6000fd5b5050505061056d84610eca565b83608001516105e5576105808483610f03565b60c95460405163e2adc1b760e01b81526001600160a01b039091169063e2adc1b7906105b29087908790600401611696565b600060405180830381600087803b1580156105cc57600080fd5b505af11580156105e0573d6000803e3d6000fd5b505050505b60ca54604051632091078760e21b81526001600160a01b03909116906382441e1c9061061b908790859033908890600401611706565b600060405180830381600087803b15801561063557600080fd5b505af1158015610649573d6000803e3d6000fd5b50506001609755505050505050565b60006106646001610f3e565b9050801561067c576000805461ff0019166101001790555b60c980546001600160a01b0319166001600160a01b03841617905561069f610fcb565b6106a7610ffa565b6106af611029565b80156106f5576000805461ff0019169055604051600181527f7f26b83ff96e1f2b6a682f133852f6798a09c465da95921460cefb38474024989060200160405180910390a15b5050565b60655460ff161561071c5760405162461bcd60e51b8152600401610276906114ff565b60026097540361073e5760405162461bcd60e51b815260040161027690611529565b600260975560c9546040516314d927c560e11b81526000916001600160a01b0316906329b24f8a906107769086908690600401611696565b6020604051808303816000875af1158015610795573d6000803e3d6000fd5b505050506040513d601f19601f820116820180604052508101906107b991906116c1565b90506107c58382610e86565b60c954604051637ba2edfd60e11b81526001600160a01b039091169063f745dbfa906107f59085906004016116de565b60006040518083038186803b15801561080d57600080fd5b505afa158015610821573d6000803e3d6000fd5b505060c9546040516346df86c560e11b81526001600160a01b039091169250638dbf0d8a91506108559085906004016116de565b60006040518083038186803b15801561086d57600080fd5b505afa158015610881573d6000803e3d6000fd5b505060c9546040516375ec11ff60e11b81526001600160a01b03909116925063ebd823fe91506108b59086906004016116f1565b60006040518083038186803b1580156108cd57600080fd5b505afa1580156108e1573d6000803e3d6000fd5b505050506108ee83611058565b60c954604051632441c3f760e11b81526001600160a01b039091169063488387ee9061091e9086906004016116f1565b60006040518083038186803b15801561093657600080fd5b505afa15801561094a573d6000803e3d6000fd5b505060c95460405163e2adc1b760e01b81526001600160a01b03909116925063e2adc1b791506109809086908690600401611696565b600060405180830381600087803b15801561099a57600080fd5b505af11580156109ae573d6000803e3d6000fd5b505060ca5460e0860151604051632091078760e21b81526001600160a01b0390921693506382441e1c92506109ec9187913391879190600401611706565b600060405180830381600087803b158015610a0657600080fd5b505af1158015610a1a573d6000803e3d6000fd5b505060016097555050505050565b6033546001600160a01b03163314610a525760405162461bcd60e51b8152600401610276906114ca565b6001600160a01b038116610ab75760405162461bcd60e51b815260206004820152602660248201527f4f776e61626c653a206e6577206f776e657220697320746865207a65726f206160448201526564647265737360d01b6064820152608401610276565b610ac081611092565b50565b60655460ff1615610ae65760405162461bcd60e51b8152600401610276906114ff565b600260975403610b085760405162461bcd60e51b815260040161027690611529565b600260975560c9546040516314d927c560e11b81526000916001600160a01b0316906329b24f8a90610b409088908890600401611696565b6020604051808303816000875af1158015610b5f573d6000803e3d6000fd5b505050506040513d601f19601f82011682018060405250810190610b8391906116c1565b9050610b8f8582610e86565b60c954604051637ba2edfd60e11b81526001600160a01b039091169063f745dbfa90610bbf9087906004016116de565b60006040518083038186803b158015610bd757600080fd5b505afa158015610beb573d6000803e3d6000fd5b505060c9546040516346df86c560e11b81526001600160a01b039091169250638dbf0d8a9150610c1f9087906004016116de565b60006040518083038186803b158015610c3757600080fd5b505afa158015610c4b573d6000803e3d6000fd5b505060c9546040516375ec11ff60e11b81526001600160a01b03909116925063ebd823fe9150610c7f9088906004016116f1565b60006040518083038186803b158015610c9757600080fd5b505afa158015610cab573d6000803e3d6000fd5b505050508460800151610d2757610cc28584610f03565b60c95460405163e2adc1b760e01b81526001600160a01b039091169063e2adc1b790610cf49088908890600401611696565b600060405180830381600087803b158015610d0e57600080fd5b505af1158015610d22573d6000803e3d6000fd5b505050505b60ca54604051630a66bb5360e31b81526001600160a01b0390911690635335da9890610d5d90889087903390889060040161173f565b600060405180830381600087803b158015610d7757600080fd5b505af1158015610d8b573d6000803e3d6000fd5b5050600160975550505050505050565b60655460ff16610de45760405162461bcd60e51b815260206004820152601460248201527314185d5cd8589b194e881b9bdd081c185d5cd95960621b6044820152606401610276565b6065805460ff191690557f5db9ee0a495bf2e6ff9c91a7834c1ba4fdd244a5e8aa4e537bd38aeae4b073aa335b6040516001600160a01b03909116815260200160405180910390a1565b60655460ff1615610e515760405162461bcd60e51b8152600401610276906114ff565b6065805460ff191660011790557f62e78cea01bee320cd4e420270b5ea74000d11b0c9f74754ebdbfc544b05a258610e113390565b81516001600160a01b038281169116146106f55760405162461bcd60e51b81526020600482015260056024820152640c0c0c0c8d60da1b6044820152606401610276565b8060a00151610ac05760405162461bcd60e51b8152602060048201526005602482015264181818189960d91b6044820152606401610276565b8160e0015181146106f55760405162461bcd60e51b8152602060048201526005602482015264181818191960d91b6044820152606401610276565b60008054610100900460ff1615610f85578160ff166001148015610f615750303b155b610f7d5760405162461bcd60e51b81526004016102769061177b565b506000919050565b60005460ff808416911610610fac5760405162461bcd60e51b81526004016102769061177b565b506000805460ff191660ff92909216919091179055600190565b919050565b600054610100900460ff16610ff25760405162461bcd60e51b8152600401610276906117c9565b61031a6110e4565b600054610100900460ff166110215760405162461bcd60e51b8152600401610276906117c9565b61031a611114565b600054610100900460ff166110505760405162461bcd60e51b8152600401610276906117c9565b61031a611147565b8060a0015115610ac05760405162461bcd60e51b8152602060048201526005602482015264303030313360d81b6044820152606401610276565b603380546001600160a01b038381166001600160a01b0319831681179093556040519116919082907f8be0079c531659141344cd1fd0a4f28419497f9722a3daafe3b4186f6b6457e090600090a35050565b600054610100900460ff1661110b5760405162461bcd60e51b8152600401610276906117c9565b61031a33611092565b600054610100900460ff1661113b5760405162461bcd60e51b8152600401610276906117c9565b6065805460ff19169055565b600054610100900460ff1661116e5760405162461bcd60e51b8152600401610276906117c9565b6001609755565b6001600160a01b0381168114610ac057600080fd5b8035610fc681611175565b6000602082840312156111a757600080fd5b81356111b281611175565b9392505050565b634e487b7160e01b600052604160045260246000fd5b604051610160810167ffffffffffffffff811182821017156111f3576111f36111b9565b60405290565b803563ffffffff81168114610fc657600080fd5b80358015158114610fc657600080fd5b80356001600160801b0381168114610fc657600080fd5b80356bffffffffffffffffffffffff81168114610fc657600080fd5b6000610160828403121561126357600080fd5b61126b6111cf565b90506112768261118a565b8152611284602083016111f9565b6020820152611295604083016111f9565b60408201526112a66060830161120d565b60608201526112b76080830161120d565b60808201526112c860a0830161120d565b60a08201526112d960c0830161118a565b60c082015260e082013560e08201526101006112f681840161118a565b9082015261012061130883820161121d565b9082015261014061131a838201611234565b9082015292915050565b600082601f83011261133557600080fd5b813567ffffffffffffffff80821115611350576113506111b9565b604051601f8301601f19908116603f01168101908282118183101715611378576113786111b9565b8160405283815286602085880101111561139157600080fd5b836020870160208301376000602085830101528094505050505092915050565b60008060006101a084860312156113c757600080fd5b6113d18585611250565b925061016084013567ffffffffffffffff8111156113ee57600080fd5b6113fa86828701611324565b92505061018084013590509250925092565b600080610180838503121561142057600080fd5b61142a8484611250565b915061016083013567ffffffffffffffff81111561144757600080fd5b61145385828601611324565b9150509250929050565b6000806000806101c0858703121561147457600080fd5b61147e8686611250565b935061016085013567ffffffffffffffff81111561149b57600080fd5b6114a787828801611324565b93505061018085013591506114bf6101a086016111f9565b905092959194509250565b6020808252818101527f4f776e61626c653a2063616c6c6572206973206e6f7420746865206f776e6572604082015260600190565b60208082526010908201526f14185d5cd8589b194e881c185d5cd95960821b604082015260600190565b6020808252601f908201527f5265656e7472616e637947756172643a207265656e7472616e742063616c6c00604082015260600190565b80516001600160a01b031682526020810151611584602084018263ffffffff169052565b50604081015161159c604084018263ffffffff169052565b5060608101516115b0606084018215159052565b5060808101516115c4608084018215159052565b5060a08101516115d860a084018215159052565b5060c08101516115f360c08401826001600160a01b03169052565b5060e081015160e083015261010080820151611619828501826001600160a01b03169052565b5050610120818101516001600160801b031690830152610140908101516bffffffffffffffffffffffff16910152565b6000815180845260005b8181101561166f57602081850181015186830182015201611653565b81811115611681576000602083870101525b50601f01601f19169290920160200192915050565b60006101806116a58386611560565b806101608401526116b881840185611649565b95945050505050565b6000602082840312156116d357600080fd5b81516111b281611175565b6020815260006111b26020830184611649565b61016081016117008284611560565b92915050565b6101c081016117158287611560565b6001600160a01b03948516610160830152929093166101808401526101a090920191909152919050565b6101c0810161174e8287611560565b6101608201949094526001600160a01b039290921661018083015263ffffffff166101a090910152919050565b6020808252602e908201527f496e697469616c697a61626c653a20636f6e747261637420697320616c72656160408201526d191e481a5b9a5d1a585b1a5e995960921b606082015260800190565b6020808252602b908201527f496e697469616c697a61626c653a20636f6e7472616374206973206e6f74206960408201526a6e697469616c697a696e6760a81b60608201526080019056fea2646970667358221220c7019503985bfab5dc59767683004e88508204ddcf1b14ced3ee1730048bf4ca64736f6c634300080d0033",
  "devdoc": {
    "kind": "dev",
    "methods": {
      "executeLoanByBorrowerSignature((address,uint32,uint32,bool,bool,bool,address,uint256,address,uint128,uint96),bytes,uint256)": {
        "params": {
          "nftId": "The id of a specified NFT",
          "offer": "The details of the loan auction offer",
          "signature": "A signed offerHash"
        }
      },
      "executeLoanByLenderSignature((address,uint32,uint32,bool,bool,bool,address,uint256,address,uint128,uint96),bytes)": {
        "params": {
          "offer": "The details of the loan auction offer",
          "signature": "A signed offerHash"
        }
      },
      "owner()": {
        "details": "Returns the address of the current owner."
      },
      "paused()": {
        "details": "Returns true if the contract is paused, and false otherwise."
      },
      "refinanceByBorrowerSignature((address,uint32,uint32,bool,bool,bool,address,uint256,address,uint128,uint96),bytes,uint256,uint32)": {
        "params": {
          "nftId": "The id of a specified NFT",
          "offer": "The details of the loan auction offer",
          "signature": "The signature for the offer"
        }
      },
      "renounceOwnership()": {
        "details": "Leaves the contract without owner. It will not be possible to call `onlyOwner` functions anymore. Can only be called by the current owner. NOTE: Renouncing ownership will leave the contract without an owner, thereby removing any functionality that is only available to the owner."
      },
      "transferOwnership(address)": {
        "details": "Transfers ownership of the contract to a new account (`newOwner`). Can only be called by the current owner."
      }
    },
    "stateVariables": {
      "__gap": {
        "details": "This empty reserved space is put in place to allow future versions to add new variables without shifting storage."
      }
    },
    "title": "Implementation of the ILending interface",
    "version": 1
  },
  "userdoc": {
    "events": {
      "SigLendingXLendingContractAddressUpdated(address,address)": {
        "notice": "Emitted when the associated liquidity contract address is changed"
      }
    },
    "kind": "user",
    "methods": {
      "executeLoanByBorrowerSignature((address,uint32,uint32,bool,bool,bool,address,uint256,address,uint128,uint96),bytes,uint256)": {
        "notice": "Start a loan as the borrower using a signed offer.         The caller of this method has to be the current owner of the NFT         Since offers can be floorTerm offers they might not include a specific nft id,         thus the caller has to pass an extra nft id to the method to identify the nft."
      },
      "executeLoanByLenderSignature((address,uint32,uint32,bool,bool,bool,address,uint256,address,uint128,uint96),bytes)": {
        "notice": "Start a loan as the lender using a borrowers offer and signature.         Borrowers can make offers for loan terms on their NFTs and thus lenders can         execute these offers"
      },
      "initialize(address)": {
        "notice": "The initializer for the NiftyApes protocol.         Nifty Apes is intended to be deployed behind a proxy amd thus needs to initialize         its state outsize of a constructor."
      },
      "lendingContractAddress()": {
        "notice": "Returns the address for the associated liquidity contract"
      },
      "offersContractAddress()": {
        "notice": "Returns the address for the associated offers contract"
      },
      "pause()": {
        "notice": "Pauses all interactions with the contract.         This is intended to be used as an emergency measure to avoid loosing funds."
      },
      "refinanceByBorrowerSignature((address,uint32,uint32,bool,bool,bool,address,uint256,address,uint128,uint96),bytes,uint256,uint32)": {
        "notice": "Refinance a loan against an off chain signed offer as the borrower.         The new offer has to cover the principle remaining and all lender interest owed on the loan         Borrowers can refinance at any time even after loan default as long as their NFT collateral has not been seized"
      },
      "unpause()": {
        "notice": "Unpauses all interactions with the contract."
      },
      "updateLendingContractAddress(address)": {
        "notice": "Updates the associated liquidity contract address"
      }
    },
    "version": 1
  },
  "storageLayout": {
    "storage": [
      {
        "astId": 130,
        "contract": "contracts/SigLending.sol:NiftyApesSigLending",
        "label": "_initialized",
        "offset": 0,
        "slot": "0",
        "type": "t_uint8"
      },
      {
        "astId": 133,
        "contract": "contracts/SigLending.sol:NiftyApesSigLending",
        "label": "_initializing",
        "offset": 1,
        "slot": "0",
        "type": "t_bool"
      },
      {
        "astId": 1202,
        "contract": "contracts/SigLending.sol:NiftyApesSigLending",
        "label": "__gap",
        "offset": 0,
        "slot": "1",
        "type": "t_array(t_uint256)50_storage"
      },
      {
        "astId": 10,
        "contract": "contracts/SigLending.sol:NiftyApesSigLending",
        "label": "_owner",
        "offset": 0,
        "slot": "51",
        "type": "t_address"
      },
      {
        "astId": 122,
        "contract": "contracts/SigLending.sol:NiftyApesSigLending",
        "label": "__gap",
        "offset": 0,
        "slot": "52",
        "type": "t_array(t_uint256)49_storage"
      },
      {
        "astId": 286,
        "contract": "contracts/SigLending.sol:NiftyApesSigLending",
        "label": "_paused",
        "offset": 0,
        "slot": "101",
        "type": "t_bool"
      },
      {
        "astId": 375,
        "contract": "contracts/SigLending.sol:NiftyApesSigLending",
        "label": "__gap",
        "offset": 0,
        "slot": "102",
        "type": "t_array(t_uint256)49_storage"
      },
      {
        "astId": 390,
        "contract": "contracts/SigLending.sol:NiftyApesSigLending",
        "label": "_status",
        "offset": 0,
        "slot": "151",
        "type": "t_uint256"
      },
      {
        "astId": 434,
        "contract": "contracts/SigLending.sol:NiftyApesSigLending",
        "label": "__gap",
        "offset": 0,
        "slot": "152",
        "type": "t_array(t_uint256)49_storage"
      },
      {
        "astId": 8043,
        "contract": "contracts/SigLending.sol:NiftyApesSigLending",
        "label": "offersContractAddress",
        "offset": 0,
        "slot": "201",
        "type": "t_address"
      },
      {
        "astId": 8046,
        "contract": "contracts/SigLending.sol:NiftyApesSigLending",
        "label": "lendingContractAddress",
        "offset": 0,
        "slot": "202",
        "type": "t_address"
      },
      {
        "astId": 8051,
        "contract": "contracts/SigLending.sol:NiftyApesSigLending",
        "label": "__gap",
        "offset": 0,
        "slot": "203",
        "type": "t_array(t_uint256)500_storage"
      }
    ],
    "types": {
      "t_address": {
        "encoding": "inplace",
        "label": "address",
        "numberOfBytes": "20"
      },
      "t_array(t_uint256)49_storage": {
        "base": "t_uint256",
        "encoding": "inplace",
        "label": "uint256[49]",
        "numberOfBytes": "1568"
      },
      "t_array(t_uint256)500_storage": {
        "base": "t_uint256",
        "encoding": "inplace",
        "label": "uint256[500]",
        "numberOfBytes": "16000"
      },
      "t_array(t_uint256)50_storage": {
        "base": "t_uint256",
        "encoding": "inplace",
        "label": "uint256[50]",
        "numberOfBytes": "1600"
      },
      "t_bool": {
        "encoding": "inplace",
        "label": "bool",
        "numberOfBytes": "1"
      },
      "t_uint256": {
        "encoding": "inplace",
        "label": "uint256",
        "numberOfBytes": "32"
      },
      "t_uint8": {
        "encoding": "inplace",
        "label": "uint8",
        "numberOfBytes": "1"
      }
    }
  }
}