{
  "_format": "hh-sol-artifact-1",
  "contractName": "NiftyApesLending",
  "sourceName": "contracts/Lending.sol",
  "abi": [
    {
      "anonymous": false,
      "inputs": [
        {
          "indexed": true,
          "internalType": "address",
          "name": "nftContractAddress",
          "type": "address"
        },
        {
          "indexed": true,
          "internalType": "uint256",
          "name": "nftId",
          "type": "uint256"
        },
        {
          "indexed": false,
          "internalType": "uint256",
          "name": "drawAmount",
          "type": "uint256"
        },
        {
          "indexed": false,
          "internalType": "uint256",
          "name": "totalDrawn",
          "type": "uint256"
        }
      ],
      "name": "AmountDrawn",
      "type": "event"
    },
    {
      "anonymous": false,
      "inputs": [
        {
          "indexed": true,
          "internalType": "address",
          "name": "lender",
          "type": "address"
        },
        {
          "indexed": false,
          "internalType": "address",
          "name": "borrower",
          "type": "address"
        },
        {
          "indexed": true,
          "internalType": "address",
          "name": "nftContractAddress",
          "type": "address"
        },
        {
          "indexed": true,
          "internalType": "uint256",
          "name": "nftId",
          "type": "uint256"
        }
      ],
      "name": "AssetSeized",
      "type": "event"
    },
    {
      "anonymous": false,
      "inputs": [
        {
          "indexed": false,
          "internalType": "uint16",
          "name": "oldDefaultRefinancePremiumBps",
          "type": "uint16"
        },
        {
          "indexed": false,
          "internalType": "uint16",
          "name": "newDefaultRefinancePremiumBps",
          "type": "uint16"
        }
      ],
      "name": "DefaultRefinancePremiumBpsUpdated",
      "type": "event"
    },
    {
      "anonymous": false,
      "inputs": [
        {
          "indexed": false,
          "internalType": "uint16",
          "name": "oldGasGriefingPremiumBps",
          "type": "uint16"
        },
        {
          "indexed": false,
          "internalType": "uint16",
          "name": "newGasGriefingPremiumBps",
          "type": "uint16"
        }
      ],
      "name": "GasGriefingPremiumBpsUpdated",
      "type": "event"
    },
    {
      "anonymous": false,
      "inputs": [
        {
          "indexed": false,
          "internalType": "uint16",
          "name": "oldGasGriefingProtocolPremiumBps",
          "type": "uint16"
        },
        {
          "indexed": false,
          "internalType": "uint16",
          "name": "newGasGriefingProtocolPremiumBps",
          "type": "uint16"
        }
      ],
      "name": "GasGriefingProtocolPremiumBpsUpdated",
      "type": "event"
    },
    {
      "anonymous": false,
      "inputs": [
        {
          "indexed": false,
          "internalType": "uint8",
          "name": "version",
          "type": "uint8"
        }
      ],
      "name": "Initialized",
      "type": "event"
    },
    {
      "anonymous": false,
      "inputs": [],
      "name": "LendingSanctionsPaused",
      "type": "event"
    },
    {
      "anonymous": false,
      "inputs": [],
      "name": "LendingSanctionsUnpaused",
      "type": "event"
    },
    {
      "anonymous": false,
      "inputs": [
        {
          "indexed": true,
          "internalType": "address",
          "name": "nftContractAddress",
          "type": "address"
        },
        {
          "indexed": true,
          "internalType": "uint256",
          "name": "nftId",
          "type": "uint256"
        },
        {
          "components": [
            {
              "internalType": "address",
              "name": "creator",
              "type": "address"
            },
            {
              "internalType": "uint32",
              "name": "duration",
              "type": "uint32"
            },
            {
              "internalType": "uint32",
              "name": "expiration",
              "type": "uint32"
            },
            {
              "internalType": "bool",
              "name": "fixedTerms",
              "type": "bool"
            },
            {
              "internalType": "bool",
              "name": "floorTerm",
              "type": "bool"
            },
            {
              "internalType": "bool",
              "name": "lenderOffer",
              "type": "bool"
            },
            {
              "internalType": "address",
              "name": "nftContractAddress",
              "type": "address"
            },
            {
              "internalType": "uint256",
              "name": "nftId",
              "type": "uint256"
            },
            {
              "internalType": "address",
              "name": "asset",
              "type": "address"
            },
            {
              "internalType": "uint128",
              "name": "amount",
              "type": "uint128"
            },
            {
              "internalType": "uint96",
              "name": "interestRatePerSecond",
              "type": "uint96"
            }
          ],
          "indexed": false,
          "internalType": "struct IOffersStructs.Offer",
          "name": "offer",
          "type": "tuple"
        }
      ],
      "name": "LoanExecuted",
      "type": "event"
    },
    {
      "anonymous": false,
      "inputs": [
        {
          "indexed": true,
          "internalType": "address",
          "name": "lender",
          "type": "address"
        },
        {
          "indexed": false,
          "internalType": "address",
          "name": "borrower",
          "type": "address"
        },
        {
          "indexed": true,
          "internalType": "address",
          "name": "nftContractAddress",
          "type": "address"
        },
        {
          "indexed": true,
          "internalType": "uint256",
          "name": "nftId",
          "type": "uint256"
        },
        {
          "indexed": false,
          "internalType": "address",
          "name": "asset",
          "type": "address"
        },
        {
          "indexed": false,
          "internalType": "uint256",
          "name": "totalPayment",
          "type": "uint256"
        }
      ],
      "name": "LoanRepaid",
      "type": "event"
    },
    {
      "anonymous": false,
      "inputs": [
        {
          "indexed": false,
          "internalType": "uint16",
          "name": "oldOriginationPremiumBps",
          "type": "uint16"
        },
        {
          "indexed": false,
          "internalType": "uint16",
          "name": "newOriginationPremiumBps",
          "type": "uint16"
        }
      ],
      "name": "OriginationPremiumBpsUpdated",
      "type": "event"
    },
    {
      "anonymous": false,
      "inputs": [
        {
          "indexed": true,
          "internalType": "address",
          "name": "previousOwner",
          "type": "address"
        },
        {
          "indexed": true,
          "internalType": "address",
          "name": "newOwner",
          "type": "address"
        }
      ],
      "name": "OwnershipTransferred",
      "type": "event"
    },
    {
      "anonymous": false,
      "inputs": [
        {
          "indexed": true,
          "internalType": "address",
          "name": "lender",
          "type": "address"
        },
        {
          "indexed": false,
          "internalType": "address",
          "name": "borrower",
          "type": "address"
        },
        {
          "indexed": true,
          "internalType": "address",
          "name": "nftContractAddress",
          "type": "address"
        },
        {
          "indexed": true,
          "internalType": "uint256",
          "name": "nftId",
          "type": "uint256"
        },
        {
          "indexed": false,
          "internalType": "address",
          "name": "asset",
          "type": "address"
        },
        {
          "indexed": false,
          "internalType": "uint256",
          "name": "amount",
          "type": "uint256"
        }
      ],
      "name": "PartialRepayment",
      "type": "event"
    },
    {
      "anonymous": false,
      "inputs": [
        {
          "indexed": false,
          "internalType": "address",
          "name": "account",
          "type": "address"
        }
      ],
      "name": "Paused",
      "type": "event"
    },
    {
      "anonymous": false,
      "inputs": [
        {
          "indexed": false,
          "internalType": "uint96",
          "name": "oldProtocolInterestBps",
          "type": "uint96"
        },
        {
          "indexed": false,
          "internalType": "uint96",
          "name": "newProtocolInterestBps",
          "type": "uint96"
        }
      ],
      "name": "ProtocolInterestBpsUpdated",
      "type": "event"
    },
    {
      "anonymous": false,
      "inputs": [
        {
          "indexed": true,
          "internalType": "address",
          "name": "nftContractAddress",
          "type": "address"
        },
        {
          "indexed": true,
          "internalType": "uint256",
          "name": "nftId",
          "type": "uint256"
        },
        {
          "components": [
            {
              "internalType": "address",
              "name": "creator",
              "type": "address"
            },
            {
              "internalType": "uint32",
              "name": "duration",
              "type": "uint32"
            },
            {
              "internalType": "uint32",
              "name": "expiration",
              "type": "uint32"
            },
            {
              "internalType": "bool",
              "name": "fixedTerms",
              "type": "bool"
            },
            {
              "internalType": "bool",
              "name": "floorTerm",
              "type": "bool"
            },
            {
              "internalType": "bool",
              "name": "lenderOffer",
              "type": "bool"
            },
            {
              "internalType": "address",
              "name": "nftContractAddress",
              "type": "address"
            },
            {
              "internalType": "uint256",
              "name": "nftId",
              "type": "uint256"
            },
            {
              "internalType": "address",
              "name": "asset",
              "type": "address"
            },
            {
              "internalType": "uint128",
              "name": "amount",
              "type": "uint128"
            },
            {
              "internalType": "uint96",
              "name": "interestRatePerSecond",
              "type": "uint96"
            }
          ],
          "indexed": false,
          "internalType": "struct IOffersStructs.Offer",
          "name": "offer",
          "type": "tuple"
        }
      ],
      "name": "Refinance",
      "type": "event"
    },
    {
      "anonymous": false,
      "inputs": [
        {
          "indexed": false,
          "internalType": "uint16",
          "name": "oldTermGriefingPremiumBps",
          "type": "uint16"
        },
        {
          "indexed": false,
          "internalType": "uint16",
          "name": "newTermGriefingPremiumBps",
          "type": "uint16"
        }
      ],
      "name": "TermGriefingPremiumBpsUpdated",
      "type": "event"
    },
    {
      "anonymous": false,
      "inputs": [
        {
          "indexed": false,
          "internalType": "address",
          "name": "account",
          "type": "address"
        }
      ],
      "name": "Unpaused",
      "type": "event"
    },
    {
      "inputs": [
        {
          "internalType": "address",
          "name": "nftContractAddress",
          "type": "address"
        },
        {
          "internalType": "uint256",
          "name": "nftId",
          "type": "uint256"
        }
      ],
      "name": "calculateInterestAccrued",
      "outputs": [
        {
          "internalType": "uint256",
          "name": "",
          "type": "uint256"
        },
        {
          "internalType": "uint256",
          "name": "",
          "type": "uint256"
        }
      ],
      "stateMutability": "view",
      "type": "function"
    },
    {
      "inputs": [
        {
          "internalType": "uint256",
          "name": "amount",
          "type": "uint256"
        },
        {
          "internalType": "uint256",
          "name": "duration",
          "type": "uint256"
        }
      ],
      "name": "calculateProtocolInterestPerSecond",
      "outputs": [
        {
          "internalType": "uint96",
          "name": "",
          "type": "uint96"
        }
      ],
      "stateMutability": "view",
      "type": "function"
    },
    {
      "inputs": [
        {
          "internalType": "address",
          "name": "nftContractAddress",
          "type": "address"
        },
        {
          "internalType": "uint256",
          "name": "nftId",
          "type": "uint256"
        }
      ],
      "name": "checkSufficientInterestAccumulated",
      "outputs": [
        {
          "internalType": "uint256",
          "name": "",
          "type": "uint256"
        }
      ],
      "stateMutability": "view",
      "type": "function"
    },
    {
      "inputs": [
        {
          "internalType": "address",
          "name": "nftContractAddress",
          "type": "address"
        },
        {
          "internalType": "uint256",
          "name": "nftId",
          "type": "uint256"
        },
        {
          "internalType": "uint128",
          "name": "amount",
          "type": "uint128"
        },
        {
          "internalType": "uint96",
          "name": "interestRatePerSecond",
          "type": "uint96"
        },
        {
          "internalType": "uint32",
          "name": "duration",
          "type": "uint32"
        }
      ],
      "name": "checkSufficientTerms",
      "outputs": [
        {
          "internalType": "bool",
          "name": "",
          "type": "bool"
        }
      ],
      "stateMutability": "view",
      "type": "function"
    },
    {
      "inputs": [],
      "name": "defaultRefinancePremiumBps",
      "outputs": [
        {
          "internalType": "uint16",
          "name": "",
          "type": "uint16"
        }
      ],
      "stateMutability": "view",
      "type": "function"
    },
    {
      "inputs": [
        {
          "components": [
            {
              "internalType": "address",
              "name": "creator",
              "type": "address"
            },
            {
              "internalType": "uint32",
              "name": "duration",
              "type": "uint32"
            },
            {
              "internalType": "uint32",
              "name": "expiration",
              "type": "uint32"
            },
            {
              "internalType": "bool",
              "name": "fixedTerms",
              "type": "bool"
            },
            {
              "internalType": "bool",
              "name": "floorTerm",
              "type": "bool"
            },
            {
              "internalType": "bool",
              "name": "lenderOffer",
              "type": "bool"
            },
            {
              "internalType": "address",
              "name": "nftContractAddress",
              "type": "address"
            },
            {
              "internalType": "uint256",
              "name": "nftId",
              "type": "uint256"
            },
            {
              "internalType": "address",
              "name": "asset",
              "type": "address"
            },
            {
              "internalType": "uint128",
              "name": "amount",
              "type": "uint128"
            },
            {
              "internalType": "uint96",
              "name": "interestRatePerSecond",
              "type": "uint96"
            }
          ],
          "internalType": "struct IOffersStructs.Offer",
          "name": "offer",
          "type": "tuple"
        },
        {
          "internalType": "address",
          "name": "lender",
          "type": "address"
        },
        {
          "internalType": "address",
          "name": "borrower",
          "type": "address"
        },
        {
          "internalType": "uint256",
          "name": "nftId",
          "type": "uint256"
        }
      ],
      "name": "doExecuteLoan",
      "outputs": [],
      "stateMutability": "nonpayable",
      "type": "function"
    },
    {
      "inputs": [
        {
          "components": [
            {
              "internalType": "address",
              "name": "creator",
              "type": "address"
            },
            {
              "internalType": "uint32",
              "name": "duration",
              "type": "uint32"
            },
            {
              "internalType": "uint32",
              "name": "expiration",
              "type": "uint32"
            },
            {
              "internalType": "bool",
              "name": "fixedTerms",
              "type": "bool"
            },
            {
              "internalType": "bool",
              "name": "floorTerm",
              "type": "bool"
            },
            {
              "internalType": "bool",
              "name": "lenderOffer",
              "type": "bool"
            },
            {
              "internalType": "address",
              "name": "nftContractAddress",
              "type": "address"
            },
            {
              "internalType": "uint256",
              "name": "nftId",
              "type": "uint256"
            },
            {
              "internalType": "address",
              "name": "asset",
              "type": "address"
            },
            {
              "internalType": "uint128",
              "name": "amount",
              "type": "uint128"
            },
            {
              "internalType": "uint96",
              "name": "interestRatePerSecond",
              "type": "uint96"
            }
          ],
          "internalType": "struct IOffersStructs.Offer",
          "name": "offer",
          "type": "tuple"
        },
        {
          "internalType": "uint256",
          "name": "nftId",
          "type": "uint256"
        },
        {
          "internalType": "address",
          "name": "nftOwner",
          "type": "address"
        },
        {
          "internalType": "uint32",
          "name": "expectedLastUpdatedTimestamp",
          "type": "uint32"
        }
      ],
      "name": "doRefinanceByBorrower",
      "outputs": [],
      "stateMutability": "nonpayable",
      "type": "function"
    },
    {
      "inputs": [
        {
          "internalType": "address",
          "name": "nftContractAddress",
          "type": "address"
        },
        {
          "internalType": "uint256",
          "name": "nftId",
          "type": "uint256"
        },
        {
          "internalType": "uint256",
          "name": "drawAmount",
          "type": "uint256"
        }
      ],
      "name": "drawLoanAmount",
      "outputs": [],
      "stateMutability": "nonpayable",
      "type": "function"
    },
    {
      "inputs": [
        {
          "internalType": "address",
          "name": "nftContractAddress",
          "type": "address"
        },
        {
          "internalType": "uint256",
          "name": "nftId",
          "type": "uint256"
        },
        {
          "internalType": "bytes32",
          "name": "offerHash",
          "type": "bytes32"
        },
        {
          "internalType": "bool",
          "name": "floorTerm",
          "type": "bool"
        }
      ],
      "name": "executeLoanByBorrower",
      "outputs": [],
      "stateMutability": "payable",
      "type": "function"
    },
    {
      "inputs": [
        {
          "internalType": "address",
          "name": "nftContractAddress",
          "type": "address"
        },
        {
          "internalType": "uint256",
          "name": "nftId",
          "type": "uint256"
        },
        {
          "internalType": "bytes32",
          "name": "offerHash",
          "type": "bytes32"
        },
        {
          "internalType": "bool",
          "name": "floorTerm",
          "type": "bool"
        }
      ],
      "name": "executeLoanByLender",
      "outputs": [],
      "stateMutability": "payable",
      "type": "function"
    },
    {
      "inputs": [],
      "name": "gasGriefingPremiumBps",
      "outputs": [
        {
          "internalType": "uint16",
          "name": "",
          "type": "uint16"
        }
      ],
      "stateMutability": "view",
      "type": "function"
    },
    {
      "inputs": [],
      "name": "gasGriefingProtocolPremiumBps",
      "outputs": [
        {
          "internalType": "uint16",
          "name": "",
          "type": "uint16"
        }
      ],
      "stateMutability": "view",
      "type": "function"
    },
    {
      "inputs": [
        {
          "internalType": "address",
          "name": "nftContractAddress",
          "type": "address"
        },
        {
          "internalType": "uint256",
          "name": "nftId",
          "type": "uint256"
        }
      ],
      "name": "getLoanAuction",
      "outputs": [
        {
          "components": [
            {
              "internalType": "address",
              "name": "nftOwner",
              "type": "address"
            },
            {
              "internalType": "uint32",
              "name": "loanEndTimestamp",
              "type": "uint32"
            },
            {
              "internalType": "uint32",
              "name": "lastUpdatedTimestamp",
              "type": "uint32"
            },
            {
              "internalType": "bool",
              "name": "fixedTerms",
              "type": "bool"
            },
            {
              "internalType": "address",
              "name": "lender",
              "type": "address"
            },
            {
              "internalType": "uint96",
              "name": "interestRatePerSecond",
              "type": "uint96"
            },
            {
              "internalType": "address",
              "name": "asset",
              "type": "address"
            },
            {
              "internalType": "uint32",
              "name": "loanBeginTimestamp",
              "type": "uint32"
            },
            {
              "internalType": "bool",
              "name": "lenderRefi",
              "type": "bool"
            },
            {
              "internalType": "uint128",
              "name": "accumulatedLenderInterest",
              "type": "uint128"
            },
            {
              "internalType": "uint128",
              "name": "accumulatedProtocolInterest",
              "type": "uint128"
            },
            {
              "internalType": "uint128",
              "name": "amount",
              "type": "uint128"
            },
            {
              "internalType": "uint128",
              "name": "amountDrawn",
              "type": "uint128"
            },
            {
              "internalType": "uint96",
              "name": "protocolInterestRatePerSecond",
              "type": "uint96"
            },
            {
              "internalType": "uint128",
              "name": "slashableLenderInterest",
              "type": "uint128"
            }
          ],
          "internalType": "struct ILendingStructs.LoanAuction",
          "name": "",
          "type": "tuple"
        }
      ],
      "stateMutability": "view",
      "type": "function"
    },
    {
      "inputs": [
        {
          "internalType": "address",
          "name": "newLiquidityContractAddress",
          "type": "address"
        },
        {
          "internalType": "address",
          "name": "newOffersContractAddress",
          "type": "address"
        },
        {
          "internalType": "address",
          "name": "newSigLendingContractAddress",
          "type": "address"
        }
      ],
      "name": "initialize",
      "outputs": [],
      "stateMutability": "nonpayable",
      "type": "function"
    },
    {
      "inputs": [],
      "name": "liquidityContractAddress",
      "outputs": [
        {
          "internalType": "address",
          "name": "",
          "type": "address"
        }
      ],
      "stateMutability": "view",
      "type": "function"
    },
    {
      "inputs": [],
      "name": "offersContractAddress",
      "outputs": [
        {
          "internalType": "address",
          "name": "",
          "type": "address"
        }
      ],
      "stateMutability": "view",
      "type": "function"
    },
    {
      "inputs": [
        {
          "internalType": "address",
          "name": "",
          "type": "address"
        },
        {
          "internalType": "address",
          "name": "",
          "type": "address"
        },
        {
          "internalType": "uint256",
          "name": "",
          "type": "uint256"
        },
        {
          "internalType": "bytes",
          "name": "",
          "type": "bytes"
        }
      ],
      "name": "onERC721Received",
      "outputs": [
        {
          "internalType": "bytes4",
          "name": "",
          "type": "bytes4"
        }
      ],
      "stateMutability": "nonpayable",
      "type": "function"
    },
    {
      "inputs": [],
      "name": "originationPremiumBps",
      "outputs": [
        {
          "internalType": "uint16",
          "name": "",
          "type": "uint16"
        }
      ],
      "stateMutability": "view",
      "type": "function"
    },
    {
      "inputs": [],
      "name": "owner",
      "outputs": [
        {
          "internalType": "address",
          "name": "",
          "type": "address"
        }
      ],
      "stateMutability": "view",
      "type": "function"
    },
    {
      "inputs": [
        {
          "internalType": "address",
          "name": "nftContractAddress",
          "type": "address"
        },
        {
          "internalType": "uint256",
          "name": "nftId",
          "type": "uint256"
        }
      ],
      "name": "ownerOf",
      "outputs": [
        {
          "internalType": "address",
          "name": "",
          "type": "address"
        }
      ],
      "stateMutability": "view",
      "type": "function"
    },
    {
      "inputs": [
        {
          "internalType": "address",
          "name": "nftContractAddress",
          "type": "address"
        },
        {
          "internalType": "uint256",
          "name": "nftId",
          "type": "uint256"
        },
        {
          "internalType": "uint256",
          "name": "amount",
          "type": "uint256"
        }
      ],
      "name": "partialRepayLoan",
      "outputs": [],
      "stateMutability": "payable",
      "type": "function"
    },
    {
      "inputs": [],
      "name": "pause",
      "outputs": [],
      "stateMutability": "nonpayable",
      "type": "function"
    },
    {
      "inputs": [],
      "name": "pauseSanctions",
      "outputs": [],
      "stateMutability": "nonpayable",
      "type": "function"
    },
    {
      "inputs": [],
      "name": "paused",
      "outputs": [
        {
          "internalType": "bool",
          "name": "",
          "type": "bool"
        }
      ],
      "stateMutability": "view",
      "type": "function"
    },
    {
      "inputs": [],
      "name": "protocolInterestBps",
      "outputs": [
        {
          "internalType": "uint16",
          "name": "",
          "type": "uint16"
        }
      ],
      "stateMutability": "view",
      "type": "function"
    },
    {
      "inputs": [
        {
          "internalType": "address",
          "name": "nftContractAddress",
          "type": "address"
        },
        {
          "internalType": "uint256",
          "name": "nftId",
          "type": "uint256"
        },
        {
          "internalType": "bool",
          "name": "floorTerm",
          "type": "bool"
        },
        {
          "internalType": "bytes32",
          "name": "offerHash",
          "type": "bytes32"
        },
        {
          "internalType": "uint32",
          "name": "expectedLastUpdatedTimestamp",
          "type": "uint32"
        }
      ],
      "name": "refinanceByBorrower",
      "outputs": [],
      "stateMutability": "nonpayable",
      "type": "function"
    },
    {
      "inputs": [
        {
          "components": [
            {
              "internalType": "address",
              "name": "creator",
              "type": "address"
            },
            {
              "internalType": "uint32",
              "name": "duration",
              "type": "uint32"
            },
            {
              "internalType": "uint32",
              "name": "expiration",
              "type": "uint32"
            },
            {
              "internalType": "bool",
              "name": "fixedTerms",
              "type": "bool"
            },
            {
              "internalType": "bool",
              "name": "floorTerm",
              "type": "bool"
            },
            {
              "internalType": "bool",
              "name": "lenderOffer",
              "type": "bool"
            },
            {
              "internalType": "address",
              "name": "nftContractAddress",
              "type": "address"
            },
            {
              "internalType": "uint256",
              "name": "nftId",
              "type": "uint256"
            },
            {
              "internalType": "address",
              "name": "asset",
              "type": "address"
            },
            {
              "internalType": "uint128",
              "name": "amount",
              "type": "uint128"
            },
            {
              "internalType": "uint96",
              "name": "interestRatePerSecond",
              "type": "uint96"
            }
          ],
          "internalType": "struct IOffersStructs.Offer",
          "name": "offer",
          "type": "tuple"
        },
        {
          "internalType": "uint32",
          "name": "expectedLastUpdatedTimestamp",
          "type": "uint32"
        }
      ],
      "name": "refinanceByLender",
      "outputs": [],
      "stateMutability": "nonpayable",
      "type": "function"
    },
    {
      "inputs": [],
      "name": "renounceOwnership",
      "outputs": [],
      "stateMutability": "nonpayable",
      "type": "function"
    },
    {
      "inputs": [
        {
          "internalType": "address",
          "name": "nftContractAddress",
          "type": "address"
        },
        {
          "internalType": "uint256",
          "name": "nftId",
          "type": "uint256"
        }
      ],
      "name": "repayLoan",
      "outputs": [],
      "stateMutability": "payable",
      "type": "function"
    },
    {
      "inputs": [
        {
          "internalType": "address",
          "name": "nftContractAddress",
          "type": "address"
        },
        {
          "internalType": "uint256",
          "name": "nftId",
          "type": "uint256"
        },
        {
          "internalType": "uint32",
          "name": "expectedLoanBeginTimestamp",
          "type": "uint32"
        }
      ],
      "name": "repayLoanForAccount",
      "outputs": [],
      "stateMutability": "payable",
      "type": "function"
    },
    {
      "inputs": [
        {
          "internalType": "address",
          "name": "nftContractAddress",
          "type": "address"
        },
        {
          "internalType": "uint256",
          "name": "nftId",
          "type": "uint256"
        }
      ],
      "name": "seizeAsset",
      "outputs": [],
      "stateMutability": "nonpayable",
      "type": "function"
    },
    {
      "inputs": [],
      "name": "sigLendingContractAddress",
      "outputs": [
        {
          "internalType": "address",
          "name": "",
          "type": "address"
        }
      ],
      "stateMutability": "view",
      "type": "function"
    },
    {
      "inputs": [],
      "name": "termGriefingPremiumBps",
      "outputs": [
        {
          "internalType": "uint16",
          "name": "",
          "type": "uint16"
        }
      ],
      "stateMutability": "view",
      "type": "function"
    },
    {
      "inputs": [
        {
          "internalType": "address",
          "name": "newOwner",
          "type": "address"
        }
      ],
      "name": "transferOwnership",
      "outputs": [],
      "stateMutability": "nonpayable",
      "type": "function"
    },
    {
      "inputs": [],
      "name": "unpause",
      "outputs": [],
      "stateMutability": "nonpayable",
      "type": "function"
    },
    {
      "inputs": [],
      "name": "unpauseSanctions",
      "outputs": [],
      "stateMutability": "nonpayable",
      "type": "function"
    },
    {
      "inputs": [
        {
          "internalType": "uint16",
          "name": "newDefaultRefinancePremiumBps",
          "type": "uint16"
        }
      ],
      "name": "updateDefaultRefinancePremiumBps",
      "outputs": [],
      "stateMutability": "nonpayable",
      "type": "function"
    },
    {
      "inputs": [
        {
          "internalType": "uint16",
          "name": "newGasGriefingPremiumBps",
          "type": "uint16"
        }
      ],
      "name": "updateGasGriefingPremiumBps",
      "outputs": [],
      "stateMutability": "nonpayable",
      "type": "function"
    },
    {
      "inputs": [
        {
          "internalType": "uint16",
          "name": "newGasGriefingProtocolPremiumBps",
          "type": "uint16"
        }
      ],
      "name": "updateGasGriefingProtocolPremiumBps",
      "outputs": [],
      "stateMutability": "nonpayable",
      "type": "function"
    },
    {
      "inputs": [
        {
          "internalType": "uint16",
          "name": "newOriginationPremiumBps",
          "type": "uint16"
        }
      ],
      "name": "updateOriginationPremiumLenderBps",
      "outputs": [],
      "stateMutability": "nonpayable",
      "type": "function"
    },
    {
      "inputs": [
        {
          "internalType": "uint16",
          "name": "newProtocolInterestBps",
          "type": "uint16"
        }
      ],
      "name": "updateProtocolInterestBps",
      "outputs": [],
      "stateMutability": "nonpayable",
      "type": "function"
    },
    {
      "inputs": [
        {
          "internalType": "uint16",
          "name": "newTermGriefingPremiumBps",
          "type": "uint16"
        }
      ],
      "name": "updateTermGriefingPremiumBps",
      "outputs": [],
      "stateMutability": "nonpayable",
      "type": "function"
    }
  ],
  "bytecode": "0x608060405234801561001057600080fd5b50615cf080620000216000396000f3fe6080604052600436106102515760003560e01c80636db7ad431161013957806393a595f5116100b6578063cadfbdda1161007a578063cadfbdda14610726578063cba1fcea14610739578063ce37145e14610759578063e256727314610779578063e6ec374214610799578063f2fde38b146107d157600080fd5b806393a595f514610691578063b10a8930146106a4578063b1ee0b48146106c4578063ba8ae105146106e6578063c0c53b8b1461070657600080fd5b806379969002116100fd57806379969002146105ee57806382441e1c1461061c5780638456cb591461063c57806386b519c7146106515780638da5cb5b1461067357600080fd5b80636db7ad4314610562578063715018a61461057757806372a74aaf1461058c57806373aab801146105ac57806377551e35146105ce57600080fd5b80631f29d2dc116101d25780634c25eeec116101965780634c25eeec146104a95780635335da98146104c957806358112cd3146104e95780635c975abb146104fe57806367b7026c146105225780636a5090621461054257600080fd5b80631f29d2dc146103fc578063216d54ab1461043f5780632efb5d8f1461045f5780633a85662f146104815780633f4ba83a1461049457600080fd5b8063104cf39c11610219578063104cf39c14610338578063150b7a021461035a578063193dc1691461039e5780631b3fbce3146103b15780631efdf7bd146103c457600080fd5b806301cdcfc71461025657806306b761c11461028c5780630bbd406d146102c15780630d64cf1a146102f65780630e96804b14610318575b600080fd5b34801561026257600080fd5b506102766102713660046150b7565b6107f1565b60405161028391906150e3565b60405180910390f35b34801561029857600080fd5b5060fe546102ae90600160f01b900461ffff1681565b60405161ffff9091168152602001610283565b3480156102cd57600080fd5b506102e16102dc3660046150b7565b610974565b60408051928352602083019190915201610283565b34801561030257600080fd5b5061031661031136600461521b565b610994565b005b34801561032457600080fd5b50610316610333366004615275565b610a3b565b34801561034457600080fd5b5060fe546102ae90600160e01b900461ffff1681565b34801561036657600080fd5b50610385610375366004615345565b630a85bd0160e11b949350505050565b6040516001600160e01b03199091168152602001610283565b6103166103ac366004615409565b610b95565b6103166103bf366004615453565b610cf0565b3480156103d057600080fd5b5060fc546103e4906001600160a01b031681565b6040516001600160a01b039091168152602001610283565b34801561040857600080fd5b506103e46104173660046150b7565b6001600160a01b03918216600090815260fb6020908152604080832093835292905220541690565b34801561044b57600080fd5b5061031661045a3660046155a9565b610e94565b34801561046b57600080fd5b5060fe546102ae90600160d01b900461ffff1681565b61031661048f3660046155e3565b6118f4565b3480156104a057600080fd5b50610316611957565b3480156104b557600080fd5b506103166104c436600461521b565b61198b565b3480156104d557600080fd5b506103166104e4366004615618565b611a29565b3480156104f557600080fd5b50610316611a87565b34801561050a57600080fd5b5060655460ff165b6040519015158152602001610283565b34801561052e57600080fd5b5061031661053d3660046155e3565b611ae9565b34801561054e57600080fd5b5061031661055d36600461521b565b611fbf565b34801561056e57600080fd5b5061031661205d565b34801561058357600080fd5b506103166120bc565b34801561059857600080fd5b506103166105a736600461521b565b6120e6565b3480156105b857600080fd5b5060fe546102ae90600160c01b900461ffff1681565b3480156105da57600080fd5b506103166105e936600461521b565b612184565b3480156105fa57600080fd5b5061060e6106093660046150b7565b612257565b604051908152602001610283565b34801561062857600080fd5b50610316610637366004615663565b612272565b34801561064857600080fd5b506103166122d0565b34801561065d57600080fd5b5060fe546102ae90600160a01b900461ffff1681565b34801561067f57600080fd5b506033546001600160a01b03166103e4565b61031661069f3660046150b7565b612302565b3480156106b057600080fd5b506103166106bf3660046150b7565b612364565b3480156106d057600080fd5b5060fe546102ae90600160b01b900461ffff1681565b3480156106f257600080fd5b5061031661070136600461521b565b61255f565b34801561071257600080fd5b506103166107213660046156b7565b6125fe565b610316610734366004615409565b6126c7565b34801561074557600080fd5b5060fd546103e4906001600160a01b031681565b34801561076557600080fd5b5060fe546103e4906001600160a01b031681565b34801561078557600080fd5b506105126107943660046156f7565b612821565b3480156107a557600080fd5b506107b96107b4366004615751565b612842565b6040516001600160601b039091168152602001610283565b3480156107dd57600080fd5b506103166107ec366004615773565b612880565b604080516101e081018252600080825260208201819052918101829052606081018290526080810182905260a0810182905260c0810182905260e08101829052610100810182905261012081018290526101408101829052610160810182905261018081018290526101a081018290526101c0810191909152610874838361291b565b604080516101e08101825282546001600160a01b03808216835263ffffffff600160a01b80840482166020860152600160c01b80850483169686019690965260ff600160e01b909404841615156060860152600187015480841660808701526001600160601b0390829004811660a0870152600288015493841660c087015290830490911660e085015293900416151561010082015260038301546001600160801b03808216610120840152600160801b91829004811661014084015260048501548082166101608501529190910481166101808301526005909301549182166101a0820152600160601b9091049091166101c082015290505b92915050565b600080610989610984858561291b565b612942565b915091509250929050565b6033546001600160a01b031633146109c75760405162461bcd60e51b81526004016109be90615790565b60405180910390fd5b6109d0816129b7565b60fe546040805161ffff600160a01b9093048316815291831660208301527fecfa0a45664a45671d9817206986111771b8c0616137e91c4ae1c0b33d0feece910160405180910390a160fe805461ffff909216600160a01b0261ffff60a01b19909216919091179055565b60655460ff1615610a5e5760405162461bcd60e51b81526004016109be906157c5565b600260975403610a805760405162461bcd60e51b81526004016109be906157ef565b600260975560fc5460405163addbfc8360e01b81526000916001600160a01b03169063addbfc8390610abc908990899088908a90600401615826565b61016060405180830381865afa158015610ada573d6000803e3d6000fd5b505050506040513d601f19601f82011682018060405250810190610afe9190615885565b90508060800151610b7c57610b1381866129f5565b60fc546040516339b235d560e21b81526001600160a01b039091169063e6c8d75490610b49908990899088908a90600401615826565b600060405180830381600087803b158015610b6357600080fd5b505af1158015610b77573d6000803e3d6000fd5b505050505b610b8881863385612a34565b5050600160975550505050565b60655460ff1615610bb85760405162461bcd60e51b81526004016109be906157c5565b600260975403610bda5760405162461bcd60e51b81526004016109be906157ef565b600260975560fc5460405163addbfc8360e01b81526000916001600160a01b03169063addbfc8390610c16908890889088908890600401615826565b61016060405180830381865afa158015610c34573d6000803e3d6000fd5b505050506040513d601f19601f82011682018060405250810190610c589190615885565b9050610c638161312f565b610c6c81613169565b60fc546040516339b235d560e21b81526001600160a01b039091169063e6c8d75490610ca2908890889088908890600401615826565b600060405180830381600087803b158015610cbc57600080fd5b505af1158015610cd0573d6000803e3d6000fd5b50505050610ce481338360000151876131a3565b50506001609755505050565b60655460ff1615610d135760405162461bcd60e51b81526004016109be906157c5565b600260975403610d355760405162461bcd60e51b81526004016109be906157ef565b60026097556000610d46848461291b565b604080516101e08101825282546001600160a01b03808216835263ffffffff600160a01b80840482166020860152600160c01b80850483169686019690965260ff600160e01b909404841615156060860152600187015480841660808701526001600160601b0390829004811660a0870152600288015493841660c0870152908304821660e0860181905295909204909216151561010084015260038501546001600160801b03808216610120860152600160801b91829004811661014086015260048701548082166101608701529190910481166101808501526005909501549081166101a0840152600160601b90049093166101c0820152925090831614610e7a5760405162461bcd60e51b8152602060048201526005602482015264303030323760d81b60448201526064016109be565b610e8984846001600080613579565b505060016097555050565b60655460ff1615610eb75760405162461bcd60e51b81526004016109be906157c5565b600260975403610ed95760405162461bcd60e51b81526004016109be906157ef565b600260975560c082015160e0830151600091610ef49161291b565b9050610eff33613b52565b610f0881613c19565b63ffffffff821615610f5c57805463ffffffff838116600160c01b9092041614610f5c5760405162461bcd60e51b8152602060048201526005602482015264181818191b60d91b60448201526064016109be565b610f668333613c5f565b610f6f83613ca3565b610f7881613cdc565b610f8183613d2e565b610f8b8184613d7d565b610f9481613f27565b610f9d83613169565b6101008301516002820154610fbb91906001600160a01b0316613f68565b826060015115610ff55760405162461bcd60e51b8152602060048201526005602482015264181818189b60d91b60448201526064016109be565b60fd54610100840151604051630b42978d60e31b81526001600160a01b0391821660048201526000929190911690635a14bc6890602401602060405180830381865afa158015611049573d6000803e3d6000fd5b505050506040513d601f19601f8201168201806040525081019061106d9190615958565b9050600061107a83613fb1565b9050600061109884876101200151886101400151896020015161402f565b60028501805460ff60c01b1916600160c01b17905560058501549091506001600160801b03600160601b90910416158015906110e65750855160018501546001600160a01b03908116911614155b156111515760058401546003850180546001600160801b03600160601b9093048316926000916111189185911661598b565b82546001600160801b039182166101009390930a928302919092021990911617905550600584018054600160601b600160e01b03191690555b60008061115d86614147565b91509150600080846111bb5760fe5460048901546127109161119b91600160e01b90910461ffff1690600160801b90046001600160801b03166159b6565b6001600160801b03166111ae91906159e5565b6111b89083615a07565b91505b6101208a01516004890180546001600160801b0319166001600160801b039092169190911790556101408a01516001890180546001600160a01b0316600160a01b6001600160601b03909316830217905560208b015160028a015461122792900463ffffffff16615a1f565b885463ffffffff91909116600160a01b0263ffffffff60a01b19909116178855895160018901546001600160a01b039182169116036114955760fd546101008b015160048a01546101208d01516000936001600160a01b031692630b5629f69290916112a391600160801b90046001600160801b031690615a3e565b6040516001600160e01b031960e085901b1681526001600160a01b0390921660048301526001600160801b031660248201526044016020604051808303816000875af11580156112f7573d6000803e3d6000fd5b505050506040513d601f19601f8201168201806040525081019061131b9190615a66565b60fd546101008d01516040516305ab14fb60e11b81526001600160a01b039182166004820152602481018790529293501690630b5629f6906044016020604051808303816000875af1158015611375573d6000803e3d6000fd5b505050506040513d601f19601f820116820180604052508101906113999190615a66565b8b519092506113b290896113ad8585615a07565b61428e565b60fd548b51604051630d71cd3f60e31b81526001600160a01b0390921691636b8e69f8916113e6918c908790600401615a7f565b600060405180830381600087803b15801561140057600080fd5b505af1158015611414573d6000803e3d6000fd5b505060fd546001600160a01b0316915063301515ba905061143d6033546001600160a01b031690565b8a856040518463ffffffff1660e01b815260040161145d93929190615a7f565b600060405180830381600087803b15801561147757600080fd5b505af115801561148b573d6000803e3d6000fd5b5050505050611899565b60fe546004890154600091612710916114c991600160b01b900461ffff1690600160801b90046001600160801b03166159b6565b6001600160801b03166114dc91906159e5565b60038a01546114fd906001600160801b03600160801b82048116911661598b565b6001600160801b03166115109190615a07565b905061151c8484615a07565b925086156115645761152e8782615a07565b60fe549091506127109061154d90600160d01b900461ffff1687615aa3565b61155791906159e5565b6115619084615a07565b92505b885461158090610e1090600160a01b900463ffffffff16615ac2565b63ffffffff1661158e61433a565b63ffffffff1611156115ec5760fe5460048a0154612710916115cc91600160f01b90910461ffff1690600160801b90046001600160801b03166159b6565b6001600160801b03166115df91906159e5565b6115e99084615a07565b92505b6004890154600090600160801b90046001600160801b031661160e8584615a07565b6116189190615a07565b60fd546101008e01516040516305ab14fb60e11b81526001600160a01b03918216600482015260248101849052929350600092911690630b5629f6906044016020604051808303816000875af1158015611676573d6000803e3d6000fd5b505050506040513d601f19601f8201168201806040525081019061169a9190615a66565b90506116ab8d600001518b8361428e565b60fd546101008e01516040516305ab14fb60e11b81526001600160a01b03918216600482015260248101889052911690630b5629f6906044016020604051808303816000875af1158015611703573d6000803e3d6000fd5b505050506040513d601f19601f820116820180604052508101906117279190615a66565b60018c0180548f516001600160a01b038181166001600160a01b031984161790935560fd54604051630d71cd3f60e31b8152949850918316939190921691636b8e69f89161177c91908f908790600401615a7f565b600060405180830381600087803b15801561179657600080fd5b505af11580156117aa573d6000803e3d6000fd5b505060fd546001600160a01b0316915063301515ba9050828d6117cd8987615adf565b6040518463ffffffff1660e01b81526004016117eb93929190615a7f565b600060405180830381600087803b15801561180557600080fd5b505af1158015611819573d6000803e3d6000fd5b505060fd546001600160a01b0316915063301515ba90506118426033546001600160a01b031690565b8d886040518463ffffffff1660e01b815260040161186293929190615a7f565b600060405180830381600087803b15801561187c57600080fd5b505af1158015611890573d6000803e3d6000fd5b50505050505050505b8960e001518a60c001516001600160a01b03167fc562bb36ef5f050aad36b45d98d9c2b61a2e300601b420b10b15da3086f525378c6040516118db9190615af6565b60405180910390a3505060016097555050505050505050565b60655460ff16156119175760405162461bcd60e51b81526004016109be906157c5565b6002609754036119395760405162461bcd60e51b81526004016109be906157ef565b600260975561194d83836000846001613579565b5050600160975550565b6033546001600160a01b031633146119815760405162461bcd60e51b81526004016109be90615790565b61198961434a565b565b6033546001600160a01b031633146119b55760405162461bcd60e51b81526004016109be90615790565b6119be816129b7565b60fe546040805161ffff600160b01b9093048316815291831660208301527f21276df6e176cbf0bbc1b0eb55641239f046345cd264eae1c795434bf4a7cd07910160405180910390a160fe805461ffff909216600160b01b0261ffff60b01b19909216919091179055565b60655460ff1615611a4c5760405162461bcd60e51b81526004016109be906157c5565b600260975403611a6e5760405162461bcd60e51b81526004016109be906157ef565b6002609755611a7b6143dd565b610e8984848484612a34565b6033546001600160a01b03163314611ab15760405162461bcd60e51b81526004016109be90615790565b60ff805460ff191660011790556040517f1e7822c193bc2976c768176385d258cfc05f96b5e489140f05e69e40bf9e2e6190600090a1565b60655460ff1615611b0c5760405162461bcd60e51b81526004016109be906157c5565b600260975403611b2e5760405162461bcd60e51b81526004016109be906157ef565b60026097556000611b3f848461291b565b9050611b4a33613b52565b611b5381613c19565b611b5d813361441f565b60048101546001600160801b0380821691611b8191600160801b9091041684615a07565b1115611bb75760405162461bcd60e51b8152602060048201526005602482015264030303032360dc1b60448201526064016109be565b611bc081613cdc565b60fd546002820154604051630b42978d60e31b81526001600160a01b0391821660048201526000929190911690635a14bc6890602401602060405180830381865afa158015611c13573d6000803e3d6000fd5b505050506040513d601f19601f82011682018060405250810190611c379190615958565b9050611c4282614147565b50506000611c51838584614463565b90508015611f59576004830154600160801b90046001600160801b0316611c77826146fb565b600485018054601090611c9b908490600160801b90046001600160801b031661598b565b92506101000a8154816001600160801b0302191690836001600160801b031602179055508360010160149054906101000a90046001600160601b03166001600160601b0316600014611d6857600484015460018501546000918391611d2091600160801b90046001600160801b031690600160a01b90046001600160601b03166159b6565b6001600160801b0316611d3391906159e5565b9050611d3e81614768565b8560010160146101000a8154816001600160601b0302191690836001600160601b03160217905550505b60058401546001600160601b031615611df457600484015460058501546000918391611dad91600160801b90046001600160801b0316906001600160601b03166159b6565b6001600160801b0316611dc091906159e5565b9050611dcb81614768565b6005860180546bffffffffffffffffffffffff19166001600160601b0392909216919091179055505b60fd546002850154604051634ef4c4b360e01b81526001600160a01b039182166004820152602481018590526000929190911690634ef4c4b3906044016020604051808303816000875af1158015611e50573d6000803e3d6000fd5b505050506040513d601f19601f82011682018060405250810190611e749190615a66565b60fd546001870154604051630d71cd3f60e31b81529293506001600160a01b0391821692636b8e69f892611eb092169088908690600401615a7f565b600060405180830381600087803b158015611eca57600080fd5b505af1158015611ede573d6000803e3d6000fd5b505060fd5460028801548854604051634da6eb1f60e11b81526001600160a01b03928316600482015260248101899052908216604482015291169250639b4dd63e9150606401600060405180830381600087803b158015611f3e57600080fd5b505af1158015611f52573d6000803e3d6000fd5b5050505050505b600483015460408051838152600160801b9092046001600160801b0316602083015286916001600160a01b038916917eb7bc697363f83a4000d7a969398e146d1b3ce5ab0b7f564944e3750e86dae9910160405180910390a35050600160975550505050565b6033546001600160a01b03163314611fe95760405162461bcd60e51b81526004016109be90615790565b611ff2816129b7565b60fe546040805161ffff600160c01b9093048316815291831660208301527f5b4b1620332f731ee19fab1edf9cf79a5efb529afc384bd23c41118c7546301f910160405180910390a160fe805461ffff909216600160c01b0261ffff60c01b19909216919091179055565b6033546001600160a01b031633146120875760405162461bcd60e51b81526004016109be90615790565b60ff805460ff191690556040517f9dfe04333cbbe1cddbf64b8f95ae9d2c9107f5e2680a6c597f53502171c0717690600090a1565b6033546001600160a01b031633146119895760405162461bcd60e51b81526004016109be90615790565b6033546001600160a01b031633146121105760405162461bcd60e51b81526004016109be90615790565b612119816129b7565b60fe546040805161ffff600160e01b9093048316815291831660208301527fd7a71cacc20b11c6b4f16b7c9a2c7cc986008fc42937e96939f9507808a0667f910160405180910390a160fe805461ffff909216600160e01b0261ffff60e01b19909216919091179055565b6033546001600160a01b031633146121ae5760405162461bcd60e51b81526004016109be90615790565b6127108161ffff1611156121ec5760405162461bcd60e51b8152602060048201526005602482015264181818181960d91b60448201526064016109be565b60fe546040805161ffff600160d01b9093048316815291831660208301527fed0bfef8f4920d4c8960df6b389d82928eed4218d786fdfa31bd5ad8343c24d4910160405180910390a160fe805461ffff909216600160d01b0261ffff60d01b19909216919091179055565b600061226b612266848461291b565b613fb1565b9392505050565b60655460ff16156122955760405162461bcd60e51b81526004016109be906157c5565b6002609754036122b75760405162461bcd60e51b81526004016109be906157ef565b60026097556122c46143dd565b610e89848484846131a3565b6033546001600160a01b031633146122fa5760405162461bcd60e51b81526004016109be90615790565b6119896147d0565b60655460ff16156123255760405162461bcd60e51b81526004016109be906157c5565b6002609754036123475760405162461bcd60e51b81526004016109be906157ef565b600260975561235b82826001600081613579565b50506001609755565b60655460ff16156123875760405162461bcd60e51b81526004016109be906157c5565b6002609754036123a95760405162461bcd60e51b81526004016109be906157ef565b600260975560006123ba838361291b565b60fd546002820154604051630b42978d60e31b81526001600160a01b0391821660048201529293501690635a14bc6890602401602060405180830381865afa15801561240a573d6000803e3d6000fd5b505050506040513d601f19601f8201168201806040525081019061242e9190615958565b5061243881613c19565b8054600160a01b900463ffffffff1661244f61433a565b63ffffffff16101561248b5760405162461bcd60e51b8152602060048201526005602482015264060606060760db1b60448201526064016109be565b60018082015482546001600160a01b03868116600090815260fb60209081526040808320898452909152812080546001600160e81b03191681559485018190556002850180546001600160c81b0319169055600385018190556004850155600590930180546001600160e01b0319169055908216911661250d85853085614828565b6040516001600160a01b0382811682528591818816918516907fe4a15aff58a2c21b33aa9b3f611ace0941886875b02fe8325f349a4eeb6a57d09060200160405180910390a450506001609755505050565b6033546001600160a01b031633146125895760405162461bcd60e51b81526004016109be90615790565b612592816129b7565b60fe546040805161ffff600160f01b9093048316815291831660208301527f3ba673bac162f1f0a5b3b1efb228c0a6af404a411d4fef180e7d7858320adfd6910160405180910390a160fe805461ffff909216600160f01b026001600160f01b03909216919091179055565b600061260a6001614886565b90508015612622576000805461ff0019166101001790555b60fd80546001600160a01b038681166001600160a01b03199283161790925560fc805486841692169190911790558216680c800c8000000c801960b11b1760fe5561266b614913565b612673614942565b61267b614971565b80156126c1576000805461ff0019169055604051600181527f7f26b83ff96e1f2b6a682f133852f6798a09c465da95921460cefb38474024989060200160405180910390a15b50505050565b60655460ff16156126ea5760405162461bcd60e51b81526004016109be906157c5565b60026097540361270c5760405162461bcd60e51b81526004016109be906157ef565b600260975560fc5460405163addbfc8360e01b81526000916001600160a01b03169063addbfc8390612748908890889088908890600401615826565b61016060405180830381865afa158015612766573d6000803e3d6000fd5b505050506040513d601f19601f8201168201806040525081019061278a9190615885565b905061279581613ca3565b8060800151612811576127a881856129f5565b60fc546040516339b235d560e21b81526001600160a01b039091169063e6c8d754906127de908890889088908890600401615826565b600060405180830381600087803b1580156127f857600080fd5b505af115801561280c573d6000803e3d6000fd5b505050505b610ce481826000015133876131a3565b6000612838612830878761291b565b85858561402f565b9695505050505050565b60fe5460009061226b9083906127109061286790600160a01b900461ffff1687615aa3565b61287191906159e5565b61287b91906159e5565b614768565b6033546001600160a01b031633146128aa5760405162461bcd60e51b81526004016109be90615790565b6001600160a01b03811661290f5760405162461bcd60e51b815260206004820152602660248201527f4f776e61626c653a206e6577206f776e657220697320746865207a65726f206160448201526564647265737360d01b60648201526084016109be565b612918816149a0565b50565b6001600160a01b0391909116600090815260fb602090815260408083209383529290522090565b805460009081908190600160c01b900463ffffffff1661296061433a565b61296a9190615ac2565b600185015463ffffffff91909116915061299490600160a01b90046001600160601b031682615aa3565b60058501549093506129af906001600160601b031682615aa3565b915050915091565b6103e88161ffff1611156129185760405162461bcd60e51b8152602060048201526005602482015264181818181960d91b60448201526064016109be565b8160e001518114612a305760405162461bcd60e51b8152602060048201526005602482015264181818191960d91b60448201526064016109be565b5050565b6000612a448560c001518561291b565b9050612a4f83613b52565b8451612a5a90613b52565b6101008501516002820154612a7891906001600160a01b0316613f68565b612a82818461441f565b612a8b81613f27565b63ffffffff821615612adf57805463ffffffff838116600160c01b9092041614612adf5760405162461bcd60e51b8152602060048201526005602482015264181818191b60d91b60448201526064016109be565b612ae881613c19565b612af181613cdc565b612afa85613d2e565b612b0385613ca3565b612b0c856149f2565b60fd54610100860151604051630b42978d60e31b81526001600160a01b0391821660048201526000929190911690635a14bc6890602401602060405180830381865afa158015612b60573d6000803e3d6000fd5b505050506040513d601f19601f82011682018060405250810190612b849190615958565b90506000612b9183613fb1565b90508015612be457612ba2816146fb565b600384018054600090612bbf9084906001600160801b031661598b565b92506101000a8154816001600160801b0302191690836001600160801b031602179055505b612bed83614147565b505060038301546004840154600091612c1a916001600160801b0391821691600160801b9091041661598b565b600585015460038601546001600160801b039283169350600092612c4f92600160601b9004811691600160801b90041661598b565b6001600160801b03169050612c648183615a07565b8961012001516001600160801b03161015612ca95760405162461bcd60e51b8152602060048201526005602482015264303030303560d81b60448201526064016109be565b60fd546101008a01516040516305ab14fb60e11b81526001600160a01b039182166004820152602481018590526000929190911690630b5629f6906044016020604051808303816000875af1158015612d06573d6000803e3d6000fd5b505050506040513d601f19601f82011682018060405250810190612d2a9190615a66565b60fd546101008c01516040516305ab14fb60e11b81526001600160a01b03918216600482015260248101869052929350600092911690630b5629f6906044016020604051808303816000875af1158015612d88573d6000803e3d6000fd5b505050506040513d601f19601f82011682018060405250810190612dac9190615a66565b60fd548c519192506001600160a01b031690636b8e69f89088612dcf8587615a07565b6040518463ffffffff1660e01b8152600401612ded93929190615a7f565b600060405180830381600087803b158015612e0757600080fd5b505af1158015612e1b573d6000803e3d6000fd5b505060fd5460018a015460405163180a8add60e11b81526001600160a01b03928316945063301515ba9350612e5a92909116908a908790600401615a7f565b600060405180830381600087803b158015612e7457600080fd5b505af1158015612e88573d6000803e3d6000fd5b505060fd546001600160a01b0316915063301515ba9050612eb16033546001600160a01b031690565b88846040518463ffffffff1660e01b8152600401612ed193929190615a7f565b600060405180830381600087803b158015612eeb57600080fd5b505af1158015612eff573d6000803e3d6000fd5b5050505060048701546002880154600160801b9091046001600160801b031690600160c01b900460ff1615612f3e5760028801805460ff60c01b191690555b8b516101208d015160048a0180546001600160801b0319166001600160801b039092169190911790556101408d01516001600160a01b03909116600160a01b6001600160601b0390921682021760018a015560208d015160028a0154612fab92900463ffffffff16615a1f565b885463ffffffff91909116600160a01b0263ffffffff60a01b19909116178855612fdd612fd88587615a07565b6146fb565b6004890180546001600160801b03928316600160801b0292169190911790556000600389015560608c01511561302a5760608c01518854901515600160e01b0260ff60e01b199091161788555b6005880154600160601b90046001600160801b03161561305a57600588018054600160601b600160e01b03191690555b8a8c60c001516001600160a01b03167fc562bb36ef5f050aad36b45d98d9c2b61a2e300601b420b10b15da3086f525378e6040516130989190615af6565b60405180910390a38a8c60c001516001600160a01b03167eb7bc697363f83a4000d7a969398e146d1b3ce5ab0b7f564944e3750e86dae9838b60040160109054906101000a90046001600160801b03166130f29190615a3e565b60048c0154604080516001600160801b039384168152600160801b90920490921660208201520160405180910390a3505050505050505050505050565b8060a00151156129185760405162461bcd60e51b8152602060048201526005602482015264303030313360d81b60448201526064016109be565b8060800151156129185760405162461bcd60e51b81526020600482015260056024820152640c0c0c0c4d60da1b60448201526064016109be565b6131ac83613b52565b6131b582613b52565b6101008401516001600160a01b03166131f85760405162461bcd60e51b81526020600482015260056024820152640c0c0c0c0d60da1b60448201526064016109be565b60fd54610100850151604051630b42978d60e31b81526001600160a01b0391821660048201526000929190911690635a14bc6890602401602060405180830381865afa15801561324c573d6000803e3d6000fd5b505050506040513d601f19601f820116820180604052508101906132709190615958565b905060006132828660c001518461291b565b8054909150600160c01b900463ffffffff16156132c95760405162461bcd60e51b8152602060048201526005602482015264181818181b60d91b60448201526064016109be565b6132d286613d2e565b6132db866149f2565b60c08601516040516331a9108f60e11b8152600481018590526001600160a01b03868116921690636352211e90602401602060405180830381865afa158015613328573d6000803e3d6000fd5b505050506040513d601f19601f8201168201806040525081019061334c9190615958565b6001600160a01b03161461338a5760405162461bcd60e51b8152602060048201526005602482015264060606062760db1b60448201526064016109be565b61339681878787614a35565b6133a68660c00151848630614828565b60fd54610100870151610120880151604051634ef4c4b360e01b81526000936001600160a01b031692634ef4c4b3926133fe926004016001600160a01b039290921682526001600160801b0316602082015260400190565b6020604051808303816000875af115801561341d573d6000803e3d6000fd5b505050506040513d601f19601f820116820180604052508101906134419190615a66565b60fd54604051630d71cd3f60e31b81529192506001600160a01b031690636b8e69f89061347690899087908690600401615a7f565b600060405180830381600087803b15801561349057600080fd5b505af11580156134a4573d6000803e3d6000fd5b505060fd546101008a01516101208b0151604051634da6eb1f60e11b81526001600160a01b0392831660048201526001600160801b039091166024820152898216604482015291169250639b4dd63e9150606401600060405180830381600087803b15801561351257600080fd5b505af1158015613526573d6000803e3d6000fd5b50505050838760c001516001600160a01b03167fc736d53b49e7b578f549275a323c55e8adfdd972ad4453c1a3539365d4b5dc6f896040516135689190615af6565b60405180910390a350505050505050565b6000613585868661291b565b905061359033613b52565b61359981613c19565b81156135e05780546001600160a01b031633146135e05760405162461bcd60e51b8152602060048201526005602482015264060606064760db1b60448201526064016109be565b6135e981614147565b50508315613653576004810154600582015460038301546001600160801b03600160801b93849004811693600160601b90930481169261362f929081048216911661598b565b613639919061598b565b613643919061598b565b6001600160801b031692506136a7565b6004810154600160801b90046001600160801b0316831061369e5760405162461bcd60e51b8152602060048201526005602482015264303030323960d81b60448201526064016109be565b6136a781613cdc565b60028101546001600160a01b031673eeeeeeeeeeeeeeeeeeeeeeeeeeeeeeeeeeeeeeed190161371d57823410156137085760405162461bcd60e51b8152602060048201526005602482015264030303033360dc1b60448201526064016109be565b8234111561371d5761371d3334859003614be5565b6002810154600090613738906001600160a01b031685614cfe565b60fd546002840154604051630b42978d60e31b81526001600160a01b039182166004820152929350600092911690635a14bc6890602401602060405180830381865afa15801561378c573d6000803e3d6000fd5b505050506040513d601f19601f820116820180604052508101906137b09190615958565b90506137bf838284888a614e53565b85156138ab5782546137df908990899030906001600160a01b0316614828565b6001830154835460028501546040518a936001600160a01b038d811694918116937ff432908406606474e10a342092fba49bed7bc8aca92b93c0bef4fb3d12fe4a2e9361383493831692909116908c90615a7f565b60405180910390a46001600160a01b038816600090815260fb602090815260408083208a8452909152812080546001600160e81b0319168155600181018290556002810180546001600160c81b031916905560038101829055600481019190915560050180546001600160e01b0319169055613b48565b6002830154600160c01b900460ff161561394e5760028301805460ff60c01b191690556005830154600160601b90046001600160801b03161561394e5760058301546003840180546001600160801b03600160601b9093048316926000916139159185911661598b565b82546001600160801b039182166101009390930a928302919092021990911617905550600583018054600160601b600160e01b03191690555b6004830154600160801b90046001600160801b031661396c866146fb565b600485018054601090613990908490600160801b90046001600160801b0316615a3e565b92506101000a8154816001600160801b0302191690836001600160801b031602179055508360010160149054906101000a90046001600160601b03166001600160601b0316600014613a5d57600484015460018501546000918391613a1591600160801b90046001600160801b031690600160a01b90046001600160601b03166159b6565b6001600160801b0316613a2891906159e5565b9050613a3381614768565b8560010160146101000a8154816001600160601b0302191690836001600160601b03160217905550505b60058401546001600160601b031615613ae957600484015460058501546000918391613aa291600160801b90046001600160801b0316906001600160601b03166159b6565b6001600160801b0316613ab591906159e5565b9050613ac081614768565b6005860180546bffffffffffffffffffffffff19166001600160601b0392909216919091179055505b6001840154845460028601546040518b936001600160a01b038e811694918116937fe5adc8da3bae496256c5f0d73bbd9873ed6ea49da1f7adfaa7da434ab51d359193613b3e93831692909116908d90615a7f565b60405180910390a4505b5050505050505050565b60ff8054166129185760405163df592f7d60e01b81526001600160a01b03821660048201527340c57923924b5c5c5455c48d93317139addac8fb90600090829063df592f7d90602401602060405180830381865afa158015613bb8573d6000803e3d6000fd5b505050506040513d601f19601f82011682018060405250810190613bdc9190615be4565b90508015613c145760405162461bcd60e51b8152602060048201526005602482015264303030313760d81b60448201526064016109be565b505050565b8054600160c01b900463ffffffff166000036129185760405162461bcd60e51b8152602060048201526005602482015264303030303760d81b60448201526064016109be565b81516001600160a01b03828116911614612a305760405162461bcd60e51b81526020600482015260056024820152640c0c0c0c8d60da1b60448201526064016109be565b8060a001516129185760405162461bcd60e51b8152602060048201526005602482015264181818189960d91b60448201526064016109be565b8054600160a01b900463ffffffff16613cf361433a565b63ffffffff16106129185760405162461bcd60e51b8152602060048201526005602482015264303030303960d81b60448201526064016109be565b613d3742614fa1565b63ffffffff16816040015163ffffffff16116129185760405162461bcd60e51b8152602060048201526005602482015264030303031360dc1b60448201526064016109be565b600482015460018301548354602084015160028601546001600160801b03909416936001600160601b03600160a01b94859004169363ffffffff93819004841693600093613dcf939092900416615a1f565b9050836001600160801b03168561012001516001600160801b0316118015613e0e5750826001600160601b03168561014001516001600160601b031611155b8015613e2657508163ffffffff168163ffffffff1610155b15613e3357505050505050565b836001600160801b03168561012001516001600160801b031610158015613e705750826001600160601b03168561014001516001600160601b0316105b8015613e8857508163ffffffff168163ffffffff1610155b15613e9557505050505050565b836001600160801b03168561012001516001600160801b031610158015613ed35750826001600160601b03168561014001516001600160601b031611155b8015613eea57508163ffffffff168163ffffffff16115b15613ef757505050505050565b60405162461bcd60e51b8152602060048201526005602482015264303030323560d81b60448201526064016109be565b8054600160e01b900460ff16156129185760405162461bcd60e51b8152602060048201526005602482015264303030313560d81b60448201526064016109be565b806001600160a01b0316826001600160a01b031614612a305760405162461bcd60e51b8152602060048201526005602482015264303030313960d81b60448201526064016109be565b600080613fbd83612942565b5060fe54600485015491925060009161271091613ff691600160c01b90910461ffff1690600160801b90046001600160801b03166159b6565b6001600160801b031661400991906159e5565b9050818111156140255761401d8282615adf565b949350505050565b5060009392505050565b60028401548454600091829161405a9163ffffffff600160a01b918290048116929190910416615ac2565b600487015463ffffffff9190911691506000906001600160801b03166127106140838289615a3e565b6001600160801b03166140969190615aa3565b6140a091906159e5565b6001880154909150600090600160a01b90046001600160601b03166127106140c88883615c01565b6001600160601b03166140db9190615aa3565b6140e591906159e5565b90506000836127106140fd8263ffffffff8a16615adf565b6141079190615aa3565b61411191906159e5565b90506000816141208486615a07565b61412a9190615a07565b60fe54600160e01b900461ffff16109a9950505050505050505050565b60008061415383612942565b60028501549193509150600160c01b900460ff1615156001036141c657614179826146fb565b600584018054600c9061419d908490600160601b90046001600160801b031661598b565b92506101000a8154816001600160801b0302191690836001600160801b03160217905550614211565b6141cf826146fb565b6003840180546000906141ec9084906001600160801b031661598b565b92506101000a8154816001600160801b0302191690836001600160801b031602179055505b61421a816146fb565b60038401805460109061423e908490600160801b90046001600160801b031661598b565b92506101000a8154816001600160801b0302191690836001600160801b0316021790555061426a61433a565b835463ffffffff91909116600160c01b0263ffffffff60c01b199091161790925591565b60fd546040516360275cbf60e11b81526001600160a01b03858116600483015284811660248301528392169063c04eb97e90604401602060405180830381865afa1580156142e0573d6000803e3d6000fd5b505050506040513d601f19601f820116820180604052508101906143049190615a66565b1015613c145760405162461bcd60e51b8152602060048201526005602482015264303030303160d81b60448201526064016109be565b600061434542614fa1565b905090565b60655460ff166143935760405162461bcd60e51b815260206004820152601460248201527314185d5cd8589b194e881b9bdd081c185d5cd95960621b60448201526064016109be565b6065805460ff191690557f5db9ee0a495bf2e6ff9c91a7834c1ba4fdd244a5e8aa4e537bd38aeae4b073aa335b6040516001600160a01b03909116815260200160405180910390a1565b60fe546001600160a01b031633146119895760405162461bcd60e51b8152602060048201526005602482015264303030333160d81b60448201526064016109be565b81546001600160a01b03828116911614612a305760405162461bcd60e51b8152602060048201526005602482015264303030323160d81b60448201526064016109be565b6002830154600090600160c01b900460ff16156146f35760028401805460ff60c01b1916905560fd5460018501546040516360275cbf60e11b81526001600160a01b0391821660048201528482166024820152600092919091169063c04eb97e90604401602060405180830381865afa1580156144e4573d6000803e3d6000fd5b505050506040513d601f19601f820116820180604052508101906145089190615a66565b60fd5460028701546040516305ab14fb60e11b81526001600160a01b03918216600482015260248101889052929350600092911690630b5629f6906044016020604051808303816000875af1158015614565573d6000803e3d6000fd5b505050506040513d601f19601f820116820180604052508101906145899190615a66565b9050808210156146705760fd5460405163140ba95f60e11b81526001600160a01b038681166004830152602482018590529091169063281752be906044016020604051808303816000875af11580156145e6573d6000803e3d6000fd5b505050506040513d601f19601f8201168201806040525081019061460a9190615a66565b600587018054600160601b600160e01b0319169055945061462a856146fb565b60048701546146499190600160801b90046001600160801b031661598b565b6004870180546001600160801b0319166001600160801b03929092169190911790556146f0565b6005860154600160601b90046001600160801b0316156146f05760058601546003870180546001600160801b03600160601b9093048316926000916146b79185911661598b565b82546001600160801b039182166101009390930a928302919092021990911617905550600586018054600160601b600160e01b03191690555b50505b509092915050565b60006001600160801b038211156147645760405162461bcd60e51b815260206004820152602760248201527f53616665436173743a2076616c756520646f65736e27742066697420696e20316044820152663238206269747360c81b60648201526084016109be565b5090565b60006001600160601b038211156147645760405162461bcd60e51b815260206004820152602660248201527f53616665436173743a2076616c756520646f65736e27742066697420696e203960448201526536206269747360d01b60648201526084016109be565b60655460ff16156147f35760405162461bcd60e51b81526004016109be906157c5565b6065805460ff191660011790557f62e78cea01bee320cd4e420270b5ea74000d11b0c9f74754ebdbfc544b05a2586143c03390565b604051632142170760e11b81526001600160a01b038516906342842e0e9061485890859085908890600401615a7f565b600060405180830381600087803b15801561487257600080fd5b505af1158015613b48573d6000803e3d6000fd5b60008054610100900460ff16156148cd578160ff1660011480156148a95750303b155b6148c55760405162461bcd60e51b81526004016109be90615c21565b506000919050565b60005460ff8084169116106148f45760405162461bcd60e51b81526004016109be90615c21565b506000805460ff191660ff92909216919091179055600190565b919050565b600054610100900460ff1661493a5760405162461bcd60e51b81526004016109be90615c6f565b611989615006565b600054610100900460ff166149695760405162461bcd60e51b81526004016109be90615c6f565b611989615036565b600054610100900460ff166149985760405162461bcd60e51b81526004016109be90615c6f565b611989615069565b603380546001600160a01b038381166001600160a01b0319831681179093556040519116919082907f8be0079c531659141344cd1fd0a4f28419497f9722a3daafe3b4186f6b6457e090600090a35050565b6001816020015163ffffffff1610156129185760405162461bcd60e51b8152602060048201526005602482015264303030313160d81b60448201526064016109be565b83546001600160a01b03199081166001600160a01b03838116919091178655600186018054831685831617905561010085015160028701805490931691161790556101208301516004850180546001600160801b0319166001600160801b039092169190911790556020830151614aaa61433a565b614ab49190615a1f565b845463ffffffff91909116600160a01b0263ffffffff60a01b19909116178455614adc61433a565b8460020160146101000a81548163ffffffff021916908363ffffffff160217905550614b0661433a565b84546101208501516004870180546001600160801b03928316600160801b81029390911692909217905560608601511515600160e01b0260ff60e01b1963ffffffff948516600160c01b021664ffffffffff60c01b199093169290921791909117865560028601805460ff60c01b19169055600060038701556101408501516001870180546001600160601b03909216600160a01b026001600160a01b039092169190911790556020850151614bbc9216612842565b600590940180546001600160e01b0319166001600160601b039590951694909417909355505050565b80471015614c355760405162461bcd60e51b815260206004820152601d60248201527f416464726573733a20696e73756666696369656e742062616c616e636500000060448201526064016109be565b6000826001600160a01b03168260405160006040518083038185875af1925050503d8060008114614c82576040519150601f19603f3d011682016040523d82523d6000602084013e614c87565b606091505b5050905080613c145760405162461bcd60e51b815260206004820152603a60248201527f416464726573733a20756e61626c6520746f2073656e642076616c75652c207260448201527f6563697069656e74206d6179206861766520726576657274656400000000000060648201526084016109be565b600073eeeeeeeeeeeeeeeeeeeeeeeeeeeeeeeeeeeeeeed196001600160a01b03841601614da65760fd60009054906101000a90046001600160a01b03166001600160a01b031663d4719b4e836040518263ffffffff1660e01b815260040160206040518083038185885af1158015614d7a573d6000803e3d6000fd5b50505050506040513d601f19601f82011682018060405250810190614d9f9190615a66565b905061096e565b3415614ddc5760405162461bcd60e51b8152602060048201526005602482015264303030323360d81b60448201526064016109be565b60fd5460405163db1fb77f60e01b81526001600160a01b039091169063db1fb77f90614e1090339087908790600401615a7f565b6020604051808303816000875af1158015614e2f573d6000803e3d6000fd5b505050506040513d601f19601f82011682018060405250810190614d9f9190615a66565b82818015614e7457506003860154600160801b90046001600160801b031615155b15614f2d5760038601546000908490614e9d90600160801b90046001600160801b031687615aa3565b614ea791906159e5565b9050614eb38183615adf565b60fd549092506001600160a01b031663301515ba614ed96033546001600160a01b031690565b88846040518463ffffffff1660e01b8152600401614ef993929190615a7f565b600060405180830381600087803b158015614f1357600080fd5b505af1158015614f27573d6000803e3d6000fd5b50505050505b60fd54600187015460405163180a8add60e11b81526001600160a01b039283169263301515ba92614f679291169089908690600401615a7f565b600060405180830381600087803b158015614f8157600080fd5b505af1158015614f95573d6000803e3d6000fd5b50505050505050505050565b600063ffffffff8211156147645760405162461bcd60e51b815260206004820152602660248201527f53616665436173743a2076616c756520646f65736e27742066697420696e203360448201526532206269747360d01b60648201526084016109be565b600054610100900460ff1661502d5760405162461bcd60e51b81526004016109be90615c6f565b611989336149a0565b600054610100900460ff1661505d5760405162461bcd60e51b81526004016109be90615c6f565b6065805460ff19169055565b600054610100900460ff166150905760405162461bcd60e51b81526004016109be90615c6f565b6001609755565b6001600160a01b038116811461291857600080fd5b803561490e81615097565b600080604083850312156150ca57600080fd5b82356150d581615097565b946020939093013593505050565b81516001600160a01b031681526101e08101602083015161510c602084018263ffffffff169052565b506040830151615124604084018263ffffffff169052565b506060830151615138606084018215159052565b50608083015161515360808401826001600160a01b03169052565b5060a083015161516e60a08401826001600160601b03169052565b5060c083015161518960c08401826001600160a01b03169052565b5060e08301516151a160e084018263ffffffff169052565b5061010083810151151590830152610120808401516001600160801b03908116918401919091526101408085015182169084015261016080850151821690840152610180808501518216908401526101a0808501516001600160601b0316908401526101c08085015191821681850152905b505092915050565b60006020828403121561522d57600080fd5b813561ffff8116811461226b57600080fd5b801515811461291857600080fd5b803561490e8161523f565b63ffffffff8116811461291857600080fd5b803561490e81615258565b600080600080600060a0868803121561528d57600080fd5b853561529881615097565b94506020860135935060408601356152af8161523f565b92506060860135915060808601356152c681615258565b809150509295509295909350565b634e487b7160e01b600052604160045260246000fd5b604051610160810167ffffffffffffffff8111828210171561530e5761530e6152d4565b60405290565b604051601f8201601f1916810167ffffffffffffffff8111828210171561533d5761533d6152d4565b604052919050565b6000806000806080858703121561535b57600080fd5b843561536681615097565b935060208581013561537781615097565b935060408601359250606086013567ffffffffffffffff8082111561539b57600080fd5b818801915088601f8301126153af57600080fd5b8135818111156153c1576153c16152d4565b6153d3601f8201601f19168501615314565b915080825289848285010111156153e957600080fd5b808484018584013760008482840101525080935050505092959194509250565b6000806000806080858703121561541f57600080fd5b843561542a81615097565b9350602085013592506040850135915060608501356154488161523f565b939692955090935050565b60008060006060848603121561546857600080fd5b833561547381615097565b925060208401359150604084013561548a81615258565b809150509250925092565b6001600160801b038116811461291857600080fd5b803561490e81615495565b6001600160601b038116811461291857600080fd5b803561490e816154b5565b600061016082840312156154e857600080fd5b6154f06152ea565b90506154fb826150ac565b81526155096020830161526a565b602082015261551a6040830161526a565b604082015261552b6060830161524d565b606082015261553c6080830161524d565b608082015261554d60a0830161524d565b60a082015261555e60c083016150ac565b60c082015260e082013560e082015261010061557b8184016150ac565b9082015261012061558d8382016154aa565b9082015261014061559f8382016154ca565b9082015292915050565b60008061018083850312156155bd57600080fd5b6155c784846154d5565b91506101608301356155d881615258565b809150509250929050565b6000806000606084860312156155f857600080fd5b833561560381615097565b95602085013595506040909401359392505050565b6000806000806101c0858703121561562f57600080fd5b61563986866154d5565b9350610160850135925061018085013561565281615097565b91506101a085013561544881615258565b6000806000806101c0858703121561567a57600080fd5b61568486866154d5565b935061016085013561569581615097565b92506101808501356156a681615097565b939692955092936101a00135925050565b6000806000606084860312156156cc57600080fd5b83356156d781615097565b925060208401356156e781615097565b9150604084013561548a81615097565b600080600080600060a0868803121561570f57600080fd5b853561571a81615097565b945060208601359350604086013561573181615495565b92506060860135615741816154b5565b915060808601356152c681615258565b6000806040838503121561576457600080fd5b50508035926020909101359150565b60006020828403121561578557600080fd5b813561226b81615097565b6020808252818101527f4f776e61626c653a2063616c6c6572206973206e6f7420746865206f776e6572604082015260600190565b60208082526010908201526f14185d5cd8589b194e881c185d5cd95960821b604082015260600190565b6020808252601f908201527f5265656e7472616e637947756172643a207265656e7472616e742063616c6c00604082015260600190565b6001600160a01b03949094168452602084019290925260408301521515606082015260800190565b805161490e81615097565b805161490e81615258565b805161490e8161523f565b805161490e81615495565b805161490e816154b5565b6000610160828403121561589857600080fd5b6158a06152ea565b6158a98361584e565b81526158b760208401615859565b60208201526158c860408401615859565b60408201526158d960608401615864565b60608201526158ea60808401615864565b60808201526158fb60a08401615864565b60a082015261590c60c0840161584e565b60c082015260e083015160e082015261010061592981850161584e565b9082015261012061593b84820161586f565b9082015261014061594d84820161587a565b908201529392505050565b60006020828403121561596a57600080fd5b815161226b81615097565b634e487b7160e01b600052601160045260246000fd5b60006001600160801b038083168185168083038211156159ad576159ad615975565b01949350505050565b60006001600160801b03808316818516818304811182151516156159dc576159dc615975565b02949350505050565b600082615a0257634e487b7160e01b600052601260045260246000fd5b500490565b60008219821115615a1a57615a1a615975565b500190565b600063ffffffff8083168185168083038211156159ad576159ad615975565b60006001600160801b0383811690831681811015615a5e57615a5e615975565b039392505050565b600060208284031215615a7857600080fd5b5051919050565b6001600160a01b039384168152919092166020820152604081019190915260600190565b6000816000190483118215151615615abd57615abd615975565b500290565b600063ffffffff83811690831681811015615a5e57615a5e615975565b600082821015615af157615af1615975565b500390565b81516001600160a01b0316815261016081016020830151615b1f602084018263ffffffff169052565b506040830151615b37604084018263ffffffff169052565b506060830151615b4b606084018215159052565b506080830151615b5f608084018215159052565b5060a0830151615b7360a084018215159052565b5060c0830151615b8e60c08401826001600160a01b03169052565b5060e083015160e083015261010080840151615bb4828501826001600160a01b03169052565b5050610120838101516001600160801b031690830152610140808401516001600160601b03811682850152615213565b600060208284031215615bf657600080fd5b815161226b8161523f565b60006001600160601b0383811690831681811015615a5e57615a5e615975565b6020808252602e908201527f496e697469616c697a61626c653a20636f6e747261637420697320616c72656160408201526d191e481a5b9a5d1a585b1a5e995960921b606082015260800190565b6020808252602b908201527f496e697469616c697a61626c653a20636f6e7472616374206973206e6f74206960408201526a6e697469616c697a696e6760a81b60608201526080019056fea2646970667358221220e81902dd87da355c2b9cc27f3c7ef1bb50a4702efc49c2b349e62e7ab647120364736f6c634300080d0033",
  "linkReferences": {},
  "deployedLinkReferences": {}
}