{
  "_format": "hh-sol-artifact-1",
  "contractName": "NiftyApesOffers",
  "sourceName": "contracts/Offers.sol",
  "abi": [
    {
      "anonymous": false,
      "inputs": [
        {
          "indexed": false,
          "internalType": "uint8",
          "name": "version",
          "type": "uint8"
        }
      ],
      "name": "Initialized",
      "type": "event"
    },
    {
      "anonymous": false,
      "inputs": [
        {
          "indexed": true,
          "internalType": "address",
          "name": "creator",
          "type": "address"
        },
        {
          "indexed": true,
          "internalType": "address",
          "name": "nftContractAddress",
          "type": "address"
        },
        {
          "indexed": true,
          "internalType": "uint256",
          "name": "nftId",
          "type": "uint256"
        },
        {
          "components": [
            {
              "internalType": "address",
              "name": "creator",
              "type": "address"
            },
            {
              "internalType": "uint32",
              "name": "duration",
              "type": "uint32"
            },
            {
              "internalType": "uint32",
              "name": "expiration",
              "type": "uint32"
            },
            {
              "internalType": "bool",
              "name": "fixedTerms",
              "type": "bool"
            },
            {
              "internalType": "bool",
              "name": "floorTerm",
              "type": "bool"
            },
            {
              "internalType": "bool",
              "name": "lenderOffer",
              "type": "bool"
            },
            {
              "internalType": "address",
              "name": "nftContractAddress",
              "type": "address"
            },
            {
              "internalType": "uint256",
              "name": "nftId",
              "type": "uint256"
            },
            {
              "internalType": "address",
              "name": "asset",
              "type": "address"
            },
            {
              "internalType": "uint128",
              "name": "amount",
              "type": "uint128"
            },
            {
              "internalType": "uint96",
              "name": "interestRatePerSecond",
              "type": "uint96"
            },
            {
              "internalType": "uint64",
              "name": "floorTermLimit",
              "type": "uint64"
            }
          ],
          "indexed": false,
          "internalType": "struct IOffersStructs.Offer",
          "name": "offer",
          "type": "tuple"
        },
        {
          "indexed": false,
          "internalType": "bytes32",
          "name": "offerHash",
          "type": "bytes32"
        }
      ],
      "name": "NewOffer",
      "type": "event"
    },
    {
      "anonymous": false,
      "inputs": [
        {
          "indexed": true,
          "internalType": "address",
          "name": "creator",
          "type": "address"
        },
        {
          "indexed": true,
          "internalType": "address",
          "name": "nftContractAddress",
          "type": "address"
        },
        {
          "indexed": true,
          "internalType": "uint256",
          "name": "nftId",
          "type": "uint256"
        },
        {
          "components": [
            {
              "internalType": "address",
              "name": "creator",
              "type": "address"
            },
            {
              "internalType": "uint32",
              "name": "duration",
              "type": "uint32"
            },
            {
              "internalType": "uint32",
              "name": "expiration",
              "type": "uint32"
            },
            {
              "internalType": "bool",
              "name": "fixedTerms",
              "type": "bool"
            },
            {
              "internalType": "bool",
              "name": "floorTerm",
              "type": "bool"
            },
            {
              "internalType": "bool",
              "name": "lenderOffer",
              "type": "bool"
            },
            {
              "internalType": "address",
              "name": "nftContractAddress",
              "type": "address"
            },
            {
              "internalType": "uint256",
              "name": "nftId",
              "type": "uint256"
            },
            {
              "internalType": "address",
              "name": "asset",
              "type": "address"
            },
            {
              "internalType": "uint128",
              "name": "amount",
              "type": "uint128"
            },
            {
              "internalType": "uint96",
              "name": "interestRatePerSecond",
              "type": "uint96"
            },
            {
              "internalType": "uint64",
              "name": "floorTermLimit",
              "type": "uint64"
            }
          ],
          "indexed": false,
          "internalType": "struct IOffersStructs.Offer",
          "name": "offer",
          "type": "tuple"
        },
        {
          "indexed": false,
          "internalType": "bytes32",
          "name": "offerHash",
          "type": "bytes32"
        }
      ],
      "name": "OfferRemoved",
      "type": "event"
    },
    {
      "anonymous": false,
      "inputs": [
        {
          "indexed": true,
          "internalType": "address",
          "name": "nftContractAddress",
          "type": "address"
        },
        {
          "indexed": true,
          "internalType": "uint256",
          "name": "nftId",
          "type": "uint256"
        },
        {
          "components": [
            {
              "internalType": "address",
              "name": "creator",
              "type": "address"
            },
            {
              "internalType": "uint32",
              "name": "duration",
              "type": "uint32"
            },
            {
              "internalType": "uint32",
              "name": "expiration",
              "type": "uint32"
            },
            {
              "internalType": "bool",
              "name": "fixedTerms",
              "type": "bool"
            },
            {
              "internalType": "bool",
              "name": "floorTerm",
              "type": "bool"
            },
            {
              "internalType": "bool",
              "name": "lenderOffer",
              "type": "bool"
            },
            {
              "internalType": "address",
              "name": "nftContractAddress",
              "type": "address"
            },
            {
              "internalType": "uint256",
              "name": "nftId",
              "type": "uint256"
            },
            {
              "internalType": "address",
              "name": "asset",
              "type": "address"
            },
            {
              "internalType": "uint128",
              "name": "amount",
              "type": "uint128"
            },
            {
              "internalType": "uint96",
              "name": "interestRatePerSecond",
              "type": "uint96"
            },
            {
              "internalType": "uint64",
              "name": "floorTermLimit",
              "type": "uint64"
            }
          ],
          "indexed": false,
          "internalType": "struct IOffersStructs.Offer",
          "name": "offer",
          "type": "tuple"
        },
        {
          "indexed": false,
          "internalType": "bytes",
          "name": "signature",
          "type": "bytes"
        }
      ],
      "name": "OfferSignatureUsed",
      "type": "event"
    },
    {
      "anonymous": false,
      "inputs": [
        {
          "indexed": false,
          "internalType": "address",
          "name": "oldLendingContractAddress",
          "type": "address"
        },
        {
          "indexed": false,
          "internalType": "address",
          "name": "newLendingContractAddress",
          "type": "address"
        }
      ],
      "name": "OffersXLendingContractAddressUpdated",
      "type": "event"
    },
    {
      "anonymous": false,
      "inputs": [
        {
          "indexed": false,
          "internalType": "address",
          "name": "oldSigLendingContractAddress",
          "type": "address"
        },
        {
          "indexed": false,
          "internalType": "address",
          "name": "newSigLendingContractAddress",
          "type": "address"
        }
      ],
      "name": "OffersXSigLendingContractAddressUpdated",
      "type": "event"
    },
    {
      "anonymous": false,
      "inputs": [
        {
          "indexed": true,
          "internalType": "address",
          "name": "previousOwner",
          "type": "address"
        },
        {
          "indexed": true,
          "internalType": "address",
          "name": "newOwner",
          "type": "address"
        }
      ],
      "name": "OwnershipTransferred",
      "type": "event"
    },
    {
      "anonymous": false,
      "inputs": [
        {
          "indexed": false,
          "internalType": "address",
          "name": "account",
          "type": "address"
        }
      ],
      "name": "Paused",
      "type": "event"
    },
    {
      "anonymous": false,
      "inputs": [
        {
          "indexed": false,
          "internalType": "address",
          "name": "account",
          "type": "address"
        }
      ],
      "name": "Unpaused",
      "type": "event"
    },
    {
      "inputs": [
        {
          "components": [
            {
              "internalType": "address",
              "name": "creator",
              "type": "address"
            },
            {
              "internalType": "uint32",
              "name": "duration",
              "type": "uint32"
            },
            {
              "internalType": "uint32",
              "name": "expiration",
              "type": "uint32"
            },
            {
              "internalType": "bool",
              "name": "fixedTerms",
              "type": "bool"
            },
            {
              "internalType": "bool",
              "name": "floorTerm",
              "type": "bool"
            },
            {
              "internalType": "bool",
              "name": "lenderOffer",
              "type": "bool"
            },
            {
              "internalType": "address",
              "name": "nftContractAddress",
              "type": "address"
            },
            {
              "internalType": "uint256",
              "name": "nftId",
              "type": "uint256"
            },
            {
              "internalType": "address",
              "name": "asset",
              "type": "address"
            },
            {
              "internalType": "uint128",
              "name": "amount",
              "type": "uint128"
            },
            {
              "internalType": "uint96",
              "name": "interestRatePerSecond",
              "type": "uint96"
            },
            {
              "internalType": "uint64",
              "name": "floorTermLimit",
              "type": "uint64"
            }
          ],
          "internalType": "struct IOffersStructs.Offer",
          "name": "offer",
          "type": "tuple"
        }
      ],
      "name": "createOffer",
      "outputs": [
        {
          "internalType": "bytes32",
          "name": "offerHash",
          "type": "bytes32"
        }
      ],
      "stateMutability": "nonpayable",
      "type": "function"
    },
    {
      "inputs": [],
      "name": "getBlockId",
      "outputs": [
        {
          "internalType": "uint256",
          "name": "",
          "type": "uint256"
        }
      ],
      "stateMutability": "view",
      "type": "function"
    },
    {
      "inputs": [],
      "name": "getChainId",
      "outputs": [
        {
          "internalType": "uint256",
          "name": "",
          "type": "uint256"
        }
      ],
      "stateMutability": "view",
      "type": "function"
    },
    {
      "inputs": [
        {
          "internalType": "bytes32",
          "name": "offerHash",
          "type": "bytes32"
        }
      ],
      "name": "getFloorOfferCount",
      "outputs": [
        {
          "internalType": "uint64",
          "name": "count",
          "type": "uint64"
        }
      ],
      "stateMutability": "view",
      "type": "function"
    },
    {
      "inputs": [
        {
          "internalType": "address",
          "name": "nftContractAddress",
          "type": "address"
        },
        {
          "internalType": "uint256",
          "name": "nftId",
          "type": "uint256"
        },
        {
          "internalType": "bytes32",
          "name": "offerHash",
          "type": "bytes32"
        },
        {
          "internalType": "bool",
          "name": "floorTerm",
          "type": "bool"
        }
      ],
      "name": "getOffer",
      "outputs": [
        {
          "components": [
            {
              "internalType": "address",
              "name": "creator",
              "type": "address"
            },
            {
              "internalType": "uint32",
              "name": "duration",
              "type": "uint32"
            },
            {
              "internalType": "uint32",
              "name": "expiration",
              "type": "uint32"
            },
            {
              "internalType": "bool",
              "name": "fixedTerms",
              "type": "bool"
            },
            {
              "internalType": "bool",
              "name": "floorTerm",
              "type": "bool"
            },
            {
              "internalType": "bool",
              "name": "lenderOffer",
              "type": "bool"
            },
            {
              "internalType": "address",
              "name": "nftContractAddress",
              "type": "address"
            },
            {
              "internalType": "uint256",
              "name": "nftId",
              "type": "uint256"
            },
            {
              "internalType": "address",
              "name": "asset",
              "type": "address"
            },
            {
              "internalType": "uint128",
              "name": "amount",
              "type": "uint128"
            },
            {
              "internalType": "uint96",
              "name": "interestRatePerSecond",
              "type": "uint96"
            },
            {
              "internalType": "uint64",
              "name": "floorTermLimit",
              "type": "uint64"
            }
          ],
          "internalType": "struct IOffersStructs.Offer",
          "name": "",
          "type": "tuple"
        }
      ],
      "stateMutability": "view",
      "type": "function"
    },
    {
      "inputs": [
        {
          "components": [
            {
              "internalType": "address",
              "name": "creator",
              "type": "address"
            },
            {
              "internalType": "uint32",
              "name": "duration",
              "type": "uint32"
            },
            {
              "internalType": "uint32",
              "name": "expiration",
              "type": "uint32"
            },
            {
              "internalType": "bool",
              "name": "fixedTerms",
              "type": "bool"
            },
            {
              "internalType": "bool",
              "name": "floorTerm",
              "type": "bool"
            },
            {
              "internalType": "bool",
              "name": "lenderOffer",
              "type": "bool"
            },
            {
              "internalType": "address",
              "name": "nftContractAddress",
              "type": "address"
            },
            {
              "internalType": "uint256",
              "name": "nftId",
              "type": "uint256"
            },
            {
              "internalType": "address",
              "name": "asset",
              "type": "address"
            },
            {
              "internalType": "uint128",
              "name": "amount",
              "type": "uint128"
            },
            {
              "internalType": "uint96",
              "name": "interestRatePerSecond",
              "type": "uint96"
            },
            {
              "internalType": "uint64",
              "name": "floorTermLimit",
              "type": "uint64"
            }
          ],
          "internalType": "struct IOffersStructs.Offer",
          "name": "offer",
          "type": "tuple"
        }
      ],
      "name": "getOfferHash",
      "outputs": [
        {
          "internalType": "bytes32",
          "name": "",
          "type": "bytes32"
        }
      ],
      "stateMutability": "view",
      "type": "function"
    },
    {
      "inputs": [
        {
          "internalType": "bytes",
          "name": "signature",
          "type": "bytes"
        }
      ],
      "name": "getOfferSignatureStatus",
      "outputs": [
        {
          "internalType": "bool",
          "name": "",
          "type": "bool"
        }
      ],
      "stateMutability": "view",
      "type": "function"
    },
    {
      "inputs": [
        {
          "components": [
            {
              "internalType": "address",
              "name": "creator",
              "type": "address"
            },
            {
              "internalType": "uint32",
              "name": "duration",
              "type": "uint32"
            },
            {
              "internalType": "uint32",
              "name": "expiration",
              "type": "uint32"
            },
            {
              "internalType": "bool",
              "name": "fixedTerms",
              "type": "bool"
            },
            {
              "internalType": "bool",
              "name": "floorTerm",
              "type": "bool"
            },
            {
              "internalType": "bool",
              "name": "lenderOffer",
              "type": "bool"
            },
            {
              "internalType": "address",
              "name": "nftContractAddress",
              "type": "address"
            },
            {
              "internalType": "uint256",
              "name": "nftId",
              "type": "uint256"
            },
            {
              "internalType": "address",
              "name": "asset",
              "type": "address"
            },
            {
              "internalType": "uint128",
              "name": "amount",
              "type": "uint128"
            },
            {
              "internalType": "uint96",
              "name": "interestRatePerSecond",
              "type": "uint96"
            },
            {
              "internalType": "uint64",
              "name": "floorTermLimit",
              "type": "uint64"
            }
          ],
          "internalType": "struct IOffersStructs.Offer",
          "name": "offer",
          "type": "tuple"
        },
        {
          "internalType": "bytes",
          "name": "signature",
          "type": "bytes"
        }
      ],
      "name": "getOfferSigner",
      "outputs": [
        {
          "internalType": "address",
          "name": "",
          "type": "address"
        }
      ],
      "stateMutability": "view",
      "type": "function"
    },
    {
      "inputs": [
        {
          "internalType": "bytes",
          "name": "signature",
          "type": "bytes"
        }
      ],
      "name": "getSigFloorOfferCount",
      "outputs": [
        {
          "internalType": "uint64",
          "name": "count",
          "type": "uint64"
        }
      ],
      "stateMutability": "view",
      "type": "function"
    },
    {
      "inputs": [
        {
          "internalType": "bytes32",
          "name": "offerHash",
          "type": "bytes32"
        }
      ],
      "name": "incrementFloorOfferCount",
      "outputs": [],
      "stateMutability": "nonpayable",
      "type": "function"
    },
    {
      "inputs": [
        {
          "internalType": "bytes",
          "name": "signature",
          "type": "bytes"
        }
      ],
      "name": "incrementSigFloorOfferCount",
      "outputs": [],
      "stateMutability": "nonpayable",
      "type": "function"
    },
    {
      "inputs": [
        {
          "internalType": "address",
          "name": "newliquidityContractAddress",
          "type": "address"
        }
      ],
      "name": "initialize",
      "outputs": [],
      "stateMutability": "nonpayable",
      "type": "function"
    },
    {
      "inputs": [],
      "name": "lendingContractAddress",
      "outputs": [
        {
          "internalType": "address",
          "name": "",
          "type": "address"
        }
      ],
      "stateMutability": "view",
      "type": "function"
    },
    {
      "inputs": [],
      "name": "liquidityContractAddress",
      "outputs": [
        {
          "internalType": "address",
          "name": "",
          "type": "address"
        }
      ],
      "stateMutability": "view",
      "type": "function"
    },
    {
      "inputs": [
        {
          "components": [
            {
              "internalType": "address",
              "name": "creator",
              "type": "address"
            },
            {
              "internalType": "uint32",
              "name": "duration",
              "type": "uint32"
            },
            {
              "internalType": "uint32",
              "name": "expiration",
              "type": "uint32"
            },
            {
              "internalType": "bool",
              "name": "fixedTerms",
              "type": "bool"
            },
            {
              "internalType": "bool",
              "name": "floorTerm",
              "type": "bool"
            },
            {
              "internalType": "bool",
              "name": "lenderOffer",
              "type": "bool"
            },
            {
              "internalType": "address",
              "name": "nftContractAddress",
              "type": "address"
            },
            {
              "internalType": "uint256",
              "name": "nftId",
              "type": "uint256"
            },
            {
              "internalType": "address",
              "name": "asset",
              "type": "address"
            },
            {
              "internalType": "uint128",
              "name": "amount",
              "type": "uint128"
            },
            {
              "internalType": "uint96",
              "name": "interestRatePerSecond",
              "type": "uint96"
            },
            {
              "internalType": "uint64",
              "name": "floorTermLimit",
              "type": "uint64"
            }
          ],
          "internalType": "struct IOffersStructs.Offer",
          "name": "offer",
          "type": "tuple"
        },
        {
          "internalType": "bytes",
          "name": "signature",
          "type": "bytes"
        }
      ],
      "name": "markSignatureUsed",
      "outputs": [],
      "stateMutability": "nonpayable",
      "type": "function"
    },
    {
      "inputs": [],
      "name": "owner",
      "outputs": [
        {
          "internalType": "address",
          "name": "",
          "type": "address"
        }
      ],
      "stateMutability": "view",
      "type": "function"
    },
    {
      "inputs": [],
      "name": "pause",
      "outputs": [],
      "stateMutability": "nonpayable",
      "type": "function"
    },
    {
      "inputs": [],
      "name": "paused",
      "outputs": [
        {
          "internalType": "bool",
          "name": "",
          "type": "bool"
        }
      ],
      "stateMutability": "view",
      "type": "function"
    },
    {
      "inputs": [
        {
          "internalType": "address",
          "name": "nftContractAddress",
          "type": "address"
        },
        {
          "internalType": "uint256",
          "name": "nftId",
          "type": "uint256"
        },
        {
          "internalType": "bytes32",
          "name": "offerHash",
          "type": "bytes32"
        },
        {
          "internalType": "bool",
          "name": "floorTerm",
          "type": "bool"
        }
      ],
      "name": "removeOffer",
      "outputs": [],
      "stateMutability": "nonpayable",
      "type": "function"
    },
    {
      "inputs": [],
      "name": "renounceOwnership",
      "outputs": [],
      "stateMutability": "nonpayable",
      "type": "function"
    },
    {
      "inputs": [
        {
          "internalType": "bytes",
          "name": "signature",
          "type": "bytes"
        }
      ],
      "name": "requireAvailableSignature",
      "outputs": [],
      "stateMutability": "view",
      "type": "function"
    },
    {
      "inputs": [
        {
          "components": [
            {
              "internalType": "address",
              "name": "creator",
              "type": "address"
            },
            {
              "internalType": "uint32",
              "name": "duration",
              "type": "uint32"
            },
            {
              "internalType": "uint32",
              "name": "expiration",
              "type": "uint32"
            },
            {
              "internalType": "bool",
              "name": "fixedTerms",
              "type": "bool"
            },
            {
              "internalType": "bool",
              "name": "floorTerm",
              "type": "bool"
            },
            {
              "internalType": "bool",
              "name": "lenderOffer",
              "type": "bool"
            },
            {
              "internalType": "address",
              "name": "nftContractAddress",
              "type": "address"
            },
            {
              "internalType": "uint256",
              "name": "nftId",
              "type": "uint256"
            },
            {
              "internalType": "address",
              "name": "asset",
              "type": "address"
            },
            {
              "internalType": "uint128",
              "name": "amount",
              "type": "uint128"
            },
            {
              "internalType": "uint96",
              "name": "interestRatePerSecond",
              "type": "uint96"
            },
            {
              "internalType": "uint64",
              "name": "floorTermLimit",
              "type": "uint64"
            }
          ],
          "internalType": "struct IOffersStructs.Offer",
          "name": "offer",
          "type": "tuple"
        }
      ],
      "name": "requireMinimumDuration",
      "outputs": [],
      "stateMutability": "pure",
      "type": "function"
    },
    {
      "inputs": [
        {
          "components": [
            {
              "internalType": "address",
              "name": "creator",
              "type": "address"
            },
            {
              "internalType": "uint32",
              "name": "duration",
              "type": "uint32"
            },
            {
              "internalType": "uint32",
              "name": "expiration",
              "type": "uint32"
            },
            {
              "internalType": "bool",
              "name": "fixedTerms",
              "type": "bool"
            },
            {
              "internalType": "bool",
              "name": "floorTerm",
              "type": "bool"
            },
            {
              "internalType": "bool",
              "name": "lenderOffer",
              "type": "bool"
            },
            {
              "internalType": "address",
              "name": "nftContractAddress",
              "type": "address"
            },
            {
              "internalType": "uint256",
              "name": "nftId",
              "type": "uint256"
            },
            {
              "internalType": "address",
              "name": "asset",
              "type": "address"
            },
            {
              "internalType": "uint128",
              "name": "amount",
              "type": "uint128"
            },
            {
              "internalType": "uint96",
              "name": "interestRatePerSecond",
              "type": "uint96"
            },
            {
              "internalType": "uint64",
              "name": "floorTermLimit",
              "type": "uint64"
            }
          ],
          "internalType": "struct IOffersStructs.Offer",
          "name": "offer",
          "type": "tuple"
        }
      ],
      "name": "requireNoFloorTerms",
      "outputs": [],
      "stateMutability": "pure",
      "type": "function"
    },
    {
      "inputs": [
        {
          "internalType": "bytes",
          "name": "signature",
          "type": "bytes"
        }
      ],
      "name": "requireSignature65",
      "outputs": [],
      "stateMutability": "pure",
      "type": "function"
    },
    {
      "inputs": [],
      "name": "sigLendingContractAddress",
      "outputs": [
        {
          "internalType": "address",
          "name": "",
          "type": "address"
        }
      ],
      "stateMutability": "view",
      "type": "function"
    },
    {
      "inputs": [
        {
          "internalType": "address",
          "name": "newOwner",
          "type": "address"
        }
      ],
      "name": "transferOwnership",
      "outputs": [],
      "stateMutability": "nonpayable",
      "type": "function"
    },
    {
      "inputs": [],
      "name": "unpause",
      "outputs": [],
      "stateMutability": "nonpayable",
      "type": "function"
    },
    {
      "inputs": [
        {
          "internalType": "address",
          "name": "newLendingContractAddress",
          "type": "address"
        }
      ],
      "name": "updateLendingContractAddress",
      "outputs": [],
      "stateMutability": "nonpayable",
      "type": "function"
    },
    {
      "inputs": [
        {
          "internalType": "address",
          "name": "newSigLendingContractAddress",
          "type": "address"
        }
      ],
      "name": "updateSigLendingContractAddress",
      "outputs": [],
      "stateMutability": "nonpayable",
      "type": "function"
    },
    {
      "inputs": [
        {
          "components": [
            {
              "internalType": "address",
              "name": "creator",
              "type": "address"
            },
            {
              "internalType": "uint32",
              "name": "duration",
              "type": "uint32"
            },
            {
              "internalType": "uint32",
              "name": "expiration",
              "type": "uint32"
            },
            {
              "internalType": "bool",
              "name": "fixedTerms",
              "type": "bool"
            },
            {
              "internalType": "bool",
              "name": "floorTerm",
              "type": "bool"
            },
            {
              "internalType": "bool",
              "name": "lenderOffer",
              "type": "bool"
            },
            {
              "internalType": "address",
              "name": "nftContractAddress",
              "type": "address"
            },
            {
              "internalType": "uint256",
              "name": "nftId",
              "type": "uint256"
            },
            {
              "internalType": "address",
              "name": "asset",
              "type": "address"
            },
            {
              "internalType": "uint128",
              "name": "amount",
              "type": "uint128"
            },
            {
              "internalType": "uint96",
              "name": "interestRatePerSecond",
              "type": "uint96"
            },
            {
              "internalType": "uint64",
              "name": "floorTermLimit",
              "type": "uint64"
            }
          ],
          "internalType": "struct IOffersStructs.Offer",
          "name": "offer",
          "type": "tuple"
        },
        {
          "internalType": "bytes",
          "name": "signature",
          "type": "bytes"
        }
      ],
      "name": "withdrawOfferSignature",
      "outputs": [],
      "stateMutability": "nonpayable",
      "type": "function"
    }
  ],
  "bytecode": "0x608060405234801561001057600080fd5b50612f39806100206000396000f3fe608060405234801561001057600080fd5b50600436106101da5760003560e01c8063addbfc8311610104578063d61860d5116100a2578063f06bf5c011610071578063f06bf5c0146103e0578063f2fde38b14610409578063f745dbfa1461041c578063f8a63e3f1461042f57600080fd5b8063d61860d5146103a7578063d82bae98146103ba578063e6c8d754146103cd578063e76c0b571461024257600080fd5b8063c4d66de8116100de578063c4d66de814610343578063cb94385314610356578063cba1fcea14610381578063ce37145e1461039457600080fd5b8063addbfc83146102fd578063b0b91edb1461031d578063b74a612b1461033057600080fd5b80635c975abb1161017c57806380df77201161014b57806380df7720146102be5780638456cb59146102d15780638da5cb5b146102d95780638dbf0d8a146102ea57600080fd5b80635c975abb1461026d5780635cc9be4314610278578063715018a61461028b5780637379dbe61461029357600080fd5b80632dfb866c116101b85780632dfb866c1461022f5780633408e4701461024257806337ccb911146102525780633f4ba83a1461026557600080fd5b80631a70dbda146101df57806320c2aced1461020757806326d791bd1461021c575b600080fd5b6101f26101ed3660046126b1565b610442565b60405190151581526020015b60405180910390f35b61021a610215366004612854565b61046d565b005b61021a61022a366004612871565b6104ba565b61021a61023d366004612854565b61058b565b465b6040519081526020016101fe565b61021a610260366004612895565b6105c5565b61021a61062d565b60655460ff166101f2565b61021a6102863660046128e5565b610661565b61021a6106b8565b60d0546102a6906001600160a01b031681565b6040516001600160a01b0390911681526020016101fe565b6102a66102cc366004612895565b6106e2565b61021a6106ff565b6033546001600160a01b03166102a6565b61021a6102f83660046126b1565b610731565b61031061030b3660046128fe565b61076a565b6040516101fe9190612a45565b61021a61032b366004612871565b6108b4565b61024461033e366004612854565b610985565b61021a610351366004612871565b611078565b6103696103643660046126b1565b611160565b6040516001600160401b0390911681526020016101fe565b60d2546102a6906001600160a01b031681565b60d1546102a6906001600160a01b031681565b6102446103b5366004612854565b611191565b61021a6103c83660046126b1565b611512565b61021a6103db3660046128fe565b611554565b6103696103ee3660046128e5565b600090815260cd60205260409020546001600160401b031690565b61021a610417366004612871565b611669565b61021a61042a3660046126b1565b611701565b61021a61043d366004612895565b611759565b600060cf826040516104549190612a80565b9081526040519081900360200190205460ff1692915050565b62015180816020015163ffffffff1610156104b75760405162461bcd60e51b8152602060048201526005602482015264303030313160d81b60448201526064015b60405180910390fd5b50565b6033546001600160a01b031633146104e45760405162461bcd60e51b81526004016104ae90612a9c565b6001600160a01b0381166105225760405162461bcd60e51b8152602060048201526005602482015264303030333560d81b60448201526064016104ae565b60d054604080516001600160a01b03928316815291831660208301527f37a94c3b93d4581245e44c30004dd628362c429495a7b8b95fb1085abc05d0e2910160405180910390a160d080546001600160a01b0319166001600160a01b0392909216919091179055565b8060800151156104b75760405162461bcd60e51b81526020600482015260056024820152640c0c0c0c4d60da1b60448201526064016104ae565b60655460ff16156105e85760405162461bcd60e51b81526004016104ae90612ad1565b6105f181611701565b6105fa81610731565b600061060683836106e2565b905061061281336117a5565b825161061e90336117ee565b610628838361181f565b505050565b6033546001600160a01b031633146106575760405162461bcd60e51b81526004016104ae90612a9c565b61065f6118a6565b565b610669611939565b600081815260cd602052604081208054600192906106919084906001600160401b0316612b11565b92506101000a8154816001600160401b0302191690836001600160401b0316021790555050565b6033546001600160a01b0316331461065f5760405162461bcd60e51b81526004016104ae90612a9c565b60006106f66106f084610985565b83611963565b90505b92915050565b6033546001600160a01b031633146107295760405162461bcd60e51b81526004016104ae90612a9c565b61065f611a05565b80516041146104b75760405162461bcd60e51b8152602060048201526005602482015264303030303360d81b60448201526064016104ae565b6040805161018081018252600080825260208201819052918101829052606081018290526080810182905260a0810182905260c0810182905260e081018290526101008101829052610120810182905261014081018290526101608101919091526107d785858585611a5d565b604080516101808101825282546001600160a01b03808216835263ffffffff600160a01b830481166020850152600160c01b8304169383019390935260ff600160e01b8204811615156060840152600160e81b8204811615156080840152600160f01b90910416151560a08201526001830154821660c0820152600283015460e0820152600383015490911661010082015260048201546001600160801b0381166101208301526001600160601b03600160801b909104166101408201526005909101546001600160401b03166101608201529050949350505050565b6033546001600160a01b031633146108de5760405162461bcd60e51b81526004016104ae90612a9c565b6001600160a01b03811661091c5760405162461bcd60e51b8152602060048201526005602482015264303030333560d81b60448201526064016104ae565b60d154604080516001600160a01b03928316815291831660208301527ff68a1b67a65b6f163051a6e112e9cf9d0459f4a510ec5db5fe4b12aa52926770910160405180910390a160d180546001600160a01b0319166001600160a01b0392909216919091179055565b60006109b76040518060400160405280600e81526020016d030b2323932b9b9943a3434b994960951b81525030611a7e565b6109ea6040518060400160405280601281526020017117d91bdb585a5b94d95c185c985d1bdc958d60721b815250611ac3565b610a1b6109f5611b06565b604051602001610a0791815260200190565b604051602081830303815290604052611b86565b610a436040518060400160405280600781526020016618da185a5b9a5960ca1b815250611ac3565b610a4c46611bc9565b610a81604051806040016040528060148152602001734d4f535420494d504f5254414e5420434845434b60601b815250611ac3565b610aad6109f57fbd87ab8861a9a90b2f8eb0ec3c1e60e936cb4b2809d83378f7f1ac73ec286fd2611c0e565b610ae1604051806040016040528060138152602001720869e9ca8a48286a8409e8c8c8aa4409082a69606b1b815250611ac3565b610bae6109f57f428a8e8c29d93e1e11aecebd37fa09e4f7c542a1302c7ac497bf5f49662103a5846000015185602001518660400151876060015188608001518960a001518a60c001518b60e001518c61010001518d61012001518e61014001518f6101600151604051602001610b639c9b9a99989796959493929190612b3c565b60405160208183030381529060405280519060200120604051602001610b93929190918252602082015260400190565b60405160208183030381529060405280519060200120611c0e565b610be26040518060400160405280600e81526020016d037b33332b91731b932b0ba37b9160951b8152508360000151611a7e565b610c1d6040518060400160405280600f81526020016e037b33332b917323ab930ba34b7b71608d1b815250836020015163ffffffff16611c5c565b610c5a60405180604001604052806011815260200170037b33332b91732bc3834b930ba34b7b71607d1b815250836040015163ffffffff16611c5c565b610c9160405180604001604052806011815260200170037b33332b9173334bc32b22a32b936b99607d1b8152508360600151611ca1565b610cc76040518060400160405280601081526020016f037b33332b917333637b7b92a32b936960851b8152508360800151611ca1565b610cff60405180604001604052806012815260200171037b33332b9173632b73232b927b33332b9160751b8152508360a00151611ca1565b610d426040518060400160405280601981526020017f6f666665722e6e6674436f6e74726163744164647265737320000000000000008152508360c00151611a7e565b610d746040518060400160405280600c81526020016b037b33332b91737333a24b2160a51b8152508360e00151611c5c565b610da76040518060400160405280600c81526020016b037b33332b91730b9b9b2ba160a51b815250836101000151611a7e565b610de46040518060400160405280600d81526020016c037b33332b91730b6b7bab73a1609d1b8152508361012001516001600160801b0316611c5c565b610e316040518060400160405280601c81526020017f6f666665722e696e746572657374526174655065725365636f6e6420000000008152508361014001516001600160601b0316611c5c565b610e7660405180604001604052806015815260200174037b33332b917333637b7b92a32b936a634b6b4ba1605d1b8152508361016001516001600160401b0316611c5c565b610e97604051806060016040528060298152602001612edb60299139611ac3565b81516020808401516040808601516060870151608088015160a089015160c08a015160e08b01516101008c01516101208d01516101408e01516101608f01519951610f0c9d610eea9d909c9b9101612b3c565b60408051601f1981840301815282825280516020918201209083015201610a07565b610f4a6040518060400160405280601c81526020017f6b656363616b323536206f6620656e7469726520617267756d656e7400000000815250611ac3565b610ff97f428a8e8c29d93e1e11aecebd37fa09e4f7c542a1302c7ac497bf5f49662103a5836000015184602001518560400151866060015187608001518860a001518960c001518a60e001518b61010001518c61012001518d61014001518e6101600151604051602001610fc99c9b9a99989796959493929190612b3c565b60405160208183030381529060405280519060200120604051602001610eea929190918252602082015260400190565b6106f97f428a8e8c29d93e1e11aecebd37fa09e4f7c542a1302c7ac497bf5f49662103a5836000015184602001518560400151866060015187608001518860a001518960c001518a60e001518b61010001518c61012001518d61014001518e6101600151604051602001610b639c9b9a99989796959493929190612b3c565b60006110846001611ce6565b9050801561109c576000805461ff0019166101001790555b6110eb6040518060400160405280601081526020016f4e69667479417065735f4f666665727360801b81525060405180604001604052806005815260200164302e302e3160d81b815250611d73565b60d280546001600160a01b0319166001600160a01b03841617905561110e611da4565b611116611dd3565b801561115c576000805461ff0019169055604051600181527f7f26b83ff96e1f2b6a682f133852f6798a09c465da95921460cefb38474024989060200160405180910390a15b5050565b600060ce826040516111729190612a80565b908152604051908190036020019020546001600160401b031692915050565b600061119f60655460ff1690565b156111bc5760405162461bcd60e51b81526004016104ae90612ad1565b60d254610100830151604051630b42978d60e31b81526001600160a01b0391821660048201526000929190911690635a14bc6890602401602060405180830381865afa158015611210573d6000803e3d6000fd5b505050506040513d601f19601f820116820180604052508101906112349190612bde565b905061123f83611e02565b6112488361046d565b825161125490336117ee565b8260a001511561130c5760d2546101008401516101208501516040516305ab14fb60e11b81526000936001600160a01b031692630b5629f6926112b6926004016001600160a01b039290921682526001600160801b0316602082015260400190565b6020604051808303816000875af11580156112d5573d6000803e3d6000fd5b505050506040513d601f19601f820116820180604052508101906112f99190612bfb565b9050611306338383611e51565b50611328565b61131f8360c001518460e0015133611efd565b6113288361058b565b60006113418460c001518560e001518660800151611fa9565b905061134c84610985565b600081815260208390526040902054909350611370906001600160a01b0316611ff9565b6000838152602082815260409182902086518154928801518885015160608a015160808b015160a08c01516001600160a01b039586166001600160c01b03199098168817600160a01b63ffffffff968716021764ffffffffff60c01b1916600160c01b959094169490940260ff60e01b191692909217600160e01b911515919091021761ffff60e81b1916600160e81b9115159190910260ff60f01b191617600160f01b9115159190910217825560c08801516001830180546001600160a01b031990811692841692831790915560e08a0151600285018190556101008b015160038601805490931694169390931790556101208901516004840180546101408c01516001600160801b039093166001600160e01b031990911617600160801b6001600160601b03909316929092029190911790556101608901516005909301805467ffffffffffffffff19166001600160401b039094169390931790925592519091907fd588864ac37882fd41355269c8dd40ba950c22f41639532fbb2318dfb6f484d0906115039089908990612c14565b60405180910390a45050919050565b61151a612038565b600160ce8260405161152c9190612a80565b90815260405190819003602001902080546000906106919084906001600160401b0316612b11565b60655460ff16156115775760405162461bcd60e51b81526004016104ae90612ad1565b6000611584858584611fa9565b60008481526020829052604090208054919250906115ab906001600160a01b031633612062565b6001810154815460405187926001600160a01b039081169216907f2aa27686d8452478a7f8ca946f883815f979fe03eb7913fb27197843ae5043f6906115f49086908a90612c31565b60405180910390a4506000928352602052506040812080546001600160f81b03191681556001810180546001600160a01b031990811690915560028201929092556003810180549092169091556004810180546001600160e01b0319169055600501805467ffffffffffffffff191690555050565b6033546001600160a01b031633146116935760405162461bcd60e51b81526004016104ae90612a9c565b6001600160a01b0381166116f85760405162461bcd60e51b815260206004820152602660248201527f4f776e61626c653a206e6577206f776e657220697320746865207a65726f206160448201526564647265737360d01b60648201526084016104ae565b6104b7816120a5565b60cf816040516117119190612a80565b9081526040519081900360200190205460ff16156104b75760405162461bcd60e51b8152602060048201526005602482015264181818199960d91b60448201526064016104ae565b60d1546001600160a01b0316331461179b5760405162461bcd60e51b8152602060048201526005602482015264303030333160d81b60448201526064016104ae565b61115c828261181f565b806001600160a01b0316826001600160a01b03161461115c5760405162461bcd60e51b8152602060048201526005602482015264303030333360d81b60448201526064016104ae565b806001600160a01b0316826001600160a01b03161461115c5760405162461bcd60e51b81526004016104ae90612d1a565b600160cf826040516118319190612a80565b908152602001604051809103902060006101000a81548160ff0219169083151502179055508160e001518260c001516001600160a01b03167fe5bfeefeb2c1ed6ed5d881380ead98a193ef79323322f3a478067cb206ef24c8848460405161189a929190612d65565b60405180910390a35050565b60655460ff166118ef5760405162461bcd60e51b815260206004820152601460248201527314185d5cd8589b194e881b9bdd081c185d5cd95960621b60448201526064016104ae565b6065805460ff191690557f5db9ee0a495bf2e6ff9c91a7834c1ba4fdd244a5e8aa4e537bd38aeae4b073aa335b6040516001600160a01b03909116815260200160405180910390a1565b60d0546001600160a01b0316331461065f5760405162461bcd60e51b81526004016104ae90612d1a565b60006119926040518060400160405280600c81526020016b0e4cac6deeccae440d0c2e6d60a31b815250611ac3565b6119a883604051602001610a0791815260200190565b6119e66040518060400160405280601d81526020017f686173682e746f4574685369676e65644d657373616765486173682829000000815250611ac3565b6119f26109f5846120f7565b6106f6826119ff856120f7565b9061214a565b60655460ff1615611a285760405162461bcd60e51b81526004016104ae90612ad1565b6065805460ff191660011790557f62e78cea01bee320cd4e420270b5ea74000d11b0c9f74754ebdbfc544b05a25861191c3390565b6000611a6a858584611fa9565b600093845260205250506040902092915050565b61115c8282604051602401611a94929190612d90565b60408051601f198184030181529190526020810180516001600160e01b031663319af33360e01b17905261216e565b6104b781604051602401611ad79190612dba565b60408051601f198184030181529190526020810180516001600160e01b031663104c13eb60e21b17905261216e565b6000611b817f8b73c3c69bb8fe3d512ecc4cf759cc79239f7b179b0ffacaa9a75d522b39400f611b3560975490565b6098546040805160208101859052908101839052606081018290524660808201523060a082015260009060c0016040516020818303038152906040528051906020012090509392505050565b905090565b6104b781604051602401611b9a9190612dba565b60408051601f198184030181529190526020810180516001600160e01b03166305f3bfab60e11b17905261216e565b6104b781604051602401611bdf91815260200190565b60408051601f198184030181529190526020810180516001600160e01b031663f82c50f160e01b17905261216e565b60006106f9611c1b611b06565b8360405161190160f01b6020820152602281018390526042810182905260009060620160405160208183030381529060405280519060200120905092915050565b61115c8282604051602401611c72929190612dcd565b60408051601f198184030181529190526020810180516001600160e01b0316632d839cb360e21b17905261216e565b61115c8282604051602401611cb7929190612def565b60408051601f198184030181529190526020810180516001600160e01b031663c3b5563560e01b17905261216e565b60008054610100900460ff1615611d2d578160ff166001148015611d095750303b155b611d255760405162461bcd60e51b81526004016104ae90612e13565b506000919050565b60005460ff808416911610611d545760405162461bcd60e51b81526004016104ae90612e13565b506000805460ff191660ff92909216919091179055600190565b919050565b600054610100900460ff16611d9a5760405162461bcd60e51b81526004016104ae90612e61565b61115c828261218f565b600054610100900460ff16611dcb5760405162461bcd60e51b81526004016104ae90612e61565b61065f6121d0565b600054610100900460ff16611dfa5760405162461bcd60e51b81526004016104ae90612e61565b61065f612200565b611e0b42612233565b63ffffffff16816040015163ffffffff16116104b75760405162461bcd60e51b8152602060048201526005602482015264030303031360dc1b60448201526064016104ae565b60d2546040516360275cbf60e11b81526001600160a01b03858116600483015284811660248301528392169063c04eb97e90604401602060405180830381865afa158015611ea3573d6000803e3d6000fd5b505050506040513d601f19601f82011682018060405250810190611ec79190612bfb565b10156106285760405162461bcd60e51b81526020600482015260056024820152640c0c0c0ccd60da1b60448201526064016104ae565b6040516331a9108f60e11b8152600481018390526001600160a01b038083169190851690636352211e90602401602060405180830381865afa158015611f47573d6000803e3d6000fd5b505050506040513d601f19601f82011682018060405250810190611f6b9190612bde565b6001600160a01b0316146106285760405162461bcd60e51b8152602060048201526005602482015264303030323160d81b60448201526064016104ae565b600081611fd8576001600160a01b038416600090815260cb602090815260408083208684529091529020611ff1565b6001600160a01b038416600090815260cc602052604090205b949350505050565b6001600160a01b038116156104b75760405162461bcd60e51b81526020600482015260056024820152641818181a1b60d91b60448201526064016104ae565b60d1546001600160a01b0316331461065f5760405162461bcd60e51b81526004016104ae90612d1a565b60d0546001600160a01b0316331461115c57806001600160a01b0316826001600160a01b03161461115c5760405162461bcd60e51b81526004016104ae90612d1a565b603380546001600160a01b038381166001600160a01b0319831681179093556040519116919082907f8be0079c531659141344cd1fd0a4f28419497f9722a3daafe3b4186f6b6457e090600090a35050565b6040517f19457468657265756d205369676e6564204d6573736167653a0a3332000000006020820152603c8101829052600090605c01604051602081830303815290604052805190602001209050919050565b6000806000612159858561229c565b915091506121668161230a565b509392505050565b80516a636f6e736f6c652e6c6f67602083016000808483855afa5050505050565b600054610100900460ff166121b65760405162461bcd60e51b81526004016104ae90612e61565b815160209283012081519190920120609791909155609855565b600054610100900460ff166121f75760405162461bcd60e51b81526004016104ae90612e61565b61065f336120a5565b600054610100900460ff166122275760405162461bcd60e51b81526004016104ae90612e61565b6065805460ff19169055565b600063ffffffff8211156122985760405162461bcd60e51b815260206004820152602660248201527f53616665436173743a2076616c756520646f65736e27742066697420696e203360448201526532206269747360d01b60648201526084016104ae565b5090565b60008082516041036122d25760208301516040840151606085015160001a6122c6878285856124c0565b94509450505050612303565b82516040036122fb57602083015160408401516122f08683836125ad565b935093505050612303565b506000905060025b9250929050565b600081600481111561231e5761231e612eac565b036123265750565b600181600481111561233a5761233a612eac565b036123875760405162461bcd60e51b815260206004820152601860248201527f45434453413a20696e76616c6964207369676e6174757265000000000000000060448201526064016104ae565b600281600481111561239b5761239b612eac565b036123e85760405162461bcd60e51b815260206004820152601f60248201527f45434453413a20696e76616c6964207369676e6174757265206c656e6774680060448201526064016104ae565b60038160048111156123fc576123fc612eac565b036124545760405162461bcd60e51b815260206004820152602260248201527f45434453413a20696e76616c6964207369676e6174757265202773272076616c604482015261756560f01b60648201526084016104ae565b600481600481111561246857612468612eac565b036104b75760405162461bcd60e51b815260206004820152602260248201527f45434453413a20696e76616c6964207369676e6174757265202776272076616c604482015261756560f01b60648201526084016104ae565b6000807f7fffffffffffffffffffffffffffffff5d576e7357a4501ddfe92f46681b20a08311156124f757506000905060036125a4565b8460ff16601b1415801561250f57508460ff16601c14155b1561252057506000905060046125a4565b6040805160008082526020820180845289905260ff881692820192909252606081018690526080810185905260019060a0016020604051602081039080840390855afa158015612574573d6000803e3d6000fd5b5050604051601f1901519150506001600160a01b03811661259d576000600192509250506125a4565b9150600090505b94509492505050565b6000806001600160ff1b038316816125ca60ff86901c601b612ec2565b90506125d8878288856124c0565b935093505050935093915050565b634e487b7160e01b600052604160045260246000fd5b60405161018081016001600160401b038111828210171561261f5761261f6125e6565b60405290565b600082601f83011261263657600080fd5b81356001600160401b0380821115612650576126506125e6565b604051601f8301601f19908116603f01168101908282118183101715612678576126786125e6565b8160405283815286602085880101111561269157600080fd5b836020870160208301376000602085830101528094505050505092915050565b6000602082840312156126c357600080fd5b81356001600160401b038111156126d957600080fd5b611ff184828501612625565b6001600160a01b03811681146104b757600080fd5b8035611d6e816126e5565b803563ffffffff81168114611d6e57600080fd5b80358015158114611d6e57600080fd5b80356001600160801b0381168114611d6e57600080fd5b80356001600160601b0381168114611d6e57600080fd5b80356001600160401b0381168114611d6e57600080fd5b6000610180828403121561278157600080fd5b6127896125fc565b9050612794826126fa565b81526127a260208301612705565b60208201526127b360408301612705565b60408201526127c460608301612719565b60608201526127d560808301612719565b60808201526127e660a08301612719565b60a08201526127f760c083016126fa565b60c082015260e082013560e08201526101006128148184016126fa565b90820152610120612826838201612729565b90820152610140612838838201612740565b9082015261016061284a838201612757565b9082015292915050565b6000610180828403121561286757600080fd5b6106f6838361276e565b60006020828403121561288357600080fd5b813561288e816126e5565b9392505050565b6000806101a083850312156128a957600080fd5b6128b3848461276e565b91506101808301356001600160401b038111156128cf57600080fd5b6128db85828601612625565b9150509250929050565b6000602082840312156128f757600080fd5b5035919050565b6000806000806080858703121561291457600080fd5b843561291f816126e5565b9350602085013592506040850135915061293b60608601612719565b905092959194509250565b80516001600160a01b03168252602081015161296a602084018263ffffffff169052565b506040810151612982604084018263ffffffff169052565b506060810151612996606084018215159052565b5060808101516129aa608084018215159052565b5060a08101516129be60a084018215159052565b5060c08101516129d960c08401826001600160a01b03169052565b5060e081015160e0830152610100808201516129ff828501826001600160a01b03169052565b5050610120818101516001600160801b031690830152610140808201516001600160601b031690830152610160808201516001600160401b038116828501525b50505050565b61018081016106f98284612946565b60005b83811015612a6f578181015183820152602001612a57565b83811115612a3f5750506000910152565b60008251612a92818460208701612a54565b9190910192915050565b6020808252818101527f4f776e61626c653a2063616c6c6572206973206e6f7420746865206f776e6572604082015260600190565b60208082526010908201526f14185d5cd8589b194e881c185d5cd95960821b604082015260600190565b634e487b7160e01b600052601160045260246000fd5b60006001600160401b03808316818516808303821115612b3357612b33612afb565b01949350505050565b6001600160a01b038d8116825263ffffffff8d811660208401528c1660408301528a15156060830152891515608083015288151560a0830152871660c082015261018081018660e0830152612b9d6101008301876001600160a01b03169052565b6001600160801b0385166101208301526001600160601b0384166101408301526001600160401b0383166101608301529d9c50505050505050505050505050565b600060208284031215612bf057600080fd5b815161288e816126e5565b600060208284031215612c0d57600080fd5b5051919050565b6101a08101612c238285612946565b826101808301529392505050565b82546001600160a01b03811682526101a082019063ffffffff60a082901c81166020850152612c6d60408501828460c01c1663ffffffff169052565b50612c826060840160ff8360e01c1615159052565b612c966080840160ff8360e81c1615159052565b612caa60a0840160ff8360f01c1615159052565b5060018401546001600160a01b0390811660c0840152600285015460e084015260038501541661010083015260048401546001600160801b03811661012084015260801c6001600160601b03166101408301526005909301546001600160401b0316610160820152610180015290565b6020808252600590820152640c0c0c0c8d60da1b604082015260600190565b60008151808452612d51816020860160208601612a54565b601f01601f19169290920160200192915050565b60006101a0612d748386612946565b80610180840152612d8781840185612d39565b95945050505050565b604081526000612da36040830185612d39565b905060018060a01b03831660208301529392505050565b6020815260006106f66020830184612d39565b604081526000612de06040830185612d39565b90508260208301529392505050565b604081526000612e026040830185612d39565b905082151560208301529392505050565b6020808252602e908201527f496e697469616c697a61626c653a20636f6e747261637420697320616c72656160408201526d191e481a5b9a5d1a585b1a5e995960921b606082015260800190565b6020808252602b908201527f496e697469616c697a61626c653a20636f6e7472616374206973206e6f74206960408201526a6e697469616c697a696e6760a81b606082015260800190565b634e487b7160e01b600052602160045260246000fd5b60008219821115612ed557612ed5612afb565b50019056fe6b656363616b323536206f662061626920656e636f6465206a757374206f66666572206669656c6473a26469706673582212202a38f330f5f65701fe376c858e2ecfe8176523a5bc9127a4a39b515fcb2a3fb464736f6c634300080d0033",
  "linkReferences": {},
  "deployedLinkReferences": {}
}